:100000006F00407413000000130000001300000094
:100010001300000013000000130000001300000094
:100020001300000013000000130000001300000084
:08003000130000007300100032
:100038000000000000000000080300000C0300009E
:10004800000000008A060000000000000000000018
:100058008C0600008E060000000000000000000072
:10006800900600000000000092060000000000005A
:100078009406000096060000980600009A06000004
:100088009C0600009E060000A0060000A2060000D4
:10009800A4060000A6060000A8060000AA060000A4
:1000A800AC060000AE060000B0060000B206000074
:1000B800B4060000B6060000B8060000BA06000044
:1000C800BC060000BE060000C0060000C206000014
:1000D800C4060000C6060000C8060000CA060000E4
:1000E800AC2F0000CE060000D0060000D2060000AB
:1000F800D4060000D6060000D8060000DA06000084
:10010800DC060000DE060000E0060000E206000053
:10011800E4060000E6060000E8060000EA06000023
:10012800EC060000EE060000F0060000F2060000F3
:10013800F4060000F6060000F8060000FA060000C3
:10014800FC060000FE060000000700000207000091
:100158000407000006070000080700000A0700005F
:100168000C0700000E07000010070000120700002F
:100178001407000016070000180700001A070000FF
:100188001C0700001E0700002007000022070000CF
:100198002407000026070000280700002A0700009F
:1001A8002C0700002E07000030070000320700006F
:1001B8003407000036070000380700003A0700003F
:1001C8003C0700003E07000040070000420700000F
:1001D8000000000000000000000000000000000017
:1001E8000000000000000000000000000000000007
:0801F8000000000000000000FF
:10020000397101436EC619A0397141536AC866CA73
:1002100062CC5ECE19A0397101535AD056D252D455
:100220004ED64AD826DA22DC06DE330161408282CD
:1002300041114AC026C222C406C68282B24D410183
:10024000024D924C224CB24B4101024B924A224A3F
:10025000B2494101024992442244B24041018280A4
:100260003D432A876373C3029377F700BDEFADE583
:10027000937606FF3D8ABA960CC34CC30CC74CC795
:100280004107E36BD7FE11E28280B306C3408A06C2
:100290009702000096966780A6002307B700A30682
:1002A000B7002306B700A305B7002305B700A304D2
:1002B000B7002304B700A303B7002303B700A302CA
:1002C000B7002302B700A301B7002301B700A300C2
:1002D000B7002300B700828093F5F50F9396850051
:1002E000D58D93960501D58D61B79396270097021A
:1002F000000096968682E78086FA9680C1171D8F49
:100300003E96E374C3F8A5B77300203001A0EFF266
:100310003FEF797109457D2B452CEF30004D71651C
:1003200013050520EF30C05537F503001305058090
:10033000EF20F031EF30E015EF20F004EF20F02A4D
:10034000EF2070419305007D13050002EF30C04699
:10035000B7D7000083AC07AEB7D7000083A747AE7E
:100360003ECAB7D7000003AD87AEB7D7000083AD54
:1003700007AF1386C1819385A18113858181EF30F9
:10038000002C13862182938501821385E181EF3051
:10039000C026938BC182138B8182138C41825E862F
:1003A000DA856285EF20B0077DF903250B00938A7B
:1003B0002182138A0182EF60B0792A8637D5000046
:1003C000AE86130545AFEF80A0139389E1811389B1
:1003D000C1819384A1811384818103170A008396CC
:1003E00009000316090083970A008395040003158A
:1003F0000400EF30002903250C00E685EF60C06E95
:10040000EF605050B7D7000083A507AE93180501E1
:1004100003250B0093D8084146D6EF60E06CEF60EF
:10042000704E83970A0003170A008396090003168B
:100430000900D2451318050103A50B001358084104
:1004400042D43ED23AD036CE32CCEF60E069EF6093
:10045000704B0314040083940400B258225892573E
:100460000257F246624642054185A6852AC022858A
:10047000EF30002813054006EF30203D03240B0029
:10048000930500002285EF60605D63510502EA85F7
:100490002285EF604054635BA000B7D7000083A5BE
:1004A000C7AE2285EF50B06B23A8A1829305000050
:1004B0002285EF604052634A0500EE852285EF6099
:1004C000E0596344A00023A88182FD265DB5B717DB
:1004D00002409843B706FFF841111367170098C30D
:1004E000D84337060200758FD8C39843B706F7FE86
:1004F000FD16758F98C39843B706FCFFFD16758FE0
:1005000098C3D843B70681FFFD16758FD8C39843AB
:10051000B70600ECFD16758F98C33707FF0098C724
:1005200023A6070202C402C69843C166558F98C32A
:10053000B716024005679C42F18F3EC6A247850769
:100540003EC4B24781E7A247E397E7FEB7170240F0
:100550009C431397E7006357070685473EC632471B
:100560008547631FF704B7170240D843B706C1FF9A
:10057000FD16D8C3D843D8C3D84313670740D8C3A0
:10058000D843758FD8C3D843B7062900558FD8C331
:100590009843B7060001558F98C398439316670098
:1005A000E3DD06FED843B7160240719BD8C3D8439B
:1005B00013672700D8C32147DC42B18BE39EE7FED7
:1005C0004101828002C661BF371602405C42370794
:1005D00000209146B18B130787226385D700A1467F
:1005E0006388D702B7177A00938707201CC3B71711
:1005F0000240DC43918393F6F700B707002093870E
:100600000700B69794231C43B3D7D7001CC382803E
:1006100054425042C167C982BD8A7D8E93872600AD
:1006200085CABD466389D702C1466389D702C545DD
:1006300081466393B700C1470DE637460240032663
:100640000680418A15C637167A00130606202DA0AB
:100650008146C947D5B78546B547F9BF8146BD47ED
:10066000E1BF3716024050429315E600E3DD05FC7A
:1006700037163D0013060690B387C7021CC3A5DAE0
:100680001C438583A5B701A001A001A001A001A082
:1006900001A001A001A001A001A001A001A001A052
:1006A00001A001A001A001A001A001A001A001A042
:1006B00001A001A001A001A001A001A001A001A032
:1006C00001A001A001A001A001A001A001A001A022
:1006D00001A001A001A001A001A001A001A001A012
:1006E00001A001A001A001A001A001A001A001A002
:1006F00001A001A001A001A001A001A001A001A0F2
:1007000001A001A001A001A001A001A001A001A0E1
:1007100001A001A001A001A001A001A001A001A0D1
:1007200001A001A001A001A001A001A001A001A0C1
:1007300001A001A001A001A001A001A001A001A0B1
:1007400001A001A0970100209381412E1781002074
:100750001301418B17E5000013050588970500205C
:100760009385458A1386818163FAC500832205003B
:1007700023A0550011059105E3EAC5FE138581818B
:10078000938501866377B500232005001105E36D8D
:10079000B5FEFD42739002BCAD4273904280B762D9
:1007A00000009382820873A00230970200009382B7
:1007B000E28893E2320073905230EFF05FD19702FB
:1007C0000000938202B573901234730020309C4570
:1007D00013F7070113F8F70001C7D8413368E800A1
:1007E0008E2113F7F50F39C318418146854E3D4FD1
:1007F000930F800293028004214E3396DE00B3F8FB
:10080000C500631116039398260033131F01134389
:10081000F3FF3377E300B318180133E7E800639F71
:10082000F70550C98506E39AC6FD18C11307F00FF6
:100830006375B70454412146854E3D4F930F8002A6
:1008400093028004414EB398CE0033F715016392B2
:10085000E8021317260001173313EF001343F3FFC9
:10086000B376D3003317E800D98E639DF701232AAE
:1008700015010506E319C6FD54C18280E39457FAB9
:1008800010C94DB7E39757FE23281501DDB708457A
:100890006D8D3335A00082800CC982804CC9828066
:1008A000B737004088C38280B7370040C8C3828012
:1008B000B737004088C78280AD67373700409387DD
:1008C000A7AA1CC38280B567373700409387C7CC7F
:1008D0001CC3828023AAA182828093874183944390
:1008E000182181E63C21920721A894430546639F85
:1008F000C6023C21103192076314D60093E707F833
:10090000B7E600E093F7F70FBA962380F6408546E6
:10091000935757003397E6005441A5C293870704C5
:100920008A07B7E600E0B69798C382808C43894671
:100930006391D50214313C216365D6008A06B697CF
:100940005DB79386E6038A06B69793F7F70F92078B
:1009500075B790438D46631CD60014313C21636407
:10096000D6008606E9BF9386C6078606F1BF944384
:100970009147E39EF6F81C31BDB7938707064DB744
:10098000371702405C439146B18B6385D700A1467F
:100990006382D706B7177A00938707201CC13716E2
:1009A00002405C4237070020130707019183BD8B8B
:1009B000BA9794231C41B3D7D7005CC15442A1829B
:1009C0009D8ABA969422B3D6D70014C55442AD82FC
:1009D0009D8A36971823B3D7E7005CC55842398300
:1009E000937637001387418036971823B3D7E702F1
:1009F0001CC982805C435843C166C983758FB7F6B2
:100A0000FF1F83A6C670BD8B890713961601634826
:100A10000600C54601466392D702C94739A88946F0
:100A2000638FD702BD46638ED702C146638ED7025D
:100A3000C54601466393D700C1471DEF37470240C3
:100A400003270780418B05C737177A001307072054
:100A5000B307F7021CC121D61C41858381B701462B
:100A60006DBF0546B547D1BF0146BD47F9B737173A
:100A70003D0013070790E9BFB7150240D8559316FC
:100A8000F700D85563DF060411833D8B93061700EA
:100A900037177A00130707203357D70218C1D455E8
:100AA000A182BD8A8DE295463307D702058318C11E
:100AB00037170240585714413D8B050733D7E602DC
:100AC00018C1184171B785456394B600E546E9BF82
:100AD000BD456396B600D1463387E602C9BF890695
:100AE000E5BF3D8B9306170037177A0013070720E1
:100AF0003357D702F1B799C5371702401C4F5D8DA8
:100B000008CF8280B7170240984F1345F5FF798DC3
:100B100088CF828099C5371702405C4F5D8D48CFE2
:100B20008280B7170240D84F1345F5FF798DC8CFA3
:100B300082801E2137370140930607C0C207C18358
:100B40006300D504B7060040630CD50293860640C7
:100B50006308D502B7160040138606806302C502FB
:100B6000938606C0630ED50013070740630AE500AD
:100B700037570140930607C06304D5006316E500AC
:100B8000BA2193F7F7F8D98F37170040630CE500C7
:100B9000130707406308E50093F7F7CFFA21C20770
:100BA000C183D98F1EA1DE215EB59E211EB5B73748
:100BB0000140138707C0630EE50093870740630A6F
:100BC000F500B7570140138707C06304E5006314BD
:100BD000F5009C251EB985475EA982801E2189C526
:100BE00093E717001EA18280C207C183F99BC20749
:100BF000C183CDBF5E2501C6DD8D4EA5828093C524
:100C0000F5FFFD8DDDBF1E294A25ED8F420541818F
:100C100089C76D8D3335A00082800145828093C5E0
:100C2000F5FFC205C1810EA98280EFF26FE016299F
:100C3000F577FD17F58FF621DA257971D58F1EA985
:100C40005625FD779387379FF58FD6212A842EC6A8
:100C5000D58F9625D58FB625D58F5EA55E29C2077F
:100C6000C18393F7F7CFD98F5EA96808113BB747C7
:100C7000014093870780B245631AF404A2575624B3
:100C80006547B387E702C206C186984163D206046E
:100C9000060752244206B3D7E702130740064186EF
:100CA000B3D6E702B3F7E7029206635506028E0752
:100CB00093872703B3D7E70213F77700B367D7000B
:100CC000C207C1831EA445616FF0CFD8925745BFBC
:100CD0000A07C1B7920793872703B3D7E702BD8BF3
:100CE000D58FF9BF91C55E250967D98F5EA5828032
:100CF0005A25F977FD17F98FD5BF93F5F51F4EA14A
:100D000082800A216D8D3335A0008280EFF24FD2B0
:100D1000B7B7B38D4111938787AB3EC2B7A70D35E7
:100D20009387478B3EC450009307D005A545130514
:100D3000804B5C86EF10900141016FF0AFD1EFF274
:100D40002FCFB56505659306800C1306004093858B
:100D500005B0130565BFEF10B00C6FF0AFCFEFF229
:100D60002FCDF57741111387C7D49387C7907C8621
:100D70009307C00278845C871307C006937635001A
:100D80001C085885BE9683C786FF135735000D8B08
:100D90005C801C083E97834787FF100883C6C6FF08
:100DA000DC80935765008D8BB29703C687FF03479E
:100DB000C7FF83C7C7FF2A8450818D450A86130564
:100DC00060425482D8825C83EF10407809C57D551B
:100DD00041016FF02FC850008D451305A042EF1060
:100DE000E07675F59567938767637C809307600766
:100DF0005C819167938767627C82930760065C835E
:100E00009377440099C7930770035C80930770023F
:100E10005C829377040299C793077005DC8093077F
:100E20007004DC829377041099C7930770075C8184
:100E3000930770065C830A868D4513050044EF1006
:100E4000E07051F550008D4513051043EF10007010
:100E50003DFD239A8184ADBFEFF28FBD83D74185DD
:100E6000411113F737000A072A970C4313F747007D
:100E700019C3B305B04013D71700318B2A9710431D
:100E800013F7070219C33306C04013D74700318B4D
:100E90003A9593F70710184199C33307E040B7E636
:100EA000CA0293869630B387D5021305003DB395E9
:100EB000D502F9833304D7028A05CD8F91453317C4
:100EC000D7027980B304D6020A07598C13D7874119
:100ED000588613D70741D88613978700C207C18366
:100EE0003316D602F980A183D98F7C870A06D18C6C
:100EF0007000EF10A06509C57D5541016FF08FB5F9
:100F000093D784415C8693D70441DC869397840011
:100F1000C204C180A180DD8C700091451305403D65
:100F20006487EF10A06269F9935784415C869357F8
:100F30000441DC86931784004204418021805D8C4B
:100F4000700091451305803D6087EF10206075B7F4
:100F5000EFF20FAE41112A8413052100EF10400378
:100F600083D74185308113F737000A07229793F61C
:100F700047003E06184399C23307E04093D6170056
:100F8000B18AA2968C4293F6070299C2B305B0408B
:100F900093D64700B18A369493F70710084099C357
:100FA0003305A0409357F741B306C702B387C70282
:100FB000F9823337C702BA978A07DD8E93D7F54196
:100FC0003387C502B387C7027983B3B5C502AE972D
:100FD0008A079355F5415D8FB385C502B307C502F6
:100FE0003336C502F983130540292E960A06D18FA0
:100FF00013D68641508213D60641D08213968600BE
:10100000C206C182A182D18E7483935687415484D3
:1010100093560741D4849316870042074183218366
:10102000558F788513D78741588613D70741D886BF
:1010300013978700C207C183A183D98F5000B145A0
:101040007C87EF10A05041016FF0CFA0EFF24F9ED0
:101050000111B5652A843146938505AB4808EF60D8
:10106000205A9307800C63F687007D5505616FF069
:101070006F9EB3C787027000894513056021230660
:101080000100FD17DC86EF10604C65F10565500826
:10109000B145130515ACEF10604B61F9239C8184B9
:1010A000F1B79377750099E37D55828093070064CB
:1010B000E3ECB7FEEFF2CF9741112A842E85EF6063
:1010C000401CB7D7000083A5876FEF50E05FAA846C
:1010D0001305B100EF00504D9C8511476383E70E67
:1010E0006369F7000947638EE7027D5541016FF0A0
:1010F0006F9621476389E70E4147E398E7FEB7D72C
:10110000000083A547712685EF50101EEF60A005F3
:1011100013190501B7D700001359090183A5877179
:1011200015A0B7D7000083A5C76F2685EF50D01B49
:10113000EF606003B7D7000083A50770131905019E
:10114000135909012685EF50301AEF60C00142059E
:101150009317890041811359890033E927019317B7
:10116000850021815D8D2316210168879377140006
:10117000C9EF9377240085C3700089451305801D4E
:10118000EF10C03C3DF11306E100894513058012C4
:10119000EF10C03B39F91188014529D87000894505
:1011A0001305C01DEF10803A29F11306E1008945AF
:1011B0001305C012EF1080393335A0003305A0406D
:1011C00035B7B7D7000083A547702685EF50D011FB
:1011D000EF50707913190501B7D7000013590901B1
:1011E00083A5877085B7B7D7000083A5C77026850C
:1011F000EF50900FEF50307713190501B7D700006B
:101200001359090183A5077135BF7000894513057E
:10121000401DEF10A033E31A05EC1306E1008945E9
:1012200013054012EF10803229D5C1B5EFF24F807F
:1012300093771500411195EBA307010093772500E3
:1012400089C79C8793E7C700DC87118909C59C87FC
:1012500093E73700DC871306F100854513058014FA
:10126000EF10C02E41016FE0FFFE93070003DC8703
:10127000F1B7EFE2FFFB4111854719C5114793779D
:10128000F50F6373A7009147FD171306F10085451D
:101290001305F014DC87EF10602B41016FE09FFB1A
:1012A000EFE21FF995473355F5024111700089456A
:1012B0009317850021815D8D68861305E01DEF1071
:1012C000E02841016FE01FF9EFE29FF695473355A3
:1012D000F5024111700089459317850021815D8DCC
:1012E00068861305A01DEF10602641016FE09FF690
:1012F000EFE21FF49307803E3345F5024111700081
:10130000B305B5021305C01593D785415C8693D705
:101310000541DC8693978500C205C181A181DD8DE1
:101320006C879145EF10802241016FE0BFF2EFE240
:101330003FF095473355F5024111700089459317E9
:10134000850021815D8D68861305A015EF100020B2
:1013500041016FE03FF0EFE2BFED95473355F502F5
:101360004111700089459317850021815D8D688644
:1013700013058015EF10801D41016FE0BFEDEFE216
:101380003FEB411111C5EFF07F9841016FE09FECF9
:10139000B56525469385C5AB4800EF6060265000D3
:1013A000A5451305804BEF10601AC5B7EFE25FE863
:1013B000411115C1B7C7C4C69387072C05657000D6
:1013C0009145130585A93EC6EF104018EF00207D1A
:1013D00041016FE03FE8B7978B8B9387B7B8F9BFB0
:1013E000EFE21FE5411115C1B73730389387078207
:1013F0000565700091451305E5A93EC6EF1000157F
:10140000EF00E07941016FE0FFE4B7A7A3A3938762
:10141000373AF9BFEFE23FE04111B7D7E3099387CD
:1014200027A02A8450009145130580063EC2EF1084
:10143000E011930730FA5C82137A040463090A14FA
:10144000930700FCDC82F1779387872C7C831379E8
:10145000041863030914F577938747CC7C849307BA
:1014600060FC5C85930730FADC850565E977938736
:10147000373A5000A945130575AA7C869379340044
:10148000EF10C00C9307800D6384090093070002DE
:10149000056550008545130565AB5C82EF10000BB8
:1014A0009377040263810710EFF05F8663020902FD
:1014B00093770410638C070EB797B69B938727BB6F
:1014C000056550009145130525AA3EC2EF1000089E
:1014D000937714006381070E0565E1575000854539
:1014E0001305058B5C82EF1060069305A00F1D4568
:1014F0004D3E1D45253B0545AD3B130540064D338F
:101500001305401FD13337E5CA029305800C13053C
:101510009530F93B13058002193D29452D3D937700
:101520002400B337F0009387870D500085451305DD
:10153000D0735C82EF10800193774400054591E3FE
:101540000145AD3593770401054591E30145493DDA
:101550009387C18413678400BAA791259387C184B8
:1015600063160A062387070063050900F827190791
:10157000F8A7518801C4F8274107F8A76385090037
:10158000F8271107F8A7014541016FE01FCCDC8265
:10159000E9779387373A5DBDE9779387373A7C845B
:1015A000930730FA7DBD0145D93B09B7B787B490A1
:1015B0009387070B31B70565930780FD500085457C
:1015C0001305058B5C82EF00707891BF1947F8A76F
:1015D00061BFEFE27FC3938BC1842A8903C5EB000F
:1015E0007971AE89328B231007003E868A85B684D6
:1015F0003A8AEF0050245DE103D7AB002A84938A36
:10160000C18493774701638507181C80948090827A
:10161000E207C206D58F948142060C84D58F1481CF
:10162000E2058886A206D58F14822320FB00C1879D
:10163000E206D18E9083B387F7024205D18E1083E4
:101640002206D18E90842322DB00C1864206D18DF2
:101650009085B386D602D18D10852206D18D108655
:101660002324BB00C1856206498E8887BE96B38756
:10167000B502498E08872205498E2326CB00418674
:101680003306C602B697B70600F1B297B697B7060B
:10169000000263F7F600212323100A007D54EDA019
:1016A00083570A0093E707102310FA00C147937687
:1016B0000704A1C61418BE9603C606FD83C516FD11
:1016C000990722064D8E2390C90003C626FD83C5C7
:1016D00036FD93F7F70F22064D8E2391C90003C6FE
:1016E00046FD83C656FD2206D18E2392D90083562D
:1016F0000A0093E686002310DA0093760718A1C645
:101700001418BE9603C606FD83C516FD990722066A
:101710004D8E2310C90003C626FD83C536FD93F701
:10172000F70F22064D8E2311C90003C646FD83C65E
:1017300056FD2206D18E2312D90083560A0093E665
:1017400006072310DA000D8B0DCF3309F100834714
:10175000190083493900858B99CB83A70A0081CB77
:1017600093F5790013D5390085051D898297834744
:101770001900A18B99C783A74A0081C713D56900B7
:1017800082972685EF100040228545616FE05FABB0
:10179000814731BFEFE23FA8411185473704002060
:1017A0007C829307C4029843DC432A89AE84882351
:1017B0002C2BB28954000946EF10305709C57D55CE
:1017C00041016FE09FA81305800CEF20000813046F
:1017D000C40218405C40230201006C378823540087
:1017E0000546EF10905461FD18405C4054004C33A6
:1017F00088230546EF10705379F118405C4054007F
:101800002C2B88230546EF10505255F918405C40A8
:1018100054006C3B88230546EF1030514DF11840C1
:101820005C4054004C2388230546EF10105041F9CA
:10183000B1475C8218405C4054004C238823054625
:10184000EF10B04E2DFD3D45EF2020001C541840F8
:1018500054009C3705465C825C402C238823EF10A3
:10186000D04C31FD1C54184054009C2705465C8226
:101870005C400C338823EF10504B31F11C54BC27D3
:101880006384090093E7070E5C8218405C405400B3
:101890006C2388230546EF105049E31205F2E14717
:1018A000638609001C54BC3793E7070E5C8218401E
:1018B0005C4054006C3388230546EF101047E3105A
:1018C00005F0638609001305800CEF10107893076C
:1018D00000045C8218405C4054004C238823054679
:1018E000EF10B044E31D05EC930780075C821840BD
:1018F0005C4054004C3388230546EF101043E3103E
:1019000005EC13052003EF10507418405C402302CF
:1019100001004C33882354000546EF101041E310BA
:1019200005EA18405C4054002C2788230946EF1034
:101930009045E31605E8034A41009C8223240900F0
:10194000220A336AFA00B147335AFA022322090005
:101950002320090023A4040023A2040023A00400E0
:101960008149137AFA0F639A491303250900130674
:10197000300881469357F541C20793550501DD8D27
:101980004205EF20303D4E868146EF20B03C2320BB
:10199000A900032549001306300881469357F541F5
:1019A000C20793550501DD8D4205EF20B03A4E8602
:1019B0008146EF20303A2322A9000325890013062F
:1019C000300881469357F541C20793550501DD8DD7
:1019D0004205EF2030384E868146EF20B037232471
:1019E000A90088404E8681469355F54193570501DD
:1019F000139705015D8F9355F741420593F5F57FE8
:101A0000B387A500B3B5B700BA95AD83139555015B
:101A10005D8DAD85EF20103488C0C8404E8681466C
:101A20009355F54193570501139705015D8F935524
:101A3000F741420593F5F57FB387A500B3B5B7002D
:101A4000BA95AD83139555015D8DAD85EF2090302E
:101A5000C8C088444E8681469355F5419357050189
:101A6000139705015D8F9355F741420593F5F57F77
:101A7000B387A500B3B5B700BA95AD8313955501EB
:101A80005D8DAD85EF20102D88C4C1776343A00024
:101A9000C1673E9588C4014525B318405C40540099
:101AA0002C3788233146EF10102EE31A05D0188307
:101AB0009C83948422075D8F1C8490824207A20736
:101AC000D58F14824187C207A206D18E9040C206EC
:101AD000C186B29694C0D440C18790853697D8C04D
:101AE000984494878509BA9718869CC49C862207D7
:101AF00093F9F90F5D8F1C8742074187A207D58FA5
:101B00001485C207C187A206D18E03260900C2062A
:101B1000C186B2962320D900832649003697232216
:101B2000E90003278900BA972324F9002DBDEFE2CD
:101B30002FF0370400209307C40283C747024111E6
:101B40001304C4029DC311C1094518405C40C887F5
:101B50006C3788239306F1000546EF10101D0DC960
:101B6000FD573E8541016FE0EFEE3C24F5DB0DC5EE
:101B7000183881477DF78547DC875C40184093061D
:101B8000F10088236C370546EF10301AFD5771F9C4
:101B90009C871CB88147F1B7A3070100F9BFEFE2AA
:101BA0002FE9370400209307C402BC27411189E7BD
:101BB0007D5541016FE00FEA1304C40218405C40F8
:101BC000A30701006C3788239306F1000546EF1048
:101BD000D01579FD18405C409306F1004C33882302
:101BE0000546EF10901469F518405C409306F1002B
:101BF0004C2388230546EF1050135DF95C40882381
:101C00001C40CC2383474402ADCFB1479306F1007B
:101C10000546DC87EF10701141FD13052003EF101E
:101C2000D042930700FCDC873C24858B99C3815705
:101C3000DC8718405C409306F1004C23882305465E
:101C4000EF10B00E35F51C3891C38947DC8718407A
:101C50005C409306F1006C3788230546EF10F00CCA
:101C600021F918405C40A30701009306F1004C33B2
:101C700088230546EF10700B3335A0003305A040D4
:101C80000DBF91479306F1000546DC87EF10F00980
:101C9000E31005F23C281307000491E73C24858BF0
:101CA00099C313070006D8875C4018409306F100DB
:101CB00088234C230546EF105007E31B05EE130560
:101CC0002003EF1090381C3818409306F100B3370A
:101CD000F000DC875C406C3705468823EF10F00489
:101CE000E31805EC18405C409306040149B7B707B8
:101CF000002083C7470305476381E70291CB09476B
:101D00006380E7020D476380E7022310050021A0EE
:101D10009307A00F1EA1014582809307401FDDBFDE
:101D20009307803EC5BF9307007DEDB7EFE24FD02C
:101D3000370400209307C402BC27411189E77D5571
:101D400041016FE02FD19307401F1304C4026308C1
:101D5000F50463ECA7029307A00FE312F5FEA307B7
:101D600001009C87182401458D83E30BF7FC184084
:101D70005C409306F1006C2388230546EF10E07A5F
:101D80005DFD9C878D831CA465BF9307803E630B1C
:101D9000F5009307007DE314F5FAE14711A0A14790
:101DA000DC87C1B7C147EDBF370700209306C702E4
:101DB00094360546AA871307C7026384C60289CAF8
:101DC00009466382C6020D466381C6027D55828044
:101DD000894694A3383B014501C79823060798A379
:101DE00082809146FDB7A146EDB7C146DDB7EFE26F
:101DF0002FC4370400209307C402BC27411189E790
:101E00007D5541016FE00FC591471304C40263057E
:101E1000F50463EBA7028947E314F5FEA30701006D
:101E20009C87183401458D83E30DF7FC18405C4016
:101E30009306F1006C3388230546EF10006F69F1BB
:101E40009C878D831CB475BFA147630AF500C14709
:101E5000E318F5FAE14711A0A147DC87D1B7C147E4
:101E6000EDBFB707002083C777031547FD1793F72A
:101E7000F70F636AF70235678A071307C771BA97C6
:101E80009C4382879307C00B1EA101458280930764
:101E90002006DDBF9307A002C5BFD147F5B7A9470C
:101EA000E5B79547D5B723100500C5B7EFE24FB8A2
:101EB000370400209307C402BC27411189E77D55F0
:101EC00041016FE02FB99307B00B1304C40263F60E
:101ED000A7028547DC8738349C870145E302F7FE7B
:101EE00018405C409306F1002C2388230546EF1030
:101EF000C06371F59C873CB4E1B79307100663F4A7
:101F0000A7008947C1BF9307900263F4A7008D47DC
:101F1000D1B7CD4763F4A70091476DBFA54763F4E0
:101F2000A700954745BF994775B7B7070020938726
:101F3000C70203C7470209E7FE271EA101458280A9
:101F40007D558280B707002083C74703054763821A
:101F5000E70289CB09476383E7020D476385E70200
:101F60007D558280B7D7000083A707751CC1014546
:101F70008280B7D7000083A74775CDBFB7D70000D1
:101F800083A78775E5B7B7D7000083A7C775F9BFE3
:101F9000370700209306C70294360546AA87130721
:101FA000C7026384C60289CA09466384C6020D4615
:101FB0006383C6027D558280916696A3383B0145B6
:101FC00001C79A2305839AA3828089669386C6F9FE
:101FD000EDB78566DDB7856693860680F9BFEFE2CB
:101FE0008FA3370400201304C4028347440201492D
:101FF000A1E33C247D598DCF9374E50FE58F834990
:1020000004011CA8858FB337F0003309F0405C2829
:10201000C58F81CF0545EFF09FB199C8EFF03FB86C
:1020200001C9230834017D5921A00145EFF03FB0DB
:102030004A856FE08FA1EFE20F9EB70900209384DD
:10204000C90283C74402411189E77D5541016FE010
:10205000CF9FBC24FDDB9840DC40AE8A2A892C2728
:102060008823328A74000946EF10E05179FD1C86FE
:102070008086A2075D8C6375240123000A00F1B7F6
:10208000D8409389C9023E23858363F187029C402F
:10209000082374008C3B0546EF10E04E5DF51C866E
:1020A000C18B89C7EFF0BFAF79554DB703A70900C2
:1020B00083A74900D6862C3788231376F90FEF10B3
:1020C000804C41F5335424037D1423008A00BDBFA6
:1020D000EFE20F96370400209307C402BC2B411196
:1020E0006382A70C1304C4025C40AA849306F10027
:1020F00088231C400546CC23A9C8EF10C04809C559
:102100007D5541016FE00F959C8718409306F100C3
:1021100093F7F7FDDC875C404C2305468823EF10DE
:10212000C04079FD0D45EF1040728947DC87834739
:10213000240281C7930720F8DC8783473402A1CBB0
:102140009C8793E70703DC8799A0EF10C0434DF904
:102150003C249487858B13F7F60D99C313E7060289
:10216000D8875C4018409306F10088234C2305462D
:10217000EF10A03B51F50D45EF10206D8347240271
:1021800099C39307000803473402DC875DFB1840BE
:102190005C409306F1004C2B88230546EF10E03895
:1021A00025F124A80145B1BFEFE28F883704002054
:1021B0009307C40283C7370241116383A704130442
:1021C000C402814719C1930700033828DC8701C77F
:1021D00093E72700DC878347240289C79C8793E71E
:1021E00007F8DC875C401840AA8488234C2B9306B0
:1021F000F1000546EF106033FD5701E5A30194029D
:1022000081473E8541016FE0EF849307800263F5CB
:10221000A700FD573E858280EFE28F8137040020C2
:102220004111AA841304C40215E5BD3F9307007051
:102230007C8618405C4074002C2B88230946EF10E4
:10224000C02EFD5701E5230A040081473E85410168
:102250006FE04F800545893F930700025C86854704
:10226000639DF402A3060100154589319C86184040
:1022700074009A0793E77700DC865C402C2B0946B4
:102280008823EF10802AFD5771F1A1473CA48547B0
:10229000230604005CA8A1334DBF15476364970073
:1022A000DC86D9B7D14763E697008947DC862945A4
:1022B0006DBF8D47DC8651454DBFEFD27FF73704A8
:1022C00000209307C402B827411109E77D55410159
:1022D0006FD05FF803C7470275FBDC2B1304C40201
:1022E000AA8485C39307F5FFC207C1831307700251
:1022F0006367F7001375F50F093F0145C9BF014535
:1023000029371307803EA687637497009307803EA2
:1023100093960701C182114763F3E6009147C20714
:10232000C1839304803EB3C7F40218409306F100C2
:1023300005460C33FD17DC875C408823EF10E01E58
:1023400051F58887050533C5A4026AA40581EFF01D
:10235000FFB565B7EFD2DFED937705074111AA848A
:1023600081C78547DC8721A00DC9A3070100370479
:1023700000209307C4029843DC439306F1002C2B02
:10238000882305461304C402EF10201A11C923053F
:1023900004007D5541016FD0FFEB93070004D9B7CE
:1023A0009C8793F7F7FB5CA493F70404B9CFA307CA
:1023B000010093F7040289E79C8793E72700DC87F5
:1023C00093F7040189E79C8793E71700DC8793F76D
:1023D000840089E79C8793E78703DC8718405C408B
:1023E0009306F1002C3B88230546EF10001445F1BD
:1023F00093F7740F91C34D3B1305200324A4230AC4
:102400000400EF108044014571B79147DC8755B750
:10241000EFD21FE2370400204111930700F8930424
:10242000C4025C849840DC4034002C2B8823054691
:10243000EF10A00F11C57D54228541016FD09FE19F
:1024400013054006EF1060401304C40218405C40BE
:10245000230401002C2B882334000546EF10E00CE8
:1024600079F918405C4034006C2B88231946EF1032
:10247000801171F19C8698858A070607098B918BDC
:10248000D98F9884058BD98FD9C3054793F5F70F5A
:102490006394E7003CB831A089476393F506A3092C
:1024A0000400FD577EA41CA83CA8FD571CC4231A99
:1024B0000400854731468145130564015CA4EFD0D3
:1024C0003FDA85473EB0232204021305007DEFF07A
:1024D000FF8535F10945EFF09F9131FD1305A0020D
:1024E000EFF0DF9C29F913052003C13B29F5EFF03C
:1024F0001FAF31F1EFF0DFBD2A8415FDA13D2DBFE7
:1025000037D5000013050576EF50907F2DB7984022
:10251000DC4034002C3388230546EF10C006E31C52
:1025200005F01C84BD8B81EB37D500001305857841
:10253000EF60000F09B71147E393E7F637D50000C6
:102540001305457DEF60C00D8547A9B719E67D5598
:1025500082807D5541016FD0FFCFEFD27FCD370410
:1025600000201304C4023C244111E5D71357850011
:1025700093178500D98F7C865C401375F50F2E95D7
:10258000BA27E348A7FC1840AE8488230C2F328971
:1025900074000946EF0070794DFD18405C40CA8612
:1025A0004C3B882313F6F40FEF0030783335A0004E
:1025B0003305A04045B719E67D5582807D55410120
:1025C0006FD05FC9EFD2DFC6370400201304C40206
:1025D0003C244111E5D71357850093178500D98F07
:1025E0007C865C401375F50F2E95BA27E348A7FC4F
:1025F0001840AE8488230C2F328974000946EF00FE
:10260000D0724DFD18405C40CA864C3B882313F6BF
:10261000F40FEF0050773335A0003305A04045B7E5
:10262000EFD29FBEB70400209387C40283C757022E
:10263000011189C77D5505616FD09FC0E5DDC16B74
:102640009384C402368B32892E8AAA890144C14CF4
:10265000FD1B6369340313168900984013598900E0
:10266000DC4033692601231621012C2F88237400B6
:102670000946EF00906B5DFD8547A382F40223932A
:10268000640355BFB38A894063D35C01C14A139C7C
:102690000A01135C0C01330D8A006A86E2852285EB
:1026A000753549F91008E2852285313741F533F651
:1026B0007A010C086A85EF40707209E56294420461
:1026C000418041BF795585BFEFD29FB637040020C6
:1026D0001304C4020347440241116303A70429C53C
:1026E000834754027D5595CF0145EFF04FC4014516
:1026F000EFF01F9E6A30EFF05FBC5C40A307010063
:102700009306F1008823054693053002EF00F0613F
:10271000854705452302F402EFF06FC1EFF02FC8A3
:10272000014541016FD01FB3EFF06FC01C28930625
:10273000F1000546DC875C40930530028823EF00FA
:10274000D05E23020402D9BFEFD29FAB3704002032
:102750009307C40203CA47025971AA8AAE8B1304B5
:10276000C40263050A0001458537054A1305E103E4
:10277000EFF0EFD71305D103EFF00FE313052104BA
:10278000EFF02FEE8800EFF04FFA1C280146DE85AF
:102790005685034DA4003EC6EFE0DFFF6318051821
:1027A0000546AC08E800EFE0FFFE631E051C5C4038
:1027B000B40011468823B545EF00F05C630C051C9E
:1027C000B7E700003EC8B7E7000083A7C780A408AA
:1027D000130B41063ECAB7E7000083A70781814972
:1027E00001493ECCB7E7000083A74780054C3ECEA9
:1027F000B707008093C7F7FF3ED0B7E7000083AD6F
:10280000878093172900DE9788409C43898F13D5D2
:10281000F741A98F3385A740EF40501AB7E7000072
:1028200083A50780EF40402C03270B00AA8C93055B
:1028300000003A853AD2EF4040146304051E125757
:102840006685BA85EF305068F245EF4020538257D5
:10285000EE857D8DEF4020186356A000B3172C0144
:10286000B3E9F90005098D479104110BE31BF9F851
:1028700093F7F90FBE8C5C40D4100D468823B54504
:102880009D44EF005050631A051E834761060357AD
:1028900041068966FD8B2303F106C2479386F6F154
:1028A000758F83A70780370B00802312E1063EC88F
:1028B000B7D7000083A747AE9309C10481443ECA3D
:1028C000B7E7000083A787810149854B3ECCB7D786
:1028D000000083A7477F134BFBFF3ECEB7E7000006
:1028E00083A747813ED0B7E7000083A747803ED249
:1028F000B7E7000083AD878093172900D69703A51B
:1029000009009C43898F13D5F741A98F3385A740D0
:10291000EF40D00AC245EF40201DDC10338727016D
:102920001C232A8C63840716724521AA0146DE8582
:102930005685EFE03FE6E30505E68144FD57035584
:10294000E1037EA41CA8FD571CC485475CA4EFF0DE
:10295000EFBD0345D103EFF08FC903552104EFF01C
:10296000EFD403550104EFF05F956A85EFF09F9E69
:102970003245EFF0CFE663040A000545B133268502
:1029800065616FD0BF8B0546AC08E800EFE09FE0C3
:102990004DF531BD8346B1040347810493094104D9
:1029A00093D746400D878D8B718B5D8F2302E10499
:1029B0000347910493D726408D8B0D87718B5D8FD4
:1029C0008347A1048D8AA302E1048D87F18BD58F03
:1029D0002303F104B7D7000003AC877FB7D700000B
:1029E00083ADC77FC410130B010703C90900631A25
:1029F0000900930700009CC091048509E3179BFE22
:102A0000C1B323A084017D191379F90F631509005F
:102A100023800900D5B78840EE85EF40E00C88C0E0
:102A2000DDB7D2456685EF406003E34905E2E24544
:102A300066850DB582553AD63ED4EF40E00AA257DE
:102A40003257FD1793F7F70FF5F7AA852300070014
:102A50006285EF3070479255EF404032EE85337516
:102A60006501EF3050776355A000B3972B01DD8CE3
:102A700005098D479109E311F9E893F4F40F93B434
:102A80001400E39D0CEA93E424004DBDD245EF30E1
:102A9000F07CE34C05FCE2456285E1B7EFD24FF9EB
:102AA00001114C082800EFF03FCA0D478547631914
:102AB000E5064800EFF00FC922451244EF400070D0
:102AC000A285EF406002EF40E0632AC43245EF4048
:102AD000E06EA285EF404001EF40C0622AC6424549
:102AE000EF40C06DA285EF402000EF40A0612AC8F2
:102AF0002800EFE06FB613052100EFF06FC93881B1
:102B0000D2474808B387E7023ECAE247B387E702E5
:102B10003ECCF247B387E7023ECEEFE06FC381477A
:102B20003E8505616FD00FF30307050081476343BE
:102B3000E002914705E3030715008547634CE00079
:102B4000954709EB0307250089476345E000933764
:102B5000170099073E858280EFD28FEDAA84E9376E
:102B60002A8913853400C9372A84138564006D3F90
:102B7000931734001A055D8D3365250142054181A7
:102B80006FD04FED8280EFD2AFEAEFF07F88A94798
:102B900041E513058007EFF0EFFB1375F50F85474F
:102BA00025ED13058007EFF08FC31375F50F8947E7
:102BB00025E513054006EFF04FF01375F50F8D472F
:102BC00021EDEFE0CF971375F50F914731E537050C
:102BD0000020130505024937EFE06F981375F50FD4
:102BE00095471DE913053017EFE0DF821375F50FE8
:102BF00099471DE113054006EFE04FC51375F50F2A
:102C00009D4719E9613DA14701E90545EFF0DFABBB
:102C10009377F50F91C3A5473E856FD0AFE3EFD211
:102C2000AFDE3971AA8B2E8BB28A930791011307FD
:102C3000A101740810182C100810EFE09F9963147C
:102C4000051ABC85094593F70710638B0718425591
:102C5000B7D90000EF40805683A50974EF30D068E3
:102C60002A895255EF40805583A50974EF30D0670B
:102C7000AA846255EF40805483A50974EF30D06672
:102C80002A847255EF40805383A50974EF30D065D4
:102C9000B7D7000083A54774AA892685EF30D06492
:102CA000AA8CCA854A85EF30806B2A8CCE856685D2
:102CB000EF3090632A8AA2856285EF30F062AA85A0
:102CC0005285EF30C069EF40A068EF00504737DA17
:102CD000000003268A748326CA74EF20101EEF407A
:102CE000E07123A0AB00A2852285EF304067AA8B5C
:102CF000A6856685EF30505FA285AA8C5E85EF3091
:102D0000B05EAA856685EF406007B7E7000083A53F
:102D10004780EF30C064EF40A0632AC42EC65E85B2
:102D2000CE85EF30705CAA8BA6856285EF30D05BD4
:102D3000AA855E85EF30A062EF4080612246B246F0
:102D4000EF00D04B03268A748326CA74EF20F01656
:102D5000EF40C06A2320AB00CA854A85EF30D058C7
:102D60002A8BA6852685EF303058AA855A85EF3004
:102D7000005F2A8BA2852285EF301057AA855A85DD
:102D8000EF30D07F2A8BCE854E85EF30F055AA8567
:102D90005A85EF30B07EEF40A05B2AC42EC6268550
:102DA000A285EF3070542A84CE854A85EF30D05307
:102DB000AA852285EF30A05AAA85EF30405AEF400D
:102DC00020592246B246EF00704303268A748326B8
:102DD000CA74EF20900EEF40606223A0AA00014564
:102DE00021616FD0EFC50545E5BFEFD26FC401117A
:102DF000854537050200EFD0FFD185451145EFD05D
:102E00009FCF91477C8237150140E1473EC64C0079
:102E10008D47130505803EC4EFD07F9BF167374493
:102E20000040938707203EC80C08B7070800130529
:102E300004403ECC02CA231E0100EFD01FDF8545AF
:102E400013050440EFD01FEA05616FD0AFC0EFD289
:102E50002FBE01112A8485454145EFD0DFC9854544
:102E600037050800EFD01FCBE1473EC6930700406F
:102E70007C824C008D47371501403EC4EFD03F9512
:102E800022C837540040B70708000C08130504C0D7
:102E90003ECC02CA231E0100EFD03FD98545130561
:102EA00004C0EFD03FE405616FD0CFBAEFD24FB886
:102EB00037540040AA84130904C0930500044A85CE
:102EC000EFD03FE47DD9A685130504C0EFD0FFE223
:102ED0006FD04FB8F14763EFC706EFD26FB501115E
:102EE0001C109304360033879700230007FE9307D6
:102EF00080F85C80C88050818A86814713F5F70F7F
:102F00008506636CC50081470906635EF6000144CF
:102F100063D9840205616FD0EFB33385F5000821D2
:102F20008507A8A2E1BF1410B385F60083C505FE8E
:102F3000834607FE850793F7F70FAE962300D7FE6B
:102F4000E9B71C10A29703C507FE05041374F40F1C
:102F5000B13F7DBF8280EFD2AFAD01118545054500
:102F6000EFD05FBB89671387F7574C089387F770DB
:102F7000370500403ACA3ECCEFD0BFBB0546854579
:102F800037050040EFD01FC79307C0027C868D47EE
:102F90005C87680085473EC8EFD03F94854537057C
:102FA0000040EFD0BFC305616FD0CFAA4111854566
:102FB0003705004022C626C44AC2EFD0DFC425C56B
:102FC00083A4018383A5C18326851384C183EF3045
:102FD000F05AEF4020139357F5413D8D1D8DEF4082
:102FE000E01D23ACA182B7E7000083A507862A89EC
:102FF000EF30701E6353A002B7E7000083A5478639
:103000004A85EF30B025635A0500374500409305E7
:10301000A00A13050540EFD05FCE85453705004077
:1030200004C0EFD0DFBF3244A24412494101730013
:103030002030EFD2EF9F411185452145EFD0BFAB46
:103040009307000C371401407C82D1473EC64C00E8
:103050008D47130504C03EC4EFD06FF79305000CF5
:10306000130504C0EFD05F8341016FD0AF9EEFD254
:103070002F9CB717014003A707C0B7060030138481
:1030800007C01207118323A0E7C003A707C022854A
:1030900093050008558F23A0E7C0EFD0EFFF9305FD
:1030A00000042285EFD04FFF0945EF00A07693057D
:1030B00000082285EFD08FFE0945EF00A07593052B
:1030C00000042285EFD08FFD6FD0CF98EFD24F96BE
:1030D000B717014003A707C0B7060030138407C025
:1030E0001207118323A0E7C003A707C02285930519
:1030F0000004558F23A0E7C0EFD04FFA93050008D6
:103100002285EFD0AFF90945EF00C0702285930505
:103110000004EFD06FF8930500082285EFD0CFF7B9
:103120000945EF00206F6FD0EF92EFD26F90371408
:103130000140130504C093050004EFD02FF6832748
:1031400004C037070030930404C092079183232002
:10315000F4C0832704C0930500082685D98F232057
:10316000F4C0EFD0AFF30945EF00C06A9305000447
:103170002685EFD06FF20945EF00C0699305000482
:103180002685EFD0AFF16FD0EF8CEFD26F8A371476
:103190000140130504C093050004EFD02FF08327EE
:1031A00004C037070030930404C0920791832320A2
:1031B000F4C0832704C0930500082685D98F2320F7
:1031C000F4C0EFD06FED0945EF00C0649305000433
:1031D0002685EFD06FEC0945EF00C063930500042E
:1031E0002685EFD0AFEB6FD0EF86EFD26F84B717A5
:1031F000014003A707C0B7060080138407C0120769
:10320000118323A0E7C003A707C093050008228508
:10321000558F23A0E7C0EFD02FE80945E52B930594
:1032200000042285EFD04FE70945ED239304B00F4A
:10323000930500082285EFD08FE519E93715014085
:10324000130505C093050004EFD04FE5014501A823
:10325000FD1493F4F40FE9FCEFF05FE705456FC050
:103260007FFFEFC2FFFCB717014003A707C0B706F7
:103270000030138407C01207118323A0E7C003A7FF
:1032800007C02A8993050004558F23A0E7C0228533
:10329000EFD0CFE0A14493178901E187930500089F
:1032A000228563DB0702EFD02FDF93050004228520
:1032B000EFD08FDE0945B92B930500042285EFD0AE
:1032C000EFDDFD140609094593F4F40F1379F90FA6
:1032D0009123F1F06FC01FF8EFD04FDCF9B7EFC2C8
:1032E0009FF3AA8937150140832705C0370700805F
:1032F0002149920791832320F5C0832705C001440B
:10330000930405C0D98F2320F5C0930500042685BA
:10331000EFD0CFD80945FD29930500042685EFD0CD
:10332000AFD706049305000826851374F40FEFD079
:103330000FD601C505041374F40F7D1909451379DF
:10334000F90FC929E31309FC63970900EFF0FFE3C4
:1033500022856FC09FEFEFF05FDDDDBFEFC25FED55
:103360004111AA842E84EFF09FD01305000DEFF0D9
:103370005FEFEFF09FE719C5EFF05FD5054541011D
:103380006FC05FED2685EFF0DFEDEFF01FE62285E1
:10339000EFF03FEDEFF07FE52AC679FDEFF01FD3A8
:1033A0003245F1BFEFC2DFE89315350093F5850F85
:1033B0006D45EFF0BFFA6FC0FFE9EFC27FE79315ED
:1033C000350093F5850F7145EFF05FF96FC09FE809
:1033D000EFC21FE69307B00B854563E0A702930792
:1033E0009002894563EBA700CD47914563E7A700AD
:1033F000A547954563E3A70099456945EFF01FF69A
:103400006FC05FE5EFC2DFE2114791476363E500FC
:10341000AA873E851317050141839307803E63F415
:10342000E7001305803E1314050141809305803E9B
:10343000B3C585026545FD1593F5F50FEFF01FF255
:1034400013551400EFF0DFF86FC0DFE0EFC25FDE6E
:1034500041112A84EFF0BFC11305000DEFF07FE0AA
:10346000EFF0BFD82285EFF0DFDFEFF01FD8EFF0ED
:103470001FC01305100DEFF0DFDEEFF01FD7014581
:10348000EFF0FFE52AC6EFF07FC4324541016FC07F
:103490007FDCEFC2FFD9EFF0DFB993050008130519
:1034A000B006EFF0BFEB1305400645268145130536
:1034B000B006EFF0BFEA0D45EFF0DFEE0145EFF0AB
:1034C000DFEF13052003EFF0FFF3814513058003C1
:1034D000EFF0DFE881451305A006EFF03FE88145F6
:1034E00013053002EFF09FE7930500081305700302
:1034F000EFF0DFE613055007EFF05FF513078006E6
:1035000085476311E50285451305B006EFF01FE519
:1035100081451305C006EFF07FE413052003EFF0AB
:103520007FEE81473E856FC0FFD2EFC27FD0411151
:103530002EC4328936842AC6EFF07FB332450605A1
:103540001375E50FEFF0FFD1EFF03FCAA24501C9B7
:10355000EFF0DFB78544268541016FC0BFCFAA8455
:103560002E85EFF01FD0EFF05FC82299631524017C
:10357000EFF0DFB5CDB708200504EFF09FCEEFF0F8
:10358000DFC66DD5F1B7EFC2BFCA4111AA842EC6FE
:10359000328436898604EFF09FAD13F5E40FEFF027
:1035A0005FCCEFF09FC4B24501C9EFF03FB20544D4
:1035B000228541016FC01FCA2E85EFF09FCAEFF030
:1035C000DFC2EFF0DFAA13E514001375F50FEFF07B
:1035D0005FC9EFF09FC1854401E4EFF03FAFC9BF81
:1035E0000145630394000545EFF07FCF7D14230070
:1035F000A9001374F40F0509C5B7EFC27FC34111C9
:103600002A89AE84328434001946930530041305A8
:103610008006EFF05FF70DE11C849884A207D98F34
:103620002310F9001C859885A207D98F9EA01C86BF
:103630009886A207D98F1EA041016FC0BFC1EFC2FB
:103640003FBF41112A89AE84328434001946930564
:10365000B00313058006EFF01FF30DE11C8498847E
:10366000A207D98F2310F9001C859885A207D98F4E
:103670009EA01C869886A207D98F1EA041016FC00C
:103680007FBDEFC2FFBA1318850042054181218139
:1036900041113365A800688213958500C205C18178
:1036A000A181C98D6C8393158600420641822182D7
:1036B0004D8E708413968600C206C182A182D18E7F
:1036C000748593168700420741832183558F78863E
:1036D00013978700C207C183A183D98F4C0031465D
:1036E0001305100A7C87EFF0EFFE41016FC09FB613
:1036F000EFC21FB4011103130103014EF14E130F6A
:103700004100729F23000F00050EE31ADEFF131E17
:1037100085004205418121813365AE0068821395A1
:103720008500C205C181A181C98D6C839315860076
:103730004206418221824D8E708413968600C20615
:10374000C182A182D18E748593168700420741837E
:103750002183558F788613978700C207C183A18381
:10376000D98F7C8793178800420813580801135893
:10377000880033E8070193978800C20893D80801AE
:1037800093D88800B3E817019317830042031353BB
:1037900003011353830033E367004C0071461305A4
:1037A000F00A231B0101231C1101231D6100EFF00E
:1037B0006FF205616FC01FAAEFC29FA72A8415652B
:1037C0004111130555552EC6EFD08F8D1375F40F8B
:1037D000EFD08F8DB2452E85EFD08F8DEFD0CF8D6E
:1037E000EFD06F8E41016FC0FFA6B707002083A7FF
:1037F000872237177A0013070720B3D7E70293F71A
:10380000F70F2381F1841307803EB387E7022390EB
:10381000F1848280B7F700E0D8438146799BD8C312
:1038200003C721843306A70290CBD4CB98431367F8
:10383000070198C398431367170298C3D843058BB1
:1038400075DF9843799B98C38280B7F700E0D8432F
:103850008146799BD8C303D701843306A70290CB56
:10386000D4CB98431367070198C398431367170293
:1038700098C3D843058B75DF9843799B98C38280A2
:10388000EFC21F9B2A841165011185451105EFD0F8
:103890008FA6930700207C82371501408D473EC4D8
:1038A0004C00E147130505803EC6EFC05FF222C819
:1038B00037440140B70708000C08130504803ECCCC
:1038C00002CA231E0100EFD04FB6854513050480C0
:1038D000EFD04FC105616FC0FF97EFC2DF93B744D0
:1038E0000140AE89328901449384048063452401F8
:1038F0004A856FC09F95930500042685EFD06FC061
:103900007DD9B38789008385070026850504C20514
:10391000C181EFD08FBED9BF138781801C439386AE
:1039200001863E95636BD500B7860020938606809E
:1039300063E5A60008C33E858280FD57EDBF5D713B
:10394000A2C4A6C2CAC04EDE52DC86C6138AC1809B
:103950002A84AE846D2003270A00FD572A89AE8988
:103960006307F7022286A6862285A685EF205014DB
:1039700019ED2285A685EF00703C97A7000093877C
:10398000E7EE9043D443EF107048634CA000B6407C
:1039900026444A85CE8596440649F259625A6161A9
:1039A000828085473EC417A500001305A5E497A7AC
:1039B0000000938727EC3EC602D422CC26CE22C834
:1039C00026CAEF00503803270A002AD02ED2894792
:1039D000630BF7002800EF00D03611C5A25791EB1A
:1039E000025992596DB7EF30F03E930710021CC197
:1039F000F5B7EF30303EA2571CC1DDB7A5A1397134
:103A00004AD81399150022DC26DA06DE4ED652D4A7
:103A100056D25AD05ECE62CC66CA6AC86EC61359F8
:103A20001900B707F03F2E84AA84634DF9063309C5
:103A3000F9403369A900630B09022A86AE86EF209C
:103A400040132A86AE86EF102061AA84F250625499
:103A500026854259D254B259225A925A025BF24BED
:103A6000624CD24C424DB24D2161828097A700003A
:103A70009387C7E09043D443EF10304497A70000EA
:103A8000938747E09043D4432A89AE892685A2854F
:103A9000EF10B0422A86AE864A85CE85EF00D06808
:103AA000AA846DB7B707E03FAE8917AB0000130BD0
:103AB000EBDB635AF902B707403E6353F92897A737
:103AC00000009387A7DC9043D44317AB0000130B8F
:103AD000EBD9EF00706503260B0083264B00EF1037
:103AE000F032634DA0242685A285EF0030252A867A
:103AF000AE8603250B0083254B00EF20800797A798
:103B00000000938727DE9043D443EF10103B97A724
:103B10000000938727D89043D4432A84AE84EF10C3
:103B2000D03997A70000938767D79043D443EF001D
:103B3000B05F2286A686EF10503897A700009387C3
:103B400067D69043D443EF20C0022286A686EF10AA
:103B5000D03697A70000938767D59043D443EF00F2
:103B6000B05C2286A686EF10503597A70000938799
:103B700067D49043D443EF10D07F2286A686EF10FF
:103B8000D03397A70000938767D39043D443EF00C7
:103B9000B0592286A686EF10503297A7000093876F
:103BA00067D2D44390432A8AAE8A2285A685EF1035
:103BB000D03097A70000938767D19043D443EF108C
:103BC000507B2286A686EF10502F97A70000938780
:103BD00067D09043D443EF0030552286A686EF107D
:103BE000D02D97A70000938767CF9043D443EF1061
:103BF00050782286A686EF10502C03260B008326D1
:103C00004B00EF0070522A8BAE8B2285A6851529BA
:103C1000B737EF3F93872733AA8C2E8C63DD2705B8
:103C20005A86DE865285D685EF1000436686E28688
:103C3000EF10B0286686E286EF00104F2A86AE8627
:103C4000EF00904E97A700009387C7C39043D443DB
:103C5000EF10307297A70000938747C22A86AE867E
:103C60008843CC43EF10F070AA84E34130DFB707FC
:103C70000080BD8DE1BB2A86AE86EF00F04A5A86F1
:103C8000DE862A8DAE8D5285D685EF10E03C2A86E1
:103C9000AE866A85EE85EF105022014A2A8BAE8BE4
:103CA0005286E2865285E285EF1030212A86AE8662
:103CB0002285A685EF10F06B2A84AE845286E286B8
:103CC0006685E285EF0050462A86AE862285A68567
:103CD000EF1080382A86AE86EF00104597A70000C7
:103CE000938747BA2A86AE868843CC4317A4000040
:103CF0001304C4BFEF10F0672A86AE865A85DE85AE
:103D0000EF1030672A8BAE8B5286E2865285E285B1
:103D1000EF0090412A86AE8608404C40EF10706557
:103D20002A86AE865A85DE85EF10B0642A86AE8676
:103D300008404C40EF10F063AA8405BFA28539B358
:103D40002A86AE86EF10701797A70000938787B476
:103D50009043D4432A89AE89EF10301697A700000C
:103D60009387C7B39043D443EF00103C4A86CE8676
:103D7000EF10B01497A700009387C7B29043D443C5
:103D8000EF10305F4A86CE86EF10301397A7000001
:103D90009387C7B19043D443EF0010394A86CE864B
:103DA000EF10B01197A700009387C7B09043D4439A
:103DB000EF10305C4A86CE86EF10301097A70000D7
:103DC0009387C7AF9043D443EF0010364A86CE8620
:103DD000EF10B00E97A700009387C7AE9043D4436F
:103DE0002A8AAE8A4A85CE85EF10300D97A700004B
:103DF0009387C7AD9043D443EF10B0574A86CE8621
:103E0000EF10B00B97A700009387C7AC9043D44343
:103E1000EF0090314A86CE86EF10300A97A7000057
:103E20009387C7AB9043D443EF10B0544A86CE86F5
:103E3000EF10B00897A70000938747A39043D4439F
:103E4000EF00902E2A86AE865285D685EF10C020D0
:103E50002686A286EF1070062686A286EF00D02C5A
:103E6000AA84EDB6B307C040370700801347F7FFB9
:103E7000D18F4111337ED700FD8306C622C4B3E73C
:103E8000C7013703F07FAA882E886367F304B3075E
:103E9000A040C98F6D8FFD83D98F2E8F636EF30283
:103EA000B70710C0B697D18FE1C713D4E641937519
:103EB0002400B367A7001354F8014D8C85EB8947A4
:103EC000630CF40A8D476310F40A97A700009387E8
:103ED000E7A28843CC4339A03285B6854686C286A0
:103EE000EF009024B240224441018280B367CE00AB
:103EF000B5C363016E0A630F67043307C741518777
:103F00009307C00363C1E70863D80600930740FC2A
:103F1000014581456348F7004685C285EF10C0130F
:103F2000312DDD2C8547630FF40A89476309F408B6
:103F300055D897A700009387679F9043D443EF100D
:103F4000504397A700009387E79A9043D443EF101C
:103F5000504249BF634E0F0497A700009387079212
:103F60008843CC4341B7B2402244C285410182809C
:103F70002244B24041014DA497A700009387879740
:103F80008843CC4385B797A700009387278F884342
:103F9000CC4349BF8947630BC705E30FF4FC8D474A
:103FA000E305F4F285476302F406014581451DBF30
:103FB00097A70000938787958843CC4325B797A799
:103FC00000009387A7969043D443EF10903A97A7A9
:103FD0000000938727922A86AE868843CC43EF1051
:103FE000503909B7B7070080BD8DEDBD6304F404F7
:103FF0008D47630AF40285476300F40297A7000027
:104000009387C78E8843CC43F1BD97A70000938761
:10401000678F8843CC43F9B597A7000093878790B3
:104020008843CC43C1B597A700009387278F884367
:10403000CC434DBD97A700009387C78D8843CC43E1
:1040400055B541113707F07F22C426C206C6337822
:10405000B7002E84AA84630DE816AE87AA86635F34
:10406000B00E13DE454163010E1A37071000130628
:10407000F7FFF18FD98F130E1EC013971700137619
:104080001E0093D7F601BA971397160011C67D83C9
:104090008607BA9713972600135E1E40D945814EB6
:1040A0008146370620003385C6001358F701FD15F9
:1040B00063C6A700898FB306C500B29E8607C29764
:1040C00006070582EDF1130500020143814837061A
:1040D000008019A86385D70E9355F70186077D15D3
:1040E000AE97060705820DC9B3051601E3D4F6FEA7
:1040F000B388C500368863CE050A958FB336B700FE
:10410000958F0D8F9355F70186077D153293C286E3
:10411000AE970607058269F9D98F9354130089CBAE
:1041200093041300FD5785806314F300850E8144CA
:1041300013D71E403704E03F93FE1E003A94638578
:104140000E00B7070080DD8C13174E012297B24096
:1041500022442685BA859244410182801397150036
:1041600005833368A7002E87E30308FED9E193D5C2
:10417000B600AD172E87D606FDD913D6450141EA04
:10418000014611A02A8606079315B70013051600ED
:10419000E3DA05FE930800023688B388A840BA85A2
:1041A000B396A60033571801338EC740B367B700E4
:1041B0006DBD13C8F8FF1358F80136983DBFE36D85
:1041C000B7F0B388C500E3C605FE3E88814715BF3A
:1041D0002A86AE86EF10604E2686A286EF00C07457
:1041E000B2402244AA842E872685BA859244410192
:1041F00082802A86AE86EF10D0172A86AE86EF0020
:10420000B065AA842E87A1B72E87814795BF3688CF
:10421000930800027D5679B779714AD01399150039
:1042200022D426D256CA06D64ECE52CC5AC85EC624
:1042300013591900B70710442E84AA84AE8A634626
:10424000F904B707F07F63CE2701630BF9006353CE
:10425000501F97970000938767628443C04309A863
:104260007DD526862685A286A2857D2DAA842E84CC
:10427000A285B2502254268502599254F249624ACC
:10428000D24A424BB24B45618280B707DC3F635153
:10429000F91CB707203E634DF9167D5A2686A28683
:1042A0002685A285EF1060412A86AE862A8BAE8BCA
:1042B000EF10A04097970000938747699043D4433D
:1042C0002A89AE89EF10603F97970000938787682F
:1042D0009043D443912D4A86CE86EF10003E9797A7
:1042E00000009387A7679043D4433D2D4A86CE862E
:1042F000EF10A03C979700009387C7669043D44384
:1043000025254A86CE86EF10403B9797000093877D
:10431000E7659043D443092D4A86CE86EF10E039F5
:1043200097970000938707659043D443F52B5A86EF
:10433000DE86EF10803897970000938727649043BC
:10434000D4432A8BAE8B4A85CE85EF1000379797E2
:104350000000938727639043D443EF1090014A866F
:10436000CE86EF10803597970000938727629043A1
:10437000D443EF1010004A86CE86EF100034979792
:104380000000938727619043D443EF10807E4A86D4
:10439000CE86EF1080329797000093872760904376
:1043A000D443EF10007D4A86CE86EF1000312A8676
:1043B000AE865A85DE858D2B2686A286EF10E02FED
:1043C000FD572A86AE86630EFA060E0A97970000FE
:1043D0009387475FD2979043D44397970000938782
:1043E000675C3E9AEF10E0782686A286EF10607830
:1043F0002A86AE8603250A0083254A00EF106077DF
:10440000AA842E84E3D60AE6370400802D8C8DB56D
:1044100097970000938787479043D443312397971A
:1044200000009387A7449043D443EF10201EE35627
:10443000A0E63DBD979700009387474D8443C04356
:1044400005BD2685A285EF10C072AA842E840DB505
:10445000F520B707F33F2A84AE846356F904B70703
:10446000E63F6359F90A2A86AE867D2997970000B0
:104470009387C73F9043D443014AEF10806F9797CB
:1044800000009387274B9043D4432A89AE89228525
:10449000A68559292A86AE864A85CE85EF00D03B6F
:1044A000AA842E84E5BBB78703406357F9041799A4
:1044B00000001309A9480326090083264900094A78
:1044C000EF10206B03260900832649002A8BAE8B50
:1044D0002285A685EF10601E979700009387073905
:1044E0009043D44391212A86AE865A85DE85EF001B
:1044F000B036AA842E845DB39797000093878744D3
:104500008843CC432286A686EF0010350D4AAA8444
:104510002E8469B317990000130949350326090051
:1045200083264900054AEF10C0642A8BAE8B032610
:104530000900832649002285A6856DB786058581F9
:10454000828001458280979700009387A74988431E
:10455000CC438280014863C5050E63DB0600330649
:10456000C040B337C000B306D0401348F8FF9D8E5B
:10457000B6873283AA8EAE88639F061663FBC50C8E
:104580004167636FE61CB70700016363F636935615
:104590008601E147179700001307475936971823FC
:1045A000BA97130700021D8F19CBB395E500B357D7
:1045B000F5003313E600B3E8B700B31EE500135669
:1045C0000301B3D7C80293160301C18213D70E01AA
:1045D000B3F5C8023385F602C205B3E8E50063FA15
:1045E000A8009A981387F7FF63E4680063E8A8328D
:1045F000BA87B388A840B3D5C802C20E93DE0E01B5
:10460000B3F8C802B386B602C208B3E8D80163FBA8
:10461000D8009A981387F5FF63E56800F91563E3FE
:10462000D800BA85139507014D8D814563090800AF
:104630003305A040B337A000B305B0409D8D828004
:104640003305A040B337A000B305B0409D8D7D5821
:1046500029B701E605433353D30241676369E30E8B
:10466000B7070001636AF32893568301E147179760
:1046700000001307A74B36971823BA9713070002B9
:104680001D8F65EB93180301B3866540135F03012B
:1046900093D80801854513D70E01B3D7E603B3F6C7
:1046A000E60333861703C206558F637AC7001A974D
:1046B0009386F7FF636467006365C726B687118F2B
:1046C000B356E703C20E93DE0E013377E703B388D8
:1046D000160342073367D701637B17011A971386C6
:1046E000F6FF63656700F91663631701B2861395D9
:1046F0000701558D25BF63E1D504C16763E1F60469
:10470000B707000163E2F61E93D8860161479797C9
:1047100000009387A741C69703C3070093070002D1
:104720003A93B3876740E9EB63ECB61C3335C500B9
:10473000134515008145DDBD81450145C5BD930784
:10474000F00F63F2D71C93D886002147C9B713072F
:10475000F00F9A86E37D67F093568300A14701BF6F
:104760001307F00FB286E377C7E293568600A1479E
:1047700015B53313E30033D6F500135F0301335E41
:10478000E603B396E500B357F500DD8E93180301F9
:1047900093D80801B31EE50093D50601B377E6036D
:1047A0003387C803C207CD8F63FBE7009A971306D0
:1047B000FEFF63E3671663F1E716791E9A97998FF8
:1047C00033D6E703139706014183B3F7E703338535
:1047D000C80293960701D98E63FBA6009A969307A9
:1047E000F6FF63E7661263F5A61279169A9693159B
:1047F0000E01898ED18D45B533576600B396F6000C
:10480000D98EB3D8650013DF0601B3DEE803139E2B
:10481000060133536500135E0E01B395F500B365D1
:10482000B30013D705013316F600B3F8E8033303DA
:10483000DE03C20833E7E800637B6700369793889E
:10484000FEFF6369D70C6377670CF91E3697330751
:1048500067403353E703C205C1813377E703B308E9
:104860006E024207D98D63FB1501B6951307F3FF5E
:1048700063EED50863FC15097913B695C20E416F36
:10488000B3EE6E001307FFFFB3F6EE0013D30E0175
:10489000718F4182338EE602B3851541B386C6021D
:1048A00093580E013307E302BA96C6963306C30245
:1048B00063F3E6007A9613D306011A9663E2C50203
:1048C0006385C5007685814595B341677D17F98E6F
:1048D000C206337EEE00B317F500F296E3F4D7FE7E
:1048E0001385FEFF814599B393D80601414705B56D
:1048F00093560601C14779B993560301C14785BB59
:104900008145054525B3B688014711B53A83BDB742
:104910003E86F1BDC68E25BF328E55B5F9179A98E1
:10492000C9B9F9171A9761BB3708100001117D1832
:104930003377B80026CA3378D80093D4450113D30F
:104940004601131E37004EC61357D5010E08935764
:10495000D60193F4F47F1373F37F06CE22CC4AC8BA
:1049600093D9F50193DEF6013367C701131F3500B4
:1049700033E80701931F3600338E64406380D919F2
:104980006356C0136304031CB70680009307F07FCF
:104990003368D800638FF4369307800363C0C7354C
:1049A000FD4763CDC747130500023305C541B3D7A3
:1049B000CF01B316A8003399AF00DD8E3339200143
:1049C000B357C80133E926011D8F33092F41B3378F
:1049D0002F013306F7409317860063D40724370767
:1049E00080007D173374E600630C042C2285EF20D1
:1049F0009037130785FF93070002998FB357F9008B
:104A00003316E400D18F3319E9006341972A330547
:104A10009740130615007D47634DC7381307000202
:104A2000118FB356C9003319E9003397E700558F4A
:104A3000333920013369270133D6C7008144937786
:104A4000790081CF1377F90091476308F7001307C6
:104A50004900333927014A963A899317860063D66D
:104A6000071C138514009307F07FCE856304F5209F
:104A7000B70780FFFD17F18F9398D70113593900BD
:104A8000A607B3E82801B1831375F57F9396C70095
:104A90005205F2406244B182FE05C98ECD8ED244E9
:104AA0004249B2494685B68505618280631E0E0A79
:104AB000138314001373E37F63170322B367E701C3
:104AC000B368F801639D041A63870740638608444E
:104AD0003309FF41B307074133362F013386C740FF
:104AE0009317860063D6074C3389EF41B307E8403C
:104AF00033B62F013386C740F68991B76350C00F94
:104B00006300030CB70680009307F07F3368D8007A
:104B1000638AF43A9307800363CBC713FD4763DFCF
:104B2000C73513090EFE93070002B3562801630A26
:104B3000FE00130900043309C94133192801B3EFFA
:104B40002F013339F0013369D90031A2B367F8017D
:104B5000638A071C9307FEFF638C07389306F07F78
:104B60006309DE1A3E8E0DBDB305934063910422A6
:104B7000B367E701638707329387F5FF63810744D3
:104B80009306F07F638CD520BE859307800363CCAA
:104B9000B72AFD4763CFB73C930700028D8F3319C7
:104BA000F700B356BF00B317FF003369D900B3371E
:104BB000F0003357B7003369F9003308E84041ACDF
:104BC000B367F801638007349307FEFF638A072009
:104BD0009306F07F6308DE2E3E8E2DBF631E0E14FB
:104BE0009386140093F7E67F63910734B367E70178
:104BF0006395042C6380073EB367F801638E07302A
:104C00003309FF01B3070701333FE9013386E701A9
:104C10009317860063D70700B70780FFFD177D8EC7
:104C2000854493777900E39F07E09317D601935863
:104C30003900B3E8F800935736001307F07F638D0F
:104C4000E404B207B18313F5F47FCE8581B53369EF
:104C5000F801333920017A99B337E9013386E70047
:104C600093178600E3DF07FA85049307F07F6396C6
:104C7000F418CE851305F07F8147814801BDC1EB53
:104C80006384083A931636009317D8018D82B3E8EF
:104C9000D700F68993573800B3E7F800F9DB814570
:104CA0001305F07FB70708008148CDB3370680FFB2
:104CB0007D167D8E93777900998CE39507D8B5B7EB
:104CC0004A85EF20500A13078501FD47E3D5E7D257
:104CD000130685FFB317C900014905BB3369F80105
:104CE00033392001DDB13309FF4133060741333445
:104CF0002F01330486409317840063CD0724B368E3
:104D00008900E39308CE8147814981441DBFE39820
:104D100008F80E059317D7010D81B3E8A700935744
:104D200037009DBF0E059317D7010D81B3E8A7008B
:104D3000F2849357370011B733059340638204120E
:104D4000B70680009307F07F558F630DF32E93070E
:104D5000800363CBA720FD4763C3A72A9307000204
:104D6000898F3319F700B356AF00B317FF003369CB
:104D7000D900B337F0003357A7003369F9003A98E8
:104D80007E99B337F901338607019A84D1BDB706FE
:104D900080009307F07F558FE319F3DE93173600F9
:104DA0008D839318D801B3E81701F689935738001B
:104DB000E5B5130715FE9306000233D7E700630A33
:104DC000D600930600043386C6403396C700336985
:104DD000C900333920013369E9000146814491B5A6
:104DE0003309FF01B30707013336E9013E969317F4
:104DF00086008544E3D707E28944B70780FFFD17A3
:104E0000F18F13571900137919003369270193980B
:104E1000F70133E9280113D6170015B113090EFE67
:104E200093070002B3562801630AFE001309000429
:104E30003309C94133192801B3EF2F013339F00188
:104E40003369D90059B63369E70133392001338911
:104E50002F41B3B72F013306F8409A84F689A5BED7
:104E6000B367E701638207189307F5FF6384071CA4
:104E70009306F07F6304D5123E85D1BD93070002EF
:104E8000B387C741B316F8003399FF0033D6CF017B
:104E9000D18E33392001B357C80133E926013E973B
:104EA0005DBB931736008D839318D801B3E81701C3
:104EB000AE8493573800F68949B3EDC33369F801DE
:104EC000E31F09DC0E059317D7010D81B368F500C8
:104ED00093573700D1B36381080E931636009317AA
:104EE000D8018D82B3E8D700F6899357380091BB7B
:104EF0003309FF41B3070741333F2F013386E741B1
:104F00008544D1BC0E059317D7010D81B368F50018
:104F1000F2849357370015B30E059317D7010D810F
:104F2000B3E8A7009357370029BB9307F07FE382CC
:104F3000F6D43309FF013336E901B3070701B2970D
:104F40009398F7011359190033E9280113D6170074
:104F5000B684C1B93389EF413307E84033B62F0136
:104F60003304C740F68949B43369E7013339200176
:104F700001BD938705FE93060002B357F700638ACD
:104F8000D50093060004B385B6403317B700336FDE
:104F9000EF003339E0013369F90055BD931736004E
:104FA0008D839318D801B3E8170193573800EDB1FA
:104FB000B368C900E39708C68147814959B133896D
:104FC000EF41B307E84033B62F013386C740F68977
:104FD000854411B4931636009317D8018D82B3E837
:104FE000D70093573800B1B9931636009317D801FC
:104FF0008D82B3E8D700AA84935738003DB9930750
:1050000005FE93060002B357F700630AD500930626
:1050100000043385A6403317A700336FEF00333900
:10502000E0013369F900A9BB81451305F07FB7079B
:105030000800A9BC3309FF01B30707013336F901A2
:105040003E9675B3931636009317D8018D82B3E858
:10505000D7009357380089B1397193D7450122DCC5
:105060004AD856D22A891394C50006DE26DA4ED6CF
:1050700052D45AD05ECE13F5F77F318093DAF50122
:10508000630B05109307F07F630BF514135AD901D6
:105090000E0433648A00370A8000336A4401131B0C
:1050A0003900930415C00144814B13D8460113996C
:1050B000C6001378F87FB2881359C90093D9F60156
:1050C000630E08089307F07F6300F8041357D601B6
:1050D0000E0933692701130818C0B707800033672A
:1050E000F90093183600B38404418145BD4733C8A5
:1050F0003A0163E4871A979700009387278F0A0481
:105100003E9410403E9602863367C9009384148013
:10511000631207101364240081488945C1BF130638
:10512000F07F81470147B207F25062545206B183C3
:105130007E08D18FB3E70701D2544259B259225A9F
:10514000925A025BF24B3A85BE852161828001480A
:105150001306F07FB70708000147F1B73367C900AE
:105160004DC7630809304A8532C4EF20C03F22464C
:10517000130755FFF547930685FF998F3319D9001B
:10518000B357F60033E72701B318D60026959304EA
:10519000353F8145A1BF336A240163030A0636C641
:1051A00032C46306042A2285EF20E03B2246B24641
:1051B000AA84130755FF754A138B84FF330AEA400C
:1051C00033146401335A4901336A8A00331B69017D
:1051D0001305D0C0B30495400144814BF9B5336A3F
:1051E000240163180A002144014B9304F07F894B8A
:1051F0006DBD228A4A8B31449304F07F8D4B75B587
:105200001144014B8144854B4DB513641400814812
:105210008545E9BD136434004A878D45C1BD630AE5
:10522000052E8547898F9306800363DDF63201469C
:1052300081470147CDBDCE868947638DF53A8D47BD
:10524000E387F5F085473688E383F5FE1385F43F61
:10525000E357A0FC93F778006396072893D63800AD
:105260009317770063D80700B70700FFFD177D8FFE
:10527000138504409307E07FE3C3A7EA1316D70121
:1052800093179700B1833367D6001376F57F61BD1E
:10529000D6865287DA88DE8545B763614723630D7A
:1052A000EA20DA86FD145284014B9317870013D34A
:1052B00088013363F300935E0301B357D403131FD4
:1052C0000301135F0F0193D50601139E8800337409
:1052D000D4033307FF024204C18D63FBE5009A95B6
:1052E0001386F7FF63EE652663FCE526F9179A95AA
:1052F000998D33D7D503C206C182B3F5D5033306E2
:10530000EF02C205D58D63FBC5009A959306F7FFA2
:1053100063E6652463F4C52479179A95C20741644E
:105320005D8F9307F4FF3375F70093580701935F80
:105330000E01B377FE00B302F502B386C540B38316
:10534000F80293D502013386AF021E962E9633855E
:10535000F803637376002295C168FD189355060122
:10536000337616014206B3F81201AA95469663E613
:10537000B6126382B6123306CB408D8E333BCB0020
:10538000338B66411385F43F630C6317B358DB031B
:1053900093550601337BDB03B3061F03420B33EB4C
:1053A0006501637BDB001A9B9385F8FF636D6B20BF
:1053B000637BDB20F9181A9B330BDB40B356DB030E
:1053C00042064182337BDB03330FDF02420B33663D
:1053D0006601637BE6011A969385F6FF6367661E96
:1053E0006375E61FF9161A96C208B3E8D8009395BC
:1053F000080193D20801C181B38EF5023306E6415C
:10540000B385BF0293D60E01B387F202BE95AE9666
:10541000B38F5F0263F4F600C167BE9FC165FD15DF
:1054200093D70601ED8EC206B3FEBE00BE9FF69670
:10543000637FF6091A969387F8FF6369661A6368B3
:10544000F619630FF61BBE8893E8180011B54A855C
:10545000EF20601113075501F14593040502224620
:10546000B246E3DAE5D4130485FF331A8900014B11
:1054700085B3328532C4EF20000F13075501F14682
:10548000AA87224613050502E3D6E6CEE1173317B5
:10549000F6008148E5B9E370CBEE729B3335CB0162
:1054A0001A95AA961305F7FF6378D30263E6B61040
:1054B0006382D5102A87C1B5E3651BDF93551B00B6
:1054C0009316FA0113541A00CD8E7E0BF9BBE31D1F
:1054D000F6F7E38F06D6B9BFE31ED3FCE378CBFD26
:1054E0002A8751BD93F7F8009146E389D7D693B741
:1054F000C8FF9386480093C717008D823E978DB3EF
:1055000081468547E34CA0FEFD58E31C05D093047B
:1055100010C085471385E441B316A70033D6F800C1
:105520003395A800D18E3335A000C98E13F67600CE
:105530003357F70001CE93F7F60011466388C70092
:1055400093874600B3B6D7003697BE869317870079
:1055500063D80704054681470147F1B636877DBB0E
:10556000B28779B3FD46E3D7F6FA0556098E93065E
:1055700000023356C7006388D7009387E443B3170C
:10558000F700B3E8F800B3361001D18E13F67600B9
:10559000814701CE93F7F60011460147E392C7FA1F
:1055A000931797001316D701B18313D73600518F85
:1055B000014695BEE370CBF0729B3335CB011A9553
:1055C0007917AA964DBBAE88C5BBAE8631BD931781
:1055D0001E0033BEC70172931A96F9183E8EE3156A
:1055E000F6E7E307DEC693E818009DB1BE88E30A3C
:1055F000F6FF99BD36881306F07F8147014725B62F
:10560000E367DEFCBE88E310DEFE99B113D74501E7
:10561000B7071000FD1713D846011377F77F9308DB
:10562000F07F33F3B7002A8EF58FFD81B28E1378A9
:10563000F87FFD8263081703630018030DEBB3685E
:10564000A300631408005D8E29CA6385080463887B
:10565000D502054595ED8280B3E8C700E38008FEDA
:10566000795582803365A30065FD630CE8026314FD
:1056700008005D8E79DEE39ED5FCE34CE8FC6348D0
:105680000701E3E867FC6303F302637FF30081E54E
:105690007D558280F5DE054582800145E39B08FA51
:1056A00082805D8E69DA6DBF01458280E3E3CEFBC7
:1056B0000145E372DEFBE5F1E1BF39714AD813D948
:1056C00045014ED652D456D29399C50006DE22DC4F
:1056D00026DA5AD05ECE1379F97F2A8A93D9C90087
:1056E00093DAF501630D090E9307F07F6306F9184D
:1056F0001354D5018E09B36934013704800033E4B3
:10570000890093143500130919C08149814B13D7BF
:105710004601139AC6001377F77FB285135ACA0061
:1057200013DBF601630B07109307F07F6303F704A5
:105730009357D6010E0A33EA4701130717C0B7077C
:105740008000B367FA00931536003A99814833C751
:105750006A01BD463A851308190063E836171786B3
:1057600000001306A62C8A09B29983A60900B296F6
:105770008286B367CA001309F97F6399071293E918
:10578000290081458948E1B701479307F07F370435
:10579000080081443204D20731807E075D8C598C29
:1057A000A285F250625426854259D254B259225AE7
:1057B000925A025BF24B216182805A853E84AE840C
:1057C000C68B8947638DFB0E8D47E38FFBFA8547B8
:1057D0002A87639EFB3881470144814465BF33E4D7
:1057E000A90061C036C632C4638C092A4E85EF1009
:1057F00090572246B246AA87130755FF75449384F3
:1058000087FF198CB399990033548A0033643401AB
:10581000B3149A0013D746011309D0C0139AC600D7
:105820001377F77F3309F9408149814BB285135AC9
:10583000CA0013DBF601E31907EEB367CA00B1C76C
:10584000630F0A22528532C4EF10F05122462A8794
:10585000930655FFF547930587FF958F331ABA00D6
:10586000B357F600B3E74701B315B6003309E94073
:105870001309D9C08148E1BD33E4A90001ECA14975
:1058800081441309F07F894B59B593E9190081458B
:10589000854875BD4E84AA84B1491309F07F8D4BAC
:1058A000BDB5914981440149854B95B593E93900CE
:1058B000D2878D4869BD89475685E397FBF02A87D3
:1058C0009307F07F01448144F1B5C16E1386FEFF5A
:1058D00093D6040113DE0501F18CF18D3386950218
:1058E0003383B6029358060133059E021A95AA988F
:1058F000B382C60363F36800F692C16F1383FFFFA0
:1059000033F5670093D30701B3F76800C207337319
:1059100066003E933306950293D80801B387A6022A
:10592000135F0601B3849302BE94FA94B38E760299
:1059300063F3F400FE9E416A9307FAFF935F04014C
:10594000B376F400B3F9F4007D8EC1803384D502C0
:10595000C209338FD401B299CE98B307DE02935EA9
:105960000401B385BF02AE97BE9E330EFE0363F300
:10597000BE00529EC1679385F7FF33F6BE006D8C63
:105980004206229693DE0E01B305D502769E33853C
:10599000AF0213D40501B386D302AA96A296B38FA1
:1059A000F30363F3A600BE9F41657D15B3F7A60020
:1059B000C2076D8DAA97B3855800B3B93501FA9720
:1059C000B2953384370133B6C500B30EC4013385B5
:1059D000CE0033343401B3B7E701C18F33BECE01FB
:1059E00013D406013336C5003E943366CE0093943B
:1059F000950032947E94B3E46400260493567501B6
:105A0000B3349000DD8193179500CD8C558CDD8CDF
:105A10009317740063DB070093D7140085889316EF
:105A2000F401DD8CD58C058042899307F93F6359D9
:105A3000F00893F6740081CE93F6F4001146638863
:105A4000C60093864400B3B496002694B684931699
:105A5000740063D80600B70700FFFD177D8C93071D
:105A600009409306E07F63CFF60E93D6340093147B
:105A7000D4012604D58C318093F7F77F21BB328582
:105A800032C4EF10502E93065501F147130705025B
:105A90002246E3D1D7DC6115B317A6008145F9B3DF
:105AA000EF10702C13075501F145930705022246AC
:105AB000B246E3D5E5D461153314AA00814499BBFD
:105AC00085469D8EB1E71309E941B3972401B3D40C
:105AD000D40033192401B337F000B3649900DD8C8E
