:100000006F10107F130000001300000013000000A9
:100010001300000013000000130000001300000094
:100020001300000013000000130000001300000084
:08003000130000007300100032
:1000380000000000000000007217000076170000A2
:1000480000000000361F0000000000000000000053
:10005800381F00003A1F00000000000000000000E8
:100068003C1F0000000000003E1F000000000000D0
:10007800401F0000421F0000441F00009A100000AB
:10008800481F00004A1F00004C1F0000921100008A
:10009800C6110000F811000016120000561F0000DB
:1000A800581F00005A1F00005C1F00005E1F000060
:1000B800601F0000621F0000641F0000661F000030
:1000C800681F00006A1F00006C1F00006E1F000000
:1000D800701F0000721F0000741F0000761F0000D0
:1000E800920C00007A1F0000461300007E1F0000DB
:1000F800801F0000821F0000841F0000861F000070
:10010800881F00008A1F0000FA0400009E030000F8
:10011800400D0000921F0000941F0000961F000071
:10012800981F00009A1F00009C1F00009E1F0000DF
:10013800A01F0000A21F0000A41F0000A61F0000AF
:10014800A81F0000AA1F0000AC1F0000AE1F00007F
:10015800B01F0000B21F0000B41F0000B61F00004F
:10016800B81F0000BA1F0000BC1F0000BE1F00001F
:10017800C01F0000C21F0000C41F0000C61F0000EF
:10018800C81F0000CA1F0000CC1F0000CE1F0000BF
:10019800D01F0000D21F0000D41F0000D61F00008F
:1001A800D81F0000DA1F0000DC1F0000DE1F00005F
:1001B800E01F0000E21F0000E41F0000E61F00002F
:1001C800E81F0000EA1F0000EC1F0000EE1F0000FF
:1001D8000000000000000000000000000000000017
:1001E8000000000000000000000000000000000007
:0801F8000000000000000000FF
:10020000397101436EC619A0397141536AC866CA73
:1002100062CC5ECE19A0397101535AD056D252D455
:100220004ED64AD826DA22DC06DE330161408282CD
:1002300041114AC026C222C406C68282B24D410183
:10024000024D924C224CB24B4101024B924A224A3F
:10025000B2494101024992442244B24041018280A4
:100260003D432A876373C3029377F700BDEFADE583
:10027000937606FF3D8ABA960CC34CC30CC74CC795
:100280004107E36BD7FE11E28280B306C3408A06C2
:100290009702000096966780A6002307B700A30682
:1002A000B7002306B700A305B7002305B700A304D2
:1002B000B7002304B700A303B7002303B700A302CA
:1002C000B7002302B700A301B7002301B700A300C2
:1002D000B7002300B700828093F5F50F9396850051
:1002E000D58D93960501D58D61B79396270097021A
:1002F000000096968682E78086FA9680C1171D8F49
:100300003E96E374C3F8A5B7EFF29FF279712A899C
:1003100085452145EF20005B854537050400EF202A
:10032000405CB714014093070040FC820D44E14754
:100330004C08138504C022CC3ECEEF20A012856766
:10034000938707804C08FC82138504C091473ECEFA
:10035000EF204011930770237C8668008547408713
:100360003EC837540040EF20602CB7070C000C103B
:10037000130504803ED44AD002D223160102EF2096
:10038000F00F05461305048093055052EF20301CF2
:10039000854513050480EF20301A456165BD411184
:1003A00022C6375400409305505213050480EF20B5
:1003B000101F01CD13050480EF20501D1375F50F9C
:1003C00085476318F500A38CA18232444101730074
:1003D000203009476315E500A38DF182FDB70D4775
:1003E0006315E500238DF182CDB71147E31FE5FCCE
:1003F000238CF182D9BFEFF2BFE3B75400402A89C2
:10040000014493840480B30789008385070085C174
:10041000C205C1812685EF20F016930500082685C8
:10042000EF2050177DD905041374F40FE9BF1DB5F3
:10043000EFF27FDE93190501B75400402A890D447D
:1004400093D909019384048063000902CE8526852F
:10045000EF205013930500082685EF20B0137DD9B7
:100460007D141374F40F6DF0CDB3EFF27FDC79716E
:100470002A8985451145EF20E0448545370502006E
:10048000EF202046B71401409147FC820D44E1471C
:100490004C081385048022CC3ECEEF10B07CA147DF
:1004A0004C08FC821385048091473ECEEF10907B70
:1004B000930760337C866800854740873EC8374491
:1004C0000040EF20A016B7070C000C1013050440E5
:1004D0003ED44AD002D223160102EF20207A0546EC
:1004E0001305044093055052EF207006854513050F
:1004F0000440EF2070044561B1BB411122C637446E
:1005000000409305505213050440EF20500939C9AB
:1005100013050440EF20900783D7018413870184DB
:1005200093960701C18663DC060083C7018D93069D
:1005300010046393D7068546238FD18211A8939622
:1005400017011375F50F63D30602A9466305D5009D
:100550002310070001A8E176D58F1EA3831707009B
:10056000E3C507FC3244410173002030B5466314F3
:10057000D5009166D5B79396270113D62601850736
:100580009386018DC207B296C18388A21EA39306EB
:10059000700CE3EFF6FAD9B7930620046396D70000
:1005A0008546238ED1826DB793063004E392D7FA45
:1005B0008546A38ED18269BFEFF29FC79384C19F06
:1005C000D220B7B500009385C5E813858199EF5017
:1005D00070421385819905351305F00F913DF02088
:1005E000B7B50000938505EA13858199EF509040D7
:1005F0001385819909351305F00F1D3DF030B7B50E
:100600000000938545EB13858199EF50B03E13852B
:100610008199D5331305F00F213D03C6C19FB7B5AE
:100620000000938585EC13858199EF50B03C1385CC
:100630008199D1331305F00FE53B9030B7B5000039
:100640009385C5ED13858199EF50D03A1385819933
:100650005D331305F00FE93BB020B7B5000093857B
:1006600005EF13858199EF50F03813858199613337
:100670001305F00F753BF9BEEFF29FBBB7B5000055
:10068000938505D613858199EF50303B1385819969
:100690009D331305F00F693B75BEEFF27FB9B7B517
:1006A00000009385C5D213858199EF5010391385C9
:1006B000819991331305F00FA53BB7B500009385E1
:1006C00005D413858199EF505037138581992533CF
:1006D0001305F00FB13BBDBEEFF29FB503A5018B33
:1006E000EF40B010AE86B7B500002A869385C5D717
:1006F00013858199EF50103013858199ED391305D9
:10070000F00F3D3303A54185EF40300EAE86B7B5FF
:1007100000002A86938505D913858199EF50902D85
:1007200013858199C9391305F00F193303A5018A7F
:10073000EF40B00BAE86B7B500002A86938545DA48
:1007400013858199EF50102B138581996D31130515
:10075000F00FF93903A5418AEF403009AE86B7B5ED
:1007600000002A86938585DB13858199EF509028B8
:100770001385819949311305F00F5D39B7B7000032
:1007800083A547D703A541851304400BEF30F07BC9
:10079000EF40E06033068502B7B50000938505DDC4
:1007A0001385819D23A2C184EF50D0241385819DA0
:1007B00099311305F00FAD39B7B7000083A587D77E
:1007C00003A5018BEF307078EF40605D3306850242
:1007D000B7B50000938545DE1385819D23A8C184AC
:1007E000EF5050211385819D39311305F00F893168
:1007F00095B4EFF2FFA303A64181B7B5000093853E
:1008000085DF1385819DEF50F01E1385819DE536B0
:100810001305F00F31393DBCEFF2FF9F03A5418B6B
:10082000EF40A07CAE86B7B500002A86938545E1EF
:1008300013858199EF50101C138581996D3E130526
:10084000F00FFD3603A58189B7B90000EF40E079CC
:10085000AE86B7B500002A86938585E21385819917
:10086000EF5050191385819979361305F00FC93669
:10087000B7B500009385C5E313858199EF50F01B50
:10088000138581998D3E1305F00F5D36B7B50000D5
:10089000938505E513858199EF50301A1385819969
:1008A000993E1305F00F6936B7B7000083A5C7E07E
:1008B00003A5418B1304400BEF30903283A509E16F
:1008C000EF30B068EF40A04D33068502B7B50000A9
:1008D000938545E61385819D23A6C184EF50901131
:1008E0001385819D093E1305F00F993683A509E113
:1008F00003A58189EF307065EF40604A33068502B9
:10090000B7B50000938585E71385819D23A4C18435
:10091000EF50500E1385819DF93C1305F00F093EF1
:100920006FF0BF92EFF2DF9003A64187B7B50000EA
:100930009385C5CD13858199EF50D00B138581998F
:10094000EFF07FAB1305F00FE53403A6C180B7B518
:100950000000938505CF1385819DEF50B009138565
:10096000819DEFF05FA91305F00FEFF07FAC6FF002
:100970007F8EEFF2FF8B03A60187B7B5000093854A
:1009800045CB13858199EF50F00613858199EFF0DF
:100990009FA61305F00FEFF0BFA9B707002003A62D
:1009A000471FB7B50000938585CC1385819DEF5017
:1009B00070041385819DEFF01FA41305F00FEFF075
:1009C0003FA76FF03F89EFF2BF8603A68188B7B5D6
:1009D0000000938545F013858199EF50B001138590
:1009E0008199EFF05FA11305F00FEFF07FA403A64C
:1009F0000182B7B50000938585F11385819DEF5085
:100A0000607F1385819DEFF01F9F1305F00FEFF0BE
:100A10003FA26FF03F84EFF2BF8103A68187B7B595
:100A20000000938545D013858199EF50A07C1385F4
:100A30008199EFF05F9C1305F00FEFF07F9F6FF04F
:100A40007F81EFF2EFFE03A6C188B7B50000938562
:100A5000C5F213858199EF50E07913858199EFF004
:100A60009F991305F00FEFF0BF9C6FF0AFFEEFF210
:100A70002FFC03A6C187B7B50000938585D11385E8
:100A80008199EF50207713858199EFF0DF96130558
:100A9000F00FEFF0FF996FF0EFFBEFF26FF9797164
:100AA000AA8485454145EF10F0618545370508006A
:100AB000EF10306393070040FC820D44E1474C087F
:100AC0003715014022CC3ECEEF10D01985679387B1
:100AD00007804C08FC823715014091473ECEEF104D
:100AE0007018930760337C866800854740873EC84E
:100AF00037540040EF109033B7070C000C1013056B
:100B000004C03ED426D002D223160102EF200017E3
:100B10000546130504C093055052EF204023854538
:100B2000130504C0EF20402145616FF0AFF2EFF2F2
:100B30002FF0411185452145EF10D058C14737149A
:100B400001403EC699677C824C008D47130504C066
:100B50003EC4EF103011130504C08965EF10701DFD
:100B60009165130504C0EF10D01C41016FF08FEEAA
:100B7000EFF20FEC7971AA842E8409458545EF10B8
:100B8000505685452545EF10F05337151A00854519
:100B900013050580EF10301A93070002FC82371509
:100BA0000140E1473ECE4C088D47130505C03ECCC1
:100BB000EF10500B60843704004085472C0013056C
:100BC000044064867C8723150100EF10B06EC16776
:100BD000938707073ED00C109307200313050440AA
:100BE0002313F10223140102EF1070771305044060
:100BF000A145EF204004854513050440EF20000186
:100C000045616FF02FE5EFF2AFE201118545054533
:100C1000EF10304D9307C0127C8685475C876800D3
:100C200085473EC8EF1090209307F0053ECA4C0858
:100C30009307703E370500403ECCEF10B067854506
:100C400037050040EF10907C05468545370500408C
:100C5000EF10507D05616FF0EFDFEFF26FDD4111B6
:100C600085452145EF10104685450545EF10904517
:100C7000930780043EC63715014085677C824C008F
:100C80008D47130505C03EC4EF10C07D41016FF0D4
:100C90006FDC411185453705004022C626C44AC293
:100CA000EF10907B41C9854537050040EF10507C1F
:100CB000138741861C433715014085658507130559
:100CC00005C01CC3EF1010068547138441866314CA
:100CD000F500238EA184371501408565130505C0F5
:100CE000EF1050041DE19387C18594230547639E4F
:100CF000E6002380070093840186B7B70000884090
:100D000083A507F4EF30C06D88C018409307803E7C
:100D10006312F702B7B700009384018683A5C7E08A
:100D20008840EF3090229307000023AAA18423205B
:100D300004009CC03244A244124941017300203097
:100D40004111056522C6EF10606F85476317F502F4
:100D5000371501408565130505C0EF10A07C19E922
:100D600013848185B7B70000084083A507F4EF30EE
:100D7000206708C00565EF10406E324441017300E2
:100D80002030EFF2EFCAB7B7000083A5C7E003A594
:100D90008185EF30901BEF40A006420541816FF046
:100DA0006FCBEFF2EFC841110945EF10D007CD47E7
:100DB0007C84280085473EC623050100EF101007FC
:100DC00041016FF02FC9EFF2AFC685453705001816
:100DD000EF1030310545EF10D00FEF10005B0545E7
:100DE000EF10B01113051004EF10703565DD130519
:100DF0000010EF1010130545EF107013EF10504561
:100E0000EF10104421657D15EF10B040EF105043F6
:100E100085450545EF109035EF1090426FF08FC378
:100E20009377350099EF130740063377E50285473E
:100E300019E7930700193375F502933715003E85BE
:100E400082808147EDBF13074006B377E502335533
:100E5000E5024D471375F50F6374A70093874706A6
:100E600013D527003E951D473375E5022D671307FF
:100E700007F52E970347F7FF8D8B3A962A9699E749
:100E8000894763E5B7007D16420641821D453375EB
:100E9000A6028280EFF24FB75564EF107031130451
:100EA000041833548502938781869A23AA846305A4
:100EB000870482A39309207B1309C016130AD01656
:100EC000636F89069387C19FAD6A239237011389A7
:100ED000C19F81496D4B938A4AF4854B714C138AAB
:100EE0001900636D8B06137AFA0F05042303490179
:100EF0001374F40FA3038900D56793870718B3F41D
:100F0000F4028567938707E11384C19F33D7F40206
:100F1000B3F4F4021377F70F18A01307C003B3D785
:100F2000E402B3F4E40293F7F70F1CB024A04A20C4
:100F30006C207030093F08A401456FF06FB04E85FA
:100F4000C53511C9E30044F9130424E98509C20930
:100F500093D90901B5B7130434E9CDBF035549004E
:100F6000C13519C9639A7901E30F84F70D149319F8
:100F70000A0193D90901A5B7D69983C70900E3648B
:100F8000F4F61D8CEDB7EFF2AFA71308E584420825
:100F9000AA8B13580801130510086369050B373C29
:100FA000E101B78CE2013E8B3A84B68A3289AE8980
:100FB0008144130A207B130C0C38938C0C50639ED5
:100FC0004B05FD19AD6C556C014A93F9F90F938CE3
:100FD0004CF4130C0C18854D131D0A01135D0D0103
:100FE00063683D051305C0038566938606E13305F6
:100FF000A4025566130606187D19B38ADA025A95BB
:101000003309C90256954A952695EF10D01DEF1069
:101010003023493501456FF06FA25285113519C54E
:10102000E694050A420A135A0A0151BFE294D5BF59
:10103000B3874C019C235E85B3878703BE94CD3371
:1010400001C56313BD01E294050A79B70545E1B70F
:10105000EFF20F9E11452964EF10E0351304141AC6
:10106000630485028D339945D1475547B5462546DA
:101070001305707E093FA2851145EF100032EFF095
:101080005FD2093D6FF00F9DEF10901C854505451F
:10109000EF10D00DEF10D01ADDB70545EF10D01EC0
:1010A00011C1CD3B0945EF10301E01C50945EF10B8
:1010B000B01F1545EF10501FEF109018730020302F
:1010C000EFF20F97797185454145EF10A07F854577
:1010D0000545EF10207F9307E007FC824C0893073B
:1010E0008002371501403ECEEF10C03785450945D7
:1010F000EF10A05089450945EF1020508D45094556
:10110000EF10A04F91450945EF10204F9545094537
:10111000EF10A04E99450945EF10204E9307E007C8
:1011200005443ED00810A1473ED422D602D2EF108B
:10113000402A9307702168007C8622C8230701009B
:10114000EF10C04E9307802168007C8622C82307D9
:101150000100EF10A04D9307902168007C8622C803
:1011600023070100EF10804C9307A02168007C86C4
:1011700022C823070100EF10604B9307702268001C
:101180007C8622C823070100EF10404A45616FF0BA
:101190006F8C0945EF10802A1DC13D45EF10B04905
:1011A000B70700209387071F98439306803E1307D5
:1011B000470663C8E60098C30945EF10002A73008C
:1011C000203094C3D5BF1145EF1040270DC13D45D8
:1011D000EF107046B70700209387071F9843130747
:1011E000C7F96348070098C31145EF100027730043
:1011F000203023A00700CDBF2145EF10202411C9C6
:101200003D45EF105043054721452385E186EF100A
:10121000C024730020304145EF1040220DCD3D45E4
:10122000EF10704183A64188B70700209387071FFE
:10123000850623A2D188984383A68181130767F08E
:10124000FD1698C323ACD1806354070023A0070088
:101250004145EF10802073002030EFE27FFD011147
:10126000854513050002EF10E065371401409147F2
:10127000FC828D44C1474C08130504403ECE26CC69
:10128000EF10401E130504409145EF10802AA1473E
:10129000FC824C089147130504403ECEEF10801CA1
:1012A00013050440A145EF10C02885451145EF10F6
:1012B000406383A7418237470F0013070724B3D742
:1012C000E702371400402C001305048023150100A9
:1012D000FD177C849307703E3EC6EF10A07D054647
:1012E000854513050480EF10F0139307E0027C801E
:1012F0000A8585473EC24481EF104033814513057E
:101300000480EF10B01005616FE0DFF4EFE25FF2F0
:1013100037140040130504808145EF1030138545D4
:101320001305048023960186EF10500E6FE09FF2A4
:10133000EFE21FF037150040814513050580EF10DF
:10134000F00C6FE03FF1411122C637140040854593
:1013500013050480EF10501019C98545130504804A
:10136000EF1010119387C1869A2305079AA3324480
:10137000410173002030EFE2BFEB03D4C186930735
:10138000803EB71400403304F40213850480EF104C
:10139000700C23920482938404802A941305200302
:1013A000EF10702922856FE0FFEAEFE2DFE6B7B7C2
:1013B000000083A9C7F537140140954413090000C4
:1013C00013040440054A91452285EF10401651450B
:1013D000EF10102391452285EF10A015A14522851D
:1013E000EF10401465DD1D37A1452285EF108013F5
:1013F000E30C45FF353F4137EF305032CE85EF30BB
:10140000C034AA854A85EF20B07DFD142A89C5FC29
:10141000B7B7000083A507F6EF3020336FE0FFE297
:10142000EFE21FE1371401408327448045777D17A1
:10143000F98F2322F480832744800D6713040480EE
:10144000D98F5CC08564938504802285EF10600E7F
:101450005145EF10501E938504802285EF10200D1A
:101460007945EF10F0196FE0FFDEEFE2DFDA3715B4
:1014700001408327458045777D17F98F2322F5802A
:1014800083274580216713050580D98F5CC10569D5
:101490008144130909802A8493094006CA8522855C
:1014A000EF10400809CD6395340105456FE0FFD981
:1014B0008504054593F4F40FEF109014C5B7930716
:1014C0004006E384F4FE85643719014001449384A7
:1014D00004801309098093094006A6854A85EF1008
:1014E000600411E9E30334FD050405451374F40FAA
:1014F000EF101011DDB71305C4F9133515007DB7D2
:10150000EFE21FD38564371901401304500693841A
:10151000048013090980A6854A85EF10A00009C53B
:101520007D141374F40F19E885643719014013040E
:101530005006938404801309098001A80545EF1023
:10154000300CD1BF0545EF10B00BA6854A85EF00E2
:10155000707D09E57D141374F40F6DF4130580029A
:10156000EF10100A85653715014093850580130536
:101570000580EF00307B3335A0006FE0BFCDEFE298
:101580003FCBA144014506051374F50FFD148D3FB3
:10159000418D93F4F40F1375F50FF5F46FE09FCBC5
:1015A000EFE27FC741112A89AE89EFF07FE7EFF0C4
:1015B000DFEB85440DE9AA840144154AC9373C0094
:1015C000A29788A30504E31B44FF14849C84188518
:1015D0009085B697BA97B29710866396C700238016
:1015E000D9002300E900268541016FE01FC6EFE224
:1015F0003FC4411185451145EF10C02C8567938785
:101600000780371401407C82C1473EC64C008D479D
:10161000130504803EC4EF00F06485659385058062
:1016200013050480EF00B070EFF09FDFEFF0FFE3F1
:1016300041016FE03FC2EFE2BFBF797113060002C4
:1016400081450808EFE0DFC18545114502C202C4AB
:1016500002C6EF102027854513050020EF108026D5
:101660003165EF1060083715014089474C001305BC
:101670000580372401407C8202C6EF00B05E13056E
:101680000440EF00901F854737070E000C08130534
:1016900004403ECC3ACE2302F10202C802CA02D074
:1016A000EF001022854513050440EF00D027854543
:1016B00013050440EF003026814513050440EF0078
:1016C000103813050440EF003027930404402685AA
:1016D000EF0030276DFD1305044037240140EF0073
:1016E000D026930404402685EF00D0266DFD130517
:1016F0000440EF0050362397A18645616FE09FB507
:10170000EFE21FB337240140AA859D460546130525
:101710000440EF003026854513050440EF001024F7
:101720009304044089452685EF00D03065DD13051C
:101730000440EF00B02F6FE0FFB1EFE27FAF411147
:101740002A89014481446319B40033D584024101DC
:10175000420541816FE01FB04A852EC6EFF05FFA67
:10176000AA941545EF10206D05041374F40FB245CB
:10177000D9BF7300203001A0EFE29FA801110945F5
:10178000EF00706A7164EF00206FEF1000651305C1
:101790000420EF10A06DEFF01FEAEFF01FACEFF0A8
:1017A0001FE513050420EFE05FCC13050420EFE0F4
:1017B000BFB513050420EFF04FAEEFF07F89EFF0D7
:1017C0000FB705658145130575BBEFF06FBAEFF0F4
:1017D0008FC3EFF08FC8EFF0BF8EB7B7000083A7BD
:1017E00047F637BC00003EC0B7B7000003A847F873
:1017F00083A707F842C63EC4B7B7000003A8C7F8DE
:1018000083A787F842CA3EC8B7B7000083A7C7F6C8
:101810003EC2B7B7000003A8C7FA83A787FA42CE33
:101820003ECCEFE07FD91389C18B9384C18A1385A5
:10183000C18B9385C18AEFF0BFD60345190013848D
:10184000418BEF20D032B7B7000003A687F783A6FD
:10185000C7F7EF10F06BEF301004AA8903450900B9
:10186000EF30605FAA854E85EF20903708C0883042
:10187000EF20F02F03268CF78326CCF7EF1050696A
:10188000EF307001AA898820EF30E05CAA854E8590
:10189000EF20103523ACA188EFE01FF88245084007
:1018A000EF30C0156349050037550040A9451305C1
:1018B00005C0EF10204D83C7918391CB3755004071
:1018C0009945130505C0EF10E04BA38C018283C737
:1018D000B18391CB375500409D45130505C0EF10EE
:1018E000604AA38D018283C7A18391CB3755004005
:1018F000A145130505C0EF10E048238D018283C781
:10190000818391CB37550040A545130505C0EF10E5
:101910006047238C0182A9450545EFF01FE2EF30B7
:10192000E05F23A8A188B7B7000083A507F613845A
:101930004189EF30C01DB7B7000083A587F6B70C0B
:101940000020EF30C01CEF30406A2246B246EF1054
:10195000305C4246D246938B8187EF20E026EF3001
:10196000807308C0EF3060682A8637B50000AE8605
:10197000130585FCEF40807483C5A18637B5000050
:10198000130585FDEF40807383A50C1F37B500005C
:10199000130545FEEF4080721305803EEF10A0490D
:1019A00092450840138BC188938AC187EF30600D40
:1019B0006351053AEFE05FCC83C7A186854D138A5A
:1019C0000181138441819384C1809389418013896B
:1019D0000182639FB71B37B50000130505FFEF4079
:1019E000E07F371D014013050DC08965EF003034DD
:1019F00013050DC09165EF00D03383D50C1F37055B
:101A0000004013050540EF10A024EFF01F9A938DBE
:101A1000018A23A0AD00EFF0CFB6EF30205023AE07
:101A2000A188EF30805CB7B7000003A607F983A652
:101A300047F9EF10F04DEF30006683A5418523A2F2
:101A4000A18A2E85EF20D019EF30205A37B7000039
:101A5000032687F98326C7F9938C018BEF10504B2F
:101A600037B70000032607FA832647FAEF10504ADB
:101A7000EF306062AA8523A0AC0003A50D00EF2023
:101A8000D04C1387818A08C3EFE01FC503A54185A9
:101A9000138D818AEF3060552A8637B50000AE86F7
:101AA000130585FFEF40806103A50C00EF30E05384
:101AB0002A8637B50000AE8613058500EF4000602A
:101AC000B7B7000083A507F703A50C00EF2010733C
:101AD0006346A02603250D00EF3020516246F246F2
:101AE000EF10B037635E05001C40FD171CC0EFE02F
:101AF0005FD0375500408945130505C0EF10802899
:101B000083C7D18385C7938741879843050798C3C7
:101B10009C40FD179CC0EFE0FFE0375500408D452D
:101B2000130505C0EF100026A38E018283C7C18371
:101B300095C7938701879843050798C383A7090032
:101B4000FD1723A0F900EFE0DFE237550040914593
:101B5000130505C0EF100023238E018283C7E183A4
:101B6000B9C393878188944303270900850694C3EA
:101B7000930717002320F900EFE0FFE437550040FA
:101B80009545130505C0EF10E01F238F018221A8A2
:101B900037550040AD45130505C0EF10A01E83C7A3
:101BA000A186E38AB7E303A58181A94C3385AC40C4
:101BB000EF20E07B03268CF78326CCF7EF1050351F
:101BC0002A8D03A5C181AE8D3385AC40EF20207AEC
:101BD00003268CF78326CCF7EF1090332A86AE8647
:101BE0006A85EE85EF1060342A8D03250A00AE8DDC
:101BF00037BA00003385AC40EF206077B7B70000FC
:101C000003A607FB83A647FBEF1090302A86AE861B
:101C10006A85EE85EF1060312A8D03A58180AE8D37
:101C20003385AC40EF20A07403268AFB8326CAFBD1
:101C3000EF10102E2A86AE866A85EE85EF10E02E14
:101C40002A8D03A50900AE8DB7B900003385AC40DD
:101C5000EF20E07103A609FC83A649FCEF10502B8E
:101C60002A86AE866A85EE85EF10202C2A8D032504
:101C70000900AE8D3385AC40EF20606F03A609FCF0
:101C800083A649FCEF10D0282A86AE866A85EE85A9
:101C9000EF10A0292A898840AE893385AC40EF2017
:101CA000006DB7B7000003A607FB83A647FBEF1044
:101CB00030262A86AE864A85CE85EF1000272A89EF
:101CC0000840AE893385AC40EF20606A03268AFB6A
:101CD0008326CAFBEF10D0232A86AE864A85CE859E
:101CE000EF10A024EF202062EF30E01623ACA18A91
:101CF000B7B7000083A507E12A84EF201025EF3055
:101D0000000AB7B7000083A547F723A0AB002285E0
:101D1000EF20B023EF30A008336595032320AB00FC
:101D20002285EF30C0073365950323A0AA00EFE0BA
:101D30009FCEEFE01FD1EFE09FD3E5B493870188FA
:101D40009843050798C383270A00FD172320FA004C
:101D500051B323A00B0023200B0023A00A00EFE0C7
:101D6000DF93EFE05FCBEFE0DFCDEFE05FD0375503
:101D700000408545130505C0EF10C0005DB4B717DE
:101D800002409843B706FFF841111367170098C344
:101D9000D84337060200758FD8C39843B706F7FEBD
:101DA000FD16758F98C39843B706FCFFFD16758F17
:101DB00098C3D843B70681FFFD16758FD8C39843E3
:101DC000B70600ECFD16758F98C33707FF0098C75C
:101DD00023A6070202C402C69843C166558F98C362
:101DE000B716024005679C42F18F3EC6A2478507A1
:101DF0003EC4B24781E7A247E397E7FEB717024028
:101E00009C431397E7006357070685473EC6324752
:101E10008547631FF704B7170240D843B706C1FFD1
:101E2000FD16D8C3D843D8C3D84313670740D8C3D7
:101E3000D843758FD8C3D843B7062900558FD8C368
:101E40009843B7060001558F98C3984393166700CF
:101E5000E3DD06FED843B7160240719BD8C3D843D2
:101E600013672700D8C32147DC42B18BE39EE7FE0E
:101E70004101828002C661BF371602405C42914632
:101E8000B18B138741826385D700A1466388D7024F
:101E9000B7177A00938707201CC3B7170240DC43AB
:101EA000918393F6F700B707002093870700B69752
:101EB00094231C43B3D7D7001CC3828054425042A2
:101EC000C167C982BD8A7D8E9387260085CABD46BB
:101ED0006389D702C1466389D702C54581466393AA
:101EE000B700C1470DE63746024003260680418A07
:101EF00015C637167A00130606202DA08146C9475D
:101F0000D5B78546B547F9BF8146BD47E1BF37160E
:101F1000024050429315E600E3DD05FC37163D0014
:101F200013060690B387C7021CC3A5DA1C4385833A
:101F3000A5B701A001A001A001A001A001A001A0DE
:101F400001A001A001A001A001A001A001A001A089
:101F500001A001A001A001A001A001A001A001A079
:101F600001A001A001A001A001A001A001A001A069
:101F700001A001A001A001A001A001A001A001A059
:101F800001A001A001A001A001A001A001A001A049
:101F900001A001A001A001A001A001A001A001A039
:101FA00001A001A001A001A001A001A001A001A029
:101FB00001A001A001A001A001A001A001A001A019
:101FC00001A001A001A001A001A001A001A001A009
:101FD00001A001A001A001A001A001A001A001A0F9
:101FE00001A001A001A001A001A001A001A001A0E9
:101FF00097F1FF1F938101A0176100201301810059
:10200000179500001305456297E5FF1F938585FF2F
:102010001386818363FAC5008322050023A055003F
:1020200011059105E3EAC5FE138581839385C1A05F
:102030006377B500232005001105E36DB5FEFD4271
:10204000739002BCAD4273904280B76200009382ED
:10205000820873A0023097E2FFFF938222FE93E290
:10206000320073905230EFF09FD197F2FFFF9382CE
:10207000E2707390123473002030EFE26F9BB72749
:10208000014093870740631EF50085451305002036
:10209000EF001007814513050020EF0070066FE088
:1020A0006F9BB737014093870780E31AF5FE85459C
:1020B00013050040EF00D004814513050040F1BF37
:1020C0005C413707F1E01307F7EF944D7D8F9C419A
:1020D000D58FD44DD58FD441A206D58FD98F5CC171
:1020E0001C4537F7F1FF1307D77FD4457D8F9C49F7
:1020F000D58F94458606D58FD98F1CC55C5537077B
:1021000010FF7D177D8FDC29FD1793F7F70FD2079E
:10211000D98F5CD582801C4589C593E717001CC503
:102120008280F99BEDBF1C4589C593E707101CC54C
:10213000828093F7F7EFE5BF1C4593E787001CC546
:10214000828008450D81058982801C4593E7470000
:102150001CC5828008450981058982801C4591C57E
:1021600037075000D98F1CC582803707B0FF7D1715
:10217000F98FD5BFA54763F7B7048D47138765FF70
:102180003307F7020328C5009D47B397E70093C7BD
:10219000F7FFB3F70701B396E600DD8E54C5994704
:1021A00063E3C70495477D163306F6025859FD4789
:1021B000B397C70093C7F7FFF98F3396C5005D8EBD
:1021C00050D982800D473387E502032805019D47DA
:1021D000B397E70093C7F7FFB3F70701B396E6009D
:1021E000DD8E14C96DBFB14763E2C702954765161E
:1021F0003306F6021859FD47B397C70093C7F7FF98
:10220000F98F3396C5005D8E10D9828095474D16A3
:102210003306F6025855FD47B397C70093C7F7FF3B
:10222000F98FB395C500DD8D4CD582806845420598
:102230004181828008416D8D3335A00082805C41F0
:1022400091C537070004D98F5CC18280370700FC35
:102250007D17F98FD5BFEFD2BFFD01112A8423046A
:102260000100A5441C8463F9F40423040100A5467D
:1022700021461C8463FFF606231501002304010098
:1022800095461C8463F1F60E38853C8599460D46CB
:10229000B3F7D702056513050580B3D7C7023357D7
:1022A000D702BA97C207C1837C853C8505611D8D25
:1022B000420541856FD01FFA1C4493E787001CC478
:1022C0002285EFF01FE86DFD1C4493E747001CC416
:1022D0002285EFF03FE86DFD78441C8414108607DA
:1022E000B6972396E7FE1C84850793F7F70F5C8467
:1022F00095BFA30401009C846378F6001C848507C5
:1023000093F7F70F5C84B5B798849C840C1006078C
:10231000850786072E97AE970357C7FE83D7C7FE5C
:1023200063FDE7029C848607AE9783D7C7FE7C8552
:102330009C84988485078607AE9783D5C7FE93173C
:1023400017001810BA972396B7FE9C8438850C1096
:1023500085078607AE972396E7FE9C84850793F74B
:10236000F70FDC8449BF1C84101038858907860765
:10237000B29783D7C7FEBA97C207C1837C851C84F6
:10238000850793F7F70F5C84EDBDEFD27FEA054533
:102390007923014569236FD0FFEB4111B7770040E6
:1023A00002C6938707C03EC6B2473E952AC6B247CB
:1023B0008CC3410182804111B777004002C69387E8
:1023C00007C03EC6B2473E952AC6B2478A2341019E
:1023D00082805841032805004C4537060140930789
:1023E00006403E979346F8FFB1C583250640F58D1C
:1023F0002320B640D043F18ED4C31443B3E6060184
:1024000014C3184190479346F7FF758E90C7D04785
:10241000F18ED4C7144541466399C6009447D98EBE
:1024200094C7D447558FD8C78280B6979443558FA9
:1024300098C382801C43F58F1CC38280B70701407C
:102440001387074083A70740584B698F09C77D8DC5
:102450003335A000828001458280B707014023AA5E
:10246000A74082809C4513F7070113F8F70001C7C6
:10247000D8413368E8008E2113F7F50F39C31841AE
:102480008146854E3D4F930F800293028004214E7A
:102490003396DE00B3F8C500631116039398260047
:1024A00033131F011343F3FF3377E300B31818010D
:1024B00033E7E800639FF70550C98506E39AC6FD38
:1024C00018C11307F00F6375B70454412146854EB8
:1024D0003D4F930F800293028004414EB398CE008B
:1024E00033F715016392E80213172600011733131F
:1024F000EF001343F3FFB376D3003317E800D98E10
:10250000639DF701232A15010506E319C6FD54C191
:102510008280E39457FA10C94DB7E39757FE2328FA
:102520001501DDB708456D8D3335A00082800CC9DB
:1025300082804CC98280B707014063570504DC4F95
:10254000135705019376F70013160501370730007E
:1025500041823378E500635C05046319E802138760
:1025600006018D46B396E60093C6F6FFF58F89C93E
:102570001357550112073317E600D98F6357050427
:10258000370701405CCF8280DC435DBF1317B50085
:10259000635607000D47B316D700F9B71357550117
:1025A00012073317E6001347F7FFF98FC9B7631215
:1025B000E8023708014083264800370700F17D17FD
:1025C000F98F758F2322E800C5F5370701405CC3FA
:1025D00082801317B500635C07000D473317D700DF
:1025E0001347F7FF7D8FB707000FD98FF1BF135740
:1025F000550112073317E600E5B713F7C50F93F738
:102600003500B7050140BA9594458A073D47331711
:10261000F7001347F7FF758F98C598453315F500F8
:10262000598D88C5828023A0A18C82809387018CDC
:102630009443182181E63C21920721A89443054642
:10264000639FC6023C21103192076314D60093E7C2
:1026500007F8B7E600E093F7F70FBA962380F64045
:102660008546935757003397E6005441A5C2938798
:1026700007048A07B7E600E0B69798C382808C43C8
:1026800089466391D50214313C216365D6008A06E0
:10269000B6975DB79386E6038A06B69793F7F70F6A
:1026A000920775B790438D46631CD60014313C21C8
:1026B0006364D6008606E9BF9386C6078606F1BF27
:1026C00094439147E39EF6F81C31BDB79387070604
:1026D0004DB7377700401C4309C593E707101CC36B
:1026E000828093F7F7EFE5BFB7160240DC425177DF
:1026F0007D17F98F5D8DC8C28280B7170240238095
:1027000007022380070205476306E50011476306B9
:10271000E50082802380A702828015472380E7029C
:102720008280371702401C535D8D08D3828001C917
:10273000371702401C53A166D58F1CD38280B71671
:1027400002409C5261777D17F98F9CD282803717A7
:1027500002405C439146B18B6385D700A1466382FA
:10276000D706B7177A00938707201CC13716024097
:102770005C4237070020130707019183BD8BBA978E
:1027800094231C41B3D7D7005CC15442A1829D8AD7
:10279000BA969422B3D6D70014C55442AD829D8A0E
:1027A00036971823B3D7E7005CC558423983937630
:1027B00037001387818236971823B3D7E7021CC9E5
:1027C00082805C435843C166C983758FB7F6FF1F8B
:1027D00083A6C670BD8B8907139616016348060051
:1027E000C54601466392D702C94739A88946638F17
:1027F000D702BD46638ED702C146638ED702C54657
:1028000001466393D700C1471DEF374702400327B6
:102810000780418B05C737177A0013070720B307D6
:10282000F7021CC121D61C41858381B701466DBFCB
:102830000546B547D1BF0146BD47F9B737173D003B
:1028400013070790E9BFB7150240D8559316F70054
:10285000D85563DF060411833D8B930617003717A5
:102860007A00130707203357D70218C1D455A18225
:10287000BD8A8DE295463307D702058318C1371705
:102880000240585714413D8B050733D7E60218C163
:10289000184171B785456394B600E546E9BFBD456B
:1028A0006396B600D1463387E602C9BF8906E5BF05
:1028B0003D8B9306170037177A001307072033570D
:1028C000D702F1B799C5371702401C4F5D8D08CF6D
:1028D0008280B7170240984F1345F5FF798D88CF56
:1028E000828099C5371702405C4F5D8D48CF82804A
:1028F000B7170240D84F1345F5FF798DC8CF8280B6
:1029000099C5371702405C475D8D48C78280B7176D
:102910000240D8471345F5FF798DC8C7828001C9A9
:10292000371702401C53C166D58F1CD38280B7165F
:1029300002409C5241777D17F98F9CD28280935739
:10294000550005476399E700B71702409C4333D50C
:10295000A7000589828009476396E700B717024000
:102960009C53F5B7B7170240DC53D5B7B7370040D3
:1029700003D7078089C5598D2390A780828013458E
:10298000F5FF798DD5BFB737004003D74780136770
:1029900007012392E78082803737004083574780C2
:1029A000C207C183BD9BC207C1832312F780828007
:1029B000B736004083D7868103D5C68103D7868189
:1029C000C207131605014207C183418341829386E2
:1029D00006806386E700CA2E4207598D82801395D0
:1029E0000701518D8280EFD2BF8441112AC6EFF0DA
:1029F0009FF93245B7370040135705014205239C24
:102A0000E7804181239EA780EFF01FF941016FD03D
:102A10007F84EFD2FF8141112AC6EFF0DFF6324505
:102A2000B7370040135705013D8B42052394E780DB
:102A300041812396A780EFF03FF641016FD09F813F
:102A4000373700408357478093F70702E5DF8280DE
:102A50003737004083574780C207C183DD9BC207D9
:102A6000C1832312F7803737004083574780A18BFB
:102A7000EDDF8280B737004003D747801345F5FF6D
:102A8000798D2392A7808280373700408357478013
:102A900003570780C207698FC18309C77D8D33350E
:102AA000A000828001458280EFD28FF8EFF09FFC7A
:102AB0006FD04FFA1E2137370140930607C0C20777
:102AC000C1836300D504B7060040630CD50293862A
:102AD00006406308D502B7160040138606806302DD
:102AE000C502938606C0630ED50013070740630A2C
:102AF000E50037570140930607C06304D50063160D
:102B0000E500BA2193F7F7F8D98F37170040630C27
:102B1000E500130707406308E50093F7F7CFFA21B4
:102B2000C207C183D98F1EA1DE215EB59E211EB5CD
:102B3000B7370140138707C0630EE500938707404E
:102B4000630AF500B7570140138707C06304E50027
:102B50006314F5009C251EB985475EA982801E314D
:102B600065771307F7CFC207C183BD9BC207C18337
:102B70001EB11E31562103D88500C20713960601E7
:102B8000162DC18393F7F7FD758F96214182A2061A
:102B9000558FB62142074183B3E606019206D58FD1
:102BA000B7360140C207138806C0C183630E050112
:102BB00093860640630AD500B7560140138806C0C5
:102BC00063040501631ED502B62593F7F7F703D812
:102BD000C5009206D58FD621C207C183920693F70E
:102BE000F7FBD58FFD769386F63FF18EF225C2076F
:102BF000C183336606010A06D18E1396060141820F
:102C000052A11AADFA211ABD1EB182801E2189C5BA
:102C100093E717001EA18280C207C183F99BC207F8
:102C2000C183CDBF5E2501C6DD8D4EA5828093C5D3
:102C3000F5FFFD8DDDBF1A2DFD779387F77FF98FA7
:102C4000A205CD8FC207C1831EAD82804EB18280A6
:102C50000EBD82804A3182801E294A25ED8F4205B1
:102C6000418189C76D8D3335A00082800145828006
:102C700093C5F5FFC205C1810EA98280EFD24FDB5B
:102C80001629F577FD17F58FF621DA257971D58F9D
:102C90001EA95625FD779387379FF58FD6212A8465
:102CA0002EC6D58F9625D58FB625D58F5EA55E29E4
:102CB000C207C18393F7F7CFD98F5EA96808EFF0F9
:102CC0001FA9B747014093870780B245631AF404F0
:102CD000A25756246547B387E702C206C1869841CA
:102CE00063D20604060752244206B3D7E70213074D
:102CF00040064186B3D6E702B3F7E7029206635572
:102D000006028E0793872703B3D7E70213F77700EE
:102D1000B367D700C207C1831EA445616FD08FD3AC
:102D2000925745BF0A07C1B7920793872703B3D7C6
:102D3000E702BD8BD58FF9BF91C55E250967D98F95
:102D40005EA582805A25F977FD17F98FD5BF13F755
:102D5000F50F85471583B395B7006319F7009307FF
:102D6000C500984301CED98D8CC3828089469307D4
:102D70004501E318D7FE93070501E5B793C5F5FFB5
:102D8000F98DDDB793F5F51F4EA182804A211375A9
:102D9000F51F82800A216D8D3335A000828013F7E4
:102DA000F50F85461583B397B6006311D7025A25F0
:102DB000F98F1A2101454207418381CB0545A18145
:102DC000B315B5006D8F3335E000828089466314FA
:102DD000D7001A29F1BF5A29E1BF83A741823717CB
:102DE0007A0013070720B3D7E70293F7F70F23837F
:102DF000F18C1307803EB387E7022392F18C828027
:102E0000B7F700E0D8438146799BD8C303C7618CEC
:102E10003306A70290CBD4CB98431367070198C31E
:102E200098431367170298C3D843058B75DF9843FF
:102E3000799B98C38280B7F700E0D8438146799B9D
:102E4000D8C303D7418C3306A70290CBD4CB984389
:102E50001367070198C398431367170298C3D843B1
:102E6000058B75DF9843799B98C38280EFD24FBC66
:102E70002A841165011185451105EFF0BFA4930760
:102E800000207C82371501408D473EC44C00E1474D
:102E9000130505803EC6EFF0EFDC22C83744014041
:102EA000B70708000C08130504803ECC02CA231E95
:102EB0000100EFF0BFDC854513050480EFF0DFE78C
:102EC00005616FD02FB9EFD20FB5B7440140AE897D
:102ED0003289014493840480634524014A856FD07C
:102EE000CFB6930500042685EFF0DFEA7DD9B387DE
:102EF00089008385070026850504C205C181EFF09E
:102F00007FE8D9BF1387C1821C439386C1A03E9539
:102F1000636BD500B78600209386068063E5A60024
:102F200008C33E858280FD57EDBF370810000111B0
:102F30007D183377B80026CA3378D80093D445017A
:102F400013D34601131E37004EC61357D5010E0882
:102F50009357D60193F4F47F1373F37F06CE22CCFC
:102F60004AC893D9F50193DEF6013367C701131FF1
:102F7000350033E80701931F3600338E64406380C9
:102F8000D9196356C0136304031CB7068000930766
:102F9000F07F3368D800638FF4369307800363C0F3
:102FA000C735FD4763CDC747130500023305C5414B
:102FB000B3D7CF01B316A8003399AF00DD8E3339F4
:102FC0002001B357C80133E926011D8F33092F4172
:102FD000B3372F013306F7409317860063D40724D5
:102FE000370780007D173374E600630C042C2285BC
:102FF000EF200021130785FF93070002998FB35735
:10300000F9003316E400D18F3319E9006341972AA0
:1030100033059740130615007D47634DC7381307E6
:103020000002118FB356C9003319E9003397E70046
:10303000558F333920013369270133D6C7008144C6
:103040009377790081CF1377F90091476308F700F0
:1030500013074900333927014A963A8993178600A6
:1030600063D6071C138514009307F07FCE85630495
:10307000F520B70780FFFD17F18F9398D7011359FB
:103080003900A607B3E82801B1831375F57F93963D
:10309000C7005205F2406244B182FE05C98ECD8E52
:1030A000D2444249B2494685B68505618280631E95
:1030B0000E0A138314001373E37F63170322B367AD
:1030C000E701B368F801639D041A638707406386CC
:1030D00008443309FF41B307074133362F013386D4
:1030E000C7409317860063D6074C3389EF41B30777
:1030F000E84033B62F013386C740F68991B7635055
:10310000C00F6300030CB70680009307F07F33689D
:10311000D800638AF43A9307800363CBC713FD4753
:1031200063DFC73513090EFE93070002B35628016B
:10313000630AFE00130900043309C9413319280149
:10314000B3EF2F013339F0013369D90031A2B367EE
:10315000F801638A071C9307FEFF638C0738930608
:10316000F07F6309DE1A3E8E0DBDB3059340639177
:103170000422B367E701638707329387F5FF638112
:1031800007449306F07F638CD520BE8593078003A8
:1031900063CCB72AFD4763CFB73C930700028D8FFE
:1031A0003319F700B356BF00B317FF003369D900D6
:1031B000B337F0003357B7003369F9003308E840FC
:1031C00041ACB367F801638007349307FEFF638A5D
:1031D00007209306F07F6308DE2E3E8E2DBF631E10
:1031E0000E149386140093F7E67F63910734B36758
:1031F000E7016395042C6380073EB367F801638E93
:1032000007303309FF01B3070701333FE901338674
:10321000E7019317860063D70700B70780FFFD1704
:103220007D8E854493777900E39F07E09317D6015D
:1032300093583900B3E8F800935736001307F07F2E
:10324000638DE404B207B18313F5F47FCE8581B5B5
:103250003369F801333920017A99B337E9013386AC
:10326000E70093178600E3DF07FA85049307F07FF2
:103270006396F418CE851305F07F8147814801BD20
:10328000C1EB6384083A931636009317D8018D82F8
:10329000B3E8D700F68993573800B3E7F800F9DBB5
:1032A00081451305F07FB70708008148CDB3370685
:1032B00080FF7D167D8E93777900998CE39507D8F2
:1032C000B5B74A85EF10D07313078501FD47E3D5E5
:1032D000E7D2130685FFB317C900014905BB33695F
:1032E000F80133392001DDB13309FF4133060741CD
:1032F00033342F01330486409317840063CD0724B1
:10330000B3688900E39308CE8147814981441DBF9A
:10331000E39808F80E059317D7010D81B3E8A700CD
:10332000935737009DBF0E059317D7010D81B3E862
:10333000A700F2849357370011B733059340638297
:103340000412B70680009307F07F558F630DF32EAC
:103350009307800363CBA720FD4763C3A72A930786
:103360000002898F3319F700B356AF00B317FF007F
:103370003369D900B337F0003357A7003369F90038
:103380003A987E99B337F901338607019A84D1BD03
:10339000B70680009307F07F558FE319F3DE93178C
:1033A00036008D839318D801B3E81701F689935737
:1033B0003800E5B5130715FE9306000233D7E70082
:1033C000630AD600930600043386C6403396C700CE
:1033D0003369C900333920013369E900014681446A
:1033E00091B53309FF01B30707013336E9013E9672
:1033F000931786008544E3D707E28944B70780FF27
:10340000FD17F18F1357190013791900336927013C
:103410009398F70133E9280113D6170015B1130962
:103420000EFE93070002B3562801630AFE0013093B
:1034300000043309C94133192801B3EF2F0133398F
:10344000F0013369D90059B63369E70133392001F6
:1034500033892F41B3B72F013306F8409A84F68998
:10346000A5BEB367E701638207189307F5FF63847E
:10347000071C9306F07F6304D5123E85D1BD9307E8
:103480000002B387C741B316F8003399FF0033D663
:10349000CF01D18E33392001B357C80133E926015A
:1034A0003E975DBB931736008D839318D801B3E820
:1034B0001701AE8493573800F68949B3EDC33369D9
:1034C000F801E31F09DC0E059317D7010D81B368DE
:1034D000F50093573700D1B36381080E9316360079
:1034E0009317D8018D82B3E8D700F6899357380037
:1034F00091BB3309FF41B3070741333F2F013386A7
:10350000E7418544D1BC0E059317D7010D81B368FF
:10351000F500F2849357370015B30E059317D701C2
:103520000D81B3E8A7009357370029BB9307F07FBD
:10353000E382F6D43309FF013336E901B30707010B
:10354000B2979398F7011359190033E9280113D65C
:103550001700B684C1B93389EF413307E84033B669
:103560002F013304C740F68949B43369E701333981
:10357000200101BD938705FE93060002B357F700B3
:10358000638AD50093060004B385B6403317B700AD
:10359000336FEF003339E0013369F90055BD9317FC
:1035A00036008D839318D801B3E81701935738007C
:1035B000EDB1B368C900E39708C68147814959B1A5
:1035C0003389EF41B307E84033B62F013386C74054
:1035D000F689854411B4931636009317D8018D826D
:1035E000B3E8D70093573800B1B993163600931754
:1035F000D8018D82B3E8D700AA84935738003DB92B
:10360000930705FE93060002B357F700630AD5003F
:10361000930600043385A6403317A700336FEF00ED
:103620003339E0013369F900A9BB81451305F07F07
:10363000B7070800A9BC3309FF01B30707013336F8
:10364000F9013E9675B3931636009317D8018D8213
:10365000B3E8D7009357380089B113D74501B707AE
:103660001000FD1713D846011377F77F9308F07FFA
:1036700033FEB700AA8EF58FFD81328F1378F87F65
:10368000FD82630E1703630D180129E3B368AE00D2
:10369000631F08005D8E01EE0143638C080421A8BE
:1036A000B3E8C7000943639608046DD305A063849B
:1036B00008046385D50205438DCD7D531DA8B368ED
:1036C000AE00094363970802630AE8026314080026
:1036D0005D8E75D2E391D5FEE34FE8FC63490701A7
:1036E000E3EBC7FD630FFE0001436374FE00F1D5F9
:1036F00005431A858280EDFE7D53E5BF5D8E79DA44
:10370000CDBFE36ADFFB0143E3F5EEFFF5F175B7EB
:1037100039714AD813D945014ED652D456D293990D
:10372000C50006DE22DC26DA5AD05ECE1379F97F98
:103730002A8A93D9C90093DAF501630D090E93071C
:10374000F07F6306F9181354D5018E09B36934016B
:103750003704800033E4890093143500130919C03D
:103760008149814B13D74601139AC6001377F77F1F
:10377000B285135ACA0013DBF601630B07109307D7
:10378000F07F6303F7049357D6010E0A33EA47012B
:10379000130717C0B7078000B367FA009315360008
:1037A0003A99814833C76A01BD463A851308190022
:1037B00063E8361717860000130646868A09B29911
:1037C00083A60900B2968286B367CA001309F97FFF
:1037D0006399071293E9290081458948E1B70147B8
:1037E0009307F07F3704080081443204D207318008
:1037F0007E075D8C598CA285F25062542685425911
:10380000D254B259225A925A025BF24B2161828001
:103810005A853E84AE84C68B8947638DFB0E8D47E7
:10382000E38FFBFA85472A87639EFB388147014473
:10383000814465BF33E4A90061C036C632C4638CDD
:10384000092A4E85EF10D01B2246B246AA871307DD
:1038500055FF7544938487FF198CB39999003354AD
:103860008A0033643401B3149A0013D74601130954
:10387000D0C0139AC6001377F77F3309F940814906
:10388000814BB285135ACA0013DBF601E31907EE28
:10389000B367CA00B1C7630F0A22528532C4EF1062
:1038A000301622462A87930655FFF547930587FF72
:1038B000958F331ABA00B357F600B3E74701B31533
:1038C000B6003309E9401309D9C08148E1BD33E4AA
:1038D000A90001ECA14981441309F07F894B59B536
:1038E00093E919008145854875BD4E84AA84B14984
:1038F0001309F07F8D4BBDB5914981440149854B3A
:1039000095B593E93900D2878D4869BD89475685B9
:10391000E397FBF02A879307F07F01448144F1B5D8
:10392000C16E1386FEFF93D6040113DE0501F18CF0
:10393000F18D338695023383B60293580601330521
:103940009E021A95AA98B382C60363F36800F692A2
:10395000C16F1383FFFF33F5670093D30701B3F7FC
:103960006800C207337366003E933306950293D80E
:103970000801B387A602135F0601B3849302BE94C5
:10398000FA94B38E760263F3F400FE9E416A9307C5
:10399000FAFF935F0401B376F400B3F9F4007D8E6F
:1039A000C1803384D502C209338FD401B299CE9835
:1039B000B307DE02935E0401B385BF02AE97BE9EDD
:1039C000330EFE0363F3BE00529EC1679385F7FF7B
:1039D00033F6BE006D8C4206229693DE0E01B305CF
:1039E000D502769E3385AF0213D40501B386D30288
:1039F000AA96A296B38FF30363F3A600BE9F416518
:103A00007D15B3F7A600C2076D8DAA97B385580040
:103A1000B3B93501FA97B2953384370133B6C5008F
:103A2000B30EC4013385CE0033343401B3B7E7019C
:103A3000C18F33BECE0113D406013336C5003E9488
:103A40003366CE009394950032947E94B3E4640080
:103A5000260493567501B3349000DD8193179500C9
:103A6000CD8C558CDD8C9317740063DB070093D7E6
:103A7000140085889316F401DD8CD58C058042896D
:103A80009307F93F6359F00893F6740081CE93F6DB
:103A9000F40011466388C60093864400B3B49600D0
:103AA0002694B6849316740063D80600B70700FF07
:103AB000FD177D8C930709409306E07F63CFF60ED8
:103AC00093D634009314D4012604D58C318093F717
:103AD000F77F21BB328532C4EF1080729306550107
:103AE000F147130705022246E3D1D7DC6115B3176E
:103AF000A6008145F9B3EF10A07013075501F145F9
:103B0000930705022246B246E3D5E5D46115331486
:103B1000AA00814499BB85469D8EB1E71309E9410E
:103B2000B3972401B3D4D40033192401B337F00080
:103B3000B3649900DD8C93F77400B356D40081CF41
:103B400093F7F40011466388C70093874400B3B429
:103B50009700A696BE849397860063D8070485478E
:103B60000144814459B113068003E341D6CC7D461C
:103B7000E356D6FA0556B307F640930500023356CE
:103B8000F4006387B6001309E943B3172401DD8C01
:103B9000B3349000D18C93F67400014499CA93F722
:103BA000F40011468146E392C7FA139496003180DF
:103BB000F6068D80D58C81470DB99307F07F0144BF
:103BC000814425B142896DBD370710007D17011171
:103BD0003373B70093D84601758F935ED60122CC1C
:103BE00026CA0E0393D445019357D5010E0706CE7E
:103BF0004AC84EC693F8F87F130EF07F33E7EE0005
:103C000093F4F47F13D4F50133E36700131F3500F9
:103C1000FD82931E36006380C81993C61600B385D3
:103C200014416305D4126351B018638B081AB707A7
:103C300080005D8F6381C4599307800363C4B734E8
:103C4000FD4763C5B748930700028D8FB3D9BE0007
:103C50003318F700B39EFE00336838013357B700BE
:103C6000B339D001336838013303E340B3090F415E
:103C7000B3373F013306F3409317860063D307241D
:103C8000370980007D1933792601630F092C4A8595
:103C9000EF100057130785FF93070002998FB3D7E2
:103CA000F9003316E900D18FB399E9006344972AEC
:103CB000058F13061700FD4663C5C63A13070002B9
:103CC000118FB3D6C9003398E9003397E700558FB9
:103CD00033380001B369070133D6C700814493F735
:103CE000790081CF93F6F90091476388F6009386B7
:103CF000490033B836014296B6899317860063D6D9
:103D0000071C138714009307F07F05886306F720CC
:103D1000B70780FFFD17F18F1398D70193D93900AA
:103D2000A60733683801B1831377F77F9396C700EE
:103D30005207B1827E04D98EC18EF2406244D244D1
:103D40004249B2494285B685056182806356B00A10
:103D5000638A0812B70780005D8F6387C42D9307BD
:103D6000800363C7B718FD4763D2B73C138805FECD
:103D700093070002B3590701638AF5009307000413
:103D8000B385B7403317B700B3EEEE003338D00138
:103D90003368380195A2B367D7019385148099E3FE
:103DA00093C61600630AD404D1E19387140093F7F5
:103DB000E77F6399071EB367E3013368D701639216
:103DC00004166382073C63160842131835009316E5
:103DD000D3011358380033E806019357330019A272
:103DE000B367D7016385071A9387F5FF638B073A9B
:103DF000638CC523BE8589B56399051C9386140021
:103E000093F7E67FC1EFB367E30163900436638DF8
:103E10000744B367D701639407460E051318D3010F
:103E20000D813368A800935733006DA8B38598407F
:103E300063970420B367E301638D07309387F5FF31
:103E4000638907401305F07F6383A520BE85930730
:103E5000800363C2B72AFD4763C8B73C93070002DB
:103E60008D8F3318F3003356BF00B317FF0033684C
:103E7000C800B339F0003353B30033683801330757
:103E80006740B5ACB367D701638307109387F5FF2D
:103E9000638F071E6380C52FBE85D1B59307F07F62
:103EA000638BF606FA9E33B6EE01B307E300B297D2
:103EB0001398F70193DE1E00B369D80113D61700DB
:103EC000B68493F77900E39F07E09317D60113D8E0
:103ED00039003368F800A685935736001307F07F42
:103EE0006380E506B207B18313F7F57F05883DBD12
:103EF0003367D7013338E000B309E801B3B7E9010C
:103F00003386670093178600E3DD07FA850493077D
:103F1000F07F639CF41805881307F07F8147014800
:103F200031B5639107106301083C131836009317ED
:103F3000D701135838003368F80036849357370098
:103F4000B367F800E9DB01441307F07FB707080007
:103F50000148E9BB370680FF7D167D8E93F7790017
:103F6000998CE39107D895B74E85EF106029130718
:103F70008501FD47E3D2E7D2130685FFB397C90059
:103F800081492DB33368D70133380001C5B1131807
:103F900035009317D301135838003368F80093574E
:103FA00033002DBFB309DF413309E34033363F010E
:103FB0003309C9409317890063CA072033E82901F0
:103FC000E31508CC8147014431BFB3859840638134
:103FD0000414B70680009307F07F3363D300638136
:103FE000F8209307800363CCB722FD4763C9B72C41
:103FF000930700028D8F3318F300B356BF00B31739
:10400000FF003368D800B339F0003353B30033688E
:1040100038011A97B309D801B3B7D9013386E7003D
:10402000C684CDB5E31108F2131835009317D301F8
:10403000135838003368F8009357330011B7370529
:1040400080009307F07F3363A300E392F8E00E064D
:104050001318D7010D823368C80093573700368490
:10406000C5B505179306000233D7E700630AD600EB
:10407000930600043386C6403396C700B3E9C900EF
:1040800033383001B369E800014681441DBDB309EE
:10409000DF01B307E30033BFE9013386E70193177C
:1040A00086008544E3DF07E08944B70780FFFD17FA
:1040B000F18F13D7190013F819003368070193998A
:1040C000F701B3E9090113D6170011B9138805FEEA
:1040D00093070002B3590701638AF50093070004B0
:1040E000B385B7403317B700B3EEEE003338D001D5
:1040F00033683801A5BE3363E30133386000B38908
:104100000E41B3B73E013306F740C6843684ADB6E0
:10411000B367E301638707189387F5FF638C071C78
:104120009306F07F638ED50ABE8565BD93070002B6
:104130008D8FB3D9BE003318F700B39EFE003368ED
:1041400038013357B700B339D001336838013A9397
:1041500065B3131836009317D7011358380033E8A6
:10416000070136849357370095BBBDCB3367D70122
:10417000E31B07DC0E051318D3010D813368A8007B
:104180009357330075BBE30F08E2131836009317FB
:10419000D701135838003368F80036849357370036
:1041A00091B3B309DF41B307E340333F3F013386A7
:1041B000E7418544D1B4131835009316D301135841
:1041C000380033E80601935733009DBBB389EE41B5
:1041D0003306674033B93E0133092641368475B44E
:1041E0000E061318D7010D823368C80093573700A5
:1041F00081BBB309DF41B307E34033363F01338668
:10420000C7409317860063D7070AB389EE41B30707
:104210006740B3BE3E013386D7413684C9B43363A9
:10422000E30133386000FDB3138805FE93070002F5
:10423000B3590301638AF50093070004B385B740BF
:104240003313B300336F6F003338E0013368380144
:104250007DB5B389EE41B3076740B3BE3E013386F7
:10426000D7413684854409BC131836009317D7010B
:10427000135838003368F80093573700A5B1B309D5
:10428000DF01B307E30033BFE9013386E70193178A
:104290008600E3D807C2B70780FFFD177D8E8544EF
:1042A0000DB10E061318D7010D823368C80093575D
:1042B00037002DB133E8C900E30608D019B11388DF
:1042C00005FE93070002B3590301638AF5009307C3
:1042D0000004B385B7403313B300336F6F00333836
:1042E000E001336838013DB301441307F07FB7079D
:1042F00008002DBCB309DF01B307E300B3BED90149
:104300003386D70169BB93D74501B70610001387E1
:10431000F6FF93F7F77F1306E03F6D8FFD81635C37
:10432000F6001306D041635AF600370500801345A6
:10433000F5FF2E95828001458280130630431D8E45
:104340007D48558F635DC80093063041B387F640C2
:10435000B357F7003305F040E5F13E85828093873F
:10436000D7BEB317F7003355C500C98FE5B7411164
:1043700006C622C426C20DCD9357F541B3C4A7008B
:104380009D8C2A842685EF00B0679306E041898ED4
:10439000A9477D8093F6F67F63CDA7022D47098F4D
:1043A000B3D7E4005505B207B394A400B18329A0A4
:1043B0000144814681478144B207D206B1837E041D
:1043C000D58FC18FB24022442685BE8592444101DB
:1043D00082805515B397A400B207B1838144E9BF29
:1043E0004111370780007D1713D8750126C29354F9
:1043F00075013373A70093F4F40FB376B7004AC086
:104400001378F80F1359F50106C622C4FD819A8767
:1044100026854A86131E3300939E3600B3880441D6
:10442000630AB90E6350100D630408149307F00F6C
:10443000638BF414B7070004B3EEFE00ED4763C1CD
:10444000172993070002B3871741B397FE00B3D82B
:104450001E01B337F000B3E7F800B307FE4013972F
:104460005700635E0718370400047D147D8C228595
:10447000EF0010596D15B317A4006348951A058D08
:104480001304150013070002018F3397E700333739
:10449000E000B3D78700D98F814413F7770019C79D
:1044A00013F7F70091466303D7009107139757005E
:1044B000635B071485041307F00F4A866383E416D1
:1044C0009A07A58313F5F40FB2402244A60793146C
:1044D000750113D59700458D7E0692440249518D92
:1044E000410182806399080A138714001377E70F4C
:1044F0006317071463900422630D0E1EE3860EFCFF
:10450000B307DE411397570063500722B387CE41AC
:104510002E8961B7635C100B630E08089307F00FD8
:104520006383F406B7070004B3EEFE00ED4763C9EA
:10453000171F93070002B3871741B397FE00B3D844
:104540001E01B337F000B3E7F800F2971397570056
:104550006357070A85041307F00F6384E40CB7065A
:10456000007E13D71700FD16858B758FD98F35B751
:10457000638D0E08FD18B307DE41E38208EE930752
:10458000F00FE39DF4EA630D030801461305F00FF5
:10459000B707400015BF33079840EDE863020E14DB
:1045A0007D17630807189307F00F6319F80E2E891B
:1045B0003683D1BF638B0E04FD18B307DE01E3879A
:1045C00008F89307F00FE393F4F675BF63950808B6
:1045D000850413F7E40F6313071263170510630FC5
:1045E0000E14E3830EEEB307DE01139757008144E8
:1045F00063570700370700FC7D17F98F854413F7D1
:104600007700E31F07E813D337009307F00FE38C1D
:10461000F4F693179300A58313F5F40F4A866DB54E
:104620004A861305F00F814745B5370700FC7D1713
:10463000F98F13F77700898CE31407E6E9B73304A1
:10464000DE419317540063C3070CE31204E20146F2
:104650000145814795BD33079840ADC49307F00FDE
:10466000E308F8F4B7070004336EFE00ED4763CCAF
:10467000E70C93070002998FB317FE003357EE0043
:10468000B337F000D98FF697C284C9B59307F00FFE
:10469000E30FF8F0B7070004336EFE00ED4763C385
:1046A000E70893060002998EB316DE00B357EE00BA
:1046B0003337D000D98FB387FE40C2842E8945B3EB
:1046C000854761BB630E0E067D17B307DE01C2840A
:1046D000E30E07E69307F00FE31AF8F8368365B5A3
:1046E0003683C2842E8915B7E3040EECE38D0EE801
:1046F00069BD638D0E022E86B687F9B39307F00F5E
:10470000E381F4F2B307DE018583D5BD3384CE4166
:104710002E89B1BBE31C0EFCE3890EE62E8949BD50
:10472000854725B5854741BFE39B07EC0146814797
:1047300061BBB387CE41C2842E8915B3B68769B3F6
:104740003683C284D9B585473DBF3971935775010A
:104750004AD856D25ECE931A95001359F50106DE5B
:1047600022DC26DA4ED652D45AD093F7F70F93DADA
:104770009A00CA8B638207121307F00F6384E71253
:104780008E0A37070004B3EAEA00138A17F80144D7
:10479000014B93D775019394950093F7F70FA5807C
:1047A00093D9F501FDC71307F00F6387E7028E0465
:1047B000938717F837070004D98C330AFA408146EB
:1047C000558C17770000130767890A043A941C4038
:1047D00033493901BA978287130A1AF0F9E88946F2
:1047E000558C177700001307678B0A043A941C4016
:1047F00033493901BA97828701491307F00FB70788
:10480000400013959700F250625493177701258169
:104810007E095D8D33652501D2544259B259225A21
:10482000925A025BF24B216182801307F00F81479D
:10483000C9BFA68ACE8B368B8947630BFB1A8D477F
:10484000E30CFBFA8547630AFB0A1307FA0713F91F
:104850001B006357E01293F77A0099C793F7FA00A9
:1048600091466383D700910A93974A0063D9070062
:10487000B70700F8FD17B3FAFA0013070A08930701
:10488000E00FE3C4E7FA93976A00A5831377F70F65
:104890008DBFB9E48546A9B763940A021144014A61
:1048A000054BC5BD63990A002144130AF00F094B5B
:1048B000CDB58D4631B73144130AF00F0D4BD1BD44
:1048C00056852EC6EF00D0139307B5FFB39AFA00B2
:1048D0009307A0F8338AA7400144014BB24555BD68
:1048E0002685EF00F0111307B5FFB307AA00B394B4
:1048F000E400138A67078146E1B513F91B000147FD
:10490000814701B74166139554007D169357050101
:10491000698E63FA9A0AB3D5FA027D1AD6860147E0
:104920003388C502B3F6F602C206558F637B0701D2
:104930002A979386F5FF6368A70A6376070BF91534
:104940002A9733070741B356F7023377F702B38A42
:10495000C6029317070163FB5701AA971387F6FF57
:1049600063E1A70863FF5707F916AA97C205B38A40
:104970005741D58DB33A5001B3EA5501CA8BF1B511
:104980008546998E11C76D4601478147E34BD6E6B0
:10499000130AEA09339A4A01B3D7DA00B33A40015D
:1049A000B3E7570113F7770019C713F7F7009146DC
:1049B0006303D700910713975700634807029A07CC
:1049C000A58301473DBD93D61A00B3D5F6021397D0
:1049D000FA0141833388C502B1B7CE8B368B814A49
:1049E000A1BDBA8661B7B685A9BF0547814711BD8C
:1049F00013F91B001307F00F814721B5935675017A
:104A0000B7078000FD1713D6750193F6F60F13084C
:104A1000F00FB3F8A7001357F501ED8F1376F60FDB
:104A2000FD8163810603630C06018DE211E2B1C3CF
:104A3000638E08026305B70405451DE78280F5D73C
:104A400079558280E39E08FE6309D60211E2EDD714
:104A5000E314B7FEE342D6FE63C7C600E3EE17FDDC
:104A60000145E3FDF8FC01E77D558280F5DD054554
:104A700082800145E39208FC8280F9DBD1B7814650
:104A8000E1BF93567501B7078000FD1713D6750176
:104A900093F6F60F1308F00FB3F8A7001357F501BC
:104AA000ED8F1376F60FFD81638706036309060118
:104AB00085EA11EA89EB0145639B0800828009457C
:104AC000F5FFE5DA31A8638C08026300B7040545F9
:104AD00075D77D5582800945639808026304D60224
:104AE00011E2F5D7E315B7FEE343D6FE63C7C60070
:104AF000E3EF17FD0145E3F3F8FC19E3D9BFF1D962
:104B000005458280E5D3828082808146C5B7797170
:104B100022D4135475014ECE52CC9319950006D66B
:104B200026D24AD056CA5AC81374F40F93D99900A2
:104B3000135AF50169C49307F00F6308F40E9397B5
:104B4000390037070004B3E9E700130414F881447F
:104B5000014B13D77501939A95001377F70F93DAEA
:104B60009A0013D9F50145CF9307F00F630CF702B4
:104B70008E0A130717F8B7070004B3EAFA003A944D
:104B8000014633452A01BD47AA869305140063E018
:104B9000971017670000130767548A04BA949C4063
:104BA000BA9782871304F40F63960A0C93E42400E7
:104BB0000946C1BF01451307F00FB7074000B250C7
:104BC0002254A6075E07A5837E05D98F9254025909
:104BD000F249624AD24A424B5D8D45618280CA8663
:104BE000D689328B8947630FFB088D47E304FBFCB2
:104BF000854736856310FB1A01478147C9B7639D16
:104C0000090413D77501939A95001377F70F914410
:104C10000144054B93DA9A0013D9F50131F7639DEE
:104C20000A0093E414000546A9BF63920902A14457
:104C30001304F00F094B31BF5685D9239307B5FFF5
:104C4000098CB39AFA001304A4F801461DBFB144BD
:104C50001304F00F0D4BF5BD4E852EC6552393075B
:104C6000B5FF1304A0F8B399F900098C8144014BF6
:104C7000B245C5B593E434000D4621B78947D286C5
:104C8000E315FBF636851307F00F81470DBF41632F
:104C90009306F3FF13D6090193D80A01B3F7D9009D
:104CA000B3FADA0033885703B389F80213570801BF
:104CB000B30A5603D6994E9733061603637357010A
:104CC0001A96C167FD17B376F7003378F800C2066D
:104CD000C2969399660093570701B3393001E98270
:104CE000B2979A07B3E6D900B3E9D7009397490082
:104CF00063D9070013D7190093F71900B369F700B8
:104D00002E841307F4076350E00493F7790099C7E2
:104D100093F7F90091466383D7009109939749006F
:104D200063D90700B70700F8FD17B3F9F9001307B7
:104D300004089307E00F63CBE70493976900A5830A
:104D40001377F70FADBD8547B386E74011C76D46B2
:104D500001478147E345D6E61307E4093397E900A5
:104D60003337E000B3D7D900D98F13F7770019C7CD
:104D700013F7F70091466303D70091071397570085
:104D8000634C07009A07A583014715BD1307F00F71
:104D9000814735B52E84B5B7054781470DB5370630
:104DA0008000135775019307F6FF1377F70F9305EC
:104DB000E007B3F6A7009357F50163FCE500930500
:104DC000D00963FAE500370500801345F5FF3E95ED
:104DD00082800145828093055009D18E63CDE50024
:104DE000130660093307E64033D7E6003305E04099
:104DF000F5F33A8582801307A7F63397E600FDB7EF
:104E000013577501370680009307F6FF1377F70FE6
:104E10009305E007B3F6A7009357F501014563F446
:104E2000E50099C3828082809307E0097D55E3EB1A
:104E3000E7FE93055009B3E7C60063D7E500130703
:104E4000A7F63395E7008280130560093307E54034
:104E500033D5E7008280411106C622C426C20DCD9B
:104E60009357F54133C4A7001D8CAA842285492E8F
:104E70009307E0093387A74093076009FD8063CC5F
:104E8000E702A1469377F70F63D5A60061153314A7
:104E9000A4002604258021A08144814701442604E2
:104EA00013559400B2402244DE07FE045D8D458D0B
:104EB0009244410182809307900963DDE7009307E4
:104EC000B5019546B317F400898E3354D400B33737
:104ED000F0005D8C954763D6A7009307B5FF3314A8
:104EE000F400B70600FCFD16937774003376D40007
:104EF00085C39377F4009145638CB700110693172F
:104F0000560063D707009307F009758E3387A740D3
:104F10001314660025809377F70F51B7411106C629
:104F200022C415CD2A84E92C9307E0093387A740D2
:104F30009307600963C0E704A1469377F70F63D531
:104F4000A60061153314A4002604258026041355F9
:104F50009400B2402244DE075D8D4101828001440D
:104F6000260413559400B24022448147DE075D8D2C
:104F7000410182809307900963DDE7009307B50143
:104F80009546B317F400898EB337F0003354D4003C
:104F90005D8C954763D6A7009307B5FF3314F400E3
:104FA000B70600FCFD16937774003376D40085C3F2
:104FB0009377F4009145638CB70011069317560060
:104FC00063D707009307F009758E3387A740131442
:104FD00066002580260413559400B240224493773E
:104FE000F70FDE075D8D410182801357750113773E
:104FF000F70F41119307170022C426C2131495001E
:1050000006C693F7E70F25809354F50185C793579C
:105010003400130707387604B2075207B18313959B
:10502000F401D98FC98FB240228522449244BE85B3
:105030004101828005EB39C42285D922A94763C684
:10504000A7042D47098F930755013357E400331404
:10505000F4009317C70013079038098FB1831377B3
:10506000F77F5DBF01CC13573400B7070800D98F15
:10507000B2077604B1831307F07F79BF1307F07F7F
:10508000814759BF0147814741BF130755FF331778
:10509000E40001447DBF93D645019397C50093F684
:1050A000F67FB183138616008E071357D50113764A
:1050B000E67FFD815D8F9318350035CE138806C8D5
:1050C0009307E00F63DD070181471395970093066F
:1050D000F00FDE062581FE05558D4D8D82806355CE
:1050E000000B931765000E07B337F000D98F93D8E4
:1050F000D801B3E7170113F777006301071013F71F
:10510000F70091466303D7009107370700047D8FAE
:1051100075C7130718001306F00F9376F70FE30512
:10512000C7FA9A07A58313959700DE062581FE0529
:10513000558D4D8D8280B367170199EE85CF9547C8
:105140009A07A5831395970093F6F60FDE0625813F
:10515000FE05558D4D8D8280A5DBB7074000139568
:1051600097009306F00FDE0681452581FE05558DDB
:105170004D8D82808147139597008146DE062581FB
:10518000FE05558D4D8D8280A5576348F804F9477B
:1051900037068000B38707417D45598E6351F5047A
:1051A000795733070741130500023357E600638838
:1051B000A700938626CAB316D600B3E8D800B33743
:1051C0001001D98F13F77700014815FB139757008B
:1051D0008546E34807F48146A5B781468DB7938697
:1051E00026C83397D8003337E000B316D600B3D8BB
:1051F000F800B367D700B3E7F800E9B7C28689B70C
:10520000C167637CF5029307F00F1307000263EB9D
:10521000A70097670000938767F0AA978823330554
:10522000A7408280218197670000938727EFAA9784
:10523000882361473305A7408280B7070001636D6B
:10524000F500618197670000938747EDAA9788234F
:1052500021473305A74082804181976700009387EB
:10526000E7EBAA97882341473305A74082807971ED
:1052700022D44AD052CC56CA5AC806D626D24ECECE
:105280003A8AAE8A32843689428B014763580600D7
:10529000370700803344C7001307D00298A393F464
:1052A000F8FD930760048D466388F400930750046B
:1052B00089466393F4000509DA879308C10013084F
:1052C00081004A87D6852286EF20200B9307700441
:1052D000AA896396F400137A1A00630A0A049307F2
:1052E0006004338A29016397F40203C70900930716
:1052F0000003631EF700014681465685A285EF50E4
:10530000403A11C585473389274123202B01832744
:105310000B003E9A014681465685A285EF506038C3
:1053200011E152C613070003B24763E24703B247D5
:105330004257B2502254B38737411CC34E85925412
:105340000259F249624AD24A424B456182809386B1
:10535000170036C698A3C9BF10A1130725009307ED
:10536000B00263D60500B305B0409307D0021CB16C
:10537000A54763DAB70441119307F100BE882948B5
:1053800013033006B3E605031386F7FF938606037F
:10539000A38FD7FEB3C60503634DB3009386060300
:1053A000F917A30FD6FE63E917013305A7404101A2
:1053B0008280B287B685F9B7850783C6F7FF0507F0
:1053C000A30FD7FECDB793070003130745009385BE
:1053D00005033CA12CB13305A740828019713ACE58
:1053E00086DEA2DCA6DA2E84CAD8CED6D2D4B6897E
:1053F000DAD0DECEE2CC3289D6D2E6CAEAC8EEC630
:10540000AA84EF308069832B05005E85EF00F0638E
:10541000032B0400724702DC93760B102A8C034A9C
:1054200084011C43F1CA9386470014C39C430810AF
:1054300098433AD0D8433AD298473AD4DC473ED63C
:10544000EF50A06128C46CC4832CC404176700000B
:105450001307C7DC832A8404032D0700832D47002C
:1054600093971C0085836A86EE865685BE853ECE60
:10547000EF50A03441EDF2476A86EE865685BE8530
:10548000EFE0AF9D6354A008014681465685E6854E
:10549000EFE0AF9C635605009307D002A301F4042C
:1054A00093077004976A0000938ACAD763F647018E
:1054B000976A0000938A4AD7137BBBFF8D4723204E
:1054C00064011CC8014B4E87CA867018A2852685C8
:1054D000C12EFD5C631E95157D55F6506654D6545D
:1054E0004659B659265A965A065BF64B664CD64C28
:1054F000464DB64D096182809D07E19B93868700EA
:1055000014C39843DC4338C47CC43DBF5686E6864A
:105510005685E685EF50602A11CD93077004976A8F
:105520000000938AAAD0E3F947F9976A0000938AAA
:105530002AD059B75C407D57137DFA0D6395E70873
:1055400099475CC0544013670B403C18D6853EC059
:1055500018C09307310302C2D2881308410366863C
:105560002685EFF0DFD093077004AA8AD255631B1B
:10557000FD00F55763C5F5005C4063D8B708791A9C
:10558000137AFA0F9307500663E64705FD15528616
:10559000130504052EDAEFF03FDC625785462A8BAF
:1055A000B307A7001CC863C5E6001840058B19C3E4
:1055B00085071CC883473103E38707F09307D002B0
:1055C000A301F40409B713077004E31DEDF6BDFB56
:1055D000854785BF93076006631BFA025C40635BE7
:1055E000B0000CC881E71840058B09CF8507AE973E
:1055F0001CC809A889E718408546058B19C39386FE
:10560000270014C82CCC014B75B7130A7006E2575B
:1056100063C9F5001C400CC8858BEDD79387150036
:10562000C1BF05476344B00009470D8FBA97C9B79A
:105630001C4013F7074015E314485686CA85268593
:105640008299E30B95E91C40898B63960724F257F6
:105650004844E354F5E83E8549B513075006637B9B
:10566000471928446C4401468146EF50800339E9CC
:105670008546176600001306E6BBCA852685829913
:10568000E30C95E55257E2576345F7001C40858BC4
:10569000DDDBE2865E86CA8526858299FD57E30DAD
:1056A000F5E2014A930AA4017D5BE257FD17E35C32
:1056B000FAF885465686CA8526858299E30E65E105
:1056C000050AE5B7D2576346F0068546176600001F
:1056D000130646B6CA8526858299E30F95DFD25711
:1056E0006257D98F81E71C40858BB1DFE2865E86E9
:1056F000CA8526858299FD57E300F5DE014A130B22
:10570000A401FD5BD257B307F040634BFA00E256A9
:105710005686CA8526858299FD57E316F5F26DBB3C
:1057200085465A86CA8526858299E30775DB050A70
:10573000D1BF3C4C625A63D347013E8A635A400151
:10574000D2865686CA8526858299FD57E306F5D806
:10575000814C130DA401FD5D09A885466A86CA85A2
:1057600026858299E30AB5D7850C032B8405D28759
:1057700063530A008147B307FB40E3C0FCFE525766
:10578000E257634DF7021C40858B8DEBE257525771
:10579000338AE7406344EB00338A6741635B40012F
:1057A000D28633866A01CA8526858299FD57E3052C
:1057B000F5D2814A130BA401FD5B15A0E2865E863B
:1057C000CA8526858299FD57E312F5FC31B38546DB
:1057D0005A86CA8526858299E30075D1850A525773
:1057E000E257998F528763530A000147998FE3C0AC
:1057F000FAFE91BDE25605476344D700858BB5C7D5
:1058000085465686CA85268582997D5AE30645CD0A
:10581000E2865E86CA8526858299E30F45CB2844B9
:105820006C4401468146EF40D0671DC9E25613869D
:105830001A00CA85FD1626858299E30F45C9DA86C6
:1058400013060405F9B585465686CA8526858299CC
:10585000E30475C9050AE257FD17E346FAFEC5B72A
:10586000014A930AA401FD5BFDB785465686CA85A9
:1058700026858299E31595FD85B185465686CA85AC
:1058800026858299E30A65C5050A5C447257998F9B
:10589000E345FAFE6DBB014A930A94017D5BF5B7BF
:1058A000797156CA9C49BA8A984522D426D24ECEDE
:1058B00052CC06D64AD05AC85EC6AA892E84B28473
:1058C000368A63D3E700BA879CC00347340419C300
:1058D00085079CC01C4093F7070281C79C4089073D
:1058E0009CC00329040013796900631A0900130B93
:1058F0009401FD5B5C449840998F634CF9041C4013
:105900008346340493F70702B336D000A5EB1306A1
:105910003404D2854E85829AFD576303F5041C40FA
:1059200011469840998B544481446397C700B384CF
:10593000E64063D3040081441C4418486354F700D4
:10594000998FBE94014969047D5B639824050145E4
:1059500009A885465A86D2854E85829A631E7501AE
:105960007D55B250225492540259F249624AD24AA9
:10597000424BB24B456182800509ADBF3307D4006D
:1059800013060003A301C7040347540493871600BA
:10599000A2978906A381E7049DBF85462286D2850A
:1059A0004E85829AE30E65FB050945B7797122D4CD
:1059B00026D24AD04ECE06D652CC56CA5AC8B6893E
:1059C000942D930790063289AA842E841386350479
:1059D000638DF60263E2D706930780056387F618A6
:1059E00063EDD700638F062093073004638FF60AB8
:1059F000930A24042301D404D1A0930730066386BC
:105A0000F60A93074006E395F6FE1C40084393F61A
:105A1000070893054500CDC61C410CC363D8070099
:105A20001307D002B307F040A301E4049766000017
:105A30009386868029476DA8930700076383F6162F
:105A400063E5D7029307E006638AF6189307F0062A
:105A5000E390F6FA0C401C4313F805081385470041
:105A60006308080608C39C438DA893075007E38387
:105A7000F6FE93078007638AF61293073007E399CF
:105A8000F6F61C43D04181459386470014C383AA90
:105A900007005685EF30801401C53305554148C0D5
:105AA0005C401CC8A301040461A81C43930A24049D
:105AB000938647009C4314C32301F4048547D5B75C
:105AC00093F607041C410CC3B1DAC207C187B9B70A
:105AD00093F5050408C3C1D99E231307F006638715
