:100000006F20607713000000130000001300000051
:100010001300000013000000130000001300000094
:100020001300000013000000130000001300000084
:08003000130000007300100032
:100038000000000000000000B81D0000BC1D00000A
:1000480000000000BC2600000000000000000000C6
:10005800BE260000C02600000000000000000000CE
:10006800C226000000000000C426000000000000B6
:10007800C6260000C8260000CA2600005616000042
:10008800CE260000D0260000601700007E17000072
:10009800A6170000CE1700000A180000DC26000092
:1000A800DE260000E0260000E2260000E42600002C
:1000B800E6260000E8260000EA260000EC260000FC
:1000C800EE260000F0260000F22600003818000096
:1000D800F6260000F8260000FA260000FC2600009C
:1000E8006E120000002700008C1900000427000091
:1000F80006270000082700000A2700000C27000038
:100108000E2700001027000062050000A40300006D
:1001180016270000182700001A2700001C270000D7
:100128001E270000202700002227000024270000A7
:1001380026270000282700002A2700002C27000077
:10014800C4100000302700003227000034270000C8
:1001580036270000382700003A2700003C27000017
:100168003E270000402700004227000044270000E7
:1001780046270000482700004A2700004C270000B7
:100188004E2700005027000052270000540D0000A1
:1001980056270000582700005A2700005C27000057
:1001A8005E27000060270000622700006427000027
:1001B80066270000682700006A2700006C270000F7
:1001C8006E270000702700007227000074270000C7
:1001D8000000000000000000000000000000000017
:1001E8000000000000000000000000000000000007
:0801F8000000000000000000FF
:10020000397101436EC619A0397141536AC866CA73
:1002100062CC5ECE19A0397101535AD056D252D455
:100220004ED64AD826DA22DC06DE330161408282CD
:1002300041114AC026C222C406C68282B24D410183
:10024000024D924C224CB24B4101024B924A224A3F
:10025000B2494101024992442244B24041018280A4
:100260003D432A876373C3029377F700BDEFADE583
:10027000937606FF3D8ABA960CC34CC30CC74CC795
:100280004107E36BD7FE11E28280B306C3408A06C2
:100290009702000096966780A6002307B700A30682
:1002A000B7002306B700A305B7002305B700A304D2
:1002B000B7002304B700A303B7002303B700A302CA
:1002C000B7002302B700A301B7002301B700A300C2
:1002D000B7002300B700828093F5F50F9396850051
:1002E000D58D93960501D58D61B79396270097021A
:1002F000000096968682E78086FA9680C1171D8F49
:100300003E96E374C3F8A5B7EFF29FF27971854585
:100310002145EF207079854537050400EF20B07A3C
:1003200093070040FC82371401408D473ECC4C08B7
:10033000E147130504C03ECEEF20F02B856793877D
:1003400007804C08FC82130504C091473ECEEF2085
:10035000902A930770237C8689475C8768008547CD
:100360003EC8EF201049F1673754004093870720BB
:100370003ED00C10B7070C00130504803ED402D207
:1003800023160102EF30C02D0546130504809305A6
:100390005052EF30003A854513050480EF300038A5
:1003A00045614DBD411122C637540040930550525E
:1003B00013050480EF30003E3DC113050480EF308B
:1003C000403C1375F50FC5476314F5020547239E9E
:1003D000E18023900182239F0180239D0180239C43
:1003E0000180E147631DF50205472381E18205A8ED
:1003F000C9476318F500239E018005472390E182D9
:10040000D9BFCD476311F502239E0180239001825D
:100410000547239FE180239D0180239C0180324476
:10042000410173002030D147631CF500239E0180F9
:1004300023900182239F01800547239DE180F1BF26
:10044000D547E310F5FA239E018023900182239F74
:100450000180239D01800547239CE180C9B7EFF20D
:100460003FDDB75400402A89014493840480B307D8
:1004700089008385070085C1C205C1812685EF30CB
:10048000C02F930500082685EF3020307DD9050464
:100490001374F40FE9BF7DBBEFF2FFD79319050189
:1004A000B75400402A890D4493D9090193840480EC
:1004B00063000902CE852685EF30202C93050008C5
:1004C0002685EF30802C7DD97D141374F40F6DF0E8
:1004D000ADBBEFF2FFD579712A8985451145EF2033
:1004E000B05C854537050200EF20F05DB714014090
:1004F0009147FC820D44E1474C081385048022CCCF
:100500003ECEEF20500FA1474C08FC82138504809B
:1005100091473ECEEF20300E930760237C86680023
:10052000854740873EC837440040EF20902CB707EE
:100530000C000C10130504403ED44AD002D22316FE
:100540000102EF30E01105461305044093055052B7
:10055000EF30201E854513050440EF30201C456117
:10056000D5B9411122C637440040930550521305B6
:100570000440EF30202239C913050440EF306020D9
:1005800083D7A1821387A18293960701C18663DC7A
:10059000060083C7C18F930610046393D706854670
:1005A0002394D18211A8939617011375F50F63D385
:1005B0000602A9466305D5002310070001A8E176CD
:1005C000D58F1EA383170700E3C507FC3244410102
:1005D00073002030B5466314D5009166D5B7939665
:1005E000270113D6260185079386C18FC207B296CD
:1005F000C18388A21EA39306700CE3EFF6FAD9B765
:10060000930620046396D70085462392D1826DB766
:1006100093063004E392D7FA85462393D18269BFCB
:10062000EFF21FC1938401BBD220B7C500009385B0
:10063000C5C61385419CEF6030031385419C053589
:100640001305F00F913DF020B7C50000938505C854
:100650001385419CEF6050011385419C09351305BA
:10066000F00F1D3DF030B7C50000938545C91385D7
:10067000419CEF60607F1385419CD5331305F00FDB
:10068000213D03C601BBB7C50000938585CA13850C
:10069000419CEF60607D1385419CD1331305F00FC1
:1006A000E53B9030B7C500009385C5CB1385419CD1
:1006B000EF60807B1385419C5D331305F00FE93BB0
:1006C000B020B7C50000938505CD1385419CEF6030
:1006D000A0791385419C61331305F00F753B9DBED6
:1006E000EFF21FB5B7C50000938545B21385419C55
:1006F000EF60E07B1385419C9D331305F00F693B50
:10070000B7C50000938585B31385419CEF60207ABF
:100710001385419CA9331305F00FBD3B25BEEFF2B5
:100720003FB1B7C50000938505AF1385419CEF60CD
:1007300000781385419C25331305F00FB13BB7C5F5
:100740000000938545B01385419CEF60407613858A
:10075000419C31331305F00F8133EDBCEFF25FADF7
:1007600003A5C18DEF502053AE86B7C500002A8681
:10077000938585B51385419CEF60006F1385419C7F
:10078000F9391305F00F093B03A54183EF50A05041
:10079000AE86B7C500002A86938505B71385419CB0
:1007A000EF60806C1385419C5D391305F00FED31CE
:1007B00003A5C18BEF50204EAE86B7C500002A8638
:1007C000938585B81385419CEF60006A1385419C31
:1007D00079311305F00FC93103A5018CEF50A04BFF
:1007E000AE86B7C500002A86938505BA1385419C5D
:1007F000EF6080671385419C9D311305F00F6939C7
:1008000003A6418CB7C50000938585BB138541A025
:10081000EF608065138541A099311305F00FAD3964
:1008200003A6018DB7C50000938585BC138541A043
:10083000EF608063138541A01D311305F00FA939C6
:1008400011BCEFF2FF9E03C61188B7C50000938567
:1008500085BD138541A0EF602061138541A0013162
:100860001305F00F15396FF0FF9EEFF27F9C03A583
:10087000018EEF504042AE86B7C500002A869385B0
:1008800085BE1385419CEF60205E1385419CC13E6F
:100890001305F00F113103A5C18AEF50C03FAE869A
:1008A000B7C500002A869385C5BF1385419CEF60BC
:1008B000A05B1385419C65361305F00FF13EB7C56B
:1008C0000000938505C11385419CEF60405E138550
:1008D000419C71361305F00FC136B7C500009385F2
:1008E00045C21385419CEF60805C1385419C853E29
:1008F0001305F00F553603A6C18CB7C500009385CC
:1009000085C3138541A0EF602056138541A0813E29
:100910001305F00F513603A6818CB7C500009385EF
:1009200085C4138541A0EF602054138541A0053E86
:100930001305F00F95366FF0FF91EFF27F8FB7C57B
:100940000000938585C51385419CEF604056138553
:10095000419C31361305F00F81366FF0BF8FEFF2F7
:100960003F8D03A68186B7C50000938505A5138535
:1009700041A0EF60604F138541A0EFF05FAE13051B
:10098000F00FEFF07FB103C65186B7C50000938525
:1009900005A6138541A0EF60204D138541A0EFF01F
:1009A0001FAC1305F00FEFF03FAF6FF0BF8AEFF20F
:1009B0003F8803A6C185B7C500009385059A1385B6
:1009C00041A0EF60604A138541A0EFF05FA91305D5
:1009D000F00FEFF07FAC03C6A185B7C5000093858B
:1009E000059B138541A0EF602048138541A0EFF0DF
:1009F0001FA71305F00FEFF03FAA6FF0BF85EFF2CE
:100A00003F8303A6C189B7C50000938545CE1385F2
:100A100041A0EF606045138541A0EFF05FA413058E
:100A2000F00FEFF07FA703C69189B7C5000093854B
:100A300045CF138541A0EF602043138541A0EFF01F
:100A40001FA21305F00FEFF03FA56FF0BF80EFF28C
:100A50002FFE03C63186B7C50000938505AE13850A
:100A600041A0EF606040138541A0EFF05F9F130548
:100A7000F00FEFF07FA26FF0EFFDEFF26FFB03C618
:100A80009187B7C500009385059C138541A0EF6051
:100A9000A03D138541A0EFF09F9C1305F00FEFF0F0
:100AA000BF9F03C69188B7C500009385059D138538
:100AB00041A0EF60603B138541A0EFF05F9A130502
:100AC000F00FEFF07F9D03C61189B7C50000938535
:100AD000059E138541A0EF602039138541A0EFF0FA
:100AE0001F981305F00FEFF03F9B03C63189B7C580
:100AF00000009385059F138541A0EF60E0361385C4
:100B000041A0EFF0DF951305F00FEFF0FF9803A67B
:100B10004187B7C50000938505A0138541A0EF600C
:100B2000A034138541A0EFF09F931305F00FEFF071
:100B3000BF9603A64188B7C50000938505A113851C
:100B400041A0EF606032138541A0EFF05F91130583
:100B5000F00FEFF07F9403A6C188B7C5000093851E
:100B600005A2138541A0EF602030138541A0EFF06E
:100B70001F8F1305F00FEFF03F9203A64189B7C511
:100B80000000938505A3138541A0EF60E02D138538
:100B900041A0EFF0DF8C1305F00FEFF0FF8F03D6CD
:100BA0000186B7C50000938505A4138541A0EF60B9
:100BB000A02B138541A0EFF09F8A1305F00FEFF0F3
:100BC000BF8D6FF02FE9EFF2AFE6B7C50000938558
:100BD00005A71385419CEF60802D1385419CEFF0A4
:100BE0001F881305F00FEFF03F8B6FF0AFE6EFF2C9
:100BF0002FE4B7C50000938585A81385419CEF605D
:100C0000002B1385419CEFF09F851305F00FEFF04B
:100C1000BF886FF02FE4EFF2AFE1B7C50000938516
:100C200005AA1385419CEF6080281385419CEFF055
:100C30001F831305F00FEFF03F866FF0AFE1EFF287
:100C40002FDF03A6C186B7C50000938585AB13854A
:100C5000419CEF6060211385419CEFF05F8013059C
:100C6000F00FEFF07F836FF0EFDEEFF26FDC03A6A3
:100C7000018AB7C50000938545D01385419CEF607C
:100C8000A01E1385419CEFF08FFD1305F00FEFF0D0
:100C9000BF806FF02FDCEFF2AFD903A60187B7C595
:100CA00000009385C5AC1385419CEF60E01B138564
:100CB000419CEFF0CFFA1305F00FEFF0EFFD6FF06E
:100CC0006FD9EFF2EFD679712A84854513051004A8
:100CD000EF20805D854513050004EF20C05E3705D9
:100CE0003480854513050502EF20001E8567938734
:100CF0000780372501404C08FC8213050580914789
:100D00003ECEEF20400F930770357C868D475C8781
:100D1000680085473EC8EF20C02D22D03724004010
:100D2000B70704000C10130504803ED402D223162A
:100D30000102EF20F012054613050480930550527E
:100D4000EF20301F854513050480EF20301D4561DD
:100D50006FF04FD0411122C6372400409305505206
:100D600013050480EF20102339C913050480EF20F8
:100D7000502183D7E1821387E18293960701C186D0
:100D800063DC060083C741A4930650046393D7062F
:100D900085462396D18211A8939617011375F50FF6
:100DA00063D30602A9466305D5002310070001A8F6
:100DB000E176D58F1EA383170700E3C507FC3244F5
:100DC000410173002030B5466314D5009166D5B754
:100DD0009396270113D626018507938641A4C2075F
:100DE000B296C18388A21EA39306700CE3EFF6FAB5
:100DF000D9B793066004E39AD7FA85462398D1823F
:100E00006DB7EFF2EFC20111854537051000EF20F5
:100E1000804B85454145EF2020498545130500025B
:100E2000EF20804885677C82E1473EC64C008D47B5
:100E3000371501403EC4EF10107C91473715014033
:100E40007C824C009147130505403EC6EF10B07AF6
:100E5000F167938707203EC80C08B707080037558D
:100E600000403ECC02CA231E0100EF20607F854572
:100E700037550040EF20900A05616FF0AFBDEFF2EB
:100E80002FBB797185450945EF202040370402408A
:100E900013054444EF10704BB757004091073EC212
:100EA0009387C1B03EC4C1473EC6930760033EC8A6
:100EB000930700084C003ECC1305444485673ED49C
:100EC00002CA02CE02D002D202D6EF10D05E37158F
:100ED0000010EF107066130544448145EF10306137
:100EE00005469305000837550040EF20F00745619F
:100EF0006FF04FB6EFF2CFB31306C006938581B7FC
:100F00001385C1B0EF50600137040240130544441B
:100F100093056003EF10F05E130544448545EF1020
:100F2000105D054437250010EF10F05DE31C85FED1
:100F300037050240814513054544EF10505B3725C6
:100F40000010EF10705F6FF0EFB0EFF26FAE03A51F
:100F5000018E93044006EF407035330595021384EB
:100F600081B70AA003A5C18AEF405034330595022A
:100F70002AA003A5C18BEF40703333059502B7C794
:100F8000000083A587D14AA003A5818AEF40204AAB
:100F9000EF40D0316AA003A5C18DEF403031330559
:100FA00095020AA403A54183EF4050303305950212
:100FB0002AA403A5018CEF40702F330595024AA4A3
:100FC00003A5418EEF40902E83D7618233059502B1
:100FD0001EA883D741823EA883D781826AA4014597
:100FE0005EA883D7C1817EA883D701821EAC83D738
:100FF000E1813EAC83D7A1815EAC83D781817EAC99
:1010000083D7A1841EB083D7C1883EB083D74188DF
:101010005EB083C781867EB083C7C1851EB483C797
:10102000C1893EB483D761855EB483D721837EB402
:1010300083D7C1821EB883D701833EB883D7418945
:101040005EB86FF02FA1EFF2AF9E79712A848545CB
:101050004145EF206025854537050800EF20A02693
:101060008567938707804C08FC82371501409147BC
:101070003ECEEF105058930740247C8685475C870E
:10108000680085473EC8EF10D07622D03754004024
:10109000B70704000C10130504C03ED402D2231677
:1010A0000102EF20E05B0546130504C09305505292
:1010B000EF2020688545130504C0EF2020664561B8
:1010C0006FF04F99411122C637540040930550529A
:1010D000130504C0EF20006C0DC5130504C0EF20FC
:1010E000406A1374F50F37C50000A2851305C5D1FA
:1010F000EF50B0529307A00A6315F40005472399F7
:10110000E1823244410173002030EFF26F924111CD
:1011100085452145EF204019C147371401403EC69F
:1011200099677C824C008D47130504C03EC4EF10C4
:10113000904C130504C08965EF10D05891651305D4
:1011400004C0EF10305841016FF0CF90EFF24F8E96
:101150007971AA842E8409458545EF20C0168545FE
:101160002545EF20601437151A00854513050580C5
:10117000EF10905593070002FC8237150140E147BC
:101180003ECE4C088D47130505C03ECCEF10B0464F
:1011900060843704004085472C00130504406486B2
:1011A0007C8723150100EF20202FC1679387070755
:1011B0003ED00C1093072003130504402313F102C3
:1011C00023140102EF20E03713050440A145EF206E
:1011D000C044854513050440EF20804145616FF010
:1011E0006F87EFF2EF84011185450545EF20A00DD3
:1011F0009307C0127C8685475C87680085473EC898
:10120000EF10305F9307F0053ECA4C089307703E1D
:10121000370500403ECCEF202028854537050040AB
:10122000EF20003D0546854537050040EF20C03DD5
:1012300005616FF02F82EFE2BFFF41118545214527
:10124000EF20800685450545EF20000693078004C2
:101250003EC63715014085677C824C008D471305DB
:1012600005C03EC4EF10303941016FE0BFFE4111AF
:1012700085453705004022C626C44AC2EF20003CFF
:1012800045C1854537050040EF20C03C13874184A8
:101290001C433715014085658507130505C01CC330
:1012A000EF1070418547138441846314F500238E49
:1012B000A182371501408565130505C0EF10B03FC9
:1012C0001DE99387C183942305476396E6029384BF
:1012D000018437C900008840832589D22380070014
:1012E000EF30501C88C0938481838840832589D245
:1012F000EF30501B88C018409307803E6312F702FE
:10130000B7C700009384018483A5C7D28840EF301B
:1013100010509307000023AAA182232004009CC040
:101320003244A2441249410173002030EFE25FF0E1
:10133000B7C7000083A5C7D203A58183EF30304D26
:10134000EF40C076420541816FE0DFF0EFE25FEEF3
:1013500041110945EF109049CD477C84280085470D
:101360003EC623050100EF10D04841016FE09FEE1B
:10137000EFE21FEC854537050018EF10D0740545E6
:10138000EF109051EF10A0770545EF107053130543
:101390001004EF10107965DD13050010EF10D05424
:1013A0000545EF103055EF20E008EF20A00721653C
:1013B0007D15EF204004EF20E00685450545EF1040
:1013C0003079EF2020066FE0FFE89377350099EF42
:1013D000130740063377E502854719E7930700199D
:1013E0003375F502933715003E8582808147EDBF46
:1013F00013074006B377E5023355E5024D471375F1
:10140000F50F6374A7009387470613D527003E9511
:101410001D473375E50231671307C7D32E9703477E
:10142000F7FF8D8B3A962A9699E7894763E5B700CF
:101430007D16420641821D453375A6028280EFE289
:10144000BFDC5564EF101075130404183354850283
:10145000938781849A23AA846305870482A39309CE
:10146000207B1309C016130AD0166360890893877E
:1014700001BBB16A23923701138901BB81496D4BCE
:10148000938A0AD3854B714C138A1900636F8B06BC
:10149000137AFA0F0504230349011374F40FA3030D
:1014A0008900D56793870718B3F4F402856793879B
:1014B00007E1138401BB33D7F402B3F4F4021377CA
:1014C000F70F18A01307C003B3D7E402B3F4E40284
:1014D00093F7F70F1CB024A04A206C207030EFF077
:1014E0003FF108A401456FE0BFD54E85EFF0FFED59
:1014F00011C9E30E44F7130424E98509C20993D9FD
:101500000901A5B7130434E9CDBF03554900EFF035
:10151000DFEB19C9639A7901E30C84F70D14931971
:101520000A0193D909018DB7D69983C70900E361F0
:10153000F4F61D8CEDB7EFE2BFCC1308E58442084A
:10154000AA8B1358080113051008636C050B373C70
:10155000E101B78CE2013E8B3A84B68A3289AE89CA
:101560008144130A207B130C0C38938C0C50639F1E
:101570004B05FD19B16C556C014A93F9F90F938C29
:101580000CD3130C0C18854D131D0A01135D0D01AE
:10159000636A3D051305C0038566938606E133053E
:1015A000A4025566130606187D19B38ADA025A9505
:1015B0003309C90256954A952695EF101061EF1030
:1015C0007066EFF0DFE701456FE05FC75285EFF02F
:1015D000DFDF19C5E694050A420A135A0A0141BF22
:1015E000E294D5BFB3874C019C235E85B387870304
:1015F000BE94EFF09FDD01C56313BD01E294050ABF
:1016000061B70545D1B7EFE2BFC211452964EF10BC
:1016100000521304341A63078502EFF07FD59D450D
:10162000F9474147B54679461305707EEFF0BFF0A4
:10163000A2851145EF10E04DEFF05FD1EFF03FE0F4
:101640006FE05FC1EF10105F85450545EF1050500A
:10165000EF10505DD5B70545EF10506119C1EFF09F
:101660001FDE0945EF10906001C50945EF101062BB
:101670001545EF10B061EF10F05A73002030EFE223
:101680003FBB797185454145EF10104285450545C1
:10169000EF1090419307F003FC824C0893078002FF
:1016A000371501403ECEEF10007585450945EF1016
:1016B000F00D89450945EF10700D8D450945EF1076
:1016C000F00C91450945EF10700C95450945EF1058
:1016D000F00B81450945EF10700B9307F0030544AB
:1016E0003ED00810A1473ED422D602D2EF10806728
:1016F0009307603168007C8622C823070100EF1041
:10170000500F9307703168007C86408722C8EF1025
:10171000500E930780317C86680089475C8722C819
:10172000EF10300D930790317C8668008D475C8701
:1017300022C8EF10100C9307A0317C8668009147F7
:101740005C8722C8EF10F00A930770327C8668002D
:1017500095475C8722C8EF10D00945616FE09FAFC5
:101760000545EF10C06611C93D45EF20600C0547E7
:1017700005452395E184EF1060677300203009452B
:10178000EF10E06419CD3D45EF20800AB707002037
:101790009387071F984309451307470698C3EF101F
:1017A000E064730020301145EF10606219CD3D45B3
:1017B000EF200008B70700209387071F98431145C3
:1017C0001307C7F998C3EF106062730020302145FA
:1017D000EF10E05F0DC13D45EF20800505472387F1
:1017E000E18493870185942389EAA387E18498A300
:1017F0002145EF10A05F730020300547E39AE6FE15
:10180000A387018423800700E5B74145EF10205CE2
:1018100015C13D45EF20C001B70700209387071F82
:1018200098434145130767F098C305472386E18431
:10183000EF10C05B7300203013050002EF10205939
:101840001DC13D45EF10D07EB70700209387071FCD
:101850009843130500021307A70F98C30547A386F3
:10186000E184EF10A05873002030EFE27F9C2A84BF
:1018700015654111130555552EC6EF10E07313750C
:10188000F40FEF10E073B2452E85EF10E073EF1008
:101890002074EF10C07441016FE0DF9BEFE25F99AD
:1018A0000111854513050002EF1010203714014087
:1018B000C147FC828D44C1474C08130504403ECE0D
:1018C00026CCEF10405313050440C145EF10805F54
:1018D000A147FC824C089147130504403ECEEF100F
:1018E000805113050440A145EF10C05D85451145A9
:1018F000EF10701DB707002083A7471F37470F0061
:1019000013070724B3D7E702371400402C00130550
:10191000048023150100FD177C849307703E3EC6AA
:10192000EF1090370546854513050480EF10D04D24
:101930009307E0027C800A8585473EC24481EF1010
:10194000406B814513050480EF10904A05616FE0FC
:101950007F90EFE2FF8D371400401305048081452E
:10196000EF10104D85451305048023990184EF1075
:1019700030486FE03F8EEFE2BF8B37150040814566
:1019800013050580EF10D0466FE0DF8C411122C6B1
:1019900037140040854513050480EF10304A19C9FB
:1019A000854513050480EF10F04A938721859A231B
:1019B00005079AA33244410173002030EFE25F87AC
:1019C00003D421859307803EB71400403304F4020A
:1019D00013850480EF105046239204829384048080
:1019E0002A9413052003EF10B06422856FE09F86D0
:1019F000EFE27F82B7C7000083A987D43714014084
:101A000095441309000013040440054AC14522858A
:101A1000EF10004B5145EF10505EC1452285EF108D
:101A2000604AA1452285EF10004965DDEFF07FF2A5
:101A3000A1452285EF102048E30C45FFEFF0BFF3EE
:101A4000EFF0DFF7EF404018CE85EF30405CAA851D
:101A50004A85EF302025FD142A89CDF8B7C700004C
:101A600083A5C7D4EF30A05A6FE02FFEEFE24FFC02
:101A7000371401408327448045777D17F98F23224F
:101A8000F480832744800D6713040480D98F5CC0E1
:101A90008564938504802285EF10C0425145EF1084
:101AA0003059938504802285EF1080417945EF10ED
:101AB000D0546FE02FFAEFE20FF63715014083277D
:101AC000458045777D17F98F2322F5808327458050
:101AD000216713050580D98F5CC10569814413090D
:101AE00009802A8493094006CA852285EF10A03C0C
:101AF00009CD6395340105456FE02FF58504054553
:101B000093F4F40FEF10704FC5B793074006E384CA
:101B1000F4FE85643719014001449384048013095D
:101B2000098093094006A6854A85EF10C03811E95F
:101B3000E30334FD050405451374F40FEF10F04B77
:101B4000DDB71305C4F9133515007DB7EFE24FEE8D
:101B500085643719014013045006938404801309E7
:101B60000980A6854A85EF10003509C57D141374D8
:101B7000F40F19E885643719014013045006938463
:101B800004801309098001A80545EF101047D1BF53
:101B90000545EF109046A6854A85EF10C03109E54E
:101BA0007D141374F40F6DF413058002EF10F044EC
:101BB0008565371501409385058013050580EF1075
:101BC000802F3335A0006FE0EFE8EFE26FE6A1442D
:101BD000014506051374F50FFD14EFF03FF7418D35
:101BE00093F4F40F1375F50FEDF46FE0AFE6EFE249
:101BF0008FE241112A89AE89EFF05FE7EFF0BFEB8A
:101C0000854415E9AA840144154AEFF01FFC3C0005
:101C1000A29788A30504E31A44FF14849C841885C2
:101C20009085B697BA97B29710866396C7002380BF
:101C3000D9002300E900268541016FE00FE1EFE2C2
:101C40002FDF411185451145EF10006685679387A9
:101C50000780371401407C82C1473EC64C008D4747
:101C6000130504803EC4EF10001985659385058037
:101C700013050480EF10C024EFF05FDFEFF0BFE347
:101C800041016FE02FDDEFE2AFDA79711306000258
:101C900081450808EFE0CFDC8545114502C202C44A
:101CA00002C6EF106060854513050020EF10C05F8D
:101CB0003165EF10C03F3715014089474C001305CF
:101CC0000580372401407C8202C6EF10C012130544
:101CD0000440EF00F032854737070E000C0813056B
:101CE00004403ECC3ACE2302F10202C802CA02D01E
:101CF000EF007035854513050440EF00303A81450B
:101D000013050440EF00F04A13050440EF00103AB9
:101D1000930404402685EF00103A6DFD130504403E
:101D200037240140EF00B039930404402685EF00CA
:101D3000B0396DFD13050440EF003049239AA184AA
:101D400045616FE02FD1EFE2AFCE37240140AA8585
:101D50009D46054613050440EF00103985451305DF
:101D60000440EF00F0369304044089452685EF00D7
:101D7000B04365DD13050440EF0090426FE08FCD66
:101D8000EFE20FCB41112A89014481446319B40069
:101D900033D584024101420541816FE0AFCB4A85D2
:101DA0002EC6EFF05FFAAA941545EF1070280504CF
:101DB0001374F40FB245D9BF7300203001A0EFE2D5
:101DC0002FC45D710945EF1060227164EF0030038C
:101DD000EF10102013050420EF10F028EFF0BFEAF9
:101DE000EFF0DFABEFF0BFE513050420EFE07FED90
:101DF00013050420EFF02FA5EFE00FD11305042009
:101E0000EFE02FED0564EFF01F80EFF00FB081459C
:101E1000130574BBEFF08FB3EFF0AFBCEFF0AFC1C1
:101E2000EFF0FF85930504FA0D45EFF01FA4EFE0F6
:101E30005FFDEFF0CF84B7C7000003A847D883A7A2
:101E400007D842D23ED0B7C7000003A8C7D883A79F
:101E500087D842D63ED4B7C7000003A847D983A786
:101E600007D942DA3ED8B7C7000003A8C7D983A76D
:101E700087D942DE3EDCB7C7000003A847DA83A754
:101E800007DAC2C2BEC0B7C7000003A847DB83A7FA
:101E900007DB42CA3EC81384818D9384818E93856B
:101EA000818D1385818EEFF09FD48830B7CA0000F2
:101EB000EF20305803A68AD783A6CAD79389018E0C
:101EC000EF20C017EF30F0672A8A8820EF30704388
:101ED000AA855285EF20105D23A0A90008309384C5
:101EE000C18AEF20105503A68AD783A6CAD7138AC2
:101EF000C18AEF20A014EF30D064AA890820EF3007
:101F00005040AA854E85EF20F05988C0A945054567
:101F1000EFF01FE7EF30504B23A2A18AB7C70000B4
:101F200083A5C7D49384818A9389C18BEF302050D5
:101F3000B7C7000083A507D51384818A138DC18B91
:101F4000EF30E04EEF30305502569256EF20000F42
:101F50002256B256EF20005AEF30B05E88C0EFF044
:101F60003FA923A0A900EFF06FBCEF30F04523ACF0
:101F7000A18AEF3050524256D256EF20200C6256C2
:101F8000F256EF10301AEF30D05B23A0A18C83A45F
:101F90004183A6852685EF20F050EF30D04F0646CE
:101FA0009646EF20A009B7C7000003A687DA83A6EC
:101FB000C7DAEF20A008EF30D05823AEA18CAA8555
:101FC000AA8A03A50900938DC18DEF30400483C612
:101FD00021821386018E32CC23AAA18C0547138659
:101FE00001BB138981856397E60038222381018232
:101FF0002300E9003C220347090085079389618596
:102000006395E70085472390F900B7C7000083A5D3
:1020100047D52685B7C40000EF20707F83A584D5FF
:10202000EF30E040B7C7000083A5C7D5EF30606947
:10203000EF30B021B7C7000083A507D623A2A18C3B
:102040005685EF20D07C83A584D537CB0000B7CA56
:102050000000EF30C03D83254BD6EF308066EF3077
:10206000D01EE24723A8A18CB7CB0000884383A5EC
:10207000CBD2EF20304383A58AD1EF20507983A5BE
:1020800084D5EF30C03A83A5CBD2EF308063EF30F8
:10209000D01B83A58AD123A6A18C03250A00EF209B
:1020A000107783A584D5EF308038B7C7000083A5AB
:1020B00087D6EF300061EF30501903D7A1849386A3
:1020C000218623A4A18C85475ACE56C636C4631AEE
:1020D000F700938701869A2305079AA39C22A907F4
:1020E0009CA2EFE09FE6EFE0FFE003D7A1848547E5
:1020F0006314F70023950184B70C002083A70C1FFD
:10210000138A8188938A018963D8070283C6D184A0
:102110000547639EE6001387C1881443A3860184A4
:10212000850614C303C70A0015072380EA0063D895
:10213000073823A80C1E05A803C7C18409CF13873D
:102140004188144323860184850614C303470A008B
:1021500015072300EA001307C05DE359F7FA930758
:10216000C05D23A8FC1E03D7090085476316F7004E
:1021700023900900230009000840EF30D031424687
:10218000D246AAC4AEC6EF10106013898187938926
:10219000018893842189138C4186938B9185138BBD
:1021A00081891384418E2647B64763590532EFE093
:1021B0002FD383C6F1843E8799EEB717014013856C
:1021C00007C08965EF001050B7170140916513856E
:1021D00007C0EF00304F03C7F18485476318F7024B
:1021E000B7170140138507C08965EF00704DB71719
:1021F00001409165138507C0EF00D04C83D50C1FBB
:102200003705004013050540EF10C042B7C7000076
:1022100083AC0D0083A5C7D66685EF302010938769
:10222000018B6353A02A984311EF13874187104312
:1022300083460900050610C3138756002300E900F2
:10224000054798C303250D00E685EF20505CB7C70E
:10225000000083A587D2EF30C0149387418B635869
:102260000526984311EF1387C187104383C60900E1
:10227000050610C31387F6002380E900054798C3BD
:10228000B7C7000083A507D76685EF3020096350E4
:10229000A00283D7218381CF9387418990439820DF
:1022A00023990182050690C3930757009CA083D70A
:1022B000618291CF93878186904303470C002393DB
:1022C0000182050690C39307A7002300FC0083D773
:1022D000418291CF9387C185904303C70B0023921E
:1022E0000182050690C3930757002380FB0083D724
:1022F000818291CF9387C189904303470B00239438
:102300000182050690C3930757002300FB0003D703
:10231000C18219C32396018203D7018319C323986D
:10232000018203470A009307400603C50B00998FFB
:1023300003C70A00998F03470900998F2247182382
:10234000998F898F03450B00898F03450C00898F76
:1023500003C50900898F88203385A740EF30607A54
:1023600093050000AA8CEF30C003634505162320B7
:102370009401B247832C040083A587D16685A94DBB
:10238000EF20F048EF30606CB7C7000083A547D757
:1023900023A6A1866685EF209047EF30006B33655A
:1023A000B50323A0A18A6685EF30206A3365B503A3
:1023B00023A8A186B247084083A587D1EF2050709B
:1023C00019E1EFE05F80F247832C040083A547D634
:1023D0006685EF20B074634C0500B247668583A51F
:1023E00087D1EF20107C63540500EFE05F80F24757
:1023F000084083A547D6EF20D07A63540500EFE06C
:102400009F81B7C7000083A507D7E2478843EF2025
:10241000F07063440500EFE04FD203470C009307D0
:1024200040063387E740A382E18603C70B0033876A
:10243000E740238DE18403470B003387E740A38CFB
:10244000E18803C70A003387E740A388E188034790
:102450000A003387E740A384E18803C70900338774
:10246000E740A380E188224718233387E740A38110
:10247000E186034709003387E740A38CE186982073
:10248000998FA389F188EFE04FBEEFE06F99EFE0FD
:10249000EFACEFE00FBBEFE08FCCEFE04FD1EFE020
:1024A0000FD6EFE0CFDAEFE04FDDEFE04FF9EFE0EE
:1024B000CFFBEFE04FFEEF00B0316FF0DF9D130771
:1024C000C05DE352F7CA61B923A00700A5BB23A0F2
:1024D00007007DB3930700001CC061BD4246D24691
:1024E0003A85BE85EF10501FE34605EC23A6018612
:1024F00023A0018A23A80186930700001CC0EFE0F7
:102500000FA24DBDB71702409843B706FFF841111F
:102510001367170098C3D84337060200758FD8C3D6
:102520009843B706F7FEFD16758F98C39843B70614
:10253000FCFFFD16758F98C3D843B70681FFFD16C3
:10254000758FD8C39843B70600ECFD16758F98C3F6
:102550003707FF0098C723A6070202C402C69843A4
:10256000C166558F98C3B716024005679C42F18F2C
:102570003EC6A24785073EC4B24781E7A247E3971C
:10258000E7FEB71702409C431397E700635707061F
:1025900085473EC632478547631FF704B717024099
:1025A000D843B706C1FFFD16D8C3D843D8C3D84314
:1025B00013670740D8C3D843758FD8C3D843B7062D
:1025C0002900558FD8C39843B7060001558F98C38B
:1025D000984393166700E3DD06FED843B716024022
:1025E000719BD8C3D84313672700D8C32147DC4267
:1025F000B18BE39EE7FE4101828002C661BF3716C0
:1026000002405C429146B18B138741806385D700BD
:10261000A1466388D702B7177A00938707201CC3A7
:10262000B7170240DC43918393F6F700B707002009
:1026300093870700B69794231C43B3D7D7001CC3D6
:10264000828054425042C167C982BD8A7D8E938781
:10265000260085CABD466389D702C1466389D70271
:10266000C54581466393B700C1470DE63746024032
:1026700003260680418A15C637167A0013060620FF
:102680002DA08146C947D5B78546B547F9BF8146D4
:10269000BD47E1BF3716024050429315E600E3DD27
:1026A00005FC37163D0013060690B387C7021CC30E
:1026B000A5DA1C438583A5B701A001A001A001A054
:1026C00001A001A001A001A001A001A001A001A002
:1026D00001A001A001A001A001A001A001A001A0F2
:1026E00001A001A001A001A001A001A001A001A0E2
:1026F00001A001A001A001A001A001A001A001A0D2
:1027000001A001A001A001A001A001A001A001A0C1
:1027100001A001A001A001A001A001A001A001A0B1
:1027200001A001A001A001A001A001A001A001A0A1
:1027300001A001A001A001A001A001A001A001A091
:1027400001A001A001A001A001A001A001A001A081
:1027500001A001A001A001A001A001A001A001A071
:1027600001A001A001A001A001A001A001A001A061
:1027700001A001A001A097E1FF1F9381A12717618C
:1027800000201301218817A500001305E5C397E574
:10279000FF1F938525871386818163FAC5008322F5
:1027A000050023A0550011059105E3EAC5FE138538
:1027B0008181938501BC6377B50023200500110555
:1027C000E36DB5FEFD42739002BCAD427390428052
:1027D000B76200009382820873A0023097E2FFFF85
:1027E0009382C28593E2320073905230EFF09FD112
:1027F00097F2FFFF9382E25C7390123473002030F3
:10280000EFD21FA3B727014093870740631EF5004F
:10281000854513050020EF00F02C814513050020AD
:10282000EF00502C6FD01FA3B7370140938707806C
:10283000E31AF5FE854513050040EF00B02A8145F7
:1028400013050040F1BF5C413707F1E01307F7EFD4
:10285000944D7D8F9C41D58FD44DD58FD441A20608
:10286000D58FD98F5CC11C4537F7F1FF1307D77F90
:10287000D4457D8F9C49D58F94458606D58FD98FB9
:102880001CC55C55370710FF7D177D8FDC29FD17B0
:1028900093F7F70FD207D98F5CD582801C4589C585
:1028A00093E717001CC58280F99BEDBF1C4593E799
:1028B00087001CC5828008450D81058982801C45E2
:1028C00093E747001CC582800845098105898280FD
:1028D0001C4591C537075000D98F1CC5828037072A
:1028E000B0FF7D17F98FD5BFA54763F7B7048D47B4
:1028F000138765FF3307F7020328C5009D47B39789
:10290000E70093C7F7FFB3F70701B396E600DD8E44
:1029100054C5994763E3C70495477D163306F6020D
:102920005859FD47B397C70093C7F7FFF98F339600
:10293000C5005D8E50D982800D473387E50203289C
:1029400005019D47B397E70093C7F7FFB3F707016A
:10295000B396E600DD8E14C96DBFB14763E2C702CE
:10296000954765163306F6021859FD47B397C70019
:1029700093C7F7FFF98F3396C5005D8E10D982801B
:1029800095474D163306F6025855FD47B397C700D5
:1029900093C7F7FFF98FB395C500DD8D4CD58280C5
:1029A000684542054181828008416D8D3335A00024
:1029B00082805C4191C537070004D98F5CC1828059
:1029C000370700FC7D17F98FD5BFEFD27F86011145
:1029D0002A8423040100A5441C8463F9F40423041D
:1029E0000100A54621461C8463FFF606231501005D
:1029F0002304010095461C8463F1F60E38853C855E
:102A000099460D46B3F7D702056513050580B3D780
:102A1000C7023357D702BA97C207C1837C853C856A
:102A200005611D8D420541856FD0DF821C4493E70F
:102A300087001CC42285EFF01FE86DFD1C4493E75E
:102A400047001CC42285EFF03FE86DFD78441C84EC
:102A500014108607B6972396E7FE1C84850793F724
:102A6000F70F5C8495BFA30401009C846378F60093
:102A70001C84850793F7F70F5C84B5B798849C8412
:102A80000C100607850786072E97AE970357C7FEDB
:102A900083D7C7FE63FDE7029C848607AE9783D782
:102AA000C7FE7C859C84988485078607AE9783D56E
:102AB000C7FE931717001810BA972396B7FE9C8489
:102AC00038850C1085078607AE972396E7FE9C8411
:102AD000850793F7F70FDC8449BF1C8410103885F5
:102AE00089078607B29783D7C7FEBA97C207C18303
:102AF0007C851C84850793F7F70F5C84EDBDEFD2CE
:102B00002FF30545EF00E07F0145EF00807F6FD098
:102B10006FF44111B777004002C6938707C03EC6E5
:102B2000B2473E952AC6B2478CC34101828041110B
:102B3000B777004002C6938707C03EC6B2473E95AE
:102B40002AC6B2478A23410182801C414167791716
:102B5000F98F1CC123200500232205002324050032
:102B6000B707024023260500138787006317E50097
:102B7000D8431367F700D8C382801387C701631651
:102B8000E500D8431367070FFDB7138707036318E2
:102B9000E500D8438566938606F0558FE9BF138715
:102BA00047046315E500D843BD66C5BF1387870595
:102BB0006316E500D843B7060F00C5B71387C706ED
:102BC0006316E500D843B706F000C1BF13870708B6
:102BD0006316E500D843B706000FC1B713878740D7
:102BE0006319E50003A747401367F70023A2E740F6
:102BF00082801387C7416317E50003A74740136727
:102C0000070FEDB793870743631BF500B707024033
:102C100003A747408566938606F0558FC1BFB70767
:102C20000240138747446316E50003A74740BD668B
:102C3000EDB7138787456317E50003A74740B7063D
:102C40000F00E1BF1387C7466317E50003A747409E
:102C5000B706F000D9B7138707486317E50003A745
:102C60004740B706000F55BF138707496319E500B2
:102C700003A7474D1367F70023AAE74C8280138709
:102C8000074A6317E50003A7474D1367070FEDB722
:102C90001387074B6319E50003A7474D85669386A5
:102CA00006F0558FD1BF1387074CE319E5FC03A746
:102CB000474DBD66FDB71C4161773D0794517D8F3F
:102CC0009C45D58F9449D58FD449D58F944DD58FB8
:102CD000D44DD58FD451D58F9455D58FD98F1CC154
:102CE000DC455CC19C411CC5DC415CC582801C414B
:102CF00089C593E717001CC1828041677917F98F56
:102D0000DDBF4CC182809317350063DA0700B70737
:102D1000024083A707407D8D3335A0008280931742
:102D2000250063D70700B707024083A7074DE5B723
:102D3000B70702409C43C5B79317350063D7070018
:102D4000B707024023A2A74082809317250063D7CC
:102D50000700B707024023AAA74C8280B7070240AA
:102D6000C8C382805841032805004C4537060140FE
:102D7000930706403E979346F8FFB1C5832506406A
:102D8000F58D2320B640D043F18ED4C31443B3E66F
:102D9000060114C3184190479346F7FF758E90C7FC
:102DA000D047F18ED4C7144541466399C600944775
:102DB000D98E94C7D447558FD8C78280B69794438D
:102DC000558F98C382801C43F58F1CC38280B70740
:102DD00001401387074083A70740584B698F09C7F5
:102DE0007D8D3335A000828001458280B707014088
:102DF00023AAA74082809C4513F7070113F8F70028
:102E000001C7D8413368E8008E2113F7F50F39C3A5
:102E100018418146854E3D4F930F800293028004F6
:102E2000214E3396DE00B3F8C50063111603939864
:102E3000260033131F011343F3FF3377E300B31866
:102E4000180133E7E800639FF70550C98506E39A48
:102E5000C6FD18C11307F00F6375B704544121462E
:102E6000854E3D4F930F800293028004414EB398EC
:102E7000CE0033F715016392E802131726000117FD
:102E80003313EF001343F3FFB376D3003317E80097
:102E9000D98E639DF701232A15010506E319C6FDA6
:102EA00054C18280E39457FA10C94DB7E39757FE97
:102EB00023281501DDB708456D8D3335A0008280CC
:102EC0000CC982804CC98280B70701406357050452
:102ED000DC4F135705019376F700131605013707EA
:102EE000300041823378E500635C05046319E80231
:102EF000138706018D46B396E60093C6F6FFF58F5D
:102F000089C91357550112073317E600D98F635744
:102F10000504370701405CCF8280DC435DBF131797
:102F2000B500635607000D47B316D700F9B713571E
:102F3000550112073317E6001347F7FFF98FC9B79A
:102F40006312E8023708014083264800370700F182
:102F50007D17F98F758F2322E800C5F537070140EB
:102F60005CC382801317B500635C07000D473317FD
:102F7000D7001347F7FF7D8FB707000FD98FF1BF39
:102F80001357550112073317E600E5B713F7C50FBE
:102F900093F73500B7050140BA9594458A073D4738
:102FA0003317F7001347F7FF758F98C5984533150A
:102FB000F500598D88C58280B737004088C382806C
:102FC000B7370040C8C38280B737004088C78280C7
:102FD000AD67373700409387A7AA1CC38280B567C7
:102FE000373700409387C7CC1CC3828023A6A18EAD
:102FF00082809387C18E9443182181E63C219207F9
:1030000021A894430546639FC6023C2110319207D4
:103010006314D60093E707F8B7E600E093F7F70FDD
:10302000BA962380F6408546935757003397E600BB
:103030005441A5C2938707048A07B7E600E0B69714
:1030400098C382808C4389466391D50214313C2118
:103050006365D6008A06B6975DB79386E6038A064F
:10306000B69793F7F70F920775B790438D46631C99
:10307000D60014313C216364D6008606E9BF9386EE
:10308000C6078606F1BF94439147E39EF6F81C31CC
:10309000BDB7938707064DB7377700401C4309C576
:1030A00093E707101CC3828093F7F7EFE5BFB716CD
:1030B0000240DC4251777D17F98F5D8DC8C2828056
:1030C000B7170240238007022380070205476306E3
:1030D000E50011476306E50082802380A702828015
:1030E00015472380E7028280371702401C535D8D0D
:1030F00008D3828001C9371702401C53A166D58FBF
:103100001CD38280B71602409C5261777D17F98FDD
:103110009CD28280371702405C439146B18B638515
:10312000D700A1466382D706B7177A009387072096
:103130001CC1371602405C42370700201307070105
:103140009183BD8BBA9794231C41B3D7D7005CC140
:103150005442A1829D8ABA969422B3D6D70014C550
:103160005442AD829D8A36971823B3D7E7005CC5D9
:103170005842398393763700138781803697182316
:10318000B3D7E7021CC982805C435843C166C98338
:10319000758FB7F6FF1F83A6C670BD8B8907139680
:1031A000160163480600C54601466392D702C94727
:1031B00039A88946638FD702BD46638ED702C146C0
:1031C000638ED702C54601466393D700C1471DEF02
:1031D0003747024003270780418B05C737177A001E
:1031E00013070720B307F7021CC121D61C418583B2
:1031F00081B701466DBF0546B547D1BF0146BD4702
:10320000F9B737173D0013070790E9BFB71502401C
:10321000D8559316F700D85563DF060411833D8B0C
:103220009306170037177A00130707203357D70282
:1032300018C1D455A182BD8A8DE295463307D702C5
:10324000058318C137170240585714413D8B0507B5
:1032500033D7E60218C1184171B785456394B600AB
:10326000E546E9BFBD456396B600D1463387E60221
:10327000C9BF8906E5BF3D8B9306170037177A0053
:10328000130707203357D702F1B799C53717024004
:103290005C4B5D8D48CB8280B7170240D84B1345FD
:1032A000F5FF798DC8CB828099C5371702401C4F36
:1032B0005D8D08CF8280B7170240984F1345F5FF08
:1032C000798D88CF828099C5371702405C4F5D8D1C
:1032D00048CF8280B7170240D84F1345F5FF798D4C
:1032E000C8CF828099C5371702405C475D8D48C7BB
:1032F0008280B7170240D8471345F5FF798DC8C7BC
:10330000828001C9371702401C53C166D58F1CD378
:103310008280B71602409C5241777D17F98F9CD26C
:1033200082809357550005476399E700B71702401D
:103330009C4333D5A7000589828009476396E7003F
:10334000B71702409C53F5B7B7170240DC53D5B707
:10335000B737004003D7078089C5598D2390A780D0
:1033600082801345F5FF798DD5BFB737004003D76D
:103370004780136707012392E78082803737004038
:1033800083574780C207C183BD9BC207C1832312F5
:10339000F7808280B736004083D7868103D5C68107
:1033A00003D78681C207131605014207C1834183F3
:1033B0004182938606806386E700CA2E4207598DB4
:1033C000828013950701518D8280EFC27FE6411103
:1033D0002AC6EFF09FF93245B73700401357050171
:1033E0004205239CE7804181239EA780EFF01FF9CF
:1033F00041016FC03FE6EFC2BFE341112AC6EFF0C3
:10340000DFF63245B7370040135705013D8B4205C3
:103410002394E78041812396A780EFF03FF6410196
:103420006FC05FE3373700408357478093F7070249
:10343000E5DF82803737004083574780C207C1836A
:10344000DD9BC207C1832312F780373700408357C3
:103450004780A18BEDDF8280B737004003D74780DC
:103460001345F5FF798D2392A7808280373700407E
:103470008357478003570780C207698FC18309C7F5
:103480007D8D3335A000828001458280EFC25FDAF6
:10349000EFF09FFC6FC01FDC1E2137370140930601
:1034A00007C0C207C1836300D504B7060040630CA0
:1034B000D502938606406308D502B71600401386EE
:1034C00006806302C502938606C0630ED50013070B
:1034D0000740630AE50037570140930607C06304BD
:1034E000D5006316E500BA2193F7F7F8D98F37179F
:1034F0000040630CE500130707406308E50093F7FD
:10350000F7CFFA21C207C183D98F1EA1DE215EB594
:103510009E211EB5B7370140138707C0630EE50033
:1035200093870740630AF500B7570140138707C028
:103530006304E5006314F5009C251EB985475EA968
:1035400082801E3165771307F7CFC207C183BD9B09
:10355000C207C1831EB11E31562103D88500C207A0
:1035600013960601162DC18393F7F7FD758F9621EB
:103570004182A206558FB62142074183B3E6060178
:103580009206D58FB7360140C207138806C0C183A3
:10359000630E050193860640630AD500B7560140C5
:1035A000138806C063040501631ED502B62593F790
:1035B000F7F703D8C5009206D58FD621C207C1837D
:1035C000920693F7F7FBD58FFD769386F63FF18E43
:1035D000F225C207C183336606010A06D18E13960F
:1035E0000601418252A11AADFA211ABD1EB1828094
:1035F0001E2189C593E717001EA18280C207C183DF
:10360000F99BC207C183CDBF5E2501C6DD8D4EA5E6
:10361000828093C5F5FFFD8DDDBF1A2DFD77938761
:10362000F77FF98FA205CD8FC207C1831EAD8280BF
:103630004EB182800EBD82804A3182801E294A2589
:10364000ED8F4205418189C76D8D3335A0008280A1
:103650000145828093C5F5FFC205C1810EA9828014
:10366000EFC21FBD1629F577FD17F58FF621DA2574
:103670007971D58F1EA95625FD779387379FF58FD2
:10368000D6212A842EC6D58F9625D58FB625D58FDF
:103690005EA55E29C207C18393F7F7CFD98F5EA9D4
:1036A0006808EFF03FA7B747014093870780B2450E
:1036B000631AF404A25756246547B387E702C2068B
:1036C000C186984163D20604060752244206B3D746
:1036D000E702130740064186B3D6E702B3F7E702D5
:1036E0009206635506028E0793872703B3D7E70236
:1036F00013F77700B367D700C207C1831EA44561E3
:103700006FC05FB5925745BF0A07C1B7920793874D
:103710002703B3D7E702BD8BD58FF9BF91C55E25CF
:103720000967D98F5EA582805A25F977FD17F98F31
:10373000D5BF13F7F50F85471583B395B700631908
:10374000F7009307C500984301CED98D8CC38280C2
:10375000894693074501E318D7FE93070501E5B7AE
:1037600093C5F5FFF98DDDB75E2901C6DD8D4EA944
:10377000828093C5F5FFFD8DDDBF93F5F51F4EA14A
:1037800082804A211375F51F82800A216D8D3335A1
:10379000A000828013F7F50F85461583B397B60016
:1037A0006311D7025A25F98F1A2101454207418337
:1037B00081CB0545A181B315B5006D8F3335E00090
:1037C000828089466314D7001A29F1BF5A29E1BFC4
:1037D000B707002083A7471F37177A001307072072
:1037E000B3D7E70293F7F70F2389F18E1307803ED3
:1037F000B387E7022398F18E8280B7F700E0D843C1
:103800008146799BD8C303C7218F3306A70290CB8B
:10381000D4CB98431367070198C3984313671702E3
:1038200098C3D843058B75DF9843799B98C38280F2
:10383000B7F700E0D8438146799BD8C303D7018FFF
:103840003306A70290CBD4CB98431367070198C3E4
:1038500098431367170298C3D843058B75DF9843C5
:10386000799B98C38280EFC2BF9C2A8411650111A5
:1038700085451105EFF05FA3930700207C82371583
:1038800001408D473EC44C00E147130505803EC60C
:10389000EFF06FD622C837440140B70708000C0884
:1038A000130504803ECC02CA231E0100EFF05FDB4B
:1038B000854513050480EFF07FE605616FC09F9991
:1038C000EFC27F95B7440140AE89328901449384A9
:1038D0000480634524014A856FC03F979305000427
:1038E0002685EFF09FEA7DD9B3878900838507009D
:1038F00026850504C205C181EFF03FE8D9BF1387D3
:10390000C1801C43938601BC3E95636BD500B7868E
:1039100000209386068063E5A60008C33E8582806A
:10392000FD57EDBF397193D7450122DC4AD856D2F5
:103930002A891394C50006DE26DA4ED652D45AD010
:103940005ECE13F5F77F318093DAF501630B051036
:103950009307F07F630BF514135AD9010E043364F7
:103960008A00370A8000336A4401131B390093042C
:1039700015C00144814B13D846011399C600137832
:10398000F87FB2881359C90093D9F601630E08086D
:103990009307F07F6300F8041357D6010E093369CB
:1039A0002701130818C0B70780003367F900931880
:1039B0003600B38404418145BD4733C83A0163E40E
:1039C000871A978700009387673F0A043E94104048
:1039D0003E9602863367C9009384148063120710F1
:1039E0001364240081488945C1BF1306F07F8147D5
:1039F0000147B207F25062545206B1837E08D18F5C
:103A0000B3E70701D2544259B259225A925A025B83
:103A1000F24B3A85BE852161828001481306F07F12
:103A2000B70708000147F1B73367C9004DC76308FE
:103A300009304A8532C4EF2060472246130755FFFC
:103A4000F547930685FF998F3319D900B357F600D0
:103A500033E72701B318D60026959304353F8145F7
:103A6000A1BF336A240163030A0636C632C4630663
:103A7000042A2285EF2080432246B246AA841307F7
:103A800055FF754A138B84FF330AEA4033146401EF
:103A9000335A4901336A8A00331B69011305D0C0C8
:103AA000B30495400144814BF9B5336A240163188E
:103AB0000A002144014B9304F07F894B6DBD228A9B
:103AC0004A8B31449304F07F8D4B75B51144014B03
:103AD0008144854B4DB51364140081488545E9BD8B
:103AE000136434004A878D45C1BD630A052E85479E
:103AF000898F9306800363DDF632014681470147D3
:103B0000CDBDCE868947638DF53A8D47E387F5F0C5
:103B100085473688E383F5FE1385F43FE357A0FC21
:103B200093F778006396072893D6380093177700A9
:103B300063D80700B70700FFFD177D8F138504408A
:103B40009307E07FE3C3A7EA1316D7019317970003
:103B5000B1833367D6001376F57F61BDD686528771
:103B6000DA88DE8545B763614723630DEA20DA868C
:103B7000FD145284014B9317870013D388013363DC
:103B8000F300935E0301B357D403131F0301135FC4
:103B90000F0193D50601139E88003374D4033307B5
:103BA000FF024204C18D63FBE5009A951386F7FF7F
:103BB00063EE652663FCE526F9179A95998D33D750
:103BC000D503C206C182B3F5D5033306EF02C205A1
:103BD000D58D63FBC5009A959306F7FF63E66524D0
:103BE00063F4C52479179A95C20741645D8F9307E2
:103BF000F4FF3375F70093580701935F0E01B37715
:103C0000FE00B302F502B386C540B383F80293D534
:103C100002013386AF021E962E963385F803637336
:103C200076002295C168FD1893550601337616017A
:103C30004206B3F81201AA95469663E6B61263826D
:103C4000B6123306CB408D8E333BCB00338B6641AF
:103C50001385F43F630C6317B358DB0393550601D8
:103C6000337BDB03B3061F03420B33EB6501637B3E
:103C7000DB001A9B9385F8FF636D6B20637BDB2071
:103C8000F9181A9B330BDB40B356DB034206418223
:103C9000337BDB03330FDF02420B33666601637B4A
:103CA000E6011A969385F6FF6367661E6375E61F45
:103CB000F9161A96C208B3E8D8009395080193D272
:103CC0000801C181B38EF5023306E641B385BF0218
:103CD00093D60E01B387F202BE95AE96B38F5F0204
:103CE00063F4F600C167BE9FC165FD1593D7060159
:103CF000ED8EC206B3FEBE00BE9FF696637FF60948
:103D00001A969387F8FF6369661A6368F619630F5A
:103D1000F61BBE8893E8180011B54A85EF200019FC
:103D200013075501F145930405022246B246E3DA32
:103D3000E5D4130485FF331A8900014B85B332851E
:103D400032C4EF20A01613075501F146AA87224678
:103D500013050502E3D6E6CEE1173317F6008148D6
:103D6000E5B9E370CBEE729B3335CB011A95AA9679
:103D70001305F7FF6378D30263E6B6106382D510AC
:103D80002A87C1B5E3651BDF93551B009316FA0123
:103D900013541A00CD8E7E0BF9BBE31DF6F7E38FAB
:103DA00006D6B9BFE31ED3FCE378CBFD2A8751BD0D
:103DB00093F7F8009146E389D7D693B7C8FF938667
:103DC000480093C717008D823E978DB38146854783
:103DD000E34CA0FEFD58E31C05D0930410C08547BA
:103DE0001385E441B316A70033D6F8003395A80035
:103DF000D18E3335A000C98E13F676003357F70005
:103E000001CE93F7F60011466388C70093874600FA
:103E1000B3B6D7003697BE869317870063D80704DA
:103E2000054681470147F1B636877DBBB28779B336
:103E3000FD46E3D7F6FA0556098E9306000233567F
:103E4000C7006388D7009387E443B317F700B3E84C
:103E5000F800B3361001D18E13F67600814701CEFB
:103E600093F7F60011460147E392C7FA93179700BC
:103E70001316D701B18313D73600518F014695BE73
:103E8000E370CBF0729B3335CB011A957917AA9664
:103E90004DBBAE88C5BBAE8631BD93171E0033BE89
:103EA000C70172931A96F9183E8EE315F6E7E307F9
:103EB000DEC693E818009DB1BE88E30AF6FF99BDFF
:103EC00036881306F07F8147014725B6E367DEFC9D
:103ED000BE88E310DEFE99B113D74501B707100085
:103EE000FD1713D846011377F77F9308F07F33F35C
:103EF000B7002A8EF58FFD81B28E1378F87FFD8290
:103F000063081703630018030DEBB368A300631481
:103F100008005D8E29CA638508046388D5020545BB
:103F200095ED8280B3E8C700E38008FE7955828072
:103F30003365A30065FD630CE802631408005D8E21
:103F400079DEE39ED5FCE34CE8FC63480701E3E837
:103F500067FC6303F302637FF30081E57D55828094
:103F6000F5DE054582800145E39B08FA82805D8E7F
:103F700069DA6DBF01458280E3E3CEFB0145E37260
:103F8000DEFBE5F1E1BF13D74501B7071000FD17D0
:103F900013D846011377F77F9308F07F33FEB700FD
:103FA000AA8EF58FFD81328F1378F87FFD82630E24
:103FB0001703630D180129E3B368AE00631F0800FF
:103FC0005D8E01EE0143638C080421A8B3E8C700AD
:103FD0000943639608046DD305A0638408046385D0
:103FE000D50205438DCD7D531DA8B368AE000943AE
:103FF00063970802630AE802631408005D8E75D2B5
:10400000E391D5FEE34FE8FC63490701E3EBC7FD0D
:10401000630FFE0001436374FE00F1D505431A856A
:104020008280EDFE7D53E5BF5D8E79DACDBFE36A18
:10403000DFFB0143E3F5EEFFF5F175B739714AD8BF
:1040400013D945014ED652D456D29399C50006DEF7
:1040500022DC26DA5AD05ECE1379F97F2A8A93D9E8
:10406000C90093DAF501630D090E9307F07F63062B
:10407000F9181354D5018E09B3693401370480004F
:1040800033E4890093143500130919C08149814B29
:1040900013D74601139AC6001377F77FB285135AD8
:1040A000CA0013DBF601630B07109307F07F63036D
:1040B000F7049357D6010E0A33EA4701130717C0D6
:1040C000B7078000B367FA00931536003A99814824
:1040D00033C76A01BD463A851308190063E83617ED
:1040E00017860000130686D18A09B29983A60900B3
:1040F000B2968286B367CA001309F97F63990712E3
:1041000093E9290081458948E1B701479307F07F8A
:104110003704080081443204D20731807E075D8C69
:10412000598CA285F250625426854259D254B25914
:10413000225A925A025BF24B216182805A853E8458
:10414000AE84C68B8947638DFB0E8D47E38FFBFAE8
:1041500085472A87639EFB3881470144814465BFB8
:1041600033E4A90061C036C632C4638C092A4E8587
:10417000EF10D0532246B246AA87130755FF754465
:10418000938487FF198CB399990033548A00336460
:104190003401B3149A0013D746011309D0C0139AFF
:1041A000C6001377F77F3309F9408149814BB28507
:1041B000135ACA0013DBF601E31907EEB367CA000E
:1041C000B1C7630F0A22528532C4EF10304E224627
:1041D0002A87930655FFF547930587FF958F331A76
:1041E000BA00B357F600B3E74701B315B600330979
:1041F000E9401309D9C08148E1BD33E4A90001ECCD
:10420000A14981441309F07F894B59B593E91900FD
:104210008145854875BD4E84AA84B1491309F07F54
:104220008D4BBDB5914981440149854B95B593E9C5
:104230003900D2878D4869BD89475685E397FBF0E1
:104240002A879307F07F01448144F1B5C16E13863C
:10425000FEFF93D6040113DE0501F18CF18D338648
:1042600095023383B6029358060133059E021A95D0
:10427000AA98B382C60363F36800F692C16F1383F2
:10428000FFFF33F5670093D30701B3F76800C20758
:10429000337366003E933306950293D80801B387C3
:1042A000A602135F0601B3849302BE94FA94B38E00
:1042B000760263F3F400FE9E416A9307FAFF935F70
:1042C0000401B376F400B3F9F4007D8EC180338429
:1042D000D502C209338FD401B299CE98B307DE025A
:1042E000935E0401B385BF02AE97BE9E330EFE03FC
:1042F00063F3BE00529EC1679385F7FF33F6BE009D
:104300006D8C4206229693DE0E01B305D502769E91
:104310003385AF0213D40501B386D302AA96A296C1
:10432000B38FF30363F3A600BE9F41657D15B3F71A
:10433000A600C2076D8DAA97B3855800B3B93501A1
:10434000FA97B2953384370133B6C500B30EC40172
:104350003385CE0033343401B3B7E701C18F33BEA8
:10436000CE0113D406013336C5003E943366CE0029
:104370009394950032947E94B3E46400260493569B
:104380007501B3349000DD8193179500CD8C558C69
:10439000DD8C9317740063DB070093D714008588C6
:1043A0009316F401DD8CD58C058042899307F93F83
:1043B0006359F00893F6740081CE93F6F400114629
:1043C0006388C60093864400B3B496002694B684EE
:1043D0009316740063D80600B70700FFFD177D8CA5
:1043E000930709409306E07F63CFF60E93D634001F
:1043F0009314D4012604D58C318093F7F77F21BB29
:10440000328532C4EF10902A93065501F147130705
:1044100005022246E3D1D7DC6115B317A60081451A
:10442000F9B3EF10B02813075501F14593070502C2
:104430002246B246E3D5E5D461153314AA0081447F
:1044400099BB85469D8EB1E71309E941B3972401D5
:10445000B3D4D40033192401B337F000B364990006
:10446000DD8C93F77400B356D40081CF93F7F4003A
:1044700011466388C70093874400B3B49700A6969B
:10448000BE849397860063D807048547014481441E
:1044900059B113068003E341D6CC7D46E356D6FAE4
:1044A0000556B307F640930500023356F4006387C0
:1044B000B6001309E943B3172401DD8CB33490002F
:1044C000D18C93F67400014499CA93F7F400114615
:1044D0008146E392C7FA139496003180F6068D80E8
:1044E000D58C81470DB99307F07F0144814425B1F4
:1044F00042896DBD370710007D1701113373B70076
:1045000093D84601758F935ED60122CC26CA0E033E
:1045100093D445019357D5010E0706CE4AC84EC61F
:1045200093F8F87F130EF07F33E7EE0093F4F47FF7
:1045300013D4F50133E36700131F3500FD82931E8A
:1045400036006380C81993C61600B385144163050D
:10455000D4126351B018638B081AB70780005D8FBF
:104560006381C4599307800363C4B734FD4763C5AF
:10457000B748930700028D8FB3D9BE003318F700F8
:10458000B39EFE00336838013357B700B339D0010A
:10459000336838013303E340B3090F41B3373F01B8
:1045A0003306F3409317860063D30724370980004E
:1045B0007D1933792601630F092C4A85EF10100FFE
:1045C000130785FF93070002998FB3D7F9003316BD
:1045D000E900D18FB399E9006344972A058F130648
:1045E0001700FD4663C5C63A13070002118FB3D604
:1045F000C9003398E9003397E700558F333800013D
:10460000B369070133D6C700814493F7790081CF9E
:1046100093F6F90091476388F6009386490033B812
:1046200036014296B6899317860063D6071C138716
:1046300014009307F07F05886306F720B70780FF13
:10464000FD17F18F1398D70193D93900A607336866
:104650003801B1831377F77F9396C7005207B18271
:104660007E04D98EC18EF2406244D2444249B2499E
:104670004285B685056182806356B00A638A081256
:10468000B70780005D8F6387C42D9307800363C7DE
:10469000B718FD4763D2B73C138805FE93070002A5
:1046A000B3590701638AF50093070004B385B74047
:1046B0003317B700B3EEEE003338D001336838015A
:1046C00095A2B367D7019385148099E393C616002A
:1046D000630AD404D1E19387140093F7E77F6399C9
:1046E000071EB367E3013368D70163920416638240
:1046F000073C63160842131835009316D30113586C
:10470000380033E806019357330019A2B367D70185
:104710006385071A9387F5FF638B073A638CC5237C
:10472000BE8589B56399051C9386140093F7E67FCF
:10473000C1EFB367E30163900436638D0744B36749
:10474000D701639407460E051318D3010D81336812
:10475000A800935733006DA8B38598406397042051
:10476000B367E301638D07309387F5FF63890740E3
:104770001305F07F6383A520BE859307800363C282
:10478000B72AFD4763C8B73C930700028D8F3318E3
:10479000F3003356BF00B317FF003368C800B339C6
:1047A000F0003353B3003368380133076740B5ACCA
:1047B000B367D701638307109387F5FF638F071EE5
:1047C0006380C52FBE85D1B59307F07F638BF60656
:1047D000FA9E33B6EE01B307E300B2971398F701E0
:1047E00093DE1E00B369D80113D61700B68493F781
:1047F0007900E39F07E09317D60113D83900336897
:10480000F800A685935736001307F07F6380E5060E
:10481000B207B18313F7F57F05883DBD3367D70134
:104820003338E000B309E801B3B7E9013386670024
:1048300093178600E3DD07FA85049307F07F639CF6
:10484000F41805881307F07F8147014831B563915B
:1048500007106301083C131836009317D70113584B
:1048600038003368F800368493573700B367F80090
:10487000E9DB01441307F07FB70708000148E9BBF3
:10488000370680FF7D167D8E93F77900998CE39132
:1048900007D895B74E85EF10606113078501FD4776
:1048A000E3D2E7D2130685FFB397C90081492DB340
:1048B0003368D70133380001C5B113183500931799
:1048C000D301135838003368F800935733002DBFD5
:1048D000B309DF413309E34033363F013309C940AF
:1048E0009317890063CA072033E82901E31508CC30
:1048F0008147014431BFB385984063810414B706F2
:1049000080009307F07F3363D3006381F82093071F
:10491000800363CCB722FD4763C9B72C930700021D
:104920008D8F3318F300B356BF00B317FF00336801
:10493000D800B339F0003353B300336838011A9705
:10494000B309D801B3B7D9013386E700C684CDB522
:10495000E31108F2131835009317D30113583800E8
:104960003368F8009357330011B737058000930779
:10497000F07F3363A300E392F8E00E061318D7012B
:104980000D823368C800935737003684C5B50517C4
:104990009306000233D7E700630AD60093060004AB
:1049A0003386C6403396C700B3E9C90033383001B7
:1049B000B369E800014681441DBDB309DF01B307B7
:1049C000E30033BFE9013386E7019317860085448E
:1049D000E3DF07E08944B70780FFFD17F18F13D7A6
:1049E000190013F81900336807019399F701B3E927
:1049F000090113D6170011B9138805FE93070002A9
:104A0000B3590701638AF50093070004B385B740E3
:104A10003317B700B3EEEE003338D00133683801F6
:104A2000A5BE3363E30133386000B3890E41B3B7E9
:104A30003E013306F740C6843684ADB6B367E30162
:104A4000638707189387F5FF638C071C9306F07F35
:104A5000638ED50ABE8565BD930700028D8FB3D9DD
:104A6000BE003318F700B39EFE0033683801335799
:104A7000B700B339D001336838013A9365B31318DE
:104A800036009317D7011358380033E807013684EE
:104A90009357370095BBBDCB3367D701E31B07DCCA
:104AA0000E051318D3010D813368A8009357330006
:104AB00075BBE30F08E2131836009317D70113589C
:104AC00038003368F80036849357370091B3B30940
:104AD000DF41B307E340333F3F013386E74185447D
:104AE000D1B4131835009316D3011358380033E8A6
:104AF0000601935733009DBBB389EE4133066740EF
:104B000033B93E0133092641368475B40E061318B5
:104B1000D7010D823368C8009357370081BBB309B2
:104B2000DF41B307E34033363F013386C740931775
:104B3000860063D7070AB389EE41B3076740B3BE67
:104B40003E013386D7413684C9B43363E301333839
:104B50006000FDB3138805FE93070002B3590301FB
:104B6000638AF50093070004B385B7403313B3009D
:104B7000336F6F003338E001336838017DB5B38996
:104B8000EE41B3076740B3BE3E013386D74136845A
:104B9000854409BC131836009317D7011358380001
:104BA0003368F80093573700A5B1B309DF01B307A5
:104BB000E30033BFE9013386E70193178600E3D8AA
:104BC00007C2B70780FFFD177D8E85440DB10E0625
:104BD0001318D7010D823368C800935737002DB1E1
:104BE00033E8C900E30608D019B1138805FE93071E
:104BF0000002B3590301638AF50093070004B385EB
:104C0000B7403313B300336F6F003338E0013368BC
:104C100038013DB301441307F07FB70708002DBCEE
:104C2000B309DF01B307E300B3BED9013386D7016F
:104C300069BB411106C622C426C20DCD9357F5416A
:104C4000B3C4A7009D8C2A842685EF1020269306E6
:104C5000E041898EA9477D8093F6F67F63CDA70258
:104C60002D47098FB3D7E4005505B207B394A400CC
:104C7000B18329A00144814681478144B207D2060D
:104C8000B1837E04D58FC18FB24022442685BE8574
:104C90009244410182805515B397A400B207B183B5
:104CA0008144E9BF4111370780007D1713D8750192
:104CB00026C2935475013373A70093F4F40FB376AF
:104CC000B7004AC01378F80F1359F50106C622C47D
:104CD000FD819A8726854A86131E3300939E3600EF
:104CE000B3880441630AB90E6350100D63040814BD
:104CF0009307F00F638BF414B7070004B3EEFE00C4
:104D0000ED4763C1172993070002B3871741B39793
:104D1000FE00B3D81E01B337F000B3E7F800B307C5
:104D2000FE4013975700635E0718370400047D1494
:104D30007D8C2285EF1080176D15B317A400634892
:104D4000951A058D1304150013070002018F339780
:104D5000E7003337E000B3D78700D98F814413F7DA
:104D6000770019C713F7F70091466303D70091073F
:104D700013975700635B071485041307F00F4A86E7
:104D80006383E4169A07A58313F5F40FB240224417
:104D9000A6079314750113D59700458D7E0692449E
:104DA0000249518D410182806399080A13871400DA
:104DB0001377E70F6317071463900422630D0E1E29
:104DC000E3860EFCB307DE411397570063500722BA
:104DD000B387CE412E8961B7635C100B630E080860
:104DE0009307F00F6383F406B7070004B3EEFE00E9
:104DF000ED4763C9171F93070002B3871741B397A5
:104E0000FE00B3D81E01B337F000B3E7F800F29705
:104E1000139757006357070A85041307F00F63843D
:104E2000E40CB706007E13D71700FD16858B758F2F
:104E3000D98F35B7638D0E08FD18B307DE41E382C5
:104E400008EE9307F00FE39DF4EA630D03080146B3
:104E50001305F00FB707400015BF33079840EDE882
:104E600063020E147D17630807189307F00F631988
:104E7000F80E2E893683D1BF638B0E04FD18B3075D
:104E8000DE01E38708F89307F00FE393F4F675BFAC
:104E900063950808850413F7E40F6313071263177B
:104EA0000510630F0E14E3830EEEB307DE011397B4
:104EB0005700814463570700370700FC7D17F98FBF
:104EC000854413F77700E31F07E813D337009307F0
:104ED000F00FE38CF4F693179300A58313F5F40F0A
:104EE0004A866DB54A861305F00F814745B53707E9
:104EF00000FC7D17F98F13F77700898CE31407E620
:104F0000E9B73304DE419317540063C3070CE3127F
:104F100004E201460145814795BD33079840ADC481
:104F20009307F00FE308F8F4B7070004336EFE00B0
:104F3000ED4763CCE70C93070002998FB317FE008F
:104F40003357EE00B337F000D98FF697C284C9B556
:104F50009307F00FE30FF8F0B7070004336EFE007D
:104F6000ED4763C3E70893060002998EB316DE008F
:104F7000B357EE003337D000D98FB387FE40C284D9
:104F80002E8945B3854761BB630E0E067D17B307B7
:104F9000DE01C284E30E07E69307F00FE31AF8F888
:104FA000368365B53683C2842E8915B7E3040EECCB
:104FB000E38D0EE869BD638D0E022E86B687F9B3C8
:104FC0009307F00FE381F4F2B307DE018583D5BDCB
:104FD0003384CE412E89B1BBE31C0EFCE3890EE67F
:104FE0002E8949BD854725B5854741BFE39B07EC21
:104FF0000146814761BBB387CE41C2842E8915B378
:10500000B68769B33683C284D9B585473DBF397148
:10501000935775014AD856D25ECE931A950013590C
:10502000F50106DE22DC26DA4ED652D45AD093F7AA
:10503000F70F93DA9A00CA8B638207121307F00FF7
:105040006384E7128E0A37070004B3EAEA00138A82
:1050500017F80144014B93D775019394950093F78A
:10506000F70FA58093D9F501FDC71307F00F6387EC
:10507000E7028E04938717F837070004D98C330AA8
:10508000FA408146558C17770000130727DB0A0486
:105090003A941C4033493901BA978287130A1AF0AF
:1050A000F9E88946558C17770000130727DD0A04B5
:1050B0003A941C4033493901BA9782870149130752
:1050C000F00FB707400013959700F2506254931702
:1050D000770125817E095D8D33652501D2544259C2
:1050E000B259225A925A025BF24B21618280130715
:1050F000F00F8147C9BFA68ACE8B368B8947630BD9
:10510000FB1A8D47E30CFBFA8547630AFB0A13077A
:10511000FA0713F91B006357E01293F77A0099C757
:1051200093F7FA0091466383D700910A93974A0058
:1051300063D90700B70700F8FD17B3FAFA001307A1
:105140000A089307E00FE3C4E7FA93976A00A58380
:105150001377F70F8DBFB9E48546A9B763940A02A8
:105160001144014A054BC5BD63990A002144130A45
:10517000F00F094BCDB58D4631B73144130AF00F0E
:105180000D4BD1BD56852EC6EF0050529307B5FF8B
:10519000B39AFA009307A0F8338AA7400144014B61
:1051A000B24555BD2685EF0070501307B5FFB30714
:1051B000AA00B394E400138A67078146E1B513F9A6
:1051C0001B000147814701B74166139554007D16C6
:1051D00093570501698E63FA9A0AB3D5FA027D1ACC
:1051E000D68601473388C502B3F6F602C206558F4C
:1051F000637B07012A979386F5FF6368A70A6376A6
:10520000070BF9152A9733070741B356F70233778F
:10521000F702B38AC6029317070163FB5701AA97E7
:105220001387F6FF63E1A70863FF5707F916AA97EC
:10523000C205B38A5741D58DB33A5001B3EA55013F
:10524000CA8BF1B58546998E11C76D4601478147D6
:10525000E34BD6E6130AEA09339A4A01B3D7DA00D8
:10526000B33A4001B3E7570113F7770019C713F7B3
:10527000F70091466303D7009107139757006348DF
:1052800007029A07A58301473DBD93D61A00B3D5FF
:10529000F6021397FA0141833388C502B1B7CE8B6A
:1052A000368B814AA1BDBA8661B7B685A9BF0547CD
:1052B000814711BD13F91B001307F00F814721B57A
:1052C00093567501B7078000FD1713D6750193F645
:1052D000F60F1308F00FB3F8A7001357F501ED8F81
:1052E0001376F60FFD81638406031305F00F630444
:1052F000A60205456383C6008280E39FF8FE014550
:10530000E30CB7FE0545EDFA333510018280054503
:10531000E38D08FC82800545E9DF828093567501A4
:10532000B7078000FD1713D6750193F6F60F130823
:10533000F00FB3F8A7001357F501ED8F1376F60FB2
:10534000FD8163810603630C06018DE211E2B1C3A6
:10535000638E08026305B70405451DE78280F5D713
:1053600079558280E39E08FE6309D60211E2EDD7EB
:10537000E314B7FEE342D6FE63C7C600E3EE17FDB3
:105380000145E3FDF8FC01E77D558280F5DD05452B
:1053900082800145E39208FC8280F9DBD1B7814627
:1053A000E1BF93567501B7078000FD1713D675014D
:1053B00093F6F60F1308F00FB3F8A7001357F50193
:1053C000ED8F1376F60FFD816387060363090601EF
:1053D00085EA11EA89EB0145639B08008280094553
:1053E000F5FFE5DA31A8638C08026300B7040545D0
:1053F00075D77D5582800945639808026304D602FB
:1054000011E2F5D7E315B7FEE343D6FE63C7C60046
:10541000E3EF17FD0145E3F3F8FC19E3D9BFF1D938
:1054200005458280E5D3828082808146C5B7797147
:1054300022D4135475014ECE52CC9319950006D642
:1054400026D24AD056CA5AC81374F40F93D9990079
:10545000135AF50169C49307F00F6308F40E93978C
:10546000390037070004B3E9E700130414F8814456
:10547000014B13D77501939A95001377F70F93DAC1
:105480009A0013D9F50145CF9307F00F630CF7028B
:105490008E0A130717F8B7070004B3EAFA003A9424
:1054A000014633452A01BD47AA869305140063E2ED
:1054B000971017770000130767A08A04BA949C40DE
:1054C000BA9782871304F40F63980A0C93E42400BC
:1054D0000946C1BF01451307F00FB7074000B2509E
:1054E0002254A6075E07A5837E05D98F92540259E0
:1054F000F249624AD24A424B5D8D45618280CA863A
:10550000D689328B89476301FB0A8D47E304FBFC94
:10551000854736856312FB1A01478147C9B7639EE9
:10552000090413D77501939A95001377F70F9144E7
:105530000144054B93DA9A0013D9F50131F7639DC5
:105540000A0093E414000546A9BF63930902A1442D
:105550001304F00F094B31BF5685EF003015930748
:10556000B5FF098CB39AFA001304A4F8014615BFDD
:10557000B1441304F00F0D4BEDBD4E852EC6EF0068
:10558000F0129307B5FF1304A0F8B399F900098C42
:105590008144014BB245F1BD93E434000D4611B78F
:1055A0008947D286E313FBF636851307F00F814750
:1055B0003DB741639306F3FF13D6090193D80A015F
:1055C000B3F7D900B3FADA0033885703B389F80286
:1055D00013570801B30A5603D6994E97330616039C
:1055E000637357011A96C167FD17B376F7003378D6
:1055F000F800C206C2969399660093570701B33923
:105600003001E982B2979A07B3E6D900B3E9D7002F
:105610009397490063D9070013D7190093F719002E
:10562000B369F7002E841307F4076350E00493F77F
:10563000790099C793F7F90091466383D7009109E0
:105640009397490063D90700B70700F8FD17B3F92E
:10565000F900130704089307E00F63CBE70493975F
:105660006900A5831377F70F9DBD8547B386E74093
:1056700011C76D4601478147E343D6E61307E409A6
:105680003397E9003337E000B3D7D900D98F13F748
:10569000770019C713F7F70091466303D700910706
:1056A00013975700634C07009A07A583014705BD70
:1056B0001307F00F814725B52E84B5B705478147FD
:1056C00039BD3707800041117D179356750113D8F6
:1056D0007501B377A70093F6F60F935EF501337665
:1056E000B70026C24AC01378F80F06C622C41303B7
:1056F000F00F3E8E3689F684139F3700FD81131517
:105700003600B38806416302681093C51500638CA8
:10571000BE106354100D631008106304051EFD18BD
:10572000B307AF40638608029307F00F6388F6164D
:10573000ED4763C7172913070002330717413317D3
:10574000E500B35715013337E000D98FB307FF40A9
:10575000139757006351071A370400047D147D8C9A
:105760002285A9276D15B317A400634E251B3305A9
:1057700025411304150013070002018F3397E7003A
:105780003337E000B3D78700D98F014913F777008B
:1057900019C713F7F70091466303D70091071397D2
:1057A0005700635E0714930619001307F00F93FE6A
:1057B00014006386E6169A07A58393F6F60FA607EC
:1057C000B240224413D59700DE069397FE01558D13
:1057D000924402495D8D410182806392080A1387D9
:1057E00016001377E70F631B071463940622630206
:1057F0000F2071D5B307AF401397570063550722A9
:10580000B307E5410149AE8451B7E30005F0638A6F
:10581000BE0AE35410FD9307F00F6381F608B70743
:1058200000045D8D31B7635E1009630108089307BA
:10583000F00F6385F606B70700045D8DED4763C082
:10584000171F13070002330717413317E500B3573B
:1058500015013337E000D98FFA9713975700635C2F
:10586000070805091307F00F630BE90AB706007E66
:1058700013D71700FD16858B758FD98F01BF33079E
:10588000D84063950610630D0F147D176303071A44
:105890009307F00F6314F810AE84328E630F0E0678
:1058A000814E9306F00FB707400011BF39C9FD18AC
:1058B000B307AF00E38308FA9307F00FE390F6F81D
:1058C000F1BF63990808138916001377E90F63166F
:1058D0000712639B061063030F16E30205EEB3077E
:1058E000AF0013975700014963570700370700FCC3
:1058F0007D17F98F054913F77700E31C07E813DEDE
:1059000037009307F00FE30BF9F893179E00A58378
:105910009376F90F93FE14005DB593FE1400930681
:10592000F00F814769BD370700FC7D17F98F13F72A
:1059300077003309A940E31E07E4D1B73304AF4031
:105940009317540063C3070CE31C04E0814E8146A7
:105950008147B5B53307D840B5C69307F00FE30EBE
:10596000F8F2B7070004336FFF00ED4763CDE70C93
:1059700093070002998FB317FF003357EF00B33737
:10598000F0005D8FB307A7004289C1BD9307F00FF8
:10599000E304F8F0B7070004336FFF00ED4763C27C
:1059A000E70893070002998FB317FF003357EF0002
:1059B000B337F000D98FB307F5404289AE8449BBB5
:1059C000854769B3630E0F067D17B307AF004289A1
:1059D000E30507E89307F00FE319F8F8328E7DBD71
:1059E000328E4289AE8431BFE3090FEAE30805EA4B
:1059F00045BD0DCDAE8EB287D9B39307F00FE3004E
:105A0000F9F2B307AF008583FDB53304E541AE84F9
:105A100081BBE31D0FFCE30505E8AE84BDBD8547F2
:105A200025BD854749BF0149E39707EC814E814772
:105A300079B3B307E5414289AE8419BBB28741B35C
:105A4000328E42897DBD054735BF3706800013572A
:105A500075019307F6FF1377F70F9305E007B3F689
:105A6000A7009357F50163FCE5009305D00963FA9D
:105A7000E500370500801345F5FF3E95828001451E
:105A8000828093055009D18E63CDE500130660092D
:105A90003307E64033D7E6003305E040F5F33A85B7
:105AA00082801307A7F63397E600FDB713577501F9
:105AB000370680009307F6FF1377F70F9305E0078B
:105AC000B3F6A7009357F501014563F4E50099C3C8
:105AD000828082809307E0097D55E3EBE7FE930522
