:020000042000DA
:1000000010C200200101002005010020070100208E
:10001000090100200B0100200D010020000000005C
:100020000000000000000000000000000F010020A0
:100030001101002000000000130100201501002024
:10004000ED110020E10A00202D0E0020270E0020D7
:10005000EB070020B10D0020DD070020E1070020A4
:10006000E3070020E5070020E70700201701002034
:1000700017010020170100201701002017010020A0
:10008000170100201701002017010020E9110020AE
:10009000EB110020D9070020DB070020E907002032
:1000A0002F0E0020350E0020330E0020310E0020D0
:1000B000370E0020390E00203B0E0020DF09002003
:1000C000DD090020E3090020E1090020290E0020BD
:1000D0002B0E00209D0F0020D90F0020DB0F0020E9
:1000E000DF070020250E0020E7110020DFF80CD0EC
:1000F00000F0D2FA00480047111C002010C2002076
:1001000005480047FEE7FEE7FEE7FEE7FEE7FEE7FD
:10011000FEE7FEE7FEE7FEE7ED00002080EA0102D1
:1001200010B502F00043400022D04A001FD0010E5B
:1001300001EB1261C0F35600C2F3560240F4000016
:1001400042F40002A0FB022000047F39140400D016
:10015000401C50EA124001D44000491EC2B20C06B5
:1001600004EBD010401C4008802A02D003E000209D
:1001700010BD20F00100002900DA0020184310BD56
:1001800030B480EA010202F0004530F0004221F074
:10019000004013D090B1C30DD40DC2F31601C0F3CB
:1001A0001600E41A41F4000140F400027D3491424B
:1001B00001D3641C00E04900002C02DA30BC0020AE
:1001C00070474FF400000023914201D3891A034382
:1001D00040084FEA4101F7D151B1914202D14FF0AD
:1001E000004105E002D24FF0010101E06FF0010192
:1001F00003EBC450284430BC00F05FB896230022C3
:10020000114600F063B800F0004230F000400AD020
:10021000C10D01F56071C0F3160042EA0151C20838
:1002200040071143704700200146704730B50B4628
:10023000014600202022012409E021FA02F59D4216
:1002400005D303FA02F5491B04FA02F52844151EEA
:10025000A2F10102F1DC30BD2DE9F05F054600207E
:1002600092469B4688460646814640241BE0284627
:1002700041464746224600F030FA53465A46C01AD5
:10028000914110D311461846224600F017FA2D1A54
:1002900067EB01084F4622460120002100F00EFACC
:1002A00017EB00094E41201EA4F10104DFDC484693
:1002B00031462A464346BDE8F09F0029A8BF704753
:1002C000401C490008BF20F00100704710B4B0FA8C
:1002D00080FC00FA0CF050EA010404BF10BC704727
:1002E00049B1CCF1200421FA04F411FA0CF118BF41
:1002F000012121430843A3EB0C01CB1D4FEA006110
:100300004FEA102042BF002010BC704700EBC350E2
:1003100010440029A4BF10BC7047401C490008BF0E
:1003200020F0010010BC70472DE9FE4F804681EAA5
:100330000300C00F0C46009021F0004123F000455F
:10034000B8EB0200A94105D24046214690461C4622
:100350000B46024623F00040104347D0270DC7F359
:100360000A00C3F30A510290401A019040286BDA48
:10037000C3F3130040F4801B0098924620B1002381
:10038000D2EB030A63EB0B0B01985946C0F1400214
:10039000504600F093F906460D4650465946019ADC
:1003A00000F0ABF910EB08006141002487EA11521C
:1003B00084EAE7731A4340D0009A62B3019A012A93
:1003C0004FEA075215DC001B61EB02014FF00042BF
:1003D00002EA0752CDE90042001C41F58011324685
:1003E0002B4600F0ABF903B0BDE8F08F4046214644
:1003F000F9E7001B61EB0201001C41F580130018B6
:100400005B412018A2F5001747EB030140EAD570C5
:10041000B6196D4111E06D084FEA360645EAC07520
:100420004FEA0752001B61EB0201001C41F58011ED
:1004300049084FEA30000019514132462B4603B0BB
:10044000BDE8F04F00F06BB9009801224000002396
:10045000D0EB020263EBE073009821464FEAE074B0
:10046000B8EB000061EB0401E9E783F000435BE7D0
:1004700081F0004158E72DE9FE4F81EA030404F0C2
:10048000004421F0004100944FF0000B23F00043A2
:1004900050EA01045ED052EA03045BD0C3F30A546D
:1004A000C1F30A552C44A4F2F3340194A0FB025486
:1004B000C1F3130141F48011C3F3130343F4801318
:1004C00001FB024400FB034E840A970A44EA81546C
:1004D00047EA8357A4FB076802958D0A05FB078549
:1004E0004FEA932C04FB0C542705029D4FEA065853
:1004F00047EA1637B5EB08056EEB070C870E920E30
:1005000047EA811742EA8312A7FB0201B6EB0B010F
:1005100064EB00042B0D43EA0C335E1844EB1C50D3
:10052000DA465146E7FB0201C5F313044FEA0B33E9
:1005300043EA14534FEA0432019C43EA0603A4F150
:100540000C040294009CCDE900B400F0F7F803B06D
:10055000BDE8F08F00200146F9E72DE9F04D81EA72
:10056000030404F0004B21F0004514464FF0000A4C
:1005700023F0004150EA050220D054EA01021DD0C8
:10058000C5F30A570246C5F31303C1F31300C1F3C1
:100590000A5640F4801543F48013A7EB0608101B9D
:1005A000D64608F2FD3873EB050002D308F10108C6
:1005B00001E092185B41B8F1000F03DA0020014618
:1005C000BDE8F08D00204FF48011064684460EE011
:1005D000171B73EB050705D3121B63EB05030643DB
:1005E0004CEA010C49084FEA300092185B4150EA8E
:1005F0000107EDD152EA030012D082EA040083EA37
:100600000501084305D0101BAB4106D2012200238F
:1006100006E000224FF0004302E06FF001025310A9
:100620001AEB06004CEB085110EB0A0041EB0B01F2
:10063000BDE8F04D00F073B8C1F30A52C1F31301E5
:1006400040F2FF3341F480119A4202DA0020014661
:10065000704740F233439A42A2F2334202DC5242E4
:1006600000F03BB800F02AB830B5041E71F1000468
:1006700004DB4FF00044404264EB0101141E73F1AF
:10068000000405DB1C464FF00043524263EB0403B9
:10069000994208BF904230BD064C074D06E0E06825
:1006A00040F0010394E8070098471034AC42F6D3B9
:1006B000FFF720FDA81C0020C81C0020202A04DB16
:1006C000203A00FA02F1002070479140C2F1200365
:1006D00020FA03F3194390407047202A04DB203AA4
:1006E00021FA02F00021704721FA02F3D040C2F152
:1006F00020029140084319467047202A06DBCB1799
:10070000203A41FA02F043EAE07306E041FA02F3CC
:10071000D040C2F12002914008431946704710B5FD
:10072000141E73F1000408DA401C41F10001921814
:100730005B411A4301D120F0010010BD2DE9F04DBD
:1007400092469B4611B1B1FA81F202E0B0FA80F212
:1007500020329046FFF7B2FF04460F4640EA0A00F7
:1007600041EA0B0153465A46084313D0114653EA57
:10077000010019D0C8F140025046FFF7AEFF054610
:100780000E46504659464246FFF798FF084305D0AB
:10079000012004E020463946BDE8F08D00200543E5
:1007A00046EAE0762C4337430A986305E40AA0EB57
:1007B00008000022FD0A44EA47540A3002D500200E
:1007C0000146E9E7010510196941DDE9084500190D
:1007D0006941BDE8F04DA2E7704770477047704728
:1007E0007047704770477047704770470549096800
:1007F00021F01001034A116011460968014311609C
:1008000070470000002002400549096801F03801E6
:10081000034A1160114609680143116070470000E6
:100820000020024008B50120ADF8000003208DF83B
:10083000020010208DF803006946044800F008F813
:100840000121024800F090F808BD000000100140AE
:100850002DE9F04102460025002600200023002457
:10086000002791F803C00CF00F0591F803C00CF0BD
:10087000100CBCF1000F03D091F802C04CEA050542
:1008800091F800C0BCF1000F30D0146800202AE0BD
:100890004FF0010C0CFA00F3B1F800C00CEA0306AB
:1008A0009E421FD183004FF00F0C0CFA03F7BC439C
:1008B00005FA03FC4CEA040491F803C0BCF1280FCC
:1008C00005D14FF0010C0CFA00FCC2F814C091F8ED
:1008D00003C0BCF1480F05D14FF0010C0CFA00FC2D
:1008E000C2F810C0401C0828D2D31460B1F800C070
:1008F000BCF1FF0F34DD546800202EE000F1080C3D
:100900004FF0010808FA0CF3B1F800C00CEA030636
:100910009E4221D183004FF00F0C0CFA03F7BC4329
:1009200005FA03FC4CEA040491F803C0BCF1280F5B
:1009300005D100F1080C08FA0CF8C2F8148091F8FF
:1009400003C0BCF1480F07D100F1080C4FF00108BB
:1009500008FA0CF8C2F81080401C0828CED3546066
:10096000BDE8F081416170470161704770B50024B6
:1009700004211748FFF7F8FF142001F0F1F80421D3
:100980001348FFF7EFFF09E000214FF0804000F02F
:1009900080FA00214FF0804000F050FA0D480068C6
:1009A0000028F1D003E00121880700F047FA094848
:1009B00000680128F7D04FF0804000F067FA054644
:1009C000FFF71CFC044908600846006870BD000081
:1009D000001001400C01224208C0002070477047FF
:1009E000704770470020411E0C4A11600A090B49EC
:1009F0008039C1F88420411E4FF0E022C2F88012F5
:100A00000A0907490A6000BF04E00022054941F8CD
:100A10002020401C0F28F8D37047000080E100E040
:100A200084E200E000E400E0F0B5002100220023B1
:100A300000250F24C678002E34D0214E366806F4E7
:100A4000E066C6F5E066310AC1F10405CC4046789F
:100A500006FA05F186782640314309010678B60783
:100A6000F60EB140174E0778BF1056F827200678CB
:100A7000B607F70EFF2606FA07F39A4319400A4312
:100A8000104E0778BF1046F82720067806F01F079B
:100A90000126BE4007787F11BF0007F1E027C7F8A5
:100AA00000610BE0067806F01F070126BE40064FE6
:100AB00090F800C04FEA6C1C47F82C60F0BD0000B5
:100AC0000CED00E000E400E080E100E002490143B9
:100AD000024A1160704700000000FA050CED00E0CA
:100AE0007047000029B1064AD2690243044BDA611B
:100AF00004E0034AD2698243014BDA617047000087
:100B00000010024029B1064A12690243044B1A61DF
:100B100004E0034A12698243014B1A6170470000E6
:100B20000010024029B1064A92690243044B9A61BF
:100B300004E0034A92698243014B9A6170470000C6
:100B40000010024029B1064AD2680243044BDA6021
:100B500004E0034AD2688243014BDA607047000028
:100B60000010024010B500F03BF84FF4803000F068
:100B7000F9F800BF312000F0C3F80028FAD01020A7
:100B8000FFF734FE0220FFF73FFE002000F0DEF802
:100B9000002000F01BF94FF4806000F00BF94FF4D7
:100BA000E0114FF4803000F023F9012000F01AF931
:100BB00000BF392000F0A4F80028FAD0022000F08D
:100BC00025F900BF00F0BAF80828FBD10121112057
:100BD000FFF7A8FF01218804FFF784FF10BD000084
:100BE0000F48006840F001000D4908600846406861
:100BF0000C4908400A494860084600680A4908400C
:100C0000074908600846006820F48020086008460C
:100C1000406820F4FE0048600020886070470000B3
:100C2000001002400000FFF8FFFFF6FE30B5002183
:100C30000022002400232D4D6D6805F00C0121B128
:100C4000042905D0082923D105E0294D056022E0BB
:100C5000274D05601FE0254D6D6805F470120225D3
:100C600005EB9242214D6D6805F480341CB9214D8D
:100C7000554305600BE01D4D6D6805F400351DB151
:100C80001C4D5543056002E0194D5543056002E0D7
:100C9000174D056000BF00BF144D6D6805F0F001F1
:100CA0000909154D6B5C0568DD4045600F4D6D68A9
:100CB00005F4E061090A104D6B5C4568DD40856014
:100CC0000A4D6D6805F46051C90A0B4D6B5C4568AF
:100CD000DD40C560054D6D6805F44041890B074D49
:100CE0006B5CC568B5FBF3F5056130BD00100240D3
:100CF00000127A0000093D00941C0020A41C002072
:100D000010B501460022002300204A11012A02D119
:100D1000094C236806E0022A02D1074C236A01E04D
:100D2000054C636A01F01F02012494401C400CB181
:100D3000012000E0002010BD001002400248406881
:100D400000F00C0070470000001002400146002037
:100D5000034A506820F0F0000843506070470000DC
:100D6000001002401149096821F480310F4A1160D6
:100D70001146096821F480211160B0F5803F03D04D
:100D8000B0F5802F0ED106E00849096841F48031A2
:100D9000064A116007E00549096841F4A021034AA9
:100DA000116000E000BF00BF70470000001002406B
:100DB0007047000001460020034A506820F4E060BC
:100DC00008435060704700000010024001460020B8
:100DD000034A506820F4605040EAC10050607047F8
:100DE00000100240014908667047000000004242BE
:100DF00002460020044B586820F47C1042EA0103AC
:100E00001843014B58607047001002400146002013
:100E1000034A506820F00300084350607047000008
:100E20000010024070477047704770477047704726
:100E300070477047704770477047704721B102880C
:100E400042F00102028004E0028840F2FE331A40C0
:100E5000028070470EB501210846FFF743FE4FF6AA
:100E6000FF70ADF804004720ADF800000020ADF899
:100E70000600ADF8020069464FF0804000F00CF823
:100E800000214FF08040FFF7D9FF0EBD0146888C4E
:100E90007047818470470000028802F08F02028050
:100EA000CA884B881A4303881A4302808A8882853D
:100EB0000A88028501228282044A904202D0044AB2
:100EC000904201D10A7A028670470000002C01404E
:100ED0000034014000B587B0012144F20400FFF75F
:100EE00021FE4FF40070ADF8180003208DF81A00B1
:100EF00018208DF81B0006A92648FFF7A9FC4FF41F
:100F00008060ADF8180003208DF81A0004208DF8D9
:100F10001B0006A91F48FFF79BFC1F4800F06EF856
:100F20004FF4165001900020ADF80800ADF80A000B
:100F3000ADF80C00ADF810000C20ADF80E0001A9C2
:100F4000154800F0F9F80121134800F04AF8012291
:100F500040F22551104800F0CEF8012240F22661FF
:100F60000D4800F0C8F8FFF73DFD4FF4C060FFF7F3
:100F7000ADFD25208DF8140000208DF815008DF8AA
:100F8000160001208DF8170005A8FFF74DFD07B0EA
:100F900000BD0000000801400038014010B540F2DB
:100FA00025510C4800F081F870B10A4800F012F9A0
:100FB000C4B22146074800F012F900BF402105489D
:100FC00000F06AF80128F9D14021024800F006F843
:100FD00010BD00000038014070477047CA430280CE
:100FE000704721B1828942F40052828104E08289F3
:100FF0004DF6FF731A4082817047000010B5044619
:101000002349601A8C422BD006DC2248204498B138
:10101000B0F5806F38D119E0B0F5806F2AD0B0F507
:101020006C4F31D101218803FFF78CFD00214FF473
:101030008040FFF787FD28E001214804FFF762FDAB
:1010400000214FF40030FFF75DFD1EE00121880410
:10105000FFF758FD00214FF48020FFF753FD14E007
:101060000121C804FFF74EFD00214FF40020FFF7D7
:1010700049FD0AE001210805FFF744FD00214FF476
:101080008010FFF73FFD00E000BF00BF10BD000073
:10109000004C004000BCFFBF0246002013880B40FC
:1010A0000BB1012000E00020704770B502460B46EE
:1010B0000024002100250020C3F3421503F01F0186
:1010C000012606FA01F1012D02D19689314006E090
:1010D000022D02D1168A314001E0968A31401C125D
:1010E000012606FA04F41688344011B10CB101202F
:1010F00000E0002070BDF0B5034600240026002566
:1011000000201846C1F3421401F01F06012707FA18
:1011100006F5012C01D10C3004E0022C01D1103075
:1011200000E014301AB107682F43076002E0076837
:10113000AF430760F0BD00002DE9F04786B00546DB
:101140000E460024A24600BF00BF00272F462C8A6F
:101150004CF6FF700440F08804432C82AC894EF6B4
:10116000F3100440B088318908437189084304436F
:10117000AC81AC8A4FF6FF400440B0890443AC8296
:1011800001A8FFF753FD1248874202D1DDF810A0F5
:1011900001E0DDF80CA00AEBCA0000EB0A10316890
:1011A0008900B0FBF1F86420B8FBF0F004012009DD
:1011B000642101FB1089322000EB0910B0FBF1F033
:1011C00000F00F0004432C8106B0BDE8F08700005A
:1011D0000038014001468888C0F308007047C1F319
:1011E0000802828070477047704770477047000060
:1011F0000FB4054B10B503A9044A029800F0DAF8C1
:1012000010BC5DF814FB00009D1B00200CC00020EA
:1012100002E008C8121F08C1002AFAD170477047BF
:10122000002001E001C1121F002AFBD1704700001D
:101230002DE9FF5F82B00021DDE90430020DDDF809
:1012400040B0034318D044F61050A2F2FF3242439C
:101250001514119801281FD0A5EB0B00401C5FEA64
:10126000000A4FF000064E4FDFF83891B046504666
:1012700015D5CAF1000413E0119801244AA30128EE
:1012800001D16FEA0B010298119AC0E90031C0E95F
:10129000024206B0BDE8F09FCBF10000DFE7044654
:1012A0000021404A491842EB0450CDE9001012E0F9
:1012B000E00707D032463B4640464946FFF7DBF899
:1012C0008046894632463B4610461946FFF7D3F81A
:1012D00006460F466410002CEAD1DDE90401DDE981
:1012E0000023BAF1000F06DAFFF7C5F842464B4675
:1012F000FFF7C1F805E0FFF730F942464B46FFF72C
:101300002CF904460E460022284BFFF7ADF903D80E
:101310004FF0FF30014607E00022254B20463146C2
:10132000FFF702F8FFF788F9102409E0002C0ADB28
:101330000A220023FEF790FF039B30321A55641EE9
:1013400050EA0102F2D1641C039AC4F1110314445F
:10135000119A012A03D0012208430DD10AE0084363
:1013600004D000204FF0110B119072E7A3EB0B0596
:101370006D1E0DE05B4504DD4FF0000205F1010537
:1013800004E003DA4FF00002A5F10105002AECD0D9
:1013900002981199C0E90231C0E9004579E70000DF
:1013A000000014400000F03F300000000000F04357
:1013B0000000E03F2DE9FF4F95B09B468946064669
:1013C00000250FE2252877D100242746F84A01217D
:1013D000059400E0044316F8013F203B01FA03F0B6
:1013E0001042F7D130782A2811D06FF02F033078CF
:1013F000A0F13002092A16D8059A44F0020402EB43
:10140000820203EB42021044761C0590EFE759F884
:10141000042B0592002A03DA504244F4005405904C
:1014200044F00204761C30782E2816D116F8010FED
:1014300044F004042A280DD06FF02F023078A0F178
:101440003003092B09D807EB870302EB4303C718C6
:10145000761CF3E759F8047B761C30786C280FD0A3
:1014600006DC4C2817D068280DD06A2814D104E077
:10147000742810D07A280FD10DE044F400140AE04B
:1014800044F4801401E044F440147278824202D1A2
:1014900004F58014761C761C307866280BD013DC9B
:1014A000582877D009DC002875D04528F6D0462882
:1014B000F4D047281AD19DE118E0632835D064287C
:1014C00079D0652812D195E1702873D008DC67289F
:1014D000F1D069286FD06E280DD06F2806D1B5E005
:1014E00073282CD0752875D0782874D05A4617994F
:1014F00090476D1C75E1C4F30250022809D00328FF
:101500000DD0D9F8001004280DD00D6009F10409A0
:1015100067E1D9F80010EA17C1E90052F6E7D9F8F7
:1015200000100D80F2E70D70F0E719F8041B8DF83C
:10153000001000208DF80100EA46012003E059F870
:1015400004AB4FF0FF3061074FF0000102D40DE013
:1015500008F101018846B9420FDA8045F8DB1AF834
:1015600008100029F4D108E008F101018846814201
:10157000FADB1AF808100029F6D105985B46A0EBB3
:10158000080721463846179A00F094FA284400EBE1
:10159000080507E04DE029E10DE01AF8010B5A4675
:1015A00017999047B8F10108F7D25B4621463846B3
:1015B000179A13E142E00A220092C4F302524FF05C
:1015C000000A022A08D059F804CB032A4FEAEC712A
:1015D0000AD00DE029E02AE009F1070121F0070215
:1015E000F2E802C1914609E00FFA8CFC4FEAEC7177
:1015F000042A03D14FFA8CFC4FEAEC71002907DA78
:101600000A460021DCF1000C61EB02012D2202E010
:10161000220504D52B228DF80420012203E0E207E5
:1016200001D02022F7E7904659E00A2102E010227B
:101630000DE010214FF0000A00910BE010224FF056
:10164000000A44F004040827009203E008224FF047
:10165000000A0092C4F30252022A05D059F804CBC2
:101660000021032A08D009E009F1070121F007024F
:10167000F2E802C1914605E01FFA8CFC042A01D170
:101680000CF0FF0C4FF00008220728D5702806D078
:10169000009B83F0100353EA0A0305D00EE04022BA
:1016A0008DF80420012208E05CEA010206D0302215
:1016B0008DF804208DF8050002229046009B83F0EF
:1016C000080353EA0A030AD15CEA010201D1620766
:1016D00005D530228DF804204FF001087F1E5828D0
:1016E00004D034A003900EA802900DE036A0F9E7D4
:1016F00053466046009AFEF7AFFD84460398825C2D
:101700000298401E029002705CEA0100F0D102983B
:1017100006A9081A00F1200A600702D524F48034D3
:1017200000E00127574502DDA7EB0A0000E000209A
:1017300000EB0A01009005984144401A0590E0032F
:1017400006D45B462146179A059800F0B3F9054484
:10175000002706E001A85A46C05D179990476D1C06
:101760007F1C4745F6DBE0030CD55B462146179A04
:10177000059800F09FF9054404E030205A46179977
:1017800090476D1C0099481E00900029F5DC08E088
:10179000029802995A460078491C0291179990477D
:1017A0006D1CBAF10001AAF1010AF1DC65E100004B
:1017B0000928010030313233343536373839616227
:1017C00063646566000000003031323334353637EB
:1017D00038394142434445460000000000F058F9C2
:1017E0000544761C307800287FF4ECAD19B028460B
:1017F000BDE8F08F620700D4062709F1070222F046
:10180000070CFCE80223E14603F000485FEA080CFD
:1018100002D00FF2702C0DE05FEA045C02D50FF2EB
:10182000682C07E05FEAC47C02D00FF2602C01E074
:10183000AFF2700C4FF0FF3823F00043CDF850C0EA
:1018400065280CD006DC452809D046281DD047283D
:101850003DD13DE0662818D067287ED138E00021D0
:10186000112F01DB112000E0781CCDE9000106A951
:101870000EA8FFF7DDFCDDE90F010E9A03910021B0
:10188000009207F1010A04914DE04FF000400097EB
:10189000CDE9011006A90EA8FFF7CAFCDDE90F0289
:1018A00003920E9B11990022DDF80CA00093049284
:1018B00011B9791C00EB010AB7EB0A0004D4C0F19E
:1018C000FF3007F1010A0490AAEB0700019044E001
:1018D000012F00DA01270021112F01DD112000E086
:1018E0003846CDE9000106A90EA8FFF7A1FCDDE905
:1018F0000F010E9A0391002104910092BA4621072C
:101900000CD40399514500DA8A46BAF1010F05DD7E
:10191000009AAAF10101515C302908D0B84202DADC
:1019200010F1040F06DA0121CDE9011015E0AAF14A
:101930000101E9E7002805DC049901440491AAEBC0
:10194000000102E0411C514500DD8A460499401A1D
:10195000401C01904FF000400290200704D40198F1
:10196000504501DBCDF8048000208DF84F0002982F
:101970000DF14F07B0F1004F25D02B200E900298AB
:101980004FF0020800280CDA404202902D200E9001
:1019900007E00A210298FEF749FC3031029007F86F
:1019A000011DB8F10001A8F10108F2DC029800283D
:1019B000EFD1791E0E980870307800F0200040F0CA
:1019C000450007F8020D12A8C01B00F10708149883
:1019D000007800B1012000EB0A01019801EBE071F1
:1019E00005984144401A401E0590E00306D45B462A
:1019F0002146179A059800F05DF805441498007880
:101A000018B15A46179990476D1CE00324D55B46E0
:101A10002146179A059800F04DF805441CE00498FB
:101A2000002807DBDDE90301884203DD0098405C04
:101A3000179901E0179930205A469047049805F10C
:101A40000105401C04900198401E019004D12E20F5
:101A50005A46179990476D1CBAF10001AAF1010A84
:101A6000DDDC05E017F8010B5A46179990476D1C0D
:101A7000B8F10001A8F10108F4DC5B462146179A91
:101A80000598ABE62D0000002B00000020000000B0
:101A90002DE9F041044600251E461746880404D46B
:101AA00005E039462020B0476D1C641EF9D5284654
:101AB000BDE8F0812DE9F041044600251E46904620
:101AC000C80301D5302700E02027880404D505E0AD
:101AD00041463846B0476D1C641EF9D52846BDE81E
:101AE000F08100004FF0E021096921F004014FF07E
:101AF000E0221161C21700EB5272C2F3C702074B1A
:101B00001A701946097801EB4102C2EBC1114FF678
:101B1000FF7202EAC101024A1180704704C000202E
:101B200006C0002001460D4A12884A434FF0E023C8
:101B30005A6100229A6101221A6100BF4FF0E0222F
:101B4000106900F001021AB100F48032002AF5D0C9
:101B500000224FF0E0231A619A61704706C000200E
:101B600001460D4A12784A434FF0E0235A610022A1
:101B70009A6101221A6100BF4FF0E022106900F063
:101B800001021AB100F48032002AF5D000224FF091
:101B9000E0231A619A61704704C0002070B50446C2
:101BA0000D46E1B20548FFF71AFB00BF802103484C
:101BB000FFF772FA0028F9D0204670BD00380140C6
:101BC00008B501211020FEF7ADFF0420ADF800009C
:101BD00003208DF8020010208DF8030069460B48A1
:101BE000FEF736FE04210948FEF7BCFE0820ADF8DA
:101BF000000004208DF8030069460448FEF728FE23
:101C000008210248FEF7AEFE08BD000000100140AA
:101C10004820FFF767FFFEF7A5FFFEF703FEFFF77B
:101C200019F9FFF757F9FFF7CBFF22E0012111481F
:101C3000FEF798FEFEF79AFE06460F49FEF76EFA8B
:101C400005464FF08041FEF79BFA04460B49FEF72C
:101C500097FA0B49086008460068FEF7D4FA044674
:101C600022460B4607A0FFF7C3FA4FF47A70FFF73E
:101C700059FFDBE7001001400000AA4300007A444E
:101C800000C00020BEE0C0EBCAC7252E32660D0A98
:101C90000000000000000000010203040102030430
:101CA0000607080902040608C81C002000C000201E
:101CB0001000000010120020D81C002010C00020CE
:101CC00000020000201200200000000000000000C0
:081CD00000000000000000000C
:0400000520000101D5
:00000001FF
