:020000040800F2
:1000000070B30020750200082F1A0008271A000894
:100010002B1A00083D070008151E0008000000000C
:10002000000000000000000000000000DD010008EA
:10003000410700080000000021020008D91A00084A
:100040008F0200088F0200088F0200088F0200084C
:100050008F0200088F0200088F0200088F0200083C
:100060008F0200088F0200088F0200088F0200082C
:100070008F0200088F0200088F0200088F0200081C
:100080008F0200088F0200088F0200088F0200080C
:100090008F0200088F0200088F0200088F020008FC
:1000A0008F0200088F0200088F0200088F020008EC
:1000B0008F0200088F0200088F0200088F020008DC
:1000C0008F0200088F0200088F0200088F020008CC
:1000D0008F020008051E00088F0200088F0200082A
:1000E0008F0200088F0200088F0200088F020008AC
:1000F0008F0200088F0200088F0200088F0200089C
:100100008F0200088F0200088F0200088F0200088B
:100110008F0200088F020008F11A00088F02000801
:100120008F0200088F0200088F0200088F0200086B
:1001300000F002F800F042F80AA090E8000C8244B7
:100140008344AAF10107DA4501D100F037F8AFF294
:10015000090EBAE80F0013F0010F18BFFB1A43F0A5
:10016000010318475C4200007C420000103A24BFA3
:1001700078C878C1FAD8520724BF30C830C144BF0C
:1001800004680C607047000000230024002500264E
:10019000103A28BF78C1FBD8520728BF30C148BFEA
:1001A0000B607047642900F0F180732900F026820B
:1001B000002070471FB51FBD10B510BD00F08CFAB0
:1001C0001146FFF7F7FF01F0BBFF00F0AAFA03B4F6
:1001D000FFF7F2FF03BC01F03BFE0000224B196861
:1001E0000868B0E8F00F80F30988BFF36F8F4FF015
:1001F000000080F311884EF00D0E704700000000E3
:1002000006480068006880F3088862B661B6BFF3EC
:100210004F8FBFF36F8F00DF00BF00BF08ED00E01E
:10022000EFF30980BFF36F8F0F4B1A6820E9F00FCF
:10023000106008B54FF0500080F31188BFF34F8F66
:10024000BFF36F8F03F02AFA4FF0000080F311889C
:10025000BDE8084019680868B0E8F00F80F3098825
:10026000BFF36F8F704700BF40000020EFF30580A1
:10027000704700000948804709480047FEE7FEE74D
:10028000FEE7FEE7FEE7FEE7FEE7FEE7FEE7FEE746
:1002900004480549054A064B70470000ED1A00085E
:1002A0003101000870AD002070B3002070AF002055
:1002B00070AF0020704700000FB4044910B503AAC6
:1002C000029800F09FF910BC5DF814FB18000020A4
:1002D0002DE9F0410E460446002020622046E168E8
:1002E000884730B3252805D0D4E901219047206AFA
:1002F000401CF2E7E168204600278847050018D037
:10030000A5F14100192802D820354FF40067324684
:10031000294620462760FFF745FF40B1012804D059
:10032000F61D26F007060836D8E7361DD6E728461C
:10033000DAE7206ABDE8F08170B50C460546012A6F
:1003400005D02878800600D5EA69002302E0012361
:1003500005E05B1C934202D2E05C0028F9D1A86959
:10036000E618C01AA861286A184428622846AFF324
:10037000008004E0D5E9012114F8010B9047B44254
:10038000F8D32846AFF3008070BD00002DE9F0419E
:100390000646002410687529314616A510D0AFF323
:1003A0000080002802DA404213A507E031688A077E
:1003B00001D512A502E0490704D511A5012401E0E9
:1003C000AFF3008000210A2206F1240709E0B0FB08
:1003D000F2FCB0FBF2F302FB1C00303078541846FC
:1003E000491C0028F3D123462A463046BDE8F04197
:1003F00000F080B8000000002D0000002B0000007D
:1004000020000000032A40F2308010F0030C00F0BE
:10041000158011F8013BBCF1020F624498BF11F83E
:1004200001CB00F8013B38BF11F8013BA2F10402F7
:1004300098BF00F801CB38BF00F8013B11F003036F
:1004400000F0F280083AC0F0088051F8043B083A06
:1004500051F804CBA0E80810F5E7121D5CBF51F875
:10046000043B40F8043BAFF30080D20724BF11F8EF
:10047000013B11F801CB48BF11F8012B24BF00F854
:10048000013B00F801CB48BF00F8012B704702F098
:10049000FF0343EA032242EA024200F0F9B84FF0B8
:1004A000000200B5134694469646203922BFA0E8C4
:1004B0000C50A0E80C50B1F12001BFF4F7AF0907D0
:1004C00028BFA0E80C5048BF0CC05DF804EB8900C1
:1004D00028BF40F8042B08BF704748BF20F8022B04
:1004E00011F0804F18BF00F8012B7047704770471C
:1004F000704770472DE9F0470D46994692460446ED
:1005000000F124080168880604D5E06921F0100193
:10051000216000E00120A84201DD471B00E0002728
:10052000A1697A1902EB0900081AA0612078C006B7
:1005300002D42046AFF30080002608E0D4E9012170
:100540001AF806009047206A401C761C20624E452F
:10055000F4DB2078C0060AD52046AFF3008006E021
:10056000D4E9012130209047206A401C2062381EC7
:10057000A7F10107F4DC07E0D4E9012118F8050030
:100580009047206A401C2062281EA5F10105F3DC7B
:100590002046AFF300802078000602D50220BDE897
:1005A000F0870120FBE7000001694A1C026108781E
:1005B000704700B58FB0CDE90131002105910549A3
:1005C0007944CDE9031011466846FFF781FE0FB06C
:1005D00000BD0000E5FFFFFF10B5436913B1AFF3A5
:1005E000008001E0FFF7A8FE012010BD127800F1A5
:1005F00024010A7000224A700122EDE711684FF0D1
:10060000FF32E9E7074B70B50D467B44FFF7D1FF9A
:100610000446284600F05CF810B14FF0FF3070BD82
:10062000204670BDF718000010B5203AC0F00B80CE
:10063000B1E81850203AA0E81850B1E81850A0E8E6
:100640001850BFF4F5AF5FEA027C24BFB1E8185040
:10065000A0E8185044BF18C918C0BDE810405FEAB0
:10066000827C24BF51F8043B40F8043B08BF70472C
:10067000D20728BF31F8023B48BF11F8012B28BF31
:1006800020F8023B48BF00F8012B70474FF00002F2
:100690000429C0F0128010F0030C3FF402AFCCF13B
:1006A000040CBCF1020F18BF00F8012BA8BF20F802
:1006B000022BA1EB0C01FFF7F4BE5FEAC17C24BF63
:1006C00000F8012B00F8012B48BF00F8012B704700
:1006D000007B00F080007047754600F02BF8AE46B6
:1006E00005006946534620F00700854618B020B53E
:1006F000FFF7CEFDBDE820404FF000064FF00007A9
:100700004FF000084FF0000B21F00701AC46ACE8B9
:10071000C009ACE8C009ACE8C009ACE8C0098D4626
:10072000704710B50446AFF300802046BDE8104086
:10073000FFF74DBD004870470CAD002000BFFEE73D
:100740007047000070B50446002594F82100022887
:1007500003D00420A0630125C1E02068006820F0D8
:100760000E00216808602068006820F00100216800
:1007700008605C492068884252D95A497839206813
:10078000884201D1012047E05649643920688842F7
:1007900001D1102040E0534950392068884201D1EE
:1007A000801539E04F493C392068884201D18014D6
:1007B00032E04C4928392068884202D14FF4803019
:1007C0002AE0484914392068884202D14FF4801049
:1007D00022E044492068884201D140041CE042499B
:1007E0002068884201D1012016E03F491431206879
:1007F000884201D110200FE03B492831206888420F
:1008000001D1801508E038493C312068884201D187
:10081000801401E04FF480303349091F086051E033
:10082000304978392068884201D1012047E02D49BC
:1008300064392068884201D1102040E029495039AC
:100840002068884201D1801539E026493C3920686A
:10085000884201D1801432E0224928392068884238
:1008600002D14FF480302AE01E49143920688842B2
:1008700002D14FF4801022E01A492068884201D149
:1008800040041CE018492068884201D1012016E08C
:10089000154914312068884201D110200FE0124917
:1008A00028312068884201D1801508E00E493C318A
:1008B0002068884201D1801401E04FF4803009495A
:1008C00080394860012084F8210000BF002084F8AE
:1008D000200000BF606B10B12046616B884728463E
:1008E00070BD000080000240080402402DE9F84776
:1008F000024600239C467BE14FF0010808FA03F40E
:10090000D1F8008008EA0400A0427DD1DFF8F4A20B
:10091000D1F80480A8EB0A09D0453AD014DCB8F12C
:10092000030F50D009DCB8F1000F31D0B8F1010F3E
:100930001CD0B8F1020F49D120E0B8F1110F18D046
:10094000B8F1120F42D11EE0B9F5881F25D006DCA0
:10095000B9F5803F20D0B9F5801F37D11AE0B9F53D
:10096000001F18D0B9F5041F30D117E0D1F80CC022
:100970002DE0D1F80C8008F1040C28E0D1F80C80AF
:1009800008F1080C23E0D1F80C8008F10C0C1EE0F3
:1009900000BF00BF00BF00BF00BF00BFD1F808808C
:1009A000B8F1000F02D14FF0040C0BE0D1F8088031
:1009B000B8F1010F03D14FF0080C146102E04FF0C1
:1009C000080C546103E04FF0000C00E000BF00BFD2
:1009D000FF2801D8904601E002F104084646FF28AE
:1009E00002D84FEA830803E0A3F108084FEA880819
:1009F0004746D6F800804FF00F0909FA07F928EAB0
:100A000009080CFA07F900E07AE048EA0908C6F894
:100A10000080D1F8048008F08058B8F1805F6FD171
:100A200000BFDFF8E481D8F8188048F00108DFF84B
:100A3000D891C9F81880C846D8F8188008F001087D
:100A4000CDF8008000BF00BF4FEAB9384FEA9309E4
:100A500058F829504FEA83784FEA18794FF00F0879
:100A600008FA09F825EA0805DFF8A081424502D115
:100A70004FF0000824E0DFF89881424502D14FF0A2
:100A800001081DE0DFF88C81424502D14FF00208D9
:100A900016E0DFF88481424502D14FF003080FE0F1
:100AA000DFF87881424502D14FF0040808E0DFF812
:100AB0007081424502D14FF0050801E04FF0060871
:100AC0004FEA83794FEA197908FA09F848EA0505E7
:100AD000DFF850814FEA930948F82950D1F8048093
:100AE00008F48038B8F5803F0BD1DFF83C81D8F8A6
:100AF000008048EA0008DFF83091C9F800800AE079
:100B000075E0DFF82481D8F8008028EA0008DFF8D3
:100B10001891C9F80080D1F8048008F40038B8F5BD
:100B2000003F0ED1DFF8008108F10408D8F80080FA
:100B300048EA0008DFF8F09009F10409C9F80080DC
:100B40000DE0DFF8E48008F10408D8F8008028EA16
:100B50000008DFF8D49009F10409C9F80080D1F841
:100B6000048008F48018B8F5801F0ED1DFF8B88033
:100B700008F10808D8F8008048EA0008DFF8A890D3
:100B800009F10809C9F800800DE0DFF89C8008F140
:100B90000808D8F8008028EA0008DFF88C9009F1EE
:100BA0000809C9F80080D1F8048008F40018B8F5E5
:100BB000001F0ED1DFF8708008F10C08D8F8008013
:100BC00048EA0008DFF8609009F10C09C9F80080D4
:100BD0000DE0DFF8548008F10C08D8F8008028EA0E
:100BE0000008DFF8449009F10C09C9F800805B1C8B
:100BF000D1F8008028FA03F8B8F1000F7FF47CAE3A
:100C0000BDE8F88700001110001002400008014004
:100C1000000C014000100140001401400018014088
:100C2000001C014008000140000401400246936896
:100C30000B400BB1012000E00020704710B5C268E6
:100C400021EA020302EA010443EA0443036110BDFE
:100C50000AB1016101E00B040361704701480068BB
:100C6000704700002000002003480068034909780D
:100C70000844014908607047200000202800002037
:100C800010B50848006840F01000064908600320CD
:100C900000F080F80F2000F007F800F02BF800209B
:100CA00010BD00000020024070B504460E480078D8
:100CB0004FF47A71B1FBF0F00C490968B1FBF0F523
:100CC000284600F0F7FB08B1012070BD102C07D2B8
:100CD00000222146501E00F01EF80548046001E085
:100CE0000120F2E70020F0E72800002000000020AB
:100CF00024000020704701460846002809DB00F068
:100D00001F0301229A4043099B0003F1E023C3F82B
:100D1000002100BF70472DE9F05F80460D46164662
:100D2000002701F079F8074639462A46334601F094
:100D30000700C0F1070ABAF1040F02D94FF0040A04
:100D400001E0C0F1070AD14600F1040ABAF1070F29
:100D500002D24FF0000A01E0A0F1030AD4464FF09E
:100D6000010A0AFA09FAAAF1010A0AEA020A0AFAC7
:100D70000CFA4FF0010B0BFA0CFBABF1010B0BEA79
:100D8000030B4AEA0B042146404601F04DF8BDE84A
:100D9000F09F000000BF00F00702064B19684FF6F5
:100DA000FF031940044B0B4343EA0221014B196036
:100DB00000BF70470CED00E00000FA0570B5044676
:100DC0000D460CB9012070BD5A48006800F00700BC
:100DD000A8420ED25748006820F007002843554922
:100DE00008600846006800F00700A84201D0012012
:100DF000E9E7207800F0020002281DD1207800F0F9
:100E00000400042805D14C48406840F4E0604A4999
:100E10004860207800F00800082805D1464840685E
:100E200040F46050444948604348406820F0F00076
:100E3000A168084340494860207800F0010078B379
:100E40006068012806D13C48006800F4003090B981
:100E50000120B8E76068022806D13748006800F032
:100E6000007040B90120AEE73348006800F002008E
:100E700008B90120A7E73048406820F00300616806
:100E800008432D494860FFF7E9FE064609E0FFF7F1
:100E9000E5FE801B41F28831884202D9032092E7A7
:100EA00007E02548406800F00C006168B0EB810F56
:100EB000EDD12048006800F00700A8420ED91D4877
:100EC000006820F0070028431A49086008460068B7
:100ED00000F00700A84201D0012074E7207800F05C
:100EE0000400042807D11448406820F4E060E16859
:100EF000084311494860207800F00800082808D10C
:100F00000D48406820F46050216940EAC1000A4958
:100F1000486000F03FF808494968C1F30311074AE7
:100F2000515CC8400649086006480068FFF7BCFEEF
:100F3000002048E700200240001002409C430008C7
:100F400000000020240000200148006870470000D5
:100F50000000002000B5FFF7F7FF04494968C1F31E
:100F60000221034A515CC84000BD0000001002404D
:100F7000AC43000800B5FFF7E7FF04494968C1F337
:100F8000C221034A515CC84000BD0000001002406D
:100F9000AC430008F0B585B00FF26C0C9CE8E01093
:100FA00001A8A0E8E0101CA52D68009500210022F2
:100FB000002300240020194D696801F00C05F5B1EB
:100FC000042D02D0082D19D101E0154819E001AD1A
:100FD000C1F38346AC5D01F4803555B10F4D6D68AA
:100FE000C5F340451DF805200D4D6543B5FBF2F3F3
:100FF00002E00C4D04FB05F3184602E000BF084870
:1010000000BF00BF05B0F0BD0203040506070809D4
:101010000A0B0C0D0E0F1010010200000010024010
:1010200000127A0000093D00F8B504460CB9012011
:10103000F8BD207800F00100002878D0F84840681A
:1010400000F00C0004280CD0F548406800F00C00BB
:10105000082811D1F248406800F48030B0F5803F94
:101060000AD1EF48006800F4003000285FD06068C3
:1010700000285CD10120DBE700BF6068B0F5803F4D
:1010800006D1E748006840F48030E549086028E070
:10109000606858B9E248006820F48030E049086090
:1010A0000846006820F4802008601AE06068B0F507
:1010B000A02F0BD1DA48006840F48020D84908609E
:1010C0000846006840F4803008600AE0D4480068B0
:1010D00020F48030D24908600846006820F480205F
:1010E000086000BF606888B1FFF7B8FD054606E0FC
:1010F000FFF7B4FD401B642801D9032098E7C848D6
:10110000006800F400300028F2D010E0FFF7A6FDE0
:10111000054606E0FFF7A2FD401B642801D9032025
:1011200086E7BF48006800F400300028F2D120783C
:1011300000F00200022857D1B948406800F00C00C6
:1011400050B1B748406800F00C00082818D1B448E6
:10115000406800F4803098B9B148006800F002009F
:1011600020B12069012801D0012061E7AC48006866
:1011700020F0F800616940EAC100A949086033E045
:101180002069E8B10120A7490860FFF767FD05461F
:1011900006E0FFF763FD401B022801D9032047E763
:1011A0009F48006800F002000028F2D09C480068C8
:1011B00020F0F800616940EAC1009949086013E035
:1011C000002098490860FFF749FD054606E0FFF753
:1011D00045FD401B022801D9032029E790480068FB
:1011E00000F002000028F2D1207800F00800082862
:1011F0002DD1A069B8B101208B490860FFF72EFD01
:10120000054606E0FFF72AFD401B022801D903200E
:101210000EE78348406A00F002000028F2D0012067
:1012200000F006FC13E000207F490860FFF716FD80
:10123000054606E0FFF712FD401B022801D90320F6
:10124000F6E67748406A00F002000028F2D12078E4
:1012500000F00400042873D100277148C06900F031
:10126000805070B900BF6E48C06940F080506C4932
:10127000C8610846C06900F08050009000BF00BF00
:1012800001276A48006800F48070B0B967480068B8
:1012900040F4807065490860FFF7E0FC054606E011
:1012A000FFF7DCFC401B642801D90320C0E65F483F
:1012B000006800F480700028F2D000BFE0680128C8
:1012C00006D15748006A40F001005549086227E0FE
:1012D000E06858B95248006A20F00100504908629D
:1012E0000846006A20F00400086219E0E06805285A
:1012F0000BD14B48006A40F0040049490862084697
:10130000006A40F0010008620AE04548006A20F0E7
:101310000100434908620846006A20F004000862A0
:1013200000BFE068A0B1FFF799FC054609E0FFF7B0
:1013300095FC401B41F28831884202D9032077E6B0
:1013400022E03748006A00F002000028EFD012E0E7
:10135000FFF784FC054608E0FFF780FC401B41F2E4
:101360008831884201D9032062E62D48006A00F0E6
:1013700002000028F0D1012F05D12948C06920F0D2
:1013800080502749C86100BFE069C8B3244840685D
:1013900000F00C00082860D0E069022848D1002045
:1013A00020490866FFF75AFC054606E0FFF756FCA1
:1013B000401B022801D903203AE61948006800F0D2
:1013C00000700028F2D1206AB0F5803F07D11448A0
:1013D000406820F40030A168084311494860D4E90E
:1013E000080108430E49496821F4741108430C4967
:1013F000486001200B490866FFF730FC054607E00E
:101400003DE0FFF72BFC401B022801D903200FE62B
:101410000348006800F000700028F2D02FE00000C0
:10142000001002400000424280044242007000402E
:10143000002014490866FFF711FC054606E0FFF797
:101440000DFC401B022801D90320F1E50E4800687D
:1014500000F000700028F2D111E0E069012800D10D
:10146000E6E50948466806F48031206A814204D1E5
:1014700006F47011606A814201D00120D8E5002095
:10148000D6E500000000424200100240042808D1C6
:101490004FF0E021096941F004014FF0E0221161B1
:1014A00007E04FF0E021096921F004014FF0E0224C
:1014B0001161704770B504462546681EB0F1807F03
:1014C00001D301200FE0681E4FF0E02148610F2199
:1014D0004FF0FF3000F0A8FC00204FF0E0218861C1
:1014E00007200861002070BD70477047704710B535
:1014F000044620680069C0F34000D8B12068C06885
:10150000C0F34000B0B16FF0020021680861012013
:1015100020772068806900F0030018B12046FFF7AB
:10152000E5FF05E0204600F0ADF8204600F0ABF8FE
:101530000020207720680069C0F38000D8B12068BF
:10154000C068C0F38000B0B16FF00400216808618A
:10155000022020772068806900F4407018B120468E
:10156000FFF7C4FF05E0204600F08CF8204600F0AD
:101570008AF80020207720680069C0F3C000D8B145
:101580002068C068C0F3C000B0B16FF008002168E7
:101590000861042020772068C06900F0030018B1BA
:1015A0002046FFF7A3FF05E0204600F06BF8204639
:1015B00000F069F80020207720680069C0F300106F
:1015C000D8B12068C068C0F30010B0B16FF010004F
:1015D00021680861082020772068C06900F4407005
:1015E00018B12046FFF782FF05E0204600F04AF8D8
:1015F000204600F048F8002020772068006900F0BD
:10160000010058B12068C06800F0010030B16FF0EF
:10161000010021680861204600F036F82068006962
:10162000C0F3C01058B12068C068C0F3C01030B11A
:101630006FF08000216808612046FFF755FF2068A1
:101640000069C0F3801058B12068C068C0F38010F2
:1016500030B16FF0400021680861204600F024F8A6
:1016600020680069C0F3401058B12068C068C0F31A
:10167000401030B16FF02000216808612046FFF76C
:1016800034FF10BD7047704710B5044604488442CB
:1016900005D100BF04210348FFF7D0FA00BF10BDF9
:1016A000C801002000140140704770472DE9F04741
:1016B0000446206805682068C668206847694FF0BE
:1016C0000008C14605F00F08B8F1000F0AD105F077
:1016D000200038B106F0200020B1204600F094FA36
:1016E000BDE8F087B8F1000F71D007F0010018B91C
:1016F00006F4907000286AD005F0010030B106F4BD
:10170000807018B1E06B40F00100E06305F0040068
:1017100030B107F0010018B1E06B40F00200E06367
:1017200005F0020030B107F0010018B1E06B40F0A5
:101730000400E06305F0080048B106F0200010B98D
:1017400007F0010018B1E06B40F00800E063E06BC7
:1017500068B305F0200028B106F0200010B1204643
:1017600000F052FA20684069C0F38019E06B00F085
:10177000080010B9B9F1000F22D0204600F024FA79
:101780002068406900F04000B0B12068406920F056
:10179000400021684861606B50B11848616B486334
:1017A000606BFEF7CFFF10B1606B416B88470CE0B8
:1017B0002046FFF77AFF08E02046FFF776FF04E0B7
:1017C0002046FFF772FF0020E06389E7FFE705F09E
:1017D000800030B106F0800018B1204600F0E2FA37
:1017E0007EE705F0400030B106F0400018B1204619
:1017F00000F0FAF974E700BF72E70000B51B0008BB
:1018000010B504460CB9012010BDA06900B100E07C
:1018100000BF94F8390028B9002084F83800204629
:1018200000F028F8242084F839002068C06820F4EB
:1018300000502168C860204600F036FA2068006930
:1018400020F49040216808612068406920F02A0057
:10185000216848612068C06840F400502168C86071
:101860000020E063202084F8390084F83A0000204A
:10187000CAE7000010B586B00446244920688842B3
:1018800042D100BF00BF2248806940F004002049D7
:1018900088610846806900F00400019000BF00BF25
:1018A00000BF00BF00BF0846806940F004008861A7
:1018B0000846806900F00400019000BF00BF00BF2F
:1018C00000BF00BF0846806940F480408861084638
:1018D000806900F48040019000BF00BF00BF481540
:1018E000029002200390012004900320059002A999
:1018F0000848FEF7FBFF4FF4806002900020039041
:1019000002A90448FEF7F2FF06B010BD00380140FE
:10191000001002400008014010B5034693F83A0059
:1019200020282FD101B10AB9012010BD00BF93F8C2
:101930003800012801D10220F7E7012083F83800A0
:1019400000BF99629A85DA850020D863222083F847
:101950003A0000BF002083F8380000BF1868C06854
:1019600040F480701C68E0601868406940F0010035
:101970001C6860611868C06840F020001C68E06066
:101980000020D2E70220D0E710B5044620492068A5
:1019900088423BD11F48008800F4004088BB1D48A6
:1019A000008800F4804070B11B4800780A2803D0FA
:1019B00000201849088024E01648008840F40040C0
:1019C000144908801DE0144800780D2806D11148FC
:1019D000008840F480400F49088012E00E480078EB
:1019E0000C490988C1F30D010C4A5054094800887C
:1019F000401C0849088008460088C72801DD0020EF
:101A00000880012204490648FFF786FF10BD000048
:101A1000003801401C0000201E000020C0000020F3
:101A200088010020704700BFFEE700BFFEE7704757
:101A300008B508490968C9084FF47A72B1FBF2F198
:101A40004143009100BF00BF00994A1E0092002947
:101A5000F9D108BD000000201CB5044601F0E0FAF1
:101A60001148022100238022CDE900100FA1114866
:101A700002F01CF91048032100238022CDE9001058
:101A80000EA1104802F012F90F4804210023802211
:101A9000CDE900100DA10F4802F008F9002001F077
:101AA00077FC01F007FB1CBD080000205461736B3C
:101AB00031000000011B00080C0000205461736B12
:101AC00032000000311B0008100000205461736BCD
:101AD00033000000611B000810B5FFF7C5F802F0E5
:101AE00015F9012801D001F0DBFE10BD70470000A0
:101AF00010B50248FFF7FBFC10BD0000C801002034
:101B00000DE007A0FEF7D8FB00BF4FF48071074837
:101B1000FFF794F800BF4FF4FA7001F0F7FBF0E71D
:101B20005461736B3121200D0A0000000008014050
:101B30000CE007A0FEF7C0FB00BF04210748FFF739
:101B40007DF800BF4FF4FA7001F0E0FBF1E7000010
:101B50005461736B3221200D0A0000000014014013
:101B6000002418E00CA0FEF7A7FB002000F04EFABE
:101B70000446012C0CD10B48006848B10AA0FEF7BE
:101B80009BFB0848006801F003FC00200549086041
:101B90000A2001F0BBFBE5E77461736B33210D0A8A
:101BA0000000000008000020C9BEB3FD7461736B23
:101BB000310D0A0070B505466C6A0020E085E084AE
:101BC0002046FFF772FD70BD0168C96821F490716D
:101BD0000268D1600168496921F001010268516120
:101BE000202180F83A10704710B504462068C0687C
:101BF00020F040002168C860202084F83900204689
:101C0000FFF710FF002010BD70B5044694F83A00AD
:101C1000222847D1A068B0F5805F0CD1206950B967
:101C20000025A66A20684068C0F308003080A06ADA
:101C3000801CA06215E0A56A0026A068B0F5805F50
:101C400003D0A06828B9206918B9206840682870B6
:101C500004E02068406800F07F002870A06A401C03
:101C6000A062E08D401E80B2E085C8B92068C068DF
:101C700020F020002168C8602068C06820F48070CF
:101C80002168C8602068406920F00100216848612F
:101C9000202084F83A002046FFF776FE002070BD31
:101CA0000020FCE70220FAE770B5044621680969C4
:101CB00021F44051E2681143226811612269A16850
:101CC0001143626941EA02052168C96841F20C6268
:101CD000914329432268D1602168496921F4407108
:101CE000A2691143226851612D4A2168914202D1B3
:101CF000FFF740F901E0FFF72DF900EBC00101EB20
:101D0000001162689200B1FBF2F100EBC00202EB3D
:101D1000001263689B00B2FBF3F26423B2FBF3F2A0
:101D200002EBC20303EB0212A1EB8201322202EBAF
:101D300001116422B1FBF2F101F0F00100EBC002ED
:101D400002EB001263689B00B2FBF3F26423B2FB68
:101D5000F3F201EB021200EBC00101EB001163682A
:101D60009B00B1FBF3F100EBC00303EB00136668CB
:101D7000B600B3FBF6F36426B3FBF6F303EBC3063E
:101D800006EB0313A1EB8301322303EB0111642360
:101D9000B1FBF3F101F00F0111442268916070BDB5
:101DA00000380140014691F83900212828D188687F
:101DB000B0F5805F0BD1086948B90A6A1088C0F392
:101DC00008000B685860086A801C086205E00B6A0E
:101DD000581C086218780B685860C88C401E80B286
:101DE000C88458B90868C06820F080000B68D860C3
:101DF0000868C06840F040000B68D8600020704759
:101E00000220FCE710B50248FFF750FC10BD0000AF
:101E10008801002000BFFEE702480068C0F30220EE
:101E2000704700000CED00E010B5002804DB0A0745
:101E3000130E054A135406E00A07140E034A00F075
:101E40000F031B1FD45410BD00E400E018ED00E0A8
:101E500000BF704770B5044600204FF0E0210861D4
:101E6000FFF714FBE11704EB5171C1F3CF010C4AEA
:101E70001180E11704EB5171CD104FF47A70454396
:101E80004FF0E020006940F002004FF0E0210861CF
:101E900008464561006940F00100086170BD00001E
:101EA0001400002030B50446002504E04FF47A7099
:101EB00000F004F86D1CA542F8D330BD70B50346A0
:101EC00000224FF0E02675690D4E368803FB06F4BC
:101ED0004FF0E026B16910E04FF0E026B06988428B
:101EE0000BD0884202D20E1A324402E02E1A0E445F
:101EF00032440146A24200D300E0EDE700BF70BDCE
:101F00001400002000BF054A126802F04002002AB7
:101F1000F9D0C2B2014B1B1D1A6070470038014056
:101F20001CB50648012100238022CDE9001004A140
:101F3000064801F0BBFE01F047FB1CBD0400002079
:101F400053746172745F5461736B0000591A000816
:101F500000B585B000BF00BF2948806940F010007F
:101F6000274988610846806900F01000009000BF92
:101F700000BF00BF00BF00BF0846806940F00400FA
:101F800088610846806900F00400009000BF00BF2F
:101F900000BF00BF00BF0846806940F004008861B0
:101FA0000846806900F00400009000BF00BF00BF39
:101FB0002020019000200290012003900320049033
:101FC00001A91048FEF792FC4FF400400190002058
:101FD0000290012003900320049001A90A48FEF713
:101FE00085FC012001900020029002200390032034
:101FF000049001A90448FEF779FC05B000BD00007B
:1020000000100240001001400008014070B5044675
:10201000002514B10120234908702248007858B3E4
:1020200020212148FEF702FE58B14FF400411F481D
:10203000FEF7FCFD28B101211C48FEF7F7FD012841
:102040001AD10A20FFF72EFF002016490870202120
:102050001548FEF7EBFD00B901254FF40041134888
:10206000FEF7E4FD00B9022501211048FEF7DEFD70
:10207000012815D1032513E020210B48FEF7D6FDDA
:1020800001280DD1C1030948FEF7D0FD012807D171
:1020900001210648FEF7CAFD10B901200149087068
:1020A000284670BD290000200010014000080140B2
:1020B00000B585B000BF00BF1E48806940F0040035
:1020C0001C4988610846806900F00400009000BF48
:1020D00000BF00BF00BF00BF0846806940F020007D
:1020E00088610846806900F02000009000BF00BFB2
:1020F00000BF8815019001200290039003200490F6
:1021000001A90D48FEF7F2FB0420019001A90B483C
:10211000FEF7ECFB00BF012211020748FEF798FD15
:1021200000BF00BF012204210448FEF791FD00BF5B
:1021300005B000BD0010024000080140001401403D
:1021400010B5FEF79DFD4FF4E01000F0CFFE4820E3
:10215000FFF780FE4FF4E13000F0F4FEFFF7A8FF38
:10216000FFF7F6FE002000F005F8FFF7D9FE00208B
:1021700010BD000030B504460225084951F824106E
:1021800001FB05F2064951F82400002100F02AF86D
:1021900001210348001D015530BD0000B443000873
:1021A0003800002010B501460023002207E00B484C
:1021B00050F8210030F8120000B15B1C521C084896
:1021C00050F821009042F2D84FF47A705843044CF2
:1021D00054F82140B0FBF4F080B210BD380000206C
:1021E000B443000830B5034601E003F8011B141E98
:1021F000A2F10102F9D130BD2DE9F04105460E46AC
:102200002948076800202949096881F859002748AA
:102210000068001D00F0BAFE50B92448006890F82C
:102220002C10012088402249096881432048016020
:10223000681CD8B9D6B11F4948681C49096888602C
:102240001A4982680968CA6018490968091D8268C4
:10225000516016490968091D8160164A13490968C9
:102260004A6111460968491C11601AE07C190F483F
:1022700000684460BC4207D20C480168091D0E4842
:10228000006800F0A7FE0CE008480168091D0B4833
:10229000006800F09FFE0A480068844201D20848A6
:1022A0000460BDE8F08100005400002040000020E0
:1022B00058000020D0840020480000204400002066
:1022C0007000002010B5044600F0AAFE31480068F6
:1022D000401C304908603048006840B92E4804600E
:1022E0000846006801280DD100F016FA0AE02B48D4
:1022F000006838B928480068C06AE16A884201D895
:102300002548046026480068401C254908600846A6
:102310000068606494F82C10012088402149096805
:10232000084320490860E16A01EB81011E4A02EB83
:1023300081014868A0608268E260211D8268516066
:102340008160E16A01EB8101174A02EB810262615F
:10235000E16A01EB8101144A52F82110491CE26A3A
:1023600002EB8202104B43F8221000F0A3FE0B4850
:10237000006868B108480068C06AE16A884207D20C
:102380004FF0805009490860BFF34F8FBFF36F8F44
:1023900010BD000050000020400000205C00002024
:1023A0006C000020580000200082002004ED00E0B6
:1023B00010B500F035FE10480068D0B90F4800F0A5
:1023C000F9FD0F4800F0F6FD0C480E4908600C4876
:1023D0000D49086000221021052001F07BFA064912
:1023E00008600846006820B108A10348006800F0B2
:1023F00021FF00F05FFE10BD88000020E484002073
:10240000F88400208000002084000020546D725168
:102410000000000010B516E000F002FE0C48C06895
:10242000C468201D00F0B2FD0A480068401E09493A
:10243000086009480068401E0749086000F03AFE3D
:10244000204600F05FF8044800680028E4D110BD81
:10245000BC840020500000204C00002070B50446D1
:102460000D46206C70B1216CE0680144E160D4E954
:102470000210884201D32168E1602846226CE1689D
:10248000FDF7C0FF70BD2DE9F04104460F4615462B
:102490004FF00008A66B206C48B9206800282CD1AA
:1024A000A06801F03DFD80460020A06025E07DB9D8
:1024B0003946226C6068FDF7A5FF216C606808440E
:1024C0006060D4E90101884217D32068606014E09D
:1024D0003946226CE068FDF795FF216CE068411AEF
:1024E000E1602168E068884203D2216CA068411A4B
:1024F000E160022D01D106B1761E701CA06340463A
:10250000BDE8F08110B50446206B00F011FE2046B6
:1025100000F00EFE10BD00000146084A1268126865
:102520000AB9012200E000220A600A6822B9034ABF
:102530001268D268106800E0002070478000002018
:1025400030B54FF42053174800F007042CB1C01DDC
:1025500020F00700134C041B1B1B0246124C226088
:102560000024114D6C60D018083820F007000F4C83
:10257000206000240D4D2D686C600C4D2D682C6082
:102580001146441A4C60094C24680C60084D4C6894
:102590002C60084D4C682C604FF00044064D2C60B8
:1025A00030BD00000C850020940000209C0000201D
:1025B000A4000020A0000020B000002000BFFFF712
:1025C00029FF064800680128F9D94FF080500449D6
:1025D0000860BFF34F8FBFF36F8FF0E700820020DA
:1025E00004ED00E02DE9F04106460D4617469846F9
:1025F000069C0DB9246000E02760E6632564012194
:10260000204601F0AFF984F850800020A064BDE8B6
:10261000F08100002DE9F05F82460F4690469B4610
:102620000A9E0C9C4FEA8801A522206BFDF72FFF24
:10263000A8F10100216B01EB800929F0070909F0DD
:10264000070008B9012000E0002028B94FF45872B3
:1026500024A12DA0FDF730FE87B1002507E0795DAC
:1026600004F134004155785D00B902E06D1C102D75
:10267000F5D300BF00214320015502E0002084F87B
:102680003400202E01D2012000E0002028B940F2C1
:10269000973214A11CA0FDF70FFE202E00D31F2699
:1026A000E662E66400202065201D00F090FC04F145
:1026B000180000F08CFC2461C6F12000A061646267
:1026C0000020606584F8580084F859005A46514645
:1026D000484600F0F9FB20600B9808B10B980460A5
:1026E000BDE8F09F2E2E5C2E2E5C4D6964646C65F7
:1026F00077617265735C4672656552544F535C74C2
:1027000061736B732E6300004572726F723A2025FD
:10271000732C2025640D0A0010B5002407E004EB9B
:1027200084010F4A02EB810000F044FC641C202C61
:10273000F5D30C4800F03EFC0B4800F03BFC0B4886
:1027400000F038FC0A4800F035FC0A4800F032FC82
:1027500004480949086004480849086010BD0000A1
:10276000008200208084002094840020A88400201F
:10277000BC840020D08400204400002048000020B9
:1027800010B50146164800E0006803688B42FBD391
:102790000246436813448B4204D143684C68234487
:1027A000436001460A464B6813440468A34211D1B2
:1027B0000C4C03682468A34208D04B680468646822
:1027C00023444B6003681B680B6005E0054B1B68E6
:1027D0000B6001E003680B60884200D0016010BD0F
:1027E000940000209C0000202DE9F04104460D4695
:1027F00016461F464FF0000865602461B5420CD8AC
:10280000F01BA169884202D34FF0010811E0211D9D
:102810000948006800F0DEFB0BE0BE4204D2BD4276
:1028200002D34FF0010804E0211D0448006800F0C5
:10283000D1FB4046BDE8F0818400002080000020EC
:1028400070B5054600F0ECFBA86B08B9012400E068
:10285000002400F02FFC204670BD0000F1B5009868
:10286000846C00262CB940F6D53220A128A0FDF7B3
:1028700023FDA06BE16B884201D2012000E0002023
:1028800028B940F6D63219A121A0FDF715FDA06B9D
:10289000E16B884227D294F94550002269462046D0
:1028A000FFF7F1FD0646681C60B9606A08B90120AF
:1028B00000E00020B0B904F1240001F0B9FB88B1B8
:1028C00001260FE07F2D01D0012000E0002028B973
:1028D00040F6F63205A10EA0FDF7EEFC681C40B2F2
:1028E00084F8450000BF3046F8BD00002E2E5C2E57
:1028F0002E5C4D6964646C6577617265735C4672C9
:10290000656552544F535C71756575652E630000A3
:102910004572726F723A2025732C2025640D0A00CF
:1029200070B505460E460E480068C068C468201D94
:1029300000F02CFB94F8280000F0040028B1324687
:102940002946204600F0FEF805E094F8280000F043
:10295000FE0084F828002046216A884770BD0000E8
:102960008000002070B586B08AE0029800280CDA5A
:1029700003AE2EB940F2063247A150A0FDF79CFCF1
:10298000D6E90020B168904700BF0298002877DBA5
:10299000049C606908B9012000E0002010B9201DE6
:1029A00000F0F4FA01A800F0F9F8054602980A28A8
:1029B00064D2DFE800F06305072E365306082F3790
:1029C00000BF00BF00BF94F8280040F0010084F869
:1029D00028000398A269811803462A462046FFF77B
:1029E00003FFA8B194F8280000F0040038B1039860
:1029F000A26981182A46204600F0A4F805E094F860
:102A0000280000F0FE0084F828002046216A88474C
:102A100035E000BF94F8280000F0FE0084F828009C
:102A20002DE000BF94F8280040F0010084F8280051
:102A30000398A061A06908B1012000E0002028B936
:102A400040F2593214A11DA0FDF736FCA0694119CE
:102A50002B462A462046FFF7C7FE10E094F82800D0
:102A600000F0020018B9204600F062FB05E094F87F
:102A7000280000F0FE0084F8280000E000BF00BF3E
:102A8000002202A91148006800F0EAFF00287FF444
:102A90006CAF06B070BD00002E2E5C2E2E5C4D6912
:102AA00064646C6577617265735C467265655254E7
:102AB0004F535C74696D6572732E63004572726F5B
:102AC000723A2025732C2025640D0A00880000200E
:102AD000F8B505460C4600F0D9FD684600F05EF8F2
:102AE0000646009820BB44B9B54206D801F046FB23
:102AF00031462846FFF714FF1CE03CB10E48006841
:102B0000006808B9012000E000200446A91B224605
:102B10000A48006800F0D4FB01F030FB50B94FF0D8
:102B2000805007490860BFF34F8FBFF36F8F01E0FC
:102B300001F024FBF8BD0000840000208800002084
:102B400004ED00E070B504460D46164604E0A069A9
:102B500005442046216A8847A06941192B46324620
:102B60002046FFF741FE0028F1D170BD09480068FA
:102B7000006808B9012000E0002020B14FF0FF30CC
:102B80000549086005E003480068C068006802491C
:102B900008607047440000207000002070B50446B3
:102BA00001F0C4F8054607480068854204D200F0E9
:102BB0000BF80120206001E0002020600148056042
:102BC000284670BD9000002070B508E00D480068F0
:102BD000C06804684FF0FF312046FFF7A1FE0948A6
:102BE0000068006808B9012000E000200028EDD04E
:102BF0000448056804480068024908600248056006
:102C000070BD000080000020840000200B48006898
:102C1000401C08B9012000E0002020B9CE2208A104
:102C200015A0FDF749FB00BF502080F31188BFF3CA
:102C30004F8FBFF36F8F00BF00BFFEE7B4000020CF
:102C40002E2E5C2E2E5C4D6964646C657761726516
:102C5000735C4672656552544F535C706F72746159
:102C6000626C655C525644535C41524D5F434D3338
:102C70005C706F72742E63004572726F723A202519
:102C8000732C2025640D0A0008B500BF6846FFF7C5
:102C900043FC044620460099FFF71AFFFFF762FE47
:102CA000F4E770B5044600F0BBF994F9455019E01B
:102CB000A06C30B12046FFF7D1FD88B100F006FCD2
:102CC0000EE0606A08B9012000E0002038B904F184
:102CD000240001F0ADF918B100F0F8FB00E003E0CA
:102CE000681E45B2002DE3DC00BFFF2084F84500DC
:102CF00000F0E0F900F094F994F9445010E02069F4
:102D000008B9012000E0002048B904F1100001F0EA
:102D10008FF908B100F0DAFB681E45B200E001E06F
:102D2000002DECDC00BFFF2084F8440000F0C2F965
:102D300070BD00002DE9F04104464FF0000800F09E
:102D4000A5FC4948006808B9FFF7FAFB4748006846
:102D50002040002875D1002C23D004F10800A042A7
:102D60001FD9083404F0070000281BD004F0070026
:102D7000C0F108002044A04211D904F00700C0F1BE
:102D80000800044404F0070008B9012000E0002016
:102D900040B99C2236A144A0FDF78EFA02E000243F
:102DA00000E00024002C4CD043480068844248D8FE
:102DB000424E3046056801E02E462D686868A04204
:102DC00002D228680028F7D127480068854238D009
:102DD000306800F10808286830606868001B102817
:102DE00013D92F1907F0070008B9012000E00020CF
:102DF00020B9CF221EA12CA0FDF75EFA6868001B47
:102E000078606C603846FFF7BBFC2B49686809683E
:102E1000081A294908600846006829490968884253
:102E200003D2254800682649086010496868096887
:102E3000084368600020286022480068401C21493F
:102E4000086001F09BF908F0070008B9012000E0D4
:102E5000002028B94FF4887205A113A0FDF72CFAC1
:102E60004046BDE8F08100009C000020B00000203A
:102E70002E2E5C2E2E5C4D6964646C6577617265E4
:102E8000735C4672656552544F535C706F72746127
:102E9000626C655C4D656D4D616E675C6865617007
:102EA0005F342E63000000004572726F723A202575
:102EB000732C2025640D0A00A0000020940000203F
:102EC000A4000020A8000020001F4FF080730360C2
:102ED000001F21F001030360001F034B036014383F
:102EE00002602038704700000D2C000830B58FB00C
:102EF000054601240120059000040690002007905B
:102F000002200C90C1030D910E9505A8FEF78CF8D8
:102F100004460CB100BFFEE70F2000900220019094
:102F2000002002904FF48060039000200490022162
:102F30006846FDF743FF04460CB100BFFEE70FB043
:102F400030BD000010B504460D480E490860084623
:102F5000446000218160C160016181610C21416197
:102F6000FEF74EFC012208490648FEF7D5FC252055
:102F7000FDF7C1FE032211462520FDF7CCFE10BD52
:102F800000380140880100201E00002001460A6927
:102F9000D1E901309860D1E9010358605068884256
:102FA00001D188685060002008611068401E1060E0
:102FB0001068704700F1080141604FF0FF318160F7
:102FC00000F10801C160016100210160704700212A
:102FD0000161704710B502460B685C1C0CB91069A2
:102FE00007E002F1080000E04068446824689C4261
:102FF000FAD944684C604C68A160886041600A61FD
:103000001468641C146010BD42684A6093688B6049
:10301000936859609160086103685B1C03607047A6
:1030200010B500BF502080F31188BFF34F8FBFF35E
:103030006F8F00BF0B480068401C0A4908600846B3
:10304000006801280DD108480068C0B208B9012005
:1030500000E0002028B940F2731204A111A0FDF78E
:103060002BF910BDB400002004ED00E02E2E5C2EE4
:103070002E5C4D6964646C6577617265735C467241
:10308000656552544F535C706F727461626C655C1D
:10309000525644535C41524D5F434D335C706F72E6
:1030A000742E63004572726F723A2025732C2025AE
:1030B000640D0A0010B50B48006828B94FF4BD72C2
:1030C00009A117A0FDF7F8F806480068401E054959
:1030D00008600846006820B9002080F3118800BF0E
:1030E00000BF10BDB40000202E2E5C2E2E5C4D695A
:1030F00064646C6577617265735C46726565525491
:103100004F535C706F727461626C655C52564453CD
:103110005C41524D5F434D335C706F72742E63009F
:103120004572726F723A2025732C2025640D0A00B7
:1031300070B506463546002E3AD0083D2C461D494E
:1031400060680968084008B1012000E0002028B943
:103150004FF4927218A126A0FDF7AEF8206808B9C6
:10316000012000E0002028B940F2251212A120A081
:10317000FDF7A2F80F49606809680840C0B12068EF
:10318000B0B90C49606809688843606000F07EFA55
:103190001B49606809680844194908602046FFF720
:1031A000EFFA18480068401C1649086000F0E6FF76
:1031B00070BD0000B00000202E2E5C2E2E5C4D69EC
:1031C00064646C6577617265735C467265655254C0
:1031D0004F535C706F727461626C655C4D656D4DD0
:1031E000616E675C686561705F342E63000000008B
:1031F0004572726F723A2025732C2025640D0A00E7
:10320000A0000020AC00002000204FF0E021086169
:10321000886107480068C0084FF47A71B0FBF1F08C
:10322000401E4FF0E0214861032008617047000014
:10323000000000202DE9F04106460F462EB940F669
:10324000C82211A119A0FDF737F80025BFB100244D
:1032500012E01A4800EBC4004068B04203D117489E
:1032600000EBC4050AE035B9144850F8340010B931
:10327000124800EBC405641C082CEAD300BF0DB152
:103280002F606E60BDE8F0812E2E5C2E2E5C4D69A5
:1032900064646C6577617265735C467265655254EF
:1032A0004F535C71756575652E6300004572726FD2
:1032B000723A2025732C2025640D0A00C08100205D
:1032C0002DE9F04105460E4617462C46FFF7A8FEAD
:1032D00094F94400401C10B9002084F8440094F98B
:1032E0004500401C10B9002084F84500FFF7E2FEBD
:1032F000A06B28B93A46314604F1240000F01EF9CB
:103300002046FFF7CEFCBDE8F081000070B5044612
:103310000025ACB10F48006808B9012000E000208A
:1033200028B940F249520CA114A0FCF7C5FF00F0E7
:10333000ADF900212046FEF75FFF00F01FFF0546B4
:103340003DB94FF0805011490860BFF34F8FBFF374
:103350006F8F70BD7C0000202E2E5C2E2E5C4D6980
:1033600064646C6577617265735C4672656552541E
:103370004F535C7461736B732E6300004572726F00
:10338000723A2025732C2025640D0A0004ED00E01C
:1033900070B50546FFF744FE15B92F48006800E0F8
:1033A00028460446201DFFF7F1FD78B9E06A00EBDE
:1033B00080002A4951F8200040B994F82C100120CF
:1033C000884027490968814325480160A06A18B1EF
:1033D00004F11800FFF7DAFD22480068401C21497B
:1033E00008601D480068844209D1211D1E48FFF76E
:1033F0000BFE1E480068401C1C49086006E01C4883
:103400000068401E1A490860FFF7B0FBFFF752FE44
:1034100011480068844202D02046FFF773F815482F
:103420000068C0B10C480068844214D1124800689A
:1034300008B9012000E0002028B940F2DC420FA1C9
:1034400017A0FCF739FF4FF0805019490860BFF30F
:103450004F8FBFF36F8F70BD4000002000820020AF
:10346000580000206C000020BC8400204C0000208C
:10347000500000205C0000207C0000202E2E5C2EDE
:103480002E5C4D6964646C6577617265735C46722D
:10349000656552544F535C7461736B732E63000007
:1034A0004572726F723A2025732C2025640D0A0034
:1034B00004ED00E0034909680160034909684160BF
:1034C00070470000680000205400002001200149DE
:1034D000086070476400002070B504460D462CB9A2
:1034E00040F61C4207A110A0FCF7E6FE1248016856
:1034F00018312046FFF76EFD01212846FEF77CFEBD
:1035000070BD00002E2E5C2E2E5C4D6964646C65CF
:1035100077617265735C4672656552544F535C7493
:1035200061736B732E6300004572726F723A2025CF
:10353000732C2025640D0A004000002070B504465D
:103540000E4615462CB940F6524211A119A0FCF7BF
:10355000B3FE60681B490968C8611A498268096836
:103560000A6218490968183182685160154909686A
:1035700018318160134909688C622168491C2160F7
:103580000DB14FF0FF3629463046FEF735FE70BDCF
:103590002E2E5C2E2E5C4D6964646C6577617265BD
:1035A000735C4672656552544F535C7461736B7300
:1035B0002E6300004572726F723A2025732C20250D
:1035C000640D0A00400000201CB51B4800210B467A
:1035D0008022CDE9001019A11A4800F067FB0446CB
:1035E000012C02D100F09AFE0446012C15D100BF37
:1035F000502080F31188BFF34F8FBFF36F8F00BF50
:103600004FF0FF3010490860012010490860002089
:103610000F49086000F09EF80BE0601C08B1012023
:1036200000E0002028B94FF404620AA112A0FCF7C0
:1036300043FE154800681CBD7400002049444C45F9
:1036400000000000BD250008700000205C00002084
:10365000540000202E2E5C2E2E5C4D6964646C6537
:1036600077617265735C4672656552544F535C7442
:1036700061736B732E6300004572726F723A20257E
:10368000732C2025640D0A00780000200248006891
:10369000401C0149086070477C00002010B51B48A1
:1036A000006818B101201A4908602DE0002018496F
:1036B000086018480068B0FA80F0C0F11F0404EBFD
:1036C0008400154951F8200008B1012000E00020D5
:1036D00028B940F6024211A119A0FCF7EDFD04EB58
:1036E00084010D4A02EB810041684968416000F1A4
:1036F000080142688A4202D14168496841604168D4
:10370000C968134A116000BF10BD00007C00002092
:103710006400002058000020008200202E2E5C2E25
:103720002E5C4D6964646C6577617265735C46728A
:10373000656552544F535C7461736B732E63000064
:103740004572726F723A2025732C2025640D0A0091
:10375000400000201CB53B4C204600780190FF2023
:10376000214608700846007800909DF8000000F09F
:10377000F0009DF80010884201D1012000E00020F7
:1037800028B940F21F1230A13DA0FCF795FD9DF82D
:10379000000000F050003E49087007203D490860D5
:1037A00009E03C480068401E3A4908609DF8000066
:1037B0004006000E00909DF8000000F08000802878
:1037C000EFD034480068C0F10700042801D101207F
:1037D00000E0002028B940F233121BA128A0FCF71A
:1037E0006BFD2C480068C0F10700042801D10120BE
:1037F00000E0002028B94FF49E7213A120A0FCF72E
:103800005BFD2448006800022249086008460088E1
:1038100000F4E06008600B49019808701E480068D9
:1038200040F470001C4908600846006840F0704091
:103830000860FFF7E9FC002018490860FCF7E0FC8D
:1038400000201CBD00E400E02E2E5C2E2E5C4D6995
:1038500064646C6577617265735C46726565525429
:103860004F535C706F727461626C655C5256445366
:103870005C41524D5F434D335C706F72742E630038
:103880004572726F723A2025732C2025640D0A0050
:10389000B8000020BC00002020ED00E0B4000020B3
:1038A00010B500BF502080F31188BFF34F8FBFF3D6
:1038B0006F8F00BF00F040FA18B14FF080500449FC
:1038C000086000BF002080F3118800BF10BD000019
:1038D00004ED00E02DE9F84305460E4617460024A6
:1038E000E5B1601EB0FBF5F0B04217D305FB06F062
:1038F00010F1550F12D805FB06F909F15400FFF736
:1039000019FA04468CB1A04608F154083B464246D9
:10391000314628460094FEF765FE06E02CB94FF4C8
:10392000E37203A10BA0FCF7C7FC2046BDE8F883B7
:103930002E2E5C2E2E5C4D6964646C657761726519
:10394000735C4672656552544F535C71756575655D
:103950002E6300004572726F723A2025732C202569
:10396000640D0A002DE9F04105460E4601272C465C
:103970002CB94FF488722CA134A0FCF79DFC002CCC
:1039800042D0E06B00283FD04FF0FF31E06BB1FB3D
:10399000F0F0216C884237D3FFF742FBD4E90F12D5
:1039A000206801FB0200A0600020A0632068606026
:1039B000E06B401E226C216800FB0211E160FF20D9
:1039C00084F8440084F845009EB9206908B90120B4
:1039D00000E00020A8B904F1100000F029FB80B13C
:1039E0004FF080501D490860BFF34F8FBFF36F8FBA
:1039F00007E004F11000FFF7DDFA04F12400FFF7FF
:103A0000D9FAFFF757FB00E000270FB1012000E0D3
:103A1000002028B940F2451203A10CA0FCF74CFC91
:103A20003846BDE8F08100002E2E5C2E2E5C4D69DC
:103A300064646C6577617265735C46726565525447
:103A40004F535C71756575652E6300004572726F2A
:103A5000723A2025732C2025640D0A0004ED00E045
:103A60002DE9F74183B005460E464FF000082C467D
:103A70002CB940F251524CA154A0FCF71DFC0EB9D8
:103A8000206C08B9012000E0002028B940F255520E
:103A900045A14EA0FCF710FC00F038F908B90598D4
:103AA00008B9012000E0002028B940F25A523EA196
:103AB00046A0FCF701FC00BFFFF7B2FAA76BF7B115
:103AC00031462046FEF7CAFC781EA063206908B97B
:103AD000012000E0002060B904F1100000F0A8FA15
:103AE00038B14FF080503D490860BFF34F8FBFF3AE
:103AF0006F8FFFF7DFFA012006B0BDE8F08105986F
:103B000018B9FFF7D7FA0020F6E7B8F1000F04D193
:103B100001A8FFF7CFFC4FF00108FFF7CBFAFFF742
:103B2000B5FDFFF77DFA94F94400401C10B9002060
:103B300084F8440094F94500401C10B9002084F832
:103B40004500FFF7B7FA05A901A800F049F8F0B958
:103B50002046FEF775FEA0B104F124000599FFF799
:103B6000BBFC2046FFF79DF800F008FB0028A3D11E
:103B70004FF0805019490860BFF34F8FBFF36F8F2C
:103B80009AE72046FFF78DF800F0F8FA94E7204610
:103B9000FFF787F800F0F2FA2046FEF751FE002802
:103BA0008AD00020A8E700002E2E5C2E2E5C4D69E6
:103BB00064646C6577617265735C467265655254C6
:103BC0004F535C71756575652E6300004572726FA9
:103BD000723A2025732C2025640D0A0004ED00E0C4
:103BE00070B506460C462EB940F6FD421FA128A02E
:103BF000FCF762FB2CB940F6FE421CA124A0FCF7A6
:103C00005BFBFFF70DFA264802687068131A254817
:103C1000006890F8590030B100202249096881F805
:103C2000590001251EE02068401C08B9002519E054
:103C30001D4930680968884206D07068904203D8F0
:103C40000125002020600DE02068984207D92068F7
:103C5000C01A20603046FFF72DFC002502E000204E
:103C600020600125FFF726FA284670BD2E2E5C2E17
:103C70002E5C4D6964646C6577617265735C467235
:103C8000656552544F535C7461736B732E6300000F
:103C90004572726F723A2025732C2025640D0A003C
:103CA0005400002040000020680000202DE9FF4F54
:103CB00085B0804689461746DDE912ABB800FFF7AC
:103CC00039F8064656B15C20FFF734F804460CB1CB
:103CD000266304E03046FFF72BFA00E000247CB1B5
:103CE0000020CDE900ABCDE902403A4649464046C6
:103CF000089BFEF78FFC2046FEF7E4FA012501E061
:103D00004FF0FF35284609B0BDE8F08F0549096836
:103D100009B9012005E00449096809B9022000E059
:103D2000002070475C0000207C00002001490868EA
:103D300070470000540000202DE9F0414FF00008CA
:103D40005F48006800287DD15E480068451C5D48DA
:103D50000560002D1DD15C480068006808B901208D
:103D600000E0002028B940F6C72258A160A0FCF767
:103D7000A3FA5548076862480068534908606048DC
:103D8000076060480068401C5E490860FEF7EEFE70
:103D900000BF5D480068854277D300BF4A4800688D
:103DA000006808B9012000E0002020B14FF0FF308A
:103DB0005549086068E044480068C068C46866689F
:103DC000B54202D2504806605EE06069D4E9021252
:103DD0008A60D4E902214A60211D42688A4201D1E9
:103DE000E1684160002262610168491E0160A06AC9
:103DF00098B1A06AD4E907128A60D4E907214A6021
:103E000004F1180142688A4201D1216A416000220E
:103E1000A2620168491E016000BF94F82C100120C5
:103E200088403A490968084338490860E16A01EB6B
:103E30008101374A02EB81014868A0608268E26034
:103E4000211D00E033E0826851608160E16A01EB8E
:103E500081012F4A02EB81026261E16A01EB81017B
:103E60002B4A52F82110491CE26A02EB8202284BCD
:103E700043F822102749E06A0968C96A88428DD34D
:103E80004FF001088AE700E000BF22480068C06ADE
:103E900000EB80001E4951F82000012801D94FF0A5
:103EA00001081D48006808B14FF0010804E01B48F4
:103EB0000068401C194908604046BDE8F0810000D8
:103EC0007C00002054000020440000202E2E5C2E98
:103ED0002E5C4D6964646C6577617265735C4672D3
:103EE000656552544F535C7461736B732E630000AD
:103EF0004572726F723A2025732C2025640D0A00DA
:103F000048000020680000207000002058000020B9
:103F1000008200204000002064000020600000209B
:103F200070B505462C460026002D5ED0304800684E
:103F3000844201D1012000E0002028B941F24F0263
:103F40002CA135A0FCF7B8F9206D28B941F2500238
:103F500028A131A0FCF7B0F9206D401E2065E16C6E
:103F6000E06A884241D0206D00283ED1201DFFF735
:103F70000DF840B994F82C10012088402A490968AE
:103F8000814329480160E06CE062E06AC0F12000F2
:103F9000A06194F82C100120884023490968084347
:103FA00021490860E16A01EB8101204A02EB8101AD
:103FB0004868A0608268E260211D8268516081606B
:103FC000E16A01EB8101194A02EB81026261E16A57
:103FD00001EB8101154A52F82110491CE26A02EBFB
:103FE0008202124B43F822100126304670BD0000B9
:103FF000400000202E2E5C2E2E5C4D6964646C65A2
:1040000077617265735C4672656552544F535C7498
:1040100061736B732E6300004572726F723A2025D4
:10402000732C2025640D0A00580000200082002017
:1040300070B50646F068C4682CB940F682423CA1CF
:1040400044A0FCF739F9A06AD4E907128A60D4E9E0
:1040500007214A6004F1180142688A4201D1216AAD
:1040600041600022A2620168491E01603D4800686B
:1040700000283DD16069D4E902128A60D4E90221A6
:104080004A60211D42688A4201D1E16841600022F4
:1040900062610168491E016094F82C10012088407B
:1040A00031490968084330490860E16A01EB810140
:1040B0002E4A02EB81014868A0608268E260211DFF
:1040C000826851608160E16A01EB8101274A02EB5D
:1040D00081026261E16A01EB8101244A52F82110F8
:1040E000491CE26A02EB8202204B43F8221010E0E6
:1040F0001F494868E0618268226204F11801826801
:10410000516081601A4AA26211460968491C116017
:1041100000BF1849E06A0968C96A884204D90125C4
:1041200001201549086000E00025284670BD000008
:104130002E2E5C2E2E5C4D6964646C657761726511
:10414000735C4672656552544F535C7461736B7354
:104150002E6300004572726F723A2025732C202561
:10416000640D0A007C00002058000020008200201E
:10417000A8840020400000206400002070B50024C6
:1041800000265048006828B940F6B3024EA157A057
:10419000FCF792F8FEF744FF4A480068401E494980
:1041A00008600846006800287ED15448006800284E
:1041B0007AD05BE05248C068C468A06AD4E90712AC
:1041C0008A60D4E907214A6004F1180142688A42F2
:1041D00001D1216A41600022A2620168491E01608A
:1041E0006069D4E902128A60D4E902214A60211D83
:1041F00042688A4201D1E16841600022626101683F
:10420000491E016094F82C10012088403D4909683E
:1042100008433C490860E16A01EB81013A4A02EB3C
:1042200081014868A0608268E260211D8268516057
:104230008160E16A01EB8101334A02EB8102626134
:10424000E16A01EB8101304A52F82110491CE26A0F
:1042500002EB82022C4B43F822102C49E06A0968D9
:10426000C96A884202D301202949086024480068AD
:1042700008B9012000E0002000289BD00CB1FEF717
:1042800075FC2448056865B100BFFFF755FD10B106
:1042900001201F4908606D1E002DF6D100201D4928
:1042A00008601B48006800E008E038B101263007CC
:1042B00019490860BFF34F8FBFF36F8FFEF7FAFE07
:1042C000304670BD7C0000202E2E5C2E2E5C4D6989
:1042D00064646C6577617265735C4672656552549F
:1042E0004F535C7461736B732E6300004572726F81
:1042F000723A2025732C2025640D0A0050000020FE
:10430000A8840020580000200082002040000020E7
:10431000640000206000002004ED00E01CB50024D3
:10432000FEF746F80B48006858B10B481F210023E0
:104330004FF48072CDE9001008A10A48FFF7B6FCDF
:1043400004462CB940F2191207A110A0FBF7B4FFE4
:1043500020461CBD880000208C000020546D722077
:1043600053766300892C00082E2E5C2E2E5C4D693E
:1043700064646C6577617265735C467265655254FE
:104380004F535C74696D6572732E63004572726F72
:10439000723A2025732C2025640D0A0000000000CD
:1043A00000000000010203040607080900000000E5
:1043B00001020304C0030000200000000078000098
:1043C000E043000800000020C00000006C0100086D
:1043D000A0440008C0000020B0B20000880100081E
:1043E0000024F400000000000000000000000000B5
:1043F00000000000000000000000000000000000BD
:1044000000000000100000000101000075210008FC
:10441000A521000840020020407A00200000000092
:10442000000000000000000000000000000000008C
:10443000000000000000000000000000000000007C
:10444000000000000000000000000000000000006C
:1044500000000000000000001F000000000000003D
:10446000000000000000000000000000000000004C
:10447000000000000000000000000000000000003C
:10448000000000000000000000000000000000002C
:1044900000000000AAAAAAAA000000000000000074
:0400000508000131BD
:00000001FF
