:100000006F00F01113000000130000001300000047
:100010001300000013000000130000001300000094
:100020001300000013000000130000001300000084
:08003000130000007300100032
:100038000000000000000000080300000C0300009E
:10004800000000006408000000000000000000003C
:1000580066080000680800000000000000000000BA
:100068006A080000000000006C08000000000000A2
:100078006E08000070080000720800007408000094
:1000880076080000780800007A0800007C08000064
:100098007E08000080080000820800008408000034
:1000A80086080000880800008A0800008C08000004
:1000B8008E080000900800009208000094080000D4
:1000C80096080000980800009A0800009C080000A4
:1000D8009E080000A0080000A2080000A408000074
:1000E800A6080000A8080000AA080000AC08000044
:1000F800AE080000B0080000B2080000B408000014
:10010800B6080000B8080000901E0000BC080000F7
:10011800BE080000C0080000C2080000C4080000B3
:10012800C6080000C8080000CA080000CC08000083
:10013800CE080000D0080000D2080000D408000053
:10014800D6080000D8080000DA080000DC08000023
:10015800DE080000E0080000E2080000E4080000F3
:10016800E6080000E8080000EA080000EC080000C3
:10017800EE080000F0080000F2080000F408000093
:10018800F6080000F8080000FA080000FE18000051
:10019800FE08000000090000020900000409000030
:1001A80006090000080900000A0900000C090000FF
:1001B8000E090000100900001209000014090000CF
:1001C80016090000180900001A0900001C0900009F
:1001D8000000000000000000000000000000000017
:1001E8000000000000000000000000000000000007
:0801F8000000000000000000FF
:10020000397101436EC619A0397141536AC866CA73
:1002100062CC5ECE19A0397101535AD056D252D455
:100220004ED64AD826DA22DC06DE330161408282CD
:1002300041114AC026C222C406C68282B24D410183
:10024000024D924C224CB24B4101024B924A224A3F
:10025000B2494101024992442244B24041018280A4
:100260003D432A876373C3029377F700BDEFADE583
:10027000937606FF3D8ABA960CC34CC30CC74CC795
:100280004107E36BD7FE11E28280B306C3408A06C2
:100290009702000096966780A6002307B700A30682
:1002A000B7002306B700A305B7002305B700A304D2
:1002B000B7002304B700A303B7002303B700A302CA
:1002C000B7002302B700A301B7002301B700A300C2
:1002D000B7002300B700828093F5F50F9396850051
:1002E000D58D93960501D58D61B79396270097021A
:1002F000000096968682E78086FA9680C1171D8F49
:100300003E96E374C3F8A5B77300203001A0EFF266
:100310003FEF79710945EF00F02371645921EF2017
:10032000D00813050420EF20B011EF10406E130524
:100330000420EF107017EF10F01EEF204045096504
:1003400013050558EF10B02B13050420EF103040B3
:10035000EF10C04CEF00F07A63130534B7A700002C
:1003600083AD073EB7A7000003A8473F83A7073F19
:10037000814437A400003EC0B7A7000083A7473ED2
:1003800042C23EC6B7A7000083A7873E3EC8EF1013
:10039000701F03D581F2138981F2EF20305DB7A77A
:1003A000000083A5C73D138A0186EF20302023205B
:1003B000AA0003552900EF20705B8325C43DEF2080
:1003C000F01E23A6A1840355490093890185EF20DF
:1003D000F0598325C43D138D0185EF20301D23A0E6
:1003E000A90003556900938A8184EF203058832542
:1003F000C43D93898184EF20701B23A0AA0003557C
:100400008900938AC185EF2070568325C43DEF2073
:10041000F01923A0AA000355A900EF203055832529
:10042000C43DEF20B01823A0A1820355C900EF20DE
:10043000F0538325C43DEF20701723AAA1840355F0
:10044000E900EF20B0528325C43DEF20301623A2EF
:10045000A186835709012394F18283572901239DA3
:10046000F1808357490103572902239FF182835763
:1004700069012397F18283578901138C8182938BC1
:10048000A181239AF1828357A901138BE1832399D8
:10049000F1828357C9012396F1828357E9012392A0
:1004A000F182835709022393F182239DE18203574E
:1004B0004902938A6182239CE18203576902239552
:1004C000E18203578902239EE1800357A90223900A
:1004D000E1848357C9022392F1848357E902239C64
:1004E000F180835709038355290303554903239B4F
:1004F000F1822391B184239EA18237A500001305C8
:10050000853FEF40000103250A00EE85938C818131
:10051000EF20B0349387E1823ECA938741833ECC7B
:10052000938721833ECE9387C1823ED093874182B9
:100530003ED2938741843ED4938721843ED613894B
:10054000C185138A618363440500EF20204D03A514
:100550000900EF20904E02469246EF20407A635801
:10056000A000EF2060341305803EEF20006A832551
:10057000090003250D00EF207003B24523ACA184D0
:10058000EF20103663580500EF20202E1305401F82
:10059000EF20A067C24503250900EF20102C63540B
:1005A000A000EF20C043B7A7000083A5073E0325A6
:1005B0000900EF20902A6357A00083D70C0099C34D
:1005C000EF20005683570C0099C3EF20C03183D72A
:1005D0000B0099C3EF20003583570B0099C3EF2020
:1005E000403883D70A0099C3EF20803B83570A0025
:1005F00099C3EF20604AB2579E2399C3EF20004E63
:10060000D24703D741879E23D98F81C71545EF1065
:10061000405DE24703D7A1879E23D98F81C7154547
:10062000EF102058F24703D781879E23D98F91C7B7
:10063000D14513054006EF104054825703D7218758
:100640009E23D98F81C71545EF10005E925703D7BF
:1006500001879E23D98F99C3EF10A038A2579A2300
:1006600085476314F700EF20403F83D7618799C324
:10067000EF20404F8504C204C180914763F7970083
:10068000EF0050708144EF1040080145EF10C01496
:1006900019C1EF00F0782945EF202057CDB9130597
:1006A000401FEF2080567DB1B71702409843B70630
:1006B000FFF841111367170098C3D84337060200AB
:1006C000758FD8C39843B706F7FEFD16758F98C38C
:1006D0009843B706FCFFFD16758F98C3D843B7063D
:1006E00081FFFD16758FD8C39843B70600ECFD1641
:1006F000758F98C33707FF0098C723A6070202C467
:1007000002C69843C166558F98C3B7160240056765
:100710009C42F18F3EC6A24785073EC4B24781E79F
:10072000A247E397E7FEB71702409C431397E70001
:100730006357070685473EC632478547631FF70460
:10074000B7170240D843B706C1FFFD16D8C3D84338
:10075000D8C3D84313670740D8C3D843758FD8C3CD
:10076000D843B7062900558FD8C39843B706000170
:10077000558F98C3984393166700E3DD06FED84370
:10078000B7160240719BD8C3D84313672700D8C35C
:100790002147DC42B18BE39EE7FE4101828002C625
:1007A00061BF371602405C42370700209146B18B8B
:1007B0001307071F6385D700A1466388D702B717C1
:1007C0007A00938707201CC3B7170240DC4391834C
:1007D00093F6F700B707002093870700B697942396
:1007E0001C43B3D7D7001CC3828054425042C16718
:1007F000C982BD8A7D8E9387260085CABD466389DE
:10080000D702C1466389D702C54581466393B700C5
:10081000C1470DE63746024003260680418A15C6C9
:1008200037167A00130606202DA08146C947D5B792
:100830008546B547F9BF8146BD47E1BF371602403F
:1008400050429315E600E3DD05FC37163D00130624
:100850000690B387C7021CC3A5DA1C438583A5B7DE
:1008600001A001A001A001A001A001A001A001A080
:1008700001A001A001A001A001A001A001A001A070
:1008800001A001A001A001A001A001A001A001A060
:1008900001A001A001A001A001A001A001A001A050
:1008A00001A001A001A001A001A001A001A001A040
:1008B00001A001A001A001A001A001A001A001A030
:1008C00001A001A001A001A001A001A001A001A020
:1008D00001A001A001A001A001A001A001A001A010
:1008E00001A001A001A001A001A001A001A001A000
:1008F00001A001A001A001A001A001A001A001A0F0
:1009000001A001A001A001A001A001A001A001A0DF
:1009100001A001A001A001A001A001A001A09701D8
:1009200000209381210D177100201301A16D17A5DF
:1009300000001305E54397F5FF1F9385A56C13860B
:10094000818163FAC5008322050023A055001105AB
:100950009105E3EAC5FE13858181938581F963776B
:10096000B500232005001105E36DB5FEFD4273902F
:1009700002BCAD4273904280B7620000938282084D
:1009800073A0023097F2FFFF9382426B93E2320032
:1009900073905230EFF05FD197020000938262971C
:1009A00073901234730020301C4141677917F98F1E
:1009B0001CC1232005002322050023240500B707BE
:1009C000024023260500138787006317E500D843FC
:1009D0001367F700D8C382801387C7016316E50049
:1009E000D8431367070FFDB7138707036318E500A4
:1009F000D8438566938606F0558FE9BF1387470471
:100A00006315E500D843BD66C5BF13878705631628
:100A1000E500D843B7060F00C5B71387C7066316AE
:100A2000E500D843B706F000C1BF13870708631677
:100A3000E500D843B706000FC1B713878740631995
:100A4000E50003A747401367F70023A2E740828031
:100A50001387C7416317E50003A747401367070FD4
:100A6000EDB793870743631BF500B707024003A761
:100A700047408566938606F0558FC1BFB707024091
:100A8000138747446316E50003A74740BD66EDB7EB
:100A9000138787456317E50003A74740B7060F0094
:100AA000E1BF1387C7466317E50003A74740B706B2
:100AB000F000D9B7138707486317E50003A747403D
:100AC000B706000F55BF138707496319E50003A751
:100AD000474D1367F70023AAE74C82801387074A24
:100AE0006317E50003A7474D1367070FEDB713879B
:100AF000074B6319E50003A7474D8566938606F00B
:100B0000558FD1BF1387074CE319E5FC03A7474D69
:100B1000BD66FDB71C4161773D0794517D8F9C45B3
:100B2000D58F9449D58FD449D58F944DD58FD44D39
:100B3000D58FD451D58F9455D58FD98F1CC1DC4515
:100B40005CC19C411CC5DC415CC582801C4189C5DF
:100B500093E717001CC1828041677917F98FDDBFC9
:100B60004CC182809317350063DA0700B707024053
:100B700083A707407D8D3335A00082809317250021
:100B800063D70700B707024083A7074DE5B7B7074C
:100B900002409C43C5B79317350063D70700B707DA
:100BA000024023A2A74082809317250063D7070045
:100BB000B707024023AAA74C8280B7070240C8C3E8
:100BC00082809C4513F7070113F8F70001C7D8414D
:100BD0003368E8008E2113F7F50F39C318418146B9
:100BE000854E3D4F930F800293028004214E339631
:100BF000DE00B3F8C5006311160393982600331383
:100C00001F011343F3FF3377E300B318180133E7F1
:100C1000E800639FF70550C98506E39AC6FD18C131
:100C20001307F00F6375B70454412146854E3D4FBD
:100C3000930F800293028004414EB398CE0033F7A5
:100C400015016392E8021317260001173313EF0012
:100C50001343F3FFB376D3003317E800D98E639DB7
:100C6000F701232A15010506E319C6FD54C1828048
:100C7000E39457FA10C94DB7E39757FE232815019F
:100C8000DDB74CC9828019C20CC982804CC98280F0
:100C9000B707014063570504DC4F135705019376EE
:100CA000F700131605013707300041823378E5005D
:100CB000635C05046319E802138706018D46B39649
:100CC000E60093C6F6FFF58F89C913575501120741
:100CD0003317E600D98F63570504370701405CCF0F
:100CE0008280DC435DBF1317B500635607000D47D4
:100CF000B316D700F9B71357550112073317E6009B
:100D00001347F7FFF98FC9B76312E80237080140AC
:100D100083264800370700F17D17F98F758F23224E
:100D2000E800C5F5370701405CC382801317B500A2
:100D3000635C07000D473317D7001347F7FF7D8F1C
:100D4000B707000FD98FF1BF13575501120733179B
:100D5000E600E5B723A4A186828093878186944329
:100D6000182181E63C21920721A894430546639F00
:100D7000C6023C21103192076314D60093E707F8AE
:100D8000B7E600E093F7F70FBA962380F640854662
:100D9000935757003397E6005441A5C29387070441
:100DA0008A07B7E600E0B69798C382808C438946ED
:100DB0006391D50214313C216365D6008A06B6974B
:100DC0005DB79386E6038A06B69793F7F70F920707
:100DD00075B790438D46631CD60014313C21636483
:100DE000D6008606E9BF9386C6078606F1BF944300
:100DF0009147E39EF6F81C31BDB7938707064DB7C0
:100E0000371702405C439146B18B6385D700A146FA
:100E10006382D706B7177A00938707201CC137165D
:100E200002405C4237070020130707019183BD8B06
:100E3000BA9794231C41B3D7D7005CC15442A18216
:100E40009D8ABA969422B3D6D70014C55442AD8277
:100E50009D8A36971823B3D7E7005CC5584239837B
:100E6000937637001387418036971823B3D7E7026C
:100E70001CC982805C435843C166C983758FB7F62D
:100E8000FF1F83A6C670BD8B8907139616016348A2
:100E90000600C54601466392D702C94739A889466C
:100EA000638FD702BD46638ED702C146638ED702D9
:100EB000C54601466393D700C1471DEF374702403F
:100EC00003270780418B05C737177A0013070720D0
:100ED000B307F7021CC121D61C41858381B70146A7
:100EE0006DBF0546B547D1BF0146BD47F9B73717B6
:100EF0003D0013070790E9BFB7150240D855931678
:100F0000F700D85563DF060411833D8B9306170065
:100F100037177A00130707203357D70218C1D45563
:100F2000A182BD8A8DE295463307D702058318C199
:100F300037170240585714413D8B050733D7E60257
:100F400018C1184171B785456394B600E546E9BFFD
:100F5000BD456396B600D1463387E602C9BF890610
:100F6000E5BF3D8B9306170037177A00130707205C
:100F70003357D702F1B799C5371702405C4B5D8DE7
:100F800048CB8280B7170240D84B1345F5FF798DC7
:100F9000C8CB828099C5371702401C4F5D8D08CFA2
:100FA0008280B7170240984F1345F5FF798D88CF9F
:100FB000828099C5371702405C4F5D8D48CF828093
:100FC000B7170240D84F1345F5FF798DC8CF8280FF
:100FD0001E2137370140930607C0C207C183630053
:100FE000D504B7060040630CD5029386064063081B
:100FF000D502B7160040138606806302C5029386A9
:1010000006C0630ED50013070740630AE500375793
:101010000140930607C06304D5006316E500BA21BA
:1010200093F7F7F8D98F37170040630CE5001307E3
:1010300007406308E50093F7F7CFFA21C207C183A1
:10104000D98F1EA1DE215EB59E211EB5B7370140A6
:10105000138707C0630EE50093870740630AF50016
:10106000B7570140138707C06304E5006314F50018
:101070009C251EB985475EA982801E3165771307BE
:10108000F7CFC207C183BD9BC207C1831EB11E310A
:10109000562103D88500C20713960601162DC18379
:1010A00093F7F7FD758F96214182A206558FB621E1
:1010B00042074183B3E606019206D58FB736014059
:1010C000C207138806C0C183630E050193860640DC
:1010D000630AD500B7560140138806C063040501B2
:1010E000631ED502B62593F7F7F703D8C50092061D
:1010F000D58FD621C207C183920693F7F7FBD58F10
:10110000FD769386F63FF18EF225C207C1833366E2
:1011100006010A06D18E13960601418252A11AAD2C
:10112000FA211ABD1EB182801E2189C593E71700DE
:101130001EA18280C207C183F99BC207C183CDBFB4
:101140008357450491C52167D98F2312F504828006
:10115000C607C583DDBF5E2501C6DD8D4EA5828035
:1011600093C5F5FFFD8DDDBFEFF28F8CED376FF08E
:101170006F8E1A2DFD779387F77FF98FA205CD8F9C
:10118000C207C1831EAD8280EFF28F8A1629F577E0
:10119000FD17F58FF621DA257971D58F1EA9562511
:1011A000FD779387379FF58FD6212A842EC6D58F5A
:1011B0009625D58FB625D58F5EA55E29C207C1833A
:1011C00093F7F7CFD98F5EA968081D39B74701405B
:1011D00093870780B245631AF404A25756246547E3
:1011E000B387E702C206C186984163D206040607A8
:1011F00052244206B3D7E702130740064186B3D60E
:10120000E702B3F7E7029206635506028E0793875B
:101210002703B3D7E70213F77700B367D700C207F6
:10122000C1831EA445616FF0EF82925745BF0A0744
:10123000C1B7920793872703B3D7E702BD8BD58F3A
:10124000F9BF91C55E250967D98F5EA582805A25B1
:10125000F977FD17F98FD5BF13F7F50F854715837C
:10126000B395B7006319F7009307C500984301CE03
:10127000D98D8CC38280894693074501E318D7FE38
:1012800093070501E5B793C5F5FFF98DDDB75E2935
:1012900001C6DD8D4EA9828093C5F5FFFD8DDDBFB2
:1012A00093F5F51F4EA182804A211375F51F8280A8
:1012B0000A216D8D3335A000828093C5F5FFC205EC
:1012C000C1810EA1828013F7F50F85461583B39770
:1012D000B6006311D7025A25F98F1A21014542073A
:1012E000418381CB0545A181B315B5006D8F3335A1
:1012F000E000828089466314D7001A29F1BF5A2979
:10130000E1BFEFE25FF1B7A9000037A9000037A401
:10131000000037A500000111938689411306494258
:101320009305C4421305454302C802CA02CC230EEA
:1013300001000408EF30E00B814826C202C00148DA
:10134000814701479306001013868941930549425E
:101350001305C442EF00107B59E9AC8242452D29A8
:101360001305A00F95292A8419E1054415A8EF005B
:1013700010728947E31BF5FE2285EF102026954762
:1013800063E2A706A967938707400A053E951C41BB
:10139000828737A5000013058546EF30801701448A
:1013A0002685EF00504D228505616FE01FEA37A5C5
:1013B00000001305C547EF30C01545BF37A5000035
:1013C00013058549CDBF37A500001305C54BE5B70B
:1013D00037A500001305C54DF9BF37A5000013055B
:1013E0000550D1BF37A500001305C552E9B737A591
:1013F000000013058554EF30C01105446DB7EFE2CE
:101400003FE3B7A5000039719385C5562A84EF30B4
:10141000201C1306000481450A85EFE07FE403C623
:101420000183B7A50000938505570A85EF30801228
:101430008A852285EF3060161306000481450A85EF
:10144000EFE01FE203D6C181B7A5000093850558E0
:101450000A85EF3020108A852285EF3000141306AC
:10146000000481450A85EFE0BFDF03D6A183B7A55D
:1014700000009385C5580A85EF30C00D8A85228506
:10148000EF30A0111306000481450A85EFE05FDD0F
:1014900003D68183B7A500009385055A0A85EF30EE
:1014A000600B8A852285EF30400F130600048145CA
:1014B0000A85EFE0FFDA03D60184B7A50000938523
:1014C000855B0A85EF3000098A852285EF30E00CC4
:1014D0001306000481450A85EFE09FD803D6A18258
:1014E000B7A500009385855C0A85EF30A0068A8544
:1014F0002285EF30800A1306000481450A85EFE05B
:101500003FD603C6C183B7A500009385855D0A85D4
:10151000EF3040048A852285EF302008130600044E
:1015200081450A85EFE0DFD3938481F2D224130949
:101530004006B7A50000335626039385855E0A85CD
:10154000EF3040018A852285EF3020051306000424
:1015500081450A85EFE0DFD0F224B7A5000093852E
:10156000455F335626030A85EF20D07E8A85228583
:10157000EF30A0022285EF30A0061375F50F216130
:101580006FE05FCDEFE2DFCA37A500006D71130594
:10159000456502C002C202C423060100EF20707735
:1015A0001306001081450808EFE09FCB0808813D35
:1015B00013140501418439C837A500000A879546F0
:1015C0000146A28513058541EF10200339E18147CB
:1015D000924618083E9703060700138716003AC282
:1015E00002478507369710A3139707014187E34108
:1015F00087FE2C8202454D22924537A50000130537
:101600000567EF20105F0A85EF00F02651616FE05B
:101610007FC437A5000013050568EF20906FFDB764
:10162000EFE21FC17971AA8402D002D202D423064C
:10163000010202C602C823150100EF005045914780
:101640002A84630FF506BD476317F5089306A100CA
:1016500070000C082685EF1040000DED3246C245A3
:10166000348537A5000013050560EF209058B2457A
:1016700042451010EF10200811ED37A500001305AA
:101680004562EF201069025583554102312208104E
:10169000EF00701E9D2832459305D007EF20D071D2
:1016A0008147254629E1BD476305F4008D47631551
:1016B000F4024245EF10304B3245EF10D04A29A8D2
:1016C0002685EF10E00A79F537A50000130585633C
:1016D000EF203064C1B7152845616FE0BFB75808E7
:1016E0003E9714A385073307F50083061700138779
:1016F00006FD1377F70FE374E6FE1818BA9748084B
:10170000238207FEEF10104579BFEFE27FB2130688
:101710000010814513858188EFE09FB423960186F0
:101720006FE05FB31387C1861623054581CE93878B
:10173000E18692236316D6002310070001458280BC
:1017400096A305458280EFE21FAD2A842E89EF2003
:1017500030691316050137250040A2854182130523
:101760000580EF00F0071304900C7D141374F40F40
:1017700019E0854419A87D37AA8419E9CA8513851B
:101780008188EF20D06909C5493726856FE0FFAB16
:101790002945EF108047D1BFEFE29FA901112E84A8
:1017A000AA84A537B7A500009385C57722860A8548
:1017B000EF20505AB7A500009385C5780A85613798
:1017C00009E9372500402286A68513050580EF002C
:1017D000300105616FE01FA8EFE29FA52A8437A9B9
:1017E0000000893715E19305C96913858188EF20C9
:1017F000106319C99305A003EF20105C11CD0505F6
:101800006FE05FA53E84F1BF1545EF1000409307E0
:10181000F4FFC207C1837DF40145DDB7EFE25FA1AC
:10182000ED3537A500001305456AB7A40000EF2089
:10183000504E37A9000026849385C46A1305096BAE
:10184000193749E537A500001305856BEF20704C6B
:10185000B7A400009305C46A1385446CED3525EDEB
:1018600037A500001305456DEF20B04AB7A400006E
:101870009305C46A1385446EF9353DE137A5000030
:101880001305456FEF20F048B7A4000037A400000F
:1018900093850470130584707D3521E937A5000018
:1018A00013054572EF20F046B7A4000037A40000EE
:1018B000938544731305C47379350DED37A5000086
:1018C00013058576EF20F0446FE0DF981305401F85
:1018D000EF10A03395B71305401FEF1000339DBFE5
:1018E0001305401FEF10603261B71305401FEF1062
:1018F000C03179BF1305401FEF10203155BF372588
:1019000000409305505213050580EFF0DF9B05CD95
:1019100083D6C1861307F00F9387C1866374D700FF
:10192000239007009A2337250040130505801306EE
:101930001700562192A393878188BA9793050002D6
:1019400094A3EFF09F9773002030F54763E9A70257
:1019500093070003B307F5021385819861463E950E
:1019600081473397F500131887009306800363437C
:101970000800F14616A185070905E394C7FE828099
:10198000EFE21F8B37040240130544449305002DFA
:10199000EFF00F9D371500408545130505C0EFF0AA
:1019A000AFF8130544448545EFF04F9A05443725B9
:1019B0000010EFF02F9BE31C85FE3715004081459A
:1019C000130505C0EFF04FF63705024081451305BA
:1019D0004544EFF0AF9737250010EFF0CF9B6FE055
:1019E0007F87EFE2FF84938781981386075AF1453A
:1019F000BE8661477D178EA21377F70F89067DFBA0
:101A000093870703E396C7FEA53F6FE0BF84EFE22D
:101A10003F821D7185451145EFF0CFD785452145A2
:101A2000EFF02FD985450945EFF0EFD48947FC84C5
:101A300037150140E1473ED02C088D47130505803E
:101A4000371400403ECEEFF0CF97930770076C003D
:101A5000130504C03EC802C6EFF08FD7C167938755
:101A600007064C10130504C03ED2231501022316AD
:101A7000010223180102EFF04FE0130504C0854571
:101A8000EFF00FEC130504C0A145EFF08FEE130546
:101A900004C08145EFF04FE90546130504C09305E6
:101AA0000040EFF06FEC938781983EDCC1473EDE4B
:101AB0009307002DBEC093070008BEC4130484C35F
:101AC0009307001022DABEC6370402409307004095
:101AD000BEC84C18856713054444BECC82C282CA76
:101AE00082CEEFF02F83814513054444EFF00F863B
:101AF000CD3D13054006EF10401125616FE08FF5D5
:101B00001345F5FF1375F50F9307400563E1A70231
:101B1000931725000D47B307F5403305E502FD1780
:101B200093F7F70FA2071375F50F5D8D828093076A
:101B3000900A63E1A7021305B5FA1375F50F8D47F7
:101B4000B307F50213172500198D7D1593F7F70FCD
:101B5000C207D1BF130565051375F50F931725004F
:101B60000D47B307F5403305E502FD1793F7F70F6F
:101B7000C2071375F50F22054DBFEFE2CFE9AA8921
:101B80002E890144F9442285CE8505047D3B42041B
:101B9000C53B4A854180EF104007E31694FE6FE095
:101BA000CFEAEFE24FE72A898144F949130A00108E
:101BB0000144338584001375F50F9937AA85228572
:101BC0000504420441805133E31534FF85044D3B45
:101BD000C2044A85C180EF104003E39B44FD6FE0DF
:101BE000CFE6EFE24FE3AA8901447949130A005096
:101BF0008144139584003345250322951375F50F11
:101C00000137AA8513950401418185043D3BE39288
:101C100024FF0504B53342044E854180EF00F07E79
:101C2000E31844FD6FE06FE2EFE20FDEAA8A794A23
:101C30000149130BF00FF94B0D4C930C00103304BA
:101C4000204142044180814981A833E56403330D7A
:101C50009400420D135D0D018D041375F50F4D3584
:101C6000AA856A85DD31E39244FF193B5685EF0072
:101C7000D0798144338534018D044205C204814505
:101C80004181C180EFF07FCCE39674FF05044204EC
:101C90008509418063848901CA8445BF0509050A15
:101CA000E31F99F96FE0CFD9EFE28FD80111AA8431
:101CB000854513051002EFF0EFAD854537050400AB
:101CC000EFF02FAF37051400854513050503EFE04E
:101CD0003FFC93070010371401407C828D473EC4BF
:101CE0004C00E147130504403EC6EFE09FED93072B
:101CF00000207C824C009147130504403EC6EFE073
:101D00005FEC37550040B7070C000C081305058041
:101D100026C83ECC02CA231E0100EFF0EFC60561C3
:101D20006FE04FD3EFE2CFD0797185450545EFF0F5
:101D30008FA43704024013050403EFE0FFC6B75732
:101D40000040938747803EC2938781F23EC4930749
:101D500060033EC8930700083ECC4C008D67130516
:101D600004033ED402C602CA02CE02D002D202D678
:101D7000EFE05FDA814513050403EFE03FDD4561E5
:101D80006FE04FCDEFE2CFCA37040240854513051F
:101D90000403EFE0BFDBB7540040054693050004A1
:101DA00013850480EFF0AFCE854513850480EFF0F6
:101DB0004FC99305600313050403EFE07FDA1305B1
:101DC0000020EFE03FDA65DD37050240814513056D
:101DD0000503EFE0BFD713050020EFE0DFDB37544A
:101DE000004001461305048093050004EFF02FCA5C
:101DF000814513050480EFF0CFC46FE0AFC5EFE27B
:101E00002FC379712A8985451145EFF0AF98854533
:101E100037050200EFF0EF99B71401408D471144E8
:101E20003ECC4C08E14713850480E0823ECEEFE0D3
:101E30005FD9A1474C08FC821385048091473ECEB0
:101E4000EFE03FD8930760237C8668008547408792
:101E50003EC837440040EFE05FF0B7070C000C10BD
:101E6000130504403ED44AD002D223160102EFF0FB
:101E7000AFB105461305044093055052EFF0CFBDB6
:101E8000854513050440EFF0CFBB45616FE08FBC83
:101E9000411122C6374400409305505213050440B7
:101EA000EFF06FC259C113050440EFF0EFBF137597
:101EB000F50F85476313F502239AA186239D0186BA
:101EC000239C018623990186239801869947631BE9
:101ED000F5020547239BE18689A809476317E500BA
:101EE000239A0186239DF186E1BF0D476312E50227
:101EF000239A0186239D0186239CF18623990186DE
:101F0000239801869D476312F502239B018631A821
:101F100011476310E502239A0186239D0186239CC5
:101F200001862399F186239801863244410173008A
:101F300020301547E31CE5F8239A0186239D01868E
:101F4000239C0186239901862398F186F9BFEFE24D
:101F50002FAE7971AA8485454145EFF0AF83854561
:101F600013050004EFF0EF84E1473ECE0D448547B2
:101F70004C0837150140FC8222CCEFE09FC491470A
:101F80003ECE4C08894737150140FC8222CCEFE059
:101F90005FC337240040B7070C000C101305048002
:101FA0003ED426D002D223160102EFF0EF9D130596
:101FB00004808545EFF0EFA80546930550521305C0
:101FC0000480EFF06FA985473EC86800930770054D
:101FD0007C8623070100EFE05FD845616FE08FA7A3
:101FE000EFE26FA3AA84AE893289014493170401FA
:101FF000C18363E427016FE04FA5B38789008C2379
:102000002685EFF0EFA9930500042685EFF04FAA8F
:102010007DD90504E1BF1C419DEBEFE26FA185472F
:102020002A845CA52E85AE84EF10403308C001C918
:102030002322040004C48147184463E4E7006FE0EE
:102040006FA118403E97230007008507F5B7894721
:102050005CA58147184563E9E70023220500637BFF
:10206000B70023200500828018413E972300070017
:102070008507CDB78280EFE2AF9B582585472A843C
:102080006315F7000841EF10002E232004002322DF
:10209000040023240400230604006FE0AF9B85475F
:1020A00095461377F5071D8119C9136707F898A19D
:1020B00085078505E397D7FEFD573E85828098A169
:1020C000EDBFEFE26F944111814413033002B388F6
:1020D00095008388080063930802B33AF0008547AF
:1020E000938A0A033389D4006306F70611CF894720
:1020F0006306F7060D4541016FE08F9493F878FF72
:10210000638268148504E1B709094284BA8B368B6F
:10211000B289AE8C2A8C35CE030706008947631A34
:10212000F706014A1307D00793071A00B386F90090
:102130008386F6FF6397E60233066941150A0D06AA
:102140005296B285228532C6F9350840324601EDF5
:10215000114555B793EA2A00110945BF93EA4A0091
:10216000E5BF3E8AD1B78145EFE08F8F58401C40D4
:102170004A859306170054C0BA97238057010C4034
:102180005C40BE95293F635405022285ED35154517
:102190009DB7130659002285B28532C6AD3D084071
:1021A00045D932468145014AEFE08F8BC1B75C408B
:1021B0002686E6853E951C401307150058C03E95BF
:1021C00093D784001CA158401C409306170054C0AC
:1021D000BA9784A35C4008403E95EF2080415C4064
:1021E000BE9444C063820B021C401387140058C085
:1021F000BE9493578C009CA058401C409306170037
:1022000054C0BA97238087010145E38609EE5C40FC
:102210000840038709003E958947631CF7005286F2
:10222000CE85EF10E0145C403E9A23224401014524
:10223000D9B55A86CE85EF10A0135440369B232281
:102240006401F5B7094545BD232006008546814751
:10225000094363C4B7007D558280B308F50003C706
:102260000800032806001377F7073307D7024297C1
:1022700018C2038708006345070013851700828092
:102280009E06638467008507E9B779558280EFD29F
:102290003FFA04213547411191809387F4FF93F76A
:1022A000F70F636EF7048D476397F4042A84700078
:1022B0009145050502C6493FB246854763F1D704FB
:1022C0001C20858B8DEF050522951C311821A20756
:1022D000D98F13978700A183D98FC207C18389073C
:1022E00063EFF600B7A50000938545790905EF2057
:1022F000003311C1BD44268541016FD0BFF5930461
:10230000F00FD5BFEFD2DFEF2A8A32853A8DAE8942
:10231000B28B368CBE8CC28A4689EF20602C931417
:102320000501333DA00116442A8BC180060D63933D
:102330000A08C504C204C18063840C00136DCD007B
:10234000864799C3136D4D028D4763020A06638069
:1023500009065285EF20C028AA8C91044E85EF20F3
:102360002028E694AA94C204C1802285A685EFF0B5
:102370009FCA0840914705CD26868145EFD05FEE84
:1023800058401C401385B4FF9306170054C0BA97F9
:10239000414798A30C405C40BE95EFF05FD04205EA
:1023A0004185635805022285EFF0FFCC95473E85B5
:1023B0006FD0DFE85685EF20A022AA8D4A85EF2056
:1023C0002022D504AA9493FDFD0F136D4D00EE94C9
:1023D00095B75C4093140B01C1843E951C401307D4
:1023E000150058C03E952300050058401C40930638
:1023F000170054C0BA97114798A354401C40138645
:10240000160050C0B6979306D00494A354401C40C5
:102410001386160050C0B6979306100594A3544037
:102420001C401386160050C0B6979306400594A32F
:1024300050401C40930516004CC0B29794A35440E2
:102440001C40DE851386160050C0B69798A35840EE
:102450001C4026869306170054C0BA9713670DFCDC
:1024600098A31C405840137D4D009306170054C09C
:10247000BA9713578C0098A358401C409306170036
:1024800054C0BA972380870158401C409306170018
:1024900054C0BA9713D7844098A358401C40930661
:1024A000170054C0BA97238067015C4008403E95EE
:1024B000EF2020145C40BE9444C0630B0D086316EB
:1024C000090037A90000130949765685EF2040110D
:1024D0001C401387140058C0BE9493170501C18394
:1024E000A1839CA058401C40C1649306170054C0AF
:1024F000BA9788A3138BF4FFB37465015C4008405E
:102500002686D6853E95EF20C00E4840AA9444C04A
:102510004A85EF20E00C1C401387140058C0BE947D
:1025200093170501C183A1839CA058401C40337BB5
:1025300065019306170054C0BA9788A308405C4011
:102540005A86CA853E95EF20C00A48405A9548C031
:102550005285EF20E00858401C40C16493061700E4
:10256000BA9713170501418354C0218398A358409B
:102570001C401389F4FF9306170054C0BA9788A330
:10258000B37425015C4008402686D2853E95EF2035
:1025900040064840AA9444C04E85EF2060041C4089
:1025A0001387140058C0BE9493170501C183A183FB
:1025B0009CA058401C40337925019306170054C055
:1025C000BA9788A35C4008404A86CE853E95EF20A6
:1025D0004002484081474A9548C0D1BB18318947DD
:1025E000631BF700342105479307F00F6363D7009F
:1025F0003C313E8582808547EDBFEFD27FC3AE84FC
:10260000368993863500B7A500003A8881473A8419
:1026100001460547938505792945EFF09FAA85472F
:1026200015E958401C409306170054C0BA97238000
:10263000270158401C409306170054C0BA9713D77F
:10264000844098A358401C4093061700BA9754C082
:1026500084A381473E856FD0FFBFEFD2DFBB01115E
:10266000AA84AE8919059305F002328A3689EF10E3
:10267000B07402CE854735C1700891452A84930A0B
:10268000150013851400EFF03FBC13055002EF0056
:10269000F04C23A0A900894729C113064002D68522
:1026A00023020502EF00D04C930454027244130439
:1026B00044FD420441801306140023108900328532
:1026C00032C6EF00B0492320AA002A89324611E918
:1026D00003A50900EF0030498D473E8505616FD0A5
:1026E000DFB68145EFD0DFB72286A6854A85EF00A9
:1026F00030488147DDB7EFD21FB24111B2892A8A33
:10270000AE84EF10F06D131905011359090113067A
:102710007900328532C6EF00704429C932468145BE
:102720002A84EFD0FFB3B7677273938747321CC018
:102730008D67938707F75EA04A86D2852285EF10C2
:10274000506B2685EF10D069AA8626864E88814771
:102750000147A2852945EFF0DF96B334A00022851A
:10276000EF007040268541016FD03FAE8544DDBF4C
:1027700018318947631BF7003821854709E73C3149
:10278000D917B337F0003E8582808547EDBFEFD281
:102790003FAA4111854513050002EFE0AFFFC14795
:1027A000371401403EC6930700407C821305044065
:1027B0008D47930500403EC4EFE0AFCC4C001305BD
:1027C0000440EFE00FC041016FD0DFA8EFD25FA659
:1027D000371401400546930500402A89130504403B
:1027E000EFE06FCA1305803EF5261305044001464D
:1027F00093050040EFE02FC90565130505C8D92EE4
:10280000A144130404400546930500402285EFE0EF
:102810008FC79377190095CF13058025652E2285E4
:10282000014693050040EFE00FC61305800CFD1430
:1028300093F4F40F452613591900F1F437150140AC
:1028400005469305004013050540EFE0CFC36FD068
:102850007FA01305800CBD2E228501469305004004
:10286000EFE06FC213058025D9B7EFD27F9C2945D1
:10287000EFF0DFF50945EFF07FF50145EFF01FF5CB
:102880003145EFF0BFF41305004B41262945EFF029
:10289000FFF30545EFF09FF32D45EFF03FF31305F0
:1028A000406AA5266FD01F9BEFD29F982945EFF075
:1028B000FFF10945EFF09FF10145EFF03FF13145A0
:1028C000EFF0DFF01305003289262945EFF01FF005
:1028D0000945EFF0BFEF2D45EFF05FEF1305004B1B
:1028E0002D266FD03F97EFD2BF942945EFF01FEE12
:1028F0000945EFF0BFED0145EFF05FED3145EFF039
:10290000FFEC1305004B11262945EFF03FEC0D4578
:10291000EFF0DFEB2D45EFF07FEB1305C05DF52405
:102920006FD05F93EFD2DF902945EFF03FEA094582
:10293000EFF0DFE90145EFF07FE93145EFF01FE906
:102940001305004BD9242945EFF05FE81145EFF05E
:10295000FFE72D45EFF09FE71305C05D7D246FD0A5
:102960007F8FEFD2FF8C2945EFF05FE60945EFF04E
:10297000FFE50145EFF09FE53145EFF03FE5130539
:10298000803E61242945EFF07FE41545EFF01FE418
:102990002D45EFF0BFE31305C05D852C6FD09F8BF5
:1029A000EFD21F892945EFF07FE20945EFF01FE2E2
:1029B0000145EFF0BFE13145EFF05FE11305803EE7
:1029C000A9242945EFF09FE01945EFF03FE02D45A0
:1029D000EFF0DFDF1305C05D0D2C6FD0BF87EFD2A6
:1029E0003F852945EFF09FDE0945EFF03FDE0145C9
:1029F000EFF0DFDD3145EFF07FDD1305803E312460
:102A00002945EFF0BFDC1D45EFF05FDC2D45EFF011
:102A1000FFDB1305C05DD52A6FD0DF83EFD25F8166
:102A20002945EFF0BFDA0945EFF05FDA0145EFF035
:102A3000FFD93145EFF09FD913050032F92229451E
:102A4000EFF0DFD82145EFF07FD82D45EFF01FD80C
:102A5000130540515D2A6FD0EFFFEFD26FFD29457E
:102A6000EFF0DFD60945EFF07FD60145EFF01FD636
:102A70003145EFF0BFD51305803E412A2945EFF0DF
:102A8000FFD42545EFF09FD42D45EFF03FD413053B
:102A9000C05DA52A6FD00FFCEFD28FF92945EFF06A
:102AA000FFD20945EFF09FD20145EFF03FD231450B
:102AB000EFF0DFD11305803E892A2945EFF01FD1C1
:102AC0000545EFF0BFD00145EFF05FD02D45EFF0A9
:102AD000FFCF1305C05D152A6FD0CFF7EFD24FF5AA
:102AE0002945EFF0BFCE0945EFF05FCE0145EFF08D
:102AF000FFCD3145EFF09FCD1305803E39222945AA
:102B0000EFF0DFCC0545EFF07FCC0545EFF01FCCB3
:102B10002D45EFF0BFCB1305C05DC5286FD08FF3F7
:102B2000EFD20FF12945EFF07FCA0945EFF01FCA38
:102B30000145EFF0BFC93145EFF05FC91305803E95
:102B4000E9202945EFF09FC80545EFF03FC809454A
:102B5000EFF0DFC72D45EFF07FC71305C05D75208F
:102B60006FD04FEFEFD2CFEC2945EFF03FC60945CC
:102B7000EFF0DFC50145EFF07FC53145EFF01FC530
:102B80001305803E59202945EFF05FC40545EFF05D
:102B9000FFC30D45EFF09FC32D45EFF03FC3116517
:102BA000130585A99D206FD0EFEAB707002083A702
:102BB000071F37177A0013070720B3D7E70293F7E9
:102BC000F70F238FF1861307803EB387E702239E1A
:102BD000F1868280B7F700E0D8438146799BD8C35D
:102BE00003C7E1873306A70290CBD4CB9843136782
:102BF000070198C398431367170298C3D843058BFE
:102C000075DF9843799B98C38280B7F700E0D8437B
:102C10008146799BD8C303D7C1873306A70290CBDF
:102C2000D4CB98431367070198C3984313671702DF
:102C300098C3D843058B75DF9843799B98C38280EE
:102C4000EFD20FDF2A841165011185451105EFE0F0
:102C50006FB4930700207C82371501408D473EC436
:102C60004C00E147130505803EC6EFD09FF522C812
:102C700037440140B70708000C08130504803ECC18
:102C800002CA231E0100EFE02FD085451305048002
:102C9000EFE02FDB05616FD0EFDBEFD2CFD7B7448A
:102CA0000140AE8932890144938404806345240144
:102CB0004A856FD08FD9930500042685EFE04FDF5A
:102CC0007DD9B38789008385070026850504C20561
:102CD000C181EFE0EFDCD9BF138781801C4393866D
:102CE00081F93E95636BD500B786002093860680F8
:102CF00063E5A60008C33E858280FD57EDBF13D76C
:102D00004501B7071000FD1713D846011377F77F69
:102D10009308F07F33F3B7002A8EF58FFD81B28ED2
:102D20001378F87FFD8263081703630018030DEB27
:102D3000B368A300631408005D8E29CA6385080484
:102D40006388D502054595ED8280B3E8C700E3802E
:102D500008FE795582803365A30065FD630CE802A7
:102D6000631408005D8E79DEE39ED5FCE34CE8FC3D
:102D700063480701E3E867FC6303F302637FF30042
:102D800081E57D558280F5DE054582800145E39B26
:102D900008FA82805D8E69DA6DBF01458280E3E3C7
:102DA000CEFB0145E372DEFBE5F1E1BF39719357DC
:102DB00075014AD856D25ECE931A95001359F50183
:102DC00006DE22DC26DA4ED652D45AD093F7F70F1D
:102DD00093DA9A00CA8B638207121307F00F638499
:102DE000E7128E0A37070004B3EAEA00138A17F8DD
:102DF0000144014B93D775019394950093F7F70F16
:102E0000A58093D9F501FDC71307F00F6387E7028B
:102E10008E04938717F837070004D98C330AFA40D9
:102E20008146558C17870000130787970A043A9448
:102E30001C4033493901BA978287130A1AF0F9E81E
:102E40008946558C17870000130787990A043A941E
:102E50001C4033493901BA97828701491307F00FA3
:102E6000B707400013959700F2506254931777010B
:102E700025817E095D8D33652501D2544259B259B1
:102E8000225A925A025BF24B216182801307F00FA3
:102E90008147C9BFA68ACE8B368B89476309FB1A47
:102EA0008D47E30CFBFA85476308FB0A1307FA0713
:102EB00013F91B006355E01293F77A0099C793F753
:102EC000FA0091466383D700910A93974A0063D929
:102ED0000700B70700F8FD17B3FAFA0013070A084E
:102EE0009307E00FE3C4E7FA93976A00A58313778B
:102EF000F70F8DBFB1E48546A9B763940A02114468
:102F0000014A054BC5BD63990A002144130AF00F1D
:102F1000094BCDB58D4631B73144130AF00F0D4B37
:102F2000D1BD56852EC6C1269307B5FFB39AFA00C8
:102F30009307A0F8338AA7400144014BB2455DBD19
:102F4000268555261307B5FFB307AA00B394E400FE
:102F5000138A67078146F1B513F91B0001478147C2
:102F600011B74166139554007D1693570501698E7C
:102F700063FA9A0AB3D5FA027D1AD68601473388D6
:102F8000C502B3F6F602C206558F637B07012A9786
:102F90009386F5FF6368A70A6376070BF9152A97EE
:102FA00033070741B356F7023377F702B38AC602F5
:102FB0009317070163FB5701AA971387F6FF63E195
:102FC000A70863FF5707F916AA97C205B38A5741A6
:102FD000D58DB33A5001B3EA5501CA8BC1BD8546C0
:102FE000998E11C76D4601478147E34DD6E6130A16
:102FF000EA09339A4A01B3D7DA00B33A4001B3E79A
:10300000570113F7770019C713F7F70091466303C9
:10301000D700910713975700634807029A07A583C3
:10302000014789B593D61A00B3D5F6021397FA0172
:1030300041833388C502B1B7CE8B368B814AB1BD8F
:10304000BA8661B7B685A9BF0547814721BD13F987
:103050001B001307F00F814731B593567501B70771
:103060008000FD1713D6750193F6F60F1308F00FC5
:10307000B3F8A7001357F501ED8F1376F60FFD8116
:1030800063810603630C06018DE211E2B1C3638E16
:1030900008026305B70405451DE78280F5D7795519
:1030A0008280E39E08FE6309D60211E2EDD7E314A5
:1030B000B7FEE342D6FE63C7C600E3EE17FD014547
:1030C000E3FDF8FC01E77D558280F5DD0545828052
:1030D0000145E39208FC8280F9DBD1B78146E1BF6C
:1030E00093567501B7078000FD1713D6750193F647
:1030F000F60F1308F00FB3F8A7001357F501ED8F83
:103100001376F60FFD81638706036309060185EADE
:1031100011EA89EB0145639B080082800945F5FFB0
:10312000E5DA31A8638C08026300B704054575D75A
:103130007D5582800945639808026304D60211E236
:10314000F5D7E315B7FEE343D6FE63C7C600E3EF4A
:1031500017FD0145E3F3F8FC19E3D9BFF1D90545A3
:103160008280E5D3828082808146C5B7411106C640
:1031700022C415CD2A84852A9307E0093387A74006
:103180009307600963C0E704A1469377F70F63D5FF
:10319000A60061153314A4002604258026041355C7
:1031A0009400B2402244DE075D8D410182800144DB
:1031B000260413559400B24022448147DE075D8DFA
:1031C000410182809307900963DDE7009307B50111
:1031D0009546B317F400898EB337F0003354D4000A
:1031E0005D8C954763D6A7009307B5FF3314F400B1
:1031F000B70600FCFD16937774003376D40085C3C0
:103200009377F4009145638CB7001106931756002D
:1032100063D707009307F009758E3387A74013140F
:1032200066002580260413559400B240224493770B
:10323000F70FDE075D8D410182801357750113770B
:10324000F70F41119307170022C426C213149500EB
:1032500006C693F7E70F25809354F50185C793576A
:103260003400130707387604B2075207B183139569
:10327000F401D98FC98FB240228522449244BE8581
:103280004101828005EB39C42285B128A94763C674
:10329000A7042D47098F930755013357E4003314D2
:1032A000F4009317C70013079038098FB183137781
:1032B000F77F5DBF01CC13573400B7070800D98FE3
:1032C000B2077604B1831307F07F79BF1307F07F4D
:1032D000814759BF0147814741BF130755FF331746
:1032E000E40001447DBFC167637CF5029307F00FE2
:1032F0001307000263EBA7009777000093874752FC
:10330000AA9788233305A740828021819777000000
:1033100093870751AA97882361473305A740828086
:10332000B7070001636DF50061819777000093870F
:10333000274FAA97882321473305A74082804181E0
:10334000977700009387C74DAA9788234147330595
:10335000A7408280294681456F20A0119387C180B4
:10336000AA8588439DA29387C180AA85884355A8D2
:10337000B3C7A5008D8B3307C50081E78D4763ED8B
:10338000C700AA87637EE508942185078505A38F7A
:10339000D7FEE3EBE7FE828093763500AA8789CAE1
:1033A000942185078505A38FD7FE93F63700C5BF07
:1033B0009376C7FF138606FE63F0C70683A3050056
:1033C00083A2450083AF850003AFC50083AE05012E
:1033D00003AE450103A3850183A8C501938545027A
:1033E00023A0770003A8C5FF23A2570023A4F70159
:1033F00023A6E70123A8D70123AAC70123AC6700AE
:1034000023AE17019387470223AE07FF75B790419C
:103410009107910523AEC7FEE3EBD7FEE3E6E7F69F
:103420008280DDC183A7C5FF411122C406C626C222
:103430001384C5FF63D307003E94AA84EF30303C69
:10344000938701889C4381EF2322040023A0818875
:103450002244B2402685924441016F30703A637E27
:10346000F40014403307D4006396E7009843DC432C
:10347000369718C05CC0D9BFBA87D84319C3E37D5B
:10348000E4FE94433386D700631F86001040B29653
:1034900094C33386D700E31DC7FA10435843B2964E
:1034A00094C3D8C375B76375C400B1479CC04DB70A
:1034B0001040B306C4006316D70014435843B296B5
:1034C00014C058C0C0C369B78280011126CA938452
:1034D0003500F19806CE22CC4AC84EC6A104B147A9
:1034E00063F5F404B14463E4B4042A89EF30303165
:1034F0009387018898433A8429E4938741889C43C1
:1035000099E781454A85EF10800123A2A188A6850D
:103510004A85EF10C000FD5963193507B1472320D4
:10352000F9004A85EF30D02D29A0E3DE04FAB14737
:103530001CC10145F2406244D2444249B24905618E
:1035400082801C40858F63CF0702AD4663F6F6008C
:103550001CC03E9404C031A05C406313870223A0CA
:10356000F1884A85EF30D0291305B4009307440051
:1035700061993307F5405DDF3A94898F1CC05DBFC8
:103580005CC3C5B72287404085BF130435007198DE
:10359000E30285FCB305A4404A85EF005078E31BA5
:1035A00035FBADBF797122D44AD052CC56CA5AC825
:1035B00006D626D24ECE3A8AAE8A32843689428BDD
:1035C000014763580600370700803344C7001307DC
:1035D000D00298A393F4F8FD930760048D466388A6
:1035E000F4009307500489466393F4000509DA87D1
:1035F0009308C100130881004A87D6852286EF20F0
:10360000001993077004AA896396F400137A1A00CC
:10361000630A0A0493076004338A29016397F4025A
:1036200003C7090093070003631EF70001468146A4
:103630005685A285EF50301511C58547338927413E
:1036400023202B0183270B003E9A01468146568595
:10365000A285EF50501311E152C613070003B24781
:1036600063E24703B2474257B2502254B38737410F
:103670001CC34E8592540259F249624AD24A424BC7
:10368000456182809386170036C698A3C9BF10A1F2
:10369000130725009307B00263D60500B305B040B9
:1036A0009307D0021CB1A54763DAB7044111930711
:1036B000F100BE88294813033006B3E605031386DC
:1036C000F7FF93860603A38FD7FEB3C60503634DAA
:1036D000B30093860603F917A30FD6FE63E917011B
:1036E0003305A74041018280B287B685F9B78507C7
:1036F00083C6F7FF0507A30FD7FECDB793070003D7
:1037000013074500938505033CA12CB13305A74061
:10371000828019713ACE86DEA2DCA6DA2E84CAD85F
:10372000CED6D2D4B689DAD0DECEE2CC3289D6D2A9
:10373000E6CAEAC8EEC6AA84EF308077832B05007C
:103740005E85EF00F069032B0400724702DC93767C
:103750000B102A8C034A84011C43F1CA938647004C
:1037600014C39C43081098433AD0D8433AD29847A0
:103770003AD4DC473ED6EF60B02028C46CC4832C1A
:10378000C404177700001307E719832A8404032D64
:103790000700832D470093971C0085836A86EE8679
:1037A0005685BE853ECEEF60604F41EDF2476A869A
:1037B000EE865685BE85EF50B0036354A0080146DF
:1037C00081465685E685EF50B002635605009307A3
:1037D000D002A301F40493077004977A0000938A3F
:1037E000EA1463F64701977A0000938A6A14137B00
:1037F000BBFF8D47232064011CC8014B4E87CA863E
:103800007018A2852685C12EFD5C631E95157D5519
:10381000F6506654D6544659B659265A965A065BFF
:10382000F64B664CD64C464DB64D096182809D07DD
:10383000E19B9386870014C39843DC4338C47CC45F
:103840003DBF5686E6865685E685EF60204511CD5C
:1038500093077004977A0000938ACA0DE3F947F939
:10386000977A0000938A4A0D59B75C407D57137DC3
:10387000FA0D6395E70899475CC0544013670B4005
:103880003C18D6853EC018C09307310302C2D288C7
:103890001308410366862685EFF0DFD09307700496
:1038A000AA8AD255631BFD00F55763C5F5005C403D
:1038B00063D8B708791A137AFA0F9307500663E6AC
:1038C0004705FD155286130504052EDAEFF03FDC9F
:1038D000625785462A8BB307A7001CC863C5E6005C
:1038E0001840058B19C385071CC883473103E3873C
:1038F00007F09307D002A301F40409B7130770047B
:10390000E31DEDF6BDFB854785BF93076006631B8E
:10391000FA025C40635BB0000CC881E71840058B7D
:1039200009CF8507AE971CC809A889E718408546C6
:10393000058B19C39386270014C82CCC014B75B78F
:10394000130A7006E25763C9F5001C400CC8858B4A
:10395000EDD793871500C1BF05476344B000094701
:103960000D8FBA97C9B71C4013F7074015E31448E9
:103970005686CA8526858299E30B95E91C40898B7A
:1039800063960724F2574844E354F5E83E8549B569
:1039900013075006637B471928446C44014681464F
:1039A000EF50605E39E9854617760000130606F988
:1039B000CA8526858299E30C95E55257E2576345FF
:1039C000F7001C40858BDDDBE2865E86CA85268596
:1039D0008299FD57E30DF5E2014A930AA4017D5B4C
:1039E000E257FD17E35CFAF885465686CA852685B8
:1039F0008299E30E65E1050AE5B7D2576346F00602
:103A0000854617760000130666F3CA8526858299D7
:103A1000E30F95DFD2576257D98F81E71C40858B22
:103A2000B1DFE2865E86CA8526858299FD57E3006E
:103A3000F5DE014A130BA401FD5BD257B307F0403A
:103A4000634BFA00E2565686CA8526858299FD5751
:103A5000E316F5F26DBB85465A86CA85268582999E
:103A6000E30775DB050AD1BF3C4C625A63D34701BB
:103A70003E8A635A4001D2865686CA852685829937
:103A8000FD57E306F5D8814C130DA401FD5D09A88F
:103A900085466A86CA8526858299E30AB5D7850C4C
:103AA000032B8405D28763530A008147B307FB4089
:103AB000E3C0FCFE5257E257634DF7021C40858B72
:103AC0008DEBE2575257338AE7406344EB00338A69
:103AD0006741635B4001D28633866A01CA852685C9
:103AE0008299FD57E305F5D2814A130BA401FD5BD2
:103AF00015A0E2865E86CA8526858299FD57E31267
:103B0000F5FC31B385465A86CA8526858299E3003D
:103B100075D1850A5257E257998F528763530A002D
:103B20000147998FE3C0FAFE91BDE2560547634411
:103B3000D700858BB5C785465686CA852685829966
:103B40007D5AE30645CDE2865E86CA852685829942
:103B5000E30F45CB28446C4401468146EF50A04218
:103B60001DC9E25613861A00CA85FD16268582995C
:103B7000E30F45C9DA8613060405F9B5854656866E
:103B8000CA8526858299E30475C9050AE257FD179F
:103B9000E346FAFEC5B7014A930AA401FD5BFDB7EF
:103BA00085465686CA8526858299E31595FD85B199
:103BB00085465686CA8526858299E30A65C5050A23
:103BC0005C447257998FE345FAFE6DBB014A930A34
:103BD00094017D5BF5B7797156CA9C49BA8A9845BC
:103BE00022D426D24ECE52CC06D64AD05AC85EC671
:103BF000AA892E84B284368A63D3E700BA879CC030
:103C00000347340419C385079CC01C4093F707027F
:103C100081C79C4089079CC003290400137969006F
:103C2000631A0900130B9401FD5B5C449840998F63
:103C3000634CF9041C408346340493F70702B336FF
:103C4000D000A5EB13063404D2854E85829AFD5729
:103C50006303F5041C4011469840998B54448144F9
:103C60006397C700B384E64063D3040081441C44D7
:103C700018486354F700998FBE94014969047D5B2D
:103C800063982405014509A885465A86D2854E8544
:103C9000829A631E75017D55B25022549254025986
:103CA000F249624AD24A424BB24B456182800509D1
:103CB000ADBF3307D40013060003A301C7040347B5
:103CC000540493871600A2978906A381E7049DBF39
:103CD00085462286D2854E85829AE30E65FB0509CC
:103CE00045B7797122D426D24AD04ECE06D652CCD0
:103CF00056CA5AC8B689942D930790063289AA8469
:103D00002E8413863504638DF60263E2D70693078B
:103D100080056387F61863EDD700638F062093074D
:103D20003004638FF60A930A24042301D404D1A03B
:103D3000930730066386F60A93074006E395F6FE7E
:103D40001C40084393F6070893054500CDC61C4167
:103D50000CC363D807001307D002B307F040A301D8
:103D6000E404977600009386A6BD29476DA89307C3
:103D700000076383F61663E5D7029307E006638ABC
:103D8000F6189307F006E390F6FA0C401C4313F87C
:103D90000508138547006308080608C39C438DA8DF
:103DA00093075007E383F6FE93078007638AF612B2
:103DB00093073007E399F6F61C43D041814593867B
:103DC000470014C383AA07005685EF30C02101C500
:103DD0003305554148C05C401CC8A301040461A8D8
:103DE0001C43930A2404938647009C4314C3230175
:103DF000F4048547D5B793F607041C410CC3B1DA28
:103E0000C207C187B9B793F5050408C3C1D99E237A
:103E10001307F0066387E60E97760000938646B296
:103E20002947A30104044C400CC463C505000840A5
:103E30006D9908C099E3B28A89CDB28AB3F5E702D9
:103E4000FD1AB6958C212380BA00B3D5E70263F042
:103E5000E70CA147631EF7001C40858B91CB5840AF
:103E60001C4863C7E70093070003A38FFAFEFD1AFF
:103E70003306564110C84E87CA867000A285268533
:103E8000EFF07FD57D5A631D450B7D55B25022540E
:103E900092540259F249624AD24A424B45618280A9
:103EA000A382D50497760000938686A90C40084328
:103EB00013F805081C411105630D080208C313F728
:103EC000150001C793E505020CC04147B9FB0C4042
:103ED00093F5F5FD0CC0B1B79C4193E707029CC177
:103EE00093078007A302F40497760000938686A6C2
:103EF00075BF13F8050408C3E30308FCC207C183B8
:103F00007DBF977600009386A6A3214719BFAE8791
:103F100035B794411C43CC4913F806081385470074
:103F20006306080008C39C438CC339A008C393F6FA
:103F300006049C43F5DA8EA323280400B28A25BF29
:103F400014485686CA8526858299E30045F51C40AB
:103F5000898B8DE7B2474844E35AF5F23E853DB779
:103F600085465686CA8526858299E30065F3050A4B
:103F70005C443247998FE345FAFEE9BF014A930A50
:103F800094017D5BF5B79C451D71A2CCCEC6DAC00D
:103F900066DA86CEB28CA6CACAC8D2C4D6C25EDEE3
:103FA00062DC6AD86ED61386F7FF1307C015368B0E
:103FB000AA892E8481466377C700938637EA9307E0
:103FC000D0159CC51C40930AC401D68493E707789A
:103FD0001CC00149814D014C014A014D814B130622
:103FE0009004130800708548930E00400943130E97
:103FF00050061D4F184415CB83A70C009C23638BE0
:10400000C7126368F60C9305900363E4F50A930501
:10401000100363FBB7149305D0026382B71663E302
:10402000F5041307B002638CE71463060D001C400F
:1040300093F7F7EF1CC0FD1D854763E9B72163ECDB
:104040009A1E0549F64066444A85D6444649B64913
:10405000264A964A064BF25B625CD25C425DB25DD8
:10406000256182809305E002638EB71493050003F7
:10407000E39DB7FA0C4013F505107DC593F5F5F7F0
:104080000CC0050D81C60507FD1618C41C44FD179C
:104090001CC41C4885071CC883A74C00FD1723A21D
:1040A000FC006355F01683A70C00850723A0FC00D5
:1040B00091B7130750046381E71213076004638A02
:1040C000E70E13071004E392E7F6E3901DF7894D1E
:1040D00065A06383C7116361FE0413074005638E07
:1040E000E70C6364F7021307E004E390E7F46390DE
:1040F0000D0A63100D0A184093750770639B05093C
:104100001377F78718C0854D85A813079005638935
:10411000E7041307100645BF1307E006E389E7FC31
:104120006368F702130760066385E70813079006C4
:10413000E39DE7EE63180906E31B0DEE1840937547
:104140000770E39A05EF1377F78718C005492DA08C
:10415000130740076383E70613079007E397E7EC2D
:10416000E315E9ED214909A833872D01E31F07EA8B
:1041700018401377F7E718C09CA0850401BF1840CA
:1041800093750708E38305EA1377F7F7EDB7638DB7
:104190006D06630519011147E319E9E8050913796B
:1041A000F90FD9BF1307D9FF1377D70FE31F07E61E
:1041B000F5B7E31C69E60D49C1B71947E317E9E60E
:1041C0001D495DBF184093750720E38005E613770E
:1041D000F7D718C0EA8B4DB718409375075063881E
:1041E000D50193750740E38205E4E3060DE493757A
:1041F000072081E5330A7D41268C1377F787136703
:10420000071818C0014D8DBF8D4DBDB78327041809
:10421000E6854E8536C68297B2461306900413088B
:1042200000708548930E00400943130E50061D4F41
:10423000E30205DCDDBBFD148327C4178C206686F2
:104240004E8582971C48FD171CC8D5BB9307F9FF04
:1042500019476366F7028947A68D63FF270733076F
:1042600099401377F70F8D46B387ED0093F7F70F5B
:1042700063EBF60275191379F90FB38424411C40DE
:1042800013F7071051CF93F70740B1CBE3FB9ADA4E
:10429000FD148327C4178C2066864E8582971C48A0
:1042A000FD171CC8E5B7FD1D8327C41783C50D0086
:1042B00066864E853AC682971C488D463247FD1762
:1042C0001CC85DB7FD148327C4178C2066864E85F5
:1042D00082971C48FD171CC8E3E69AFE9DB31C4854
:1042E00083C5F4FF1389F4FFFD171CC8930750061C
:1042F0006382F50293075004638EF5008327C41789
:1043000066864E8582971C4883C5E4FF1389E4FFC7
:10431000FD171CC88327C41766864E858297CA84FA
:1043200003290400137909016313090C2380040095
:104330001C401307004093F70760639EE702338633
:10434000AB416396AB05D68501464E85EF00107CE8
:1043500018402A8AAE8A9376270083270B00A9C6C5
:10436000138747002320EB009C4388C3CCC35C44E5
:1043700085075CC4C1B9E3080AFC0146A946930558
:104380001C004E85EF10800D33064541E2849307F3
:10439000F41663E4F4009304E41697650000938533
:1043A000A55C2685452A45B7938647002320DB0078
:1043B000118B844319CFAA8556860808EF50B02B7D
:1043C000D2466247F2474246D4C098C490C0DCC48B
:1043D00079BF2A86AE86EF50700C09C50145AD2223
:1043E00088C071B75285D685EF50F042D5BF0149DC
:1043F00091B939713EDA2ED232D436D63AD842DC6F
:1044000046DE9387C18022CC804326CA06CEAA848A
:1044100011C41C4C81E72285EF20C01D0C445410B0
:104420002686228536C6EF305014F2406244D244CC
:1044300021618280011126CA4AC806CE22CC4EC60E
:1044400052C4AA842E8909C51C4D99E3EF20801A15
:104450009C4C804481E72685EF20C01997670000B7
:104460009387C762631CF402C0405E24A18BB9C766
:104470001C48A9C7FD59294A1C4483450900FD175A
:10448000A1ED1CC463D007082286A9452685EF103C
:104490002000FD576309F50229453DA097670000FC
:1044A0009387C7606314F4008044C1B79767000026
:1044B0009387C75BE31BF4FAC04445BFA2852685FA
:1044C000EF10200945D97D55F2406244D24442495B
:1044D000B249224A056182801CC4050963D70700DE
:1044E000184C63CAE700638845011C401387170016
:1044F00018C08CA351B722862685EF007079E31D82
:1045000035F7D1B71C401387170018C0294798A367
:1045100061B79387C180AA8588436FF0BFF14111CD
:1045200022C42A842E8523AA01F806C6EFE0CFFA1A
:10453000FD576317F500938741F99C4391C31CC055
:10454000B24022444101828097670000938747422E
:104550008843828035713ECBB707008093C7F7FF51
:104560003ECE3EC8C1779387872032C536C73AC949
:1045700042CD46CF3ECA9387C1802AC42ACC884305
:1045800034012E862C0086DE36C2EF30E050A24782
:1045900023800700F6500D618280AA8798239386B6
:1045A000170009EB850503C7F5FF8507A38FE7FE15
:1045B00075FB8280B687DDB793F5F50F1C2191C797
:1045C0006393B70082800505D5BF91C10145828004
:1045D000AA87982185078505A38FE7FE7DFB82804A
:1045E000AA87850703C7F7FF6DFF3385A7407D15B1
:1045F0008280AA87982309EF7D16FD566309D600AD
:10460000850503C7F5FF8507A38FE7FE01E78280D5
:104610008507CDB719E2238007007D16C5B718219D
:104620009C2101E791C301458280814739A01C315B
:1046300013071500EDDB81473A853387F500182312
:1046400065D7B306F5009422E393E6FE85072A8733
:10465000E5B7011122CC2A872E843A85A28532C67D
:1046600006CEEF30C00632462A88AE8805C6518095
:104670001374F47F9307B006818F635DF000D20757
:104680003707F03F01483E974286BA86EF40B02197
:104690002A88AE88F24062444285C68505618280E0
:1046A00035714AC92A89368532D436C606CF22CD1D
:1046B00026CB4EC7EAD8EED62E8D52C556C35AC168
:1046C000DEDEE2DCE6DA82C8EF20207EAA8D084139
:1046D00081440144EFF0DFF0B246AA89EAC63546CC
:1046E0009305B0021305D00213080002A548B6478F
:1046F0009823636BE608637F170955C702C8364ADB
:1047000093070003814A03470A00631BF71283479C
:104710001A00130780056388E70013068007130754
:1047200000036396C710C24736889808D4081766F6
:1047300000001306262AEC004A85EF20600E9379CC
:104740007500AA8A6388090099476397F906050AE4
:10475000D2C602C8A25781C7B64722571CC3C24758
:10476000B9C7B7050080A18DFA406A4426854A4939
:10477000DA44BA492A4A9A4A0A4BF65B665CD65C26
:10478000465DB65D0D6182806309B7006303A702D1
:10479000E31607F78507BEC699BF02C8138717003F
:1047A000BAC69C33A9FFA257EAC602C8D5F7A285AC
:1047B00065BF05473AC8DDB7464611CA93055003A1
:1047C000A808EF30E014C6454A85EF20500CFD19CB
:1047D000914763EE3701176700001307A7198A098D
:1047E000BA9983A70900BA978287E644764493FA78
:1047F0008A00E3810AF6B70700805D8CA1BFF64509
:104800003704F0FF7D14B3F785005644E6441304E3
:1048100034439315440133E4B700D1BF3704F07F2C
:10482000F9B7B705008013C4F5FFFD54C9B7B64703
:1048300093861700B6C69C33E38BE7FE81DF854A7B
:10484000B64C014A814B014CA546A145A9473645C6
:10485000034B050013070BFD1376F70F63FDC6042A
:1048600083A50D004E86EF30B0033DC1DA87E28D9F
:104870008146014B0145130750066387E700130784
:10488000500481496395E71663960D00B3E756011E
:1048900099DB814D364D1307B00293071D00BEC64C
:1048A00083471D00638FE70C1307D0020148639014
:1048B000E70E0548C1A863C98501B38BFB02BA9B0B
:1048C0000505050CAAC661B7330AFA023A9ACDBFAC
:1048D000364581464E95AAC61C21630B0C06014B3A
:1048E000E28D138707FD25466375E602054561B72E
:1048F000B647850613861700B2C69C33E38AE7FEE7
:104900001387F7FC2146E366E61EB64C368B814DD5
:104910008146938707FD1387160085C73A9B338529
:10492000B6016E872148C14829466316A702850D46
:10493000B69DA14663CEE6022947B38BEB02014741
:10494000BE9BB64793861700B6C69C33BA8651BF46
:104950001307000365B7930517006346E800B38BA0
:10496000CB022E87D9B7E3CEB8FE330ACA02D5BF31
:10497000C1460147E3C7B6FDA946330ADA023E9AAB
:10498000C9B7014893072D00BEC683472D00138782
:1049900007FD25466365E60C130700036385E70AF8
:1049A0001387F7FC214681496363E604B648138701
:1049B00007FD2543294EB64713861700B2C69C3320
:1049C000938507FD93F5F50F6375B3089569330675
:1049D00016419389F9E1A148CE8563C6C800BA891A
:1049E00063D3E500AE8963040800B30930416396E0
:1049F0000D0CB3E6DA00E39F06D4E31605DA1307DD
:104A0000E0046389E706634FF70413079004E39C0F
:104A1000E7D8976500009385E5FAE800EF20C02FFE
:104A2000E30305D8B647976500009385E5F9E800EC
:104A3000FD17BEC6EF20402E01E5B6478507BEC66E
:104A40003704F07F01BBB64713861700B2C69C330C
:104A5000B1B73307C703BA97138707FDA9BFEAC6E3
:104A6000814971B713079006E385E7FA1307E0065B
:104A7000E39BE7D297650000938585F5E800EF207A
:104A8000A029E30205D2B647982393078002631357
:104A9000F702B00897650000938505F5E800EF2060
:104AA000802A95476318F500F6453704F07FE64401
:104AB0004D8C4DB13704F8FF71B9B38A6941631366
:104AC0000C006E8CC1476E8D63D3B701414D5E857E
:104AD000EF50E033A547AA842E8463DCB703930725
:104AE0007DFF13973700976700009387A701BA9758
:104AF0009043D443EF40205B2A845285AE84EF502C
:104B000000312A86AE862285A685EF308079AA8478
:104B10002E84BD4763CDB709E38E0AC263545007A4
:104B20005947634357038E0A97670000938787FDB1
:104B3000BE9A03A50A0083A54A002686A286EF40F6
:104B40008056AA842E8439B1130750023307B74127
:104B5000634F5705B38DB74117690000130989FAF0
:104B600093973D00CA978843CC43B38DBA412686BC
:104B7000A2868E0DEF402053CA9D03A60D0083A68A
:104B80004D0075BFA95763C4FA02B3093B41139B9B
:104B90003900976900009389E9F6DA9903A60900BC
:104BA00083A649002685A285EF30B06259BF338DB8
:104BB000AD41569D6357A0119377FD0099CF1767BC
:104BC0000000130727F48E07BA978843CC43268644
:104BD000A286EF40404DAA842E84137D0DFF63080A
:104BE0000D0A9307401363D5A705014B814902C6FF
:104BF000814B930720022320F9003704F07F814482
:104C0000B247E38907B4C6454A85EF204048DE85B0
:104C10004A85EF20C047CE854A85EF204047B24500
:104C20004A85EF20C046DA854A85EF2040461DB60A
:104C3000135D4D402685A2858147014A0548976846
:104C400000009388A8E96346A80599C3AA842E8426
:104C500017670000130787E893173A00BA9788434D
:104C6000CC433707B0FC22972686BA86EF40A04394
:104C70003704F07FB377B4003707A07CAA84E366DB
:104C8000F7F63707907C637AF7027D14FD54014AEA
:104C9000DDA813771D0011CF13173A004697104374
:104CA0005443EF404040854705489768000093888B
:104CB000E8E2050A135D1D4079B7370450032E94CE
:104CC000F9B7E3060DFC330DA0419377FD0099CFB2
:104CD00017670000130707E38E07BA979043D44382
:104CE0002685A285EF30F04EAA842E84135D4D40B8
:104CF000E30F0DF8FD4763DDA701014B814902C6B3
:104D0000814B93072002814401442320F900CDBD4B
:104D1000137A0D0163040A00130AA0062685A285F2
:104D200097670000938787CD014793761D0081CA5E
:104D30009043D4433EC6EF400037B2470547135D6A
:104D40001D40A107E3130DFE19C3AA842E84630539
:104D50000A029357440113F7F77F9307B006998F20
:104D6000635CF0007D476354F722130740038144DE
:104D70006359F72037047003014681462685A285D2
:104D8000EF4060203DD95E87EE866286E6854A85E3
:104D9000EF20A03D2AC6E30A05E493D7FA41B30900
:104DA0003B41B3F7F9003ED056CE63D30A0002CEA2
:104DB000B247014B8149B1073ED8B7071000FD1734
:104DC0003ED6B2474A85CC43EF20A023AA8BE3020C
:104DD00005E2B247C2553105904B09060A06EFE0DD
:104DE0002FD9B808D4082286A6854A8526CA22CC9F
:104DF000EF20901DAAC8E30E05DE85454A85EF2009
:104E0000004CAA89E30705DED64763C70718025797
:104E1000724C338DE7006647B387474193066003C2
:104E2000BA97FD17930D20C0998E63D6B7193387B3
:104E3000FD407D46998E6346E616854DB397ED009D
:104E40003ED2814C369CB30DDD00529CEA8763D381
:104E5000AD01EE876353FC00E2876358F000B38D29
:104E6000FD40330CFC40330DFD4082576358F00287
:104E7000CE853E864A85EF20805AAA89E30B05D667
:104E80004646AA854A85EF2040452ADAE30305D63F
:104E9000C6454A85EF20A01FD257BEC8634FB01148
:104EA000635A50017246DE854A85EF204057AA8B2F
:104EB000E30105D4635A8001DE8562864A85EF20CE
:104EC000E061AA8BE30705D2635AA001CE856A860A
:104ED0004A85EF20A060AA89E30D05D0C6455E860D
:104EE0004A85EF20A06F2A8BE30505D0032CC5006F
:104EF000CE8523260500EF20406B6359050C336CEB
:104F00009C0063110C129317C400639D0710B70730
:104F1000F07FE18F3707B0066376F71083274B01E8
:104F200091E703270B01854763DEE70EDA85054627
:104F30004A85EF20A05ACE852A8BEF200067635365
:104F4000A00E630C0A10B707F07FE18F3707B00699
:104F50006345F71037077003E355F7DA0147B707E2
:104F600050392685A2853A86BE86EF40C0132E842E
:104F7000C98DAA84E39905C8930720022320F9006C
:104F800059B181177D57B317F7007D8CF5B37D5765
:104F9000B317F700FD8CCDB37247025D330CF740B9
:104FA0009DBD930C20BEB387FC40854CB39CFC0098
:104FB00085473ED241BD814CE5BFC6456E864A85D8
:104FC000EF20C051AAC8E31D05EC25B169E93707F8
:104FD00010007D17B377E40063090C046399E704BC
:104FE0007D5763000A02B707F07FE18FB706A0067E
:104FF00063E9F600D1839306B006B387F640331712
:10500000F7006396E402B707F07FFD176315F4001D
:10501000FD57E380F4BEB705F07FE18D3704100043
:105020002E948144E31C0AF2F9BEC58F99DB63829A
:105030000C04B3FC8C00E3870CFE52862685A28507
:10504000630F0C02EFF0EFE02A86AE865245E24590
:10505000EF302025AA842E84F1B7B705F07FE18DCB
:105060003704F0FFA295370410007D144D8CFD54D9
:1050700055BF9257B3FD9700E3860DFA7DBFEFF061
:105080004FDD2A86AE865245E245EF40404D01464F
:105090008146AA842E84EF30106F49F59DB1CE85EC
:1050A0005A85EF20A07F976700009387278F904352
:1050B000D4432A8DAE8DEF30B0736342A0106301EC
:1050C0000C0A814D370DF03F0147B707F03FB70697
:1050D000F07FB37CD400B706E07F639FDC166AD212
:1050E000370DB0FC229D2685EA853EDE3ADC6EDA7D
:1050F000EF20E05DD25812582A86AE864685C285DA
:10510000EF30707A2686EA86EF30A019AA84370538
:10511000F07F3376B500B706A07C6257F25763651F
:10512000D60C62479307F5FF6396E7005247FD5799
:10513000E381E7ACB707F07F1384F7FFFD54C64562
:105140004A85EF10D074DE854A85EF105074CE8505
:105150004A85EF10D073DA854A85EF10507395B108
:10516000B1E0B257E18FA1E797670000938787828C
:105170009043D4436A85EE85EF309067634D050216
:1051800097670000938787809043D4436A85EE85B4
:10519000EF3070712A87AE87370D0080BA8D334D9E
:1051A000FD0035B785476394F400E30C04B4814DEA
:1051B000370DF0BF11BF0147B707E03FF1BF975769
:1051C00000009387A77C9043D4436A85EE85EF3037
:1051D000906D2A87AE872E8D63160C00370D0080E8
:1051E000334DBD00AA8DE5B5370450032E94E31866
:1051F0000AF4B706F07FE18EE393DCF4BE853A85CE
:105200003A8DBE8CEF40502DEF4050392A86AE8645
:105210006A85E685EF40A034B2572A8DAE8DE18FC6
:10522000C58F33EC8701630B0C0A975700009387F7
:10523000E7779043D443EF30B05BE346059C975744
:105240000000938727779043D4436A85EE85EFD09B
:105250001FABE356A0EE45BA630D0A04B706A006DD
:1052600063E99605975600009386C6739042D44230
:105270003A85BE853ADA3ED2EF3090579257525770
:105280006344A0023A85BE85EF40902B11E10545AD
:10529000EF40F0372A87AE872E8D63160C00370D4E
:1052A0000080334DBD00AA8DB705B0062E9D330D8D
:1052B0009D415245E2453EDA3AD2EF2040412A86EE
:1052C000AE866E85EA85EF30105E5246E246EF20EC
:1052D000507DAA842E84D257125711BF97570000D1
:1052E0009387C76D9043D443EF309050E35905E462
:1052F00019BA130750066387E700130750040545E2
:105300006399E7EE014B05456FF04FD89387C18055
:105310009C43945389E697B6FF1F9386A6D66FF0F9
:105320002FB879714AD04ECE06D622D426D2AA8979
:105330002E899304190003C4F4FF3A8536C632C49B
:105340002EC23AC0EF10103622951C31024792450A
:10535000A18B2246B246D1E39307D0026311F40831
:105360009C20054393042900E5C641476390E6026B
:1053700013070003639CE7009C201307800593F745
:10538000F70D6392E70C9C30C1468904B708008092
:105390006314030093C8F8FF33FFD80201480145A6
:1053A000A54FE54EFD5233DED802138707FD63E3B8
:1053B000EF04BA8763DED704630D58007D58636A33
:1053C000AE006314AE006346FF0005483385A602B5
:1053D0003E95850483C7F4FFC9BF268999BF93070B
:1053E000B0026305F400A2870143BDBF9C20930473
:1053F0002900DDBF1387F7FB63E5EE00938797FC79
:1054000055BF1387F7F963E5EE00938797FA5DB709
:10541000FD57631FF8009307200223A0F90046857B
:1054200019EEB250225492540259F24945618280D9
:10543000630403003305A0406DD663040800938520
:10544000F4FF0CC2F9BF93070003A9F2A1463DBFC8
:1054500013070003E382E7F2A9460DBF9387C180DB
:105460009C43985309E717B7FF1F1307A7C16FF0B5
:105470005FEB9387C1809C43B286985309E717B7C7
:10548000FF1F130727C02E86AA853E856FF07FE990
:10549000011122CC26CA4AC806CE4EC6AA842E893D
:1054A000328409C51C4D99E3EF10C01497570000D2
:1054B0009387C75D6319F406C0401C4C1CC45E246E
:1054C000A18BD1C31C48C1C31C4808409379F90F74
:1054D0001379F90F1D8D5C486347F500A285268579
:1054E000EF00707F2DE51C440505FD171CC41C4012
:1054F0001387170018C0238037015C486388A70012
:105500005E24858B89CBA9476317F900A285268580
:10551000EF00707C0DEDF24062444A85D24442496E
:10552000B24905618280975700009387275863141A
:10553000F400804459B79757000093872753E31E20
:10554000F4F6C0449DBFA2852685212035DD7D5916
:10555000D9B741119387C18026C2844322C44AC06F
:1055600006C62A892E8491C49C4C81E72685EF10BB
:1055700060089757000093876751631BF402C0408F
:105580000317C40093170701C18393F68700B5EA98
:1055900093F6070195EEA5472320F900136707044A
:1055A0005AA47D55B240224492440249410182806E
:1055B000975700009387874F6314F4008044C9B75E
:1055C000975700009387874AE31CF4FAC0444DBF05
:1055D000918B85C74C5891C9930744046385F500A6
:1055E0004A85EFD01FE4232A04025E24232204000C
:1055F00093F7B7FD5EA41C481CC05E2493E78700A8
:105600005EA41C4881EF5E241307002093F707284F
:105610006386E700A2854A85EF1090105E2413F799
:1056200017001DC35C4823240400B307F0401CCCC2
:105630001C480145A5FB8317C40013F707083DD399
:1056400093E707045EA4B1BF898B014791E35848F3
:1056500018C4F9BF011122CC1C49804906CE26CAC4
:105660004AC84EC652C456C263C187127D1413186D
:10567000240093894501338A0901130945014A9899
:1056800083270A00032708008507B354F7026366DF
:10569000F706C1684E834A8E814E014FFD181103F3
:1056A0000326C3FF110E3377160141823307970299
:1056B00033069602769793560701B3771701B3071F
:1056C000FF4036968326CEFF935E060133761601A1
:1056D00033F71601BA97C18213D70741918EBA9654
:1056E00013DF0641B3F71701C206D58F232EFEFE46
:1056F000E3776AFA83270800BDCBAA8AEF10F06A25
:105700006349050441668504CA8501457D169109F2
:1057100003A8C9FF98419105B376C800158DB376EB
:10572000C700AA96935707011358080113D70641DB
:10573000B3870741BA9713D50741F18EC207D58FBA
:1057400023AEF5FEE3753AFD93172400CA979843FC
:105750001DC72685F2406244D2444249B249224ADA
:10576000924A056182808327080089E77D147118B9
:10577000E36B09FF00C951B7984309E77D14F1179E
:10578000E36CF9FE23A88A00E9B70145E1B775711A
:105790003ED85C5122C526C34AC1CEDED2DCE2D45B
:1057A00006C7D6DADAD8DED6E6D2EAD0EECE36C2F0
:1057B0003AC646CAAA842E843289C2892E8A328C7D
:1057C00089EF4145EFD09FB9C8D02322050023249B
:1057D00005002320050023260500DC508C4389CDDD
:1057E000D84385472685B397E7009CC5D8C1EF10FD
:1057F000100ADC5023A00700635309048547131CDB
:10580000190023A0F900135C1C00B707F07F337761
:10581000FC006314F70642578967320C9387F770D0
:10582000135CCC001CC3336C8C00E3000C32D247F9
:1058300091EB97570000938727233EC039A823A0F8
:105840000900E1B797570000938707223EC097579A
:1058500000009387972152471CC3BA402A4402454F
:105860009A440A49F659665AD65A465BB65B265C94
:10587000965C065DF64D496182800146814622852F
:10588000E28522CE62D4EF30007005E142578547B1
:105890001CC3975700009387670A3EC0D247D5DFE5
:1058A00097570000938797097DB7B800F400628688
:1058B000A285268513594C01EF1010711379F97FD9
:1058C000AA89A64A630D0910A2577245130919C087
:1058D0009395C700B181B707F03FDD8D02DC975784
:1058E0000000938727149043D443EF3050479757D5
:1058F00000009387A7139043D443EF30C07A9757A3
:105900000000938727139043D443EF2090192A8BEC
:105910004A85AE8BEF408048975700009387071267
:105920009043D443EF3020782A86AE865A85DE85B0
:10593000EF2030172A8BAE8BEF40003A2A840146C5
:1059400081465A85DE85EF30A06A635B05002285BB
:10595000EF40C0445A86DE86EF30E06211C17D140C
:105960000547D9473AD663E38702131734009757A0
:10597000000093872719BA979043D4437245A255E4
:10598000EF300067635305007D1402D633892A4146
:10599000930BF9FF014B63D60B00054B330B2B41E7
:1059A000814B634E0406A29B22CC814A1247A54735
:1059B00063E5E7149547854C63D6E7009307C7FF77
:1059C0003EC2814C12478D47630EF71063CFE70448
:1059D000894702C8630DF70685473EC88DA0364942
:1059E0009307000256991307294363D5E70213056D
:1059F0000004198D930729413315AC003354F4008A
:105A0000418DEF40C040B70710FEBE9585477D1918
:105A10003EDCF1B53385E7403315A400DDB7330B29
:105A20008B40B30A804002CC51B712479147630EB6
:105A3000F70005473AC8124795476306F70AFD572E
:105A40003EC4FD5DC94702C619A885473EC8B24796
:105A50006348F00A854705473EC4854D3AC603A909
:105A60004402114723220900930647018325490078
:105A700063FCD7082685EF10C058DC502320A9000E
:105A80009C433EC0B94763E6B71D63840C1C635E4C
:105A9000800A9377F40013973700935C444097573C
:105AA000000093872706BA9793F60C01984309499B
:105AB000DC4385C697560000938646029052724595
:105AC000D452A2553AD03ED2EF20B070025792572E
:105AD00093FCFC002A8A2E8C0D49175D0000130DE3
